{"abi":[{"type":"constructor","inputs":[{"name":"_flow","type":"address","internalType":"address"},{"name":"_votingEscrow","type":"address","internalType":"address"},{"name":"_team","type":"address","internalType":"address"},{"name":"_minLockTime","type":"uint256","internalType":"uint256"}],"stateMutability":"nonpayable"},{"type":"function","name":"FLOW","inputs":[],"outputs":[{"name":"","type":"address","internalType":"address"}],"stateMutability":"view"},{"type":"function","name":"inCaseTokensGetStuck","inputs":[{"name":"_token","type":"address","internalType":"address"},{"name":"_to","type":"address","internalType":"address"},{"name":"_amount","type":"uint256","internalType":"uint256"}],"outputs":[],"stateMutability":"nonpayable"},{"type":"function","name":"minLockTime","inputs":[],"outputs":[{"name":"","type":"uint256","internalType":"uint256"}],"stateMutability":"view"},{"type":"function","name":"mintFor","inputs":[{"name":"_value","type":"uint256","internalType":"uint256"},{"name":"_lock_duration","type":"uint256","internalType":"uint256"},{"name":"_to","type":"address","internalType":"address"}],"outputs":[],"stateMutability":"nonpayable"},{"type":"function","name":"owner","inputs":[],"outputs":[{"name":"","type":"address","internalType":"address"}],"stateMutability":"view"},{"type":"function","name":"renounceOwnership","inputs":[],"outputs":[],"stateMutability":"nonpayable"},{"type":"function","name":"transferOwnership","inputs":[{"name":"newOwner","type":"address","internalType":"address"}],"outputs":[],"stateMutability":"nonpayable"},{"type":"function","name":"votingEscrow","inputs":[],"outputs":[{"name":"","type":"address","internalType":"address"}],"stateMutability":"view"},{"type":"event","name":"OwnershipTransferred","inputs":[{"name":"previousOwner","type":"address","indexed":true,"internalType":"address"},{"name":"newOwner","type":"address","indexed":true,"internalType":"address"}],"anonymous":false}],"bytecode":{"object":"0x60e060405234801561001057600080fd5b50604051610ac1380380610ac183398101604081905261002f916100ce565b61003833610062565b6001600160a01b03808516608052831660a05260c081905261005982610062565b50505050610119565b600080546001600160a01b038381166001600160a01b0319831681178455604051919092169283917f8be0079c531659141344cd1fd0a4f28419497f9722a3daafe3b4186f6b6457e09190a35050565b80516001600160a01b03811681146100c957600080fd5b919050565b600080600080608085870312156100e457600080fd5b6100ed856100b2565b93506100fb602086016100b2565b9250610109604086016100b2565b6060959095015193969295505050565b60805160a05160c0516109586101696000396000818161012b015261019f01526000818160d60152818161021d01526102e701526000818160920152818161024c01526103dd01526109586000f3fe608060405234801561001057600080fd5b50600436106100885760003560e01c80638da5cb5b1161005b5780638da5cb5b14610115578063a60ff76614610126578063f2fde38b1461015b578063f587268a1461016e57600080fd5b80633189097b1461008d5780634f2bfe5b146100d1578063715018a6146100f857806382a09b3014610102575b600080fd5b6100b47f000000000000000000000000000000000000000000000000000000000000000081565b6040516001600160a01b0390911681526020015b60405180910390f35b6100b47f000000000000000000000000000000000000000000000000000000000000000081565b610100610181565b005b6101006101103660046107d9565b610195565b6000546001600160a01b03166100b4565b61014d7f000000000000000000000000000000000000000000000000000000000000000081565b6040519081526020016100c8565b61010061016936600461080e565b61035a565b61010061017c366004610830565b6103d3565b610189610476565b61019360006104d0565b565b61019d610476565b7f00000000000000000000000000000000000000000000000000000000000000008210156102065760405162461bcd60e51b8152602060048201526011602482015270436865636b206d696e4c6f636b54696d6560781b60448201526064015b60405180910390fd5b60405163095ea7b360e01b81526001600160a01b037f000000000000000000000000000000000000000000000000000000000000000081166004830152602482018590527f0000000000000000000000000000000000000000000000000000000000000000169063095ea7b3906044016020604051808303816000875af1158015610295573d6000803e3d6000fd5b505050506040513d601f19601f820116820180604052508101906102b9919061086c565b5060405163d4e54c3b60e01b815260048101849052602481018390526001600160a01b0382811660448301527f0000000000000000000000000000000000000000000000000000000000000000169063d4e54c3b906064016020604051808303816000875af1158015610330573d6000803e3d6000fd5b505050506040513d601f19601f82011682018060405250810190610354919061088e565b50505050565b610362610476565b6001600160a01b0381166103c75760405162461bcd60e51b815260206004820152602660248201527f4f776e61626c653a206e6577206f776e657220697320746865207a65726f206160448201526564647265737360d01b60648201526084016101fd565b6103d0816104d0565b50565b6103db610476565b7f00000000000000000000000000000000000000000000000000000000000000006001600160a01b0316836001600160a01b0316036104665760405162461bcd60e51b815260206004820152602160248201527f464c4f57206d757374206265206d696e74656420746f20676574206974206f756044820152601d60fa1b60648201526084016101fd565b610471838383610520565b505050565b6000546001600160a01b031633146101935760405162461bcd60e51b815260206004820181905260248201527f4f776e61626c653a2063616c6c6572206973206e6f7420746865206f776e657260448201526064016101fd565b600080546001600160a01b038381166001600160a01b0319831681178455604051919092169283917f8be0079c531659141344cd1fd0a4f28419497f9722a3daafe3b4186f6b6457e09190a35050565b604080516001600160a01b03848116602483015260448083018590528351808403909101815260649092018352602080830180516001600160e01b031663a9059cbb60e01b17905283518085019094528084527f5361666545524332303a206c6f772d6c6576656c2063616c6c206661696c656490840152610471928692916000916105b091851690849061062d565b80519091501561047157808060200190518101906105ce919061086c565b6104715760405162461bcd60e51b815260206004820152602a60248201527f5361666545524332303a204552433230206f7065726174696f6e20646964206e6044820152691bdd081cdd58d8d9595960b21b60648201526084016101fd565b606061063c8484600085610644565b949350505050565b6060824710156106a55760405162461bcd60e51b815260206004820152602660248201527f416464726573733a20696e73756666696369656e742062616c616e636520666f6044820152651c8818d85b1b60d21b60648201526084016101fd565b600080866001600160a01b031685876040516106c191906108d3565b60006040518083038185875af1925050503d80600081146106fe576040519150601f19603f3d011682016040523d82523d6000602084013e610703565b606091505b50915091506107148783838761071f565b979650505050505050565b6060831561078e578251600003610787576001600160a01b0385163b6107875760405162461bcd60e51b815260206004820152601d60248201527f416464726573733a2063616c6c20746f206e6f6e2d636f6e747261637400000060448201526064016101fd565b508161063c565b61063c83838151156107a35781518083602001fd5b8060405162461bcd60e51b81526004016101fd91906108ef565b80356001600160a01b03811681146107d457600080fd5b919050565b6000806000606084860312156107ee57600080fd5b8335925060208401359150610805604085016107bd565b90509250925092565b60006020828403121561082057600080fd5b610829826107bd565b9392505050565b60008060006060848603121561084557600080fd5b61084e846107bd565b925061085c602085016107bd565b9150604084013590509250925092565b60006020828403121561087e57600080fd5b8151801515811461082957600080fd5b6000602082840312156108a057600080fd5b5051919050565b60005b838110156108c25781810151838201526020016108aa565b838111156103545750506000910152565b600082516108e58184602087016108a7565b9190910192915050565b602081526000825180602084015261090e8160408501602087016108a7565b601f01601f1916919091016040019291505056fea26469706673582212209c07a70d26a7b590757d0218e4b07879e3ee933c6203d018ec52e691209a3cbe64736f6c634300080d0033","linkReferences":{}},"methodIdentifiers":{"FLOW()":"3189097b","inCaseTokensGetStuck(address,address,uint256)":"f587268a","minLockTime()":"a60ff766","mintFor(uint256,uint256,address)":"82a09b30","owner()":"8da5cb5b","renounceOwnership()":"715018a6","transferOwnership(address)":"f2fde38b","votingEscrow()":"4f2bfe5b"},"id":11}