{"abi":[{"type":"constructor","inputs":[{"name":"_name","type":"string","internalType":"string"},{"name":"_symbol","type":"string","internalType":"string"},{"name":"_admin","type":"address","internalType":"address"},{"name":"_underlyingToken","type":"address","internalType":"address"},{"name":"_treasury","type":"address","internalType":"address"},{"name":"_voter","type":"address","internalType":"address"},{"name":"_router","type":"address","internalType":"address"},{"name":"_isExerciseLpPaused","type":"bool","internalType":"bool"},{"name":"_isExerciseVePaused","type":"bool","internalType":"bool"},{"name":"_isExercisePaused","type":"bool","internalType":"bool"},{"name":"_expiryCooldownTime","type":"uint256","internalType":"uint256"}],"stateMutability":"nonpayable"},{"type":"function","name":"ADMIN_ROLE","inputs":[],"outputs":[{"name":"","type":"bytes32","internalType":"bytes32"}],"stateMutability":"view"},{"type":"function","name":"DEFAULT_ADMIN_ROLE","inputs":[],"outputs":[{"name":"","type":"bytes32","internalType":"bytes32"}],"stateMutability":"view"},{"type":"function","name":"DOMAIN_SEPARATOR","inputs":[],"outputs":[{"name":"","type":"bytes32","internalType":"bytes32"}],"stateMutability":"view"},{"type":"function","name":"FULL_LOCK","inputs":[],"outputs":[{"name":"","type":"uint256","internalType":"uint256"}],"stateMutability":"view"},{"type":"function","name":"MAX_DISCOUNT","inputs":[],"outputs":[{"name":"","type":"uint256","internalType":"uint256"}],"stateMutability":"view"},{"type":"function","name":"MAX_FEES","inputs":[],"outputs":[{"name":"","type":"uint256","internalType":"uint256"}],"stateMutability":"view"},{"type":"function","name":"MAX_TWAP_POINTS","inputs":[],"outputs":[{"name":"","type":"uint256","internalType":"uint256"}],"stateMutability":"view"},{"type":"function","name":"MINTER_ROLE","inputs":[],"outputs":[{"name":"","type":"bytes32","internalType":"bytes32"}],"stateMutability":"view"},{"type":"function","name":"MIN_DISCOUNT","inputs":[],"outputs":[{"name":"","type":"uint256","internalType":"uint256"}],"stateMutability":"view"},{"type":"function","name":"PAUSER_ROLE","inputs":[],"outputs":[{"name":"","type":"bytes32","internalType":"bytes32"}],"stateMutability":"view"},{"type":"function","name":"addTreasury","inputs":[{"name":"_treasury","type":"tuple","internalType":"struct OptionTokenV4.TreasuryConfig","components":[{"name":"treasury","type":"address","internalType":"address"},{"name":"fee","type":"uint256","internalType":"uint256"},{"name":"notify","type":"bool","internalType":"bool"}]}],"outputs":[],"stateMutability":"nonpayable"},{"type":"function","name":"allowance","inputs":[{"name":"","type":"address","internalType":"address"},{"name":"","type":"address","internalType":"address"}],"outputs":[{"name":"","type":"uint256","internalType":"uint256"}],"stateMutability":"view"},{"type":"function","name":"approve","inputs":[{"name":"spender","type":"address","internalType":"address"},{"name":"amount","type":"uint256","internalType":"uint256"}],"outputs":[{"name":"","type":"bool","internalType":"bool"}],"stateMutability":"nonpayable"},{"type":"function","name":"balanceOf","inputs":[{"name":"","type":"address","internalType":"address"}],"outputs":[{"name":"","type":"uint256","internalType":"uint256"}],"stateMutability":"view"},{"type":"function","name":"burn","inputs":[{"name":"_amount","type":"uint256","internalType":"uint256"}],"outputs":[],"stateMutability":"nonpayable"},{"type":"function","name":"decimals","inputs":[],"outputs":[{"name":"","type":"uint8","internalType":"uint8"}],"stateMutability":"view"},{"type":"function","name":"discount","inputs":[],"outputs":[{"name":"","type":"uint256","internalType":"uint256"}],"stateMutability":"view"},{"type":"function","name":"exercise","inputs":[{"name":"_amount","type":"uint256","internalType":"uint256"},{"name":"_maxPaymentAmount","type":"uint256","internalType":"uint256"},{"name":"_recipient","type":"address","internalType":"address"},{"name":"_deadline","type":"uint256","internalType":"uint256"}],"outputs":[{"name":"","type":"uint256","internalType":"uint256"}],"stateMutability":"nonpayable"},{"type":"function","name":"exercise","inputs":[{"name":"_amount","type":"uint256","internalType":"uint256"},{"name":"_maxPaymentAmount","type":"uint256","internalType":"uint256"},{"name":"_recipient","type":"address","internalType":"address"}],"outputs":[{"name":"","type":"uint256","internalType":"uint256"}],"stateMutability":"nonpayable"},{"type":"function","name":"exerciseLp","inputs":[{"name":"_amount","type":"uint256","internalType":"uint256"},{"name":"_maxPaymentAmount","type":"uint256","internalType":"uint256"},{"name":"_recipient","type":"address","internalType":"address"},{"name":"_discount","type":"uint256","internalType":"uint256"},{"name":"_deadline","type":"uint256","internalType":"uint256"}],"outputs":[{"name":"","type":"uint256","internalType":"uint256"},{"name":"","type":"uint256","internalType":"uint256"}],"stateMutability":"nonpayable"},{"type":"function","name":"exerciseVe","inputs":[{"name":"_amount","type":"uint256","internalType":"uint256"},{"name":"_maxPaymentAmount","type":"uint256","internalType":"uint256"},{"name":"_recipient","type":"address","internalType":"address"},{"name":"_discount","type":"uint256","internalType":"uint256"},{"name":"_deadline","type":"uint256","internalType":"uint256"}],"outputs":[{"name":"","type":"uint256","internalType":"uint256"},{"name":"","type":"uint256","internalType":"uint256"},{"name":"","type":"uint256","internalType":"uint256"}],"stateMutability":"nonpayable"},{"type":"function","name":"expire","inputs":[],"outputs":[],"stateMutability":"nonpayable"},{"type":"function","name":"expiryCooldownTime","inputs":[],"outputs":[{"name":"","type":"uint256","internalType":"uint256"}],"stateMutability":"view"},{"type":"function","name":"expiryTime","inputs":[],"outputs":[{"name":"","type":"uint256","internalType":"uint256"}],"stateMutability":"view"},{"type":"function","name":"gauge","inputs":[],"outputs":[{"name":"","type":"address","internalType":"address"}],"stateMutability":"view"},{"type":"function","name":"getDiscountedPrice","inputs":[{"name":"_amount","type":"uint256","internalType":"uint256"}],"outputs":[{"name":"","type":"uint256","internalType":"uint256"}],"stateMutability":"view"},{"type":"function","name":"getLockDurationForLpDiscount","inputs":[{"name":"_discount","type":"uint256","internalType":"uint256"}],"outputs":[{"name":"duration","type":"uint256","internalType":"uint256"}],"stateMutability":"view"},{"type":"function","name":"getLpDiscountedPrice","inputs":[{"name":"_amount","type":"uint256","internalType":"uint256"},{"name":"_discount","type":"uint256","internalType":"uint256"}],"outputs":[{"name":"","type":"uint256","internalType":"uint256"}],"stateMutability":"view"},{"type":"function","name":"getPaymentTokenAmountForExerciseLp","inputs":[{"name":"_amount","type":"uint256","internalType":"uint256"},{"name":"_discount","type":"uint256","internalType":"uint256"}],"outputs":[{"name":"paymentAmount","type":"uint256","internalType":"uint256"},{"name":"paymentAmountToAddLiquidity","type":"uint256","internalType":"uint256"}],"stateMutability":"view"},{"type":"function","name":"getRoleAdmin","inputs":[{"name":"role","type":"bytes32","internalType":"bytes32"}],"outputs":[{"name":"","type":"bytes32","internalType":"bytes32"}],"stateMutability":"view"},{"type":"function","name":"getSlopeInterceptForLpDiscount","inputs":[],"outputs":[{"name":"slope","type":"int256","internalType":"int256"},{"name":"intercept","type":"int256","internalType":"int256"}],"stateMutability":"view"},{"type":"function","name":"getTimeWeightedAveragePrice","inputs":[{"name":"_amount","type":"uint256","internalType":"uint256"}],"outputs":[{"name":"","type":"uint256","internalType":"uint256"}],"stateMutability":"view"},{"type":"function","name":"grantRole","inputs":[{"name":"role","type":"bytes32","internalType":"bytes32"},{"name":"account","type":"address","internalType":"address"}],"outputs":[],"stateMutability":"nonpayable"},{"type":"function","name":"hasRole","inputs":[{"name":"role","type":"bytes32","internalType":"bytes32"},{"name":"account","type":"address","internalType":"address"}],"outputs":[{"name":"","type":"bool","internalType":"bool"}],"stateMutability":"view"},{"type":"function","name":"isExerciseLpPaused","inputs":[],"outputs":[{"name":"","type":"bool","internalType":"bool"}],"stateMutability":"view"},{"type":"function","name":"isExercisePaused","inputs":[],"outputs":[{"name":"","type":"bool","internalType":"bool"}],"stateMutability":"view"},{"type":"function","name":"isExerciseVePaused","inputs":[],"outputs":[{"name":"","type":"bool","internalType":"bool"}],"stateMutability":"view"},{"type":"function","name":"isPaused","inputs":[],"outputs":[{"name":"","type":"bool","internalType":"bool"}],"stateMutability":"view"},{"type":"function","name":"lockDurationForMaxLpDiscount","inputs":[],"outputs":[{"name":"","type":"uint256","internalType":"uint256"}],"stateMutability":"view"},{"type":"function","name":"lockDurationForMinLpDiscount","inputs":[],"outputs":[{"name":"","type":"uint256","internalType":"uint256"}],"stateMutability":"view"},{"type":"function","name":"maxLPDiscount","inputs":[],"outputs":[{"name":"","type":"uint256","internalType":"uint256"}],"stateMutability":"view"},{"type":"function","name":"minLPDiscount","inputs":[],"outputs":[{"name":"","type":"uint256","internalType":"uint256"}],"stateMutability":"view"},{"type":"function","name":"mint","inputs":[{"name":"_to","type":"address","internalType":"address"},{"name":"_amount","type":"uint256","internalType":"uint256"}],"outputs":[],"stateMutability":"nonpayable"},{"type":"function","name":"name","inputs":[],"outputs":[{"name":"","type":"string","internalType":"string"}],"stateMutability":"view"},{"type":"function","name":"nonces","inputs":[{"name":"","type":"address","internalType":"address"}],"outputs":[{"name":"","type":"uint256","internalType":"uint256"}],"stateMutability":"view"},{"type":"function","name":"pair","inputs":[],"outputs":[{"name":"","type":"address","internalType":"contract IPair"}],"stateMutability":"view"},{"type":"function","name":"pause","inputs":[],"outputs":[],"stateMutability":"nonpayable"},{"type":"function","name":"paymentToken","inputs":[],"outputs":[{"name":"","type":"address","internalType":"address"}],"stateMutability":"view"},{"type":"function","name":"permit","inputs":[{"name":"owner","type":"address","internalType":"address"},{"name":"spender","type":"address","internalType":"address"},{"name":"value","type":"uint256","internalType":"uint256"},{"name":"deadline","type":"uint256","internalType":"uint256"},{"name":"v","type":"uint8","internalType":"uint8"},{"name":"r","type":"bytes32","internalType":"bytes32"},{"name":"s","type":"bytes32","internalType":"bytes32"}],"outputs":[],"stateMutability":"nonpayable"},{"type":"function","name":"removeTreasury","inputs":[{"name":"_pos","type":"uint256","internalType":"uint256"}],"outputs":[],"stateMutability":"nonpayable"},{"type":"function","name":"renounceRole","inputs":[{"name":"role","type":"bytes32","internalType":"bytes32"},{"name":"account","type":"address","internalType":"address"}],"outputs":[],"stateMutability":"nonpayable"},{"type":"function","name":"replaceTreasury","inputs":[{"name":"_treasury","type":"tuple","internalType":"struct OptionTokenV4.TreasuryConfig","components":[{"name":"treasury","type":"address","internalType":"address"},{"name":"fee","type":"uint256","internalType":"uint256"},{"name":"notify","type":"bool","internalType":"bool"}]},{"name":"_pos","type":"uint256","internalType":"uint256"}],"outputs":[],"stateMutability":"nonpayable"},{"type":"function","name":"revokeRole","inputs":[{"name":"role","type":"bytes32","internalType":"bytes32"},{"name":"account","type":"address","internalType":"address"}],"outputs":[],"stateMutability":"nonpayable"},{"type":"function","name":"rewardsAddress","inputs":[],"outputs":[{"name":"","type":"address","internalType":"address"}],"stateMutability":"view"},{"type":"function","name":"router","inputs":[],"outputs":[{"name":"","type":"address","internalType":"address"}],"stateMutability":"view"},{"type":"function","name":"setDiscount","inputs":[{"name":"_discount","type":"uint256","internalType":"uint256"}],"outputs":[],"stateMutability":"nonpayable"},{"type":"function","name":"setGauge","inputs":[{"name":"_gauge","type":"address","internalType":"address"}],"outputs":[],"stateMutability":"nonpayable"},{"type":"function","name":"setLockDurationForMaxLpDiscount","inputs":[{"name":"_duration","type":"uint256","internalType":"uint256"}],"outputs":[],"stateMutability":"nonpayable"},{"type":"function","name":"setLockDurationForMinLpDiscount","inputs":[{"name":"_duration","type":"uint256","internalType":"uint256"}],"outputs":[],"stateMutability":"nonpayable"},{"type":"function","name":"setMaxLPDiscount","inputs":[{"name":"_lpMaxDiscount","type":"uint256","internalType":"uint256"}],"outputs":[],"stateMutability":"nonpayable"},{"type":"function","name":"setMinLPDiscount","inputs":[{"name":"_lpMinDiscount","type":"uint256","internalType":"uint256"}],"outputs":[],"stateMutability":"nonpayable"},{"type":"function","name":"setPairAndPaymentToken","inputs":[{"name":"_pair","type":"address","internalType":"contract IPair"},{"name":"_paymentToken","type":"address","internalType":"address"}],"outputs":[],"stateMutability":"nonpayable"},{"type":"function","name":"setRewardsAddress","inputs":[{"name":"_rewardsAddress","type":"address","internalType":"address"}],"outputs":[],"stateMutability":"nonpayable"},{"type":"function","name":"setRouter","inputs":[{"name":"_router","type":"address","internalType":"address"}],"outputs":[],"stateMutability":"nonpayable"},{"type":"function","name":"setTwapPoints","inputs":[{"name":"_twapPoints","type":"uint256","internalType":"uint256"}],"outputs":[],"stateMutability":"nonpayable"},{"type":"function","name":"startExpire","inputs":[],"outputs":[],"stateMutability":"nonpayable"},{"type":"function","name":"supportsInterface","inputs":[{"name":"interfaceId","type":"bytes4","internalType":"bytes4"}],"outputs":[{"name":"","type":"bool","internalType":"bool"}],"stateMutability":"view"},{"type":"function","name":"symbol","inputs":[],"outputs":[{"name":"","type":"string","internalType":"string"}],"stateMutability":"view"},{"type":"function","name":"totalSupply","inputs":[],"outputs":[{"name":"","type":"uint256","internalType":"uint256"}],"stateMutability":"view"},{"type":"function","name":"transfer","inputs":[{"name":"to","type":"address","internalType":"address"},{"name":"amount","type":"uint256","internalType":"uint256"}],"outputs":[{"name":"","type":"bool","internalType":"bool"}],"stateMutability":"nonpayable"},{"type":"function","name":"transferFrom","inputs":[{"name":"from","type":"address","internalType":"address"},{"name":"to","type":"address","internalType":"address"},{"name":"amount","type":"uint256","internalType":"uint256"}],"outputs":[{"name":"","type":"bool","internalType":"bool"}],"stateMutability":"nonpayable"},{"type":"function","name":"treasurys","inputs":[{"name":"","type":"uint256","internalType":"uint256"}],"outputs":[{"name":"treasury","type":"address","internalType":"address"},{"name":"fee","type":"uint256","internalType":"uint256"},{"name":"notify","type":"bool","internalType":"bool"}],"stateMutability":"view"},{"type":"function","name":"twapPoints","inputs":[],"outputs":[{"name":"","type":"uint256","internalType":"uint256"}],"stateMutability":"view"},{"type":"function","name":"unPause","inputs":[],"outputs":[],"stateMutability":"nonpayable"},{"type":"function","name":"underlyingToken","inputs":[],"outputs":[{"name":"","type":"address","internalType":"address"}],"stateMutability":"view"},{"type":"function","name":"updateGauge","inputs":[],"outputs":[],"stateMutability":"nonpayable"},{"type":"function","name":"voter","inputs":[],"outputs":[{"name":"","type":"address","internalType":"address"}],"stateMutability":"view"},{"type":"function","name":"votingEscrow","inputs":[],"outputs":[{"name":"","type":"address","internalType":"address"}],"stateMutability":"view"},{"type":"event","name":"AddTreasury","inputs":[{"name":"newTreasury","type":"address","indexed":true,"internalType":"address"},{"name":"fee","type":"uint256","indexed":false,"internalType":"uint256"},{"name":"notify","type":"bool","indexed":false,"internalType":"bool"}],"anonymous":false},{"type":"event","name":"Approval","inputs":[{"name":"owner","type":"address","indexed":true,"internalType":"address"},{"name":"spender","type":"address","indexed":true,"internalType":"address"},{"name":"amount","type":"uint256","indexed":false,"internalType":"uint256"}],"anonymous":false},{"type":"event","name":"Exercise","inputs":[{"name":"sender","type":"address","indexed":true,"internalType":"address"},{"name":"recipient","type":"address","indexed":true,"internalType":"address"},{"name":"amount","type":"uint256","indexed":false,"internalType":"uint256"},{"name":"paymentAmount","type":"uint256","indexed":false,"internalType":"uint256"}],"anonymous":false},{"type":"event","name":"ExerciseLp","inputs":[{"name":"sender","type":"address","indexed":true,"internalType":"address"},{"name":"recipient","type":"address","indexed":true,"internalType":"address"},{"name":"amount","type":"uint256","indexed":false,"internalType":"uint256"},{"name":"paymentAmount","type":"uint256","indexed":false,"internalType":"uint256"},{"name":"lpAmount","type":"uint256","indexed":false,"internalType":"uint256"}],"anonymous":false},{"type":"event","name":"ExerciseVe","inputs":[{"name":"sender","type":"address","indexed":true,"internalType":"address"},{"name":"recipient","type":"address","indexed":true,"internalType":"address"},{"name":"amount","type":"uint256","indexed":false,"internalType":"uint256"},{"name":"paymentAmount","type":"uint256","indexed":false,"internalType":"uint256"},{"name":"nftId","type":"uint256","indexed":false,"internalType":"uint256"}],"anonymous":false},{"type":"event","name":"PauseStateChanged","inputs":[{"name":"isPaused","type":"bool","indexed":false,"internalType":"bool"}],"anonymous":false},{"type":"event","name":"RoleAdminChanged","inputs":[{"name":"role","type":"bytes32","indexed":true,"internalType":"bytes32"},{"name":"previousAdminRole","type":"bytes32","indexed":true,"internalType":"bytes32"},{"name":"newAdminRole","type":"bytes32","indexed":true,"internalType":"bytes32"}],"anonymous":false},{"type":"event","name":"RoleGranted","inputs":[{"name":"role","type":"bytes32","indexed":true,"internalType":"bytes32"},{"name":"account","type":"address","indexed":true,"internalType":"address"},{"name":"sender","type":"address","indexed":true,"internalType":"address"}],"anonymous":false},{"type":"event","name":"RoleRevoked","inputs":[{"name":"role","type":"bytes32","indexed":true,"internalType":"bytes32"},{"name":"account","type":"address","indexed":true,"internalType":"address"},{"name":"sender","type":"address","indexed":true,"internalType":"address"}],"anonymous":false},{"type":"event","name":"SetDiscount","inputs":[{"name":"discount","type":"uint256","indexed":false,"internalType":"uint256"}],"anonymous":false},{"type":"event","name":"SetGauge","inputs":[{"name":"newGauge","type":"address","indexed":true,"internalType":"address"}],"anonymous":false},{"type":"event","name":"SetLockDurationForMaxLpDiscount","inputs":[{"name":"lockDurationForMaxLpDiscount","type":"uint256","indexed":false,"internalType":"uint256"}],"anonymous":false},{"type":"event","name":"SetLockDurationForMinLpDiscount","inputs":[{"name":"lockDurationForMinLpDiscount","type":"uint256","indexed":false,"internalType":"uint256"}],"anonymous":false},{"type":"event","name":"SetMaxLPDiscount","inputs":[{"name":"lpMaxDiscount","type":"uint256","indexed":false,"internalType":"uint256"}],"anonymous":false},{"type":"event","name":"SetMinLPDiscount","inputs":[{"name":"lpMinDiscount","type":"uint256","indexed":false,"internalType":"uint256"}],"anonymous":false},{"type":"event","name":"SetPairAndPaymentToken","inputs":[{"name":"newPair","type":"address","indexed":true,"internalType":"contract IPair"},{"name":"newPaymentToken","type":"address","indexed":true,"internalType":"address"}],"anonymous":false},{"type":"event","name":"SetRewardsAddress","inputs":[{"name":"newRewardsAddress","type":"address","indexed":true,"internalType":"address"}],"anonymous":false},{"type":"event","name":"SetRouter","inputs":[{"name":"newRouter","type":"address","indexed":true,"internalType":"address"}],"anonymous":false},{"type":"event","name":"SetTwapPoints","inputs":[{"name":"twapPoints","type":"uint256","indexed":false,"internalType":"uint256"}],"anonymous":false},{"type":"event","name":"SetVeDiscount","inputs":[{"name":"veDiscount","type":"uint256","indexed":false,"internalType":"uint256"}],"anonymous":false},{"type":"event","name":"Transfer","inputs":[{"name":"from","type":"address","indexed":true,"internalType":"address"},{"name":"to","type":"address","indexed":true,"internalType":"address"},{"name":"amount","type":"uint256","indexed":false,"internalType":"uint256"}],"anonymous":false},{"type":"error","name":"OptionToken_IncorrectPairToken","inputs":[]},{"type":"error","name":"OptionToken_InvalidDiscount","inputs":[]},{"type":"error","name":"OptionToken_InvalidFee","inputs":[]},{"type":"error","name":"OptionToken_InvalidLockDuration","inputs":[]},{"type":"error","name":"OptionToken_InvalidTwapPoints","inputs":[]},{"type":"error","name":"OptionToken_NoAdminRole","inputs":[]},{"type":"error","name":"OptionToken_NoMinterRole","inputs":[]},{"type":"error","name":"OptionToken_NoPauserRole","inputs":[]},{"type":"error","name":"OptionToken_PastDeadline","inputs":[]},{"type":"error","name":"OptionToken_Paused","inputs":[]},{"type":"error","name":"OptionToken_SlippageTooHigh","inputs":[]}],"bytecode":{"object":"0x6101c06040526014600c556050600d556063600e556301dfe200600f5562093a8060105560046011553480156200003557600080fd5b5060405162004acc38038062004acc8339810160408190526200005891620006a5565b8a8a601282600090805190602001906200007492919062000504565b5081516200008a90600190602085019062000504565b5060ff81166080524660a052620000a062000378565b60c05250620000c3915060008051602062004aac83398151915290508a62000414565b620000ef7f539440820030c4994db4e31b6b800deafd503688728f932addfe7a410515c14c8a62000414565b6200010a60008051602062004aac83398151915280620004b9565b620001457ff0887ba65ee2024ea881d91b74c2450ef19e1557f03bed3ea9f16b037cbe2dc960008051602062004aac833981519152620004b9565b620001807f539440820030c4994db4e31b6b800deafd503688728f932addfe7a410515c14c60008051602062004aac833981519152620004b9565b6001600160a01b0380891660e052861661012081905260408051638dd598fb60e01b81529051638dd598fb916004808201926020929091908290030181865afa158015620001d2573d6000803e3d6000fd5b505050506040513d601f19601f82011682018060405250810190620001f89190620007b7565b6001600160a01b0390811661010052600880546001600160a01b03199081168884161790915585151561016052841515610180528315156101a052604080516060810182528a84168082526005602080840182815260008587018181526014805460018101825590835296517fce6d7b5282bd9a3661ae061feed1dbda4e52ab073b1f9285be6e155d9c38d4ec60039098029788018054909a169a1699909917909755517fce6d7b5282bd9a3661ae061feed1dbda4e52ab073b1f9285be6e155d9c38d4ed85015595517fce6d7b5282bd9a3661ae061feed1dbda4e52ab073b1f9285be6e155d9c38d4ee909301805460ff1916931515939093179092556101408690528251918252938101929092527f9ae8523a2f3da598191fd7757726fe3d5e63921575c66a5f689dff96702f5104910160405180910390a26040516001600160a01b038616907f6de4326a8b9054d72d9dbab97d27bc4edffadee7d966f5af9cc4eafdaf8e545590600090a25050505050505050505050620008bb565b60007f8b73c3c69bb8fe3d512ecc4cf759cc79239f7b179b0ffacaa9a75d522b39400f6000604051620003ac919062000818565b6040805191829003822060208301939093528101919091527fc89efdaa54c0f20c7adf612882df0950f5a951637e0307cdcb4c672f298b8bc660608201524660808201523060a082015260c00160405160208183030381529060405280519060200120905090565b60008281526006602090815260408083206001600160a01b038516845290915290205460ff16620004b55760008281526006602090815260408083206001600160a01b03851684529091529020805460ff19166001179055620004743390565b6001600160a01b0316816001600160a01b0316837f2f8788117e7eff1d82e926ec794901d17c78024a50270940304540a733656f0d60405160405180910390a45b5050565b600082815260066020526040808220600101805490849055905190918391839186917fbd79b86ffe0ab8e8776151514217cd7cacd52c909f66475c3af44e129f0b00ff9190a4505050565b8280546200051290620007dc565b90600052602060002090601f01602090048101928262000536576000855562000581565b82601f106200055157805160ff191683800117855562000581565b8280016001018555821562000581579182015b828111156200058157825182559160200191906001019062000564565b506200058f92915062000593565b5090565b5b808211156200058f576000815560010162000594565b634e487b7160e01b600052604160045260246000fd5b600082601f830112620005d257600080fd5b81516001600160401b0380821115620005ef57620005ef620005aa565b604051601f8301601f19908116603f011681019082821181831017156200061a576200061a620005aa565b816040528381526020925086838588010111156200063757600080fd5b600091505b838210156200065b57858201830151818301840152908201906200063c565b838211156200066d5760008385830101525b9695505050505050565b80516001600160a01b03811681146200068f57600080fd5b919050565b805180151581146200068f57600080fd5b60008060008060008060008060008060006101608c8e031215620006c857600080fd5b8b516001600160401b03811115620006df57600080fd5b620006ed8e828f01620005c0565b60208e0151909c5090506001600160401b038111156200070c57600080fd5b6200071a8e828f01620005c0565b9a50506200072b60408d0162000677565b98506200073b60608d0162000677565b97506200074b60808d0162000677565b96506200075b60a08d0162000677565b95506200076b60c08d0162000677565b94506200077b60e08d0162000694565b93506200078c6101008d0162000694565b92506200079d6101208d0162000694565b91506101408c015190509295989b509295989b9093969950565b600060208284031215620007ca57600080fd5b620007d58262000677565b9392505050565b600181811c90821680620007f157607f821691505b6020821081036200081257634e487b7160e01b600052602260045260246000fd5b50919050565b600080835481600182811c9150808316806200083557607f831692505b602080841082036200085557634e487b7160e01b86526022600452602486fd5b8180156200086c57600181146200087e57620008ad565b60ff19861689528489019650620008ad565b60008a81526020902060005b86811015620008a55781548b8201529085019083016200088a565b505084890196505b509498975050505050505050565b60805160a05160c05160e05161010051610120516101405161016051610180516101a0516140e2620009ca6000396000818161072e01526129fb0152600081816107710152612b3601526000818161097f0152612ec20152600081816108580152818161223e01526122e40152600081816106750152818161166901526124aa01526000818161069c01528181612d5f0152612d860152600081816105380152818161100c015281816110770152818161157d015281816119d701528181611f36015281816123cb0152818161240701528181612a9601528181612c3001528181612ca201528181612fb7015261302e01526000610ea801526000610e73015260006105b801526140e26000f3fe608060405234801561001057600080fd5b506004361061046a5760003560e01c80638456cb591161024c578063c0d7865511610146578063e3495569116100c3578063f887ea4011610087578063f887ea4014610a9c578063f897bd1d14610aaf578063fa4473b314610ac2578063fa7c41a114610ad5578063fb1d6bd914610add57600080fd5b8063e349556914610a3f578063e63ab1e914610a47578063e8772bb214610a6e578063f595c5ad14610a81578063f7b188a514610a9457600080fd5b8063d53913931161010a578063d5391393146109b4578063d547741f146109db578063d6379b72146109ee578063dabd271914610a01578063dd62ed3e14610a1457600080fd5b8063c0d7865514610954578063c2300bef14610838578063c7d1e39514610967578063ca25c1dc1461097a578063d505accf146109a157600080fd5b80639e66645b116101d4578063a9059cbb11610198578063a9059cbb146108ea578063a9f6ee33146108fd578063b187bd261461092b578063b342757614610938578063c0973eed1461094157600080fd5b80639e66645b1461089e578063a1d50c3a146108b1578063a217fddf14610572578063a6f19c84146108c4578063a8aa1b31146108d757600080fd5b80638906758d1161021b5780638906758d146108405780638f547b411461085357806391d148541461087a57806395d89b411461088d57806399bc0aea1461089557600080fd5b80638456cb591461081457806385dc7ca01461081c578063860ca9bb1461082f578063881326b31461083857600080fd5b806340c10f191161036857806359f85eeb116102e557806375b238fc116102a957806375b238fc146107bc578063787dd9e4146107d157806379599f96146107e457806379c79707146107ec5780637ecebe00146107f457600080fd5b806359f85eeb146107505780635d283021146107635780636167d7151461076c5780636b6f4a9d1461079357806370a082311461079c57600080fd5b806350a566c51161032c57806350a566c5146106be578063511f2adc146106d157806354cb03841461070b57806355a68ed314610716578063584dc4ec1461072957600080fd5b806340c10f191461063757806342966c681461064a57806345e6c5851461065d57806346c96aac146106705780634f2bfe5b1461069757600080fd5b80632495a599116103f6578063313ce567116103ba578063313ce567146105b3578063339ccade146105ec5780633644e515146105ff57806336568abe146106075780633cdfed561461061a57600080fd5b80632495a599146105335780632ac8a92c146105725780632f2ff15d1461057a5780632fc1b0571461058d5780633013ce29146105a057600080fd5b8063095ea7b31161043d578063095ea7b3146104d857806318160ddd146104eb5780631adb040a146104f457806323b872dd146104fd578063248a9ca31461051057600080fd5b806301ffc9a71461046f578063062e5bbe146104975780630694d1f1146104ae57806306fdde03146104c3575b600080fd5b61048261047d36600461371d565b610af0565b60405190151581526020015b60405180910390f35b6104a0600c5481565b60405190815260200161048e565b6104c16104bc366004613747565b610b27565b005b6104cb610bba565b60405161048e919061378c565b6104826104e63660046137d4565b610c48565b6104a060025481565b6104a0600f5481565b61048261050b366004613800565b610cb4565b6104a061051e366004613747565b60009081526006602052604090206001015490565b61055a7f000000000000000000000000000000000000000000000000000000000000000081565b6040516001600160a01b03909116815260200161048e565b6104a0600081565b6104c1610588366004613841565b610d94565b6104c161059b366004613747565b610dbe565b60075461055a906001600160a01b031681565b6105da7f000000000000000000000000000000000000000000000000000000000000000081565b60405160ff909116815260200161048e565b6104a06105fa366004613747565b610e4b565b6104a0610e6f565b6104c1610615366004613841565b610eca565b610622610f4d565b6040805192835260208301919091520161048e565b6104c16106453660046137d4565b610f9d565b6104c1610658366004613747565b61103d565b6104c161066b366004613747565b6110aa565b61055a7f000000000000000000000000000000000000000000000000000000000000000081565b61055a7f000000000000000000000000000000000000000000000000000000000000000081565b6104c16106cc366004613747565b611207565b6106e46106df366004613747565b6112a8565b604080516001600160a01b039094168452602084019290925215159082015260600161048e565b6104a06301dfe20081565b6104c1610724366004613871565b6112e8565b6104827f000000000000000000000000000000000000000000000000000000000000000081565b6104c161075e3660046138a6565b611367565b6104a060115481565b6104827f000000000000000000000000000000000000000000000000000000000000000081565b6104a0600e5481565b6104a06107aa366004613871565b60036020526000908152604090205481565b6104a060008051602061406d83398151915281565b6104a06107df366004613747565b611463565b6104c16114aa565b6104c1611644565b6104a0610802366004613871565b60056020526000908152604090205481565b6104c1611722565b6104c161082a3660046138d1565b6117ba565b6104a0600d5481565b6104a0603281565b6104c161084e366004613871565b6118e8565b6104a07f000000000000000000000000000000000000000000000000000000000000000081565b610482610888366004613841565b611967565b6104cb611992565b6104a060135481565b6106226108ac3660046138ed565b61199f565b6104a06108bf36600461390f565b611a86565b600a5461055a906001600160a01b031681565b60095461055a906001600160a01b031681565b6104826108f83660046137d4565b611abd565b61091061090b36600461394e565b611b23565b6040805193845260208401929092529082015260600161048e565b6012546104829060ff1681565b6104a060105481565b600b5461055a906001600160a01b031681565b6104c1610962366004613871565b611b66565b6104a06109753660046138ed565b611be5565b6104827f000000000000000000000000000000000000000000000000000000000000000081565b6104c16109af366004613997565b611c0e565b6104a07ff0887ba65ee2024ea881d91b74c2450ef19e1557f03bed3ea9f16b037cbe2dc981565b6104c16109e9366004613841565b611e52565b6104a06109fc366004613a0e565b611e77565b6104c1610a0f366004613747565b611e84565b6104a0610a22366004613a47565b600460209081526000928352604080842090915290825290205481565b6104a0606481565b6104a07f539440820030c4994db4e31b6b800deafd503688728f932addfe7a410515c14c81565b6104a0610a7c366004613747565b611f19565b6104c1610a8f366004613747565b612018565b6104c16120b9565b60085461055a906001600160a01b031681565b610622610abd36600461394e565b612134565b6104c1610ad0366004613747565b612172565b6104c1612207565b6104c1610aeb366004613a47565b61230e565b60006001600160e01b03198216637965db0b60e01b1480610b2157506301ffc9a760e01b6001600160e01b03198316145b92915050565b610b3f60008051602061406d83398151915233611967565b610b5c5760405163f982dd0f60e01b815260040160405180910390fd5b6010548111610b7e57604051634dd99fe760e01b815260040160405180910390fd5b600f8190556040518181527f9604eee1326ca00c5073dfa77c88157865a7db1ed7323c9b1e0bc2aa17fa2ea2906020015b60405180910390a150565b60008054610bc790613a75565b80601f0160208091040260200160405190810160405280929190818152602001828054610bf390613a75565b8015610c405780601f10610c1557610100808354040283529160200191610c40565b820191906000526020600020905b815481529060010190602001808311610c2357829003601f168201915b505050505081565b3360008181526004602090815260408083206001600160a01b038716808552925280832085905551919290917f8c5be1e5ebec7d5bd14f71427d1e84f3dd0314c0f7b2291e5b200ac8c7c3b92590610ca39086815260200190565b60405180910390a350600192915050565b6001600160a01b03831660009081526004602090815260408083203384529091528120546000198114610d1057610ceb8382613abf565b6001600160a01b03861660009081526004602090815260408083203384529091529020555b6001600160a01b03851660009081526003602052604081208054859290610d38908490613abf565b90915550506001600160a01b038085166000818152600360205260409081902080548701905551909187169060008051602061408d83398151915290610d819087815260200190565b60405180910390a3506001949350505050565b600082815260066020526040902060010154610daf81612577565b610db98383612581565b505050565b610dd660008051602061406d83398151915233611967565b610df35760405163f982dd0f60e01b815260040160405180910390fd5b600f54811115610e1657604051634dd99fe760e01b815260040160405180910390fd5b60108190556040518181527f5de612882d01106e49434ea40eed209dc8ad1a1f752a3388f45824f19b07abbb90602001610baf565b60006064600e54610e5b84611f19565b610e659190613ad6565b610b219190613b0b565b60007f00000000000000000000000000000000000000000000000000000000000000004614610ea557610ea0612607565b905090565b507f000000000000000000000000000000000000000000000000000000000000000090565b6001600160a01b0381163314610f3f5760405162461bcd60e51b815260206004820152602f60248201527f416363657373436f6e74726f6c3a2063616e206f6e6c792072656e6f756e636560448201526e103937b632b9903337b91039b2b63360891b60648201526084015b60405180910390fd5b610f4982826126a1565b5050565b600080600d54600c54610f609190613b1f565b601054600f54610f709190613abf565b610f7a9190613b5e565b9150600d5482610f8a9190613b8c565b601054610f979190613b1f565b90509091565b610fb560008051602061406d83398151915233611967565b158015610fe95750610fe77ff0887ba65ee2024ea881d91b74c2450ef19e1557f03bed3ea9f16b037cbe2dc933611967565b155b1561100757604051634fcb6d0160e01b815260040160405180910390fd5b6110337f0000000000000000000000000000000000000000000000000000000000000000333084612708565b610f498282612800565b61105560008051602061406d83398151915233611967565b6110725760405163f982dd0f60e01b815260040160405180910390fd5b61109d7f0000000000000000000000000000000000000000000000000000000000000000338361285a565b6110a7338261295a565b50565b6110c260008051602061406d83398151915233611967565b6110df5760405163f982dd0f60e01b815260040160405180910390fd5b60145481106111245760405162461bcd60e51b81526020600482015260116024820152705f706f73206f7574206f662072616e676560781b6044820152606401610f36565b6014805461113490600190613abf565b8154811061114457611144613c11565b90600052602060002090600302016014828154811061116557611165613c11565b60009182526020909120825460039092020180546001600160a01b0319166001600160a01b03909216919091178155600180830154908201556002918201549101805460ff909216151560ff1990921691909117905560148054806111cc576111cc613c27565b60008281526020812060036000199093019283020180546001600160a01b03191681556001810191909155600201805460ff19169055905550565b61121f60008051602061406d83398151915233611967565b61123c5760405163f982dd0f60e01b815260040160405180910390fd5b6064811180611249575060005b80611255575080600c54115b15611273576040516304a5f22d60e41b815260040160405180910390fd5b600d8190556040518181527feccba1be6a56ca0e2c089e59a99f130b3f0bbe23d7bb2d085c278d51b384205890602001610baf565b601481815481106112b857600080fd5b60009182526020909120600390910201805460018201546002909201546001600160a01b03909116925060ff1683565b61130060008051602061406d83398151915233611967565b61131d5760405163f982dd0f60e01b815260040160405180910390fd5b600a80546001600160a01b0319166001600160a01b0383169081179091556040517f17228b08e4c958112a0827a6d8dc8475dba58dd068a3d400800a606794db02a690600090a250565b61137f60008051602061406d83398151915233611967565b61139c5760405163f982dd0f60e01b815260040160405180910390fd5b60006113ab6020840184613871565b6001600160a01b0316036113ea5760405162461bcd60e51b815260206004820152600660248201526506164647220360d41b6044820152606401610f36565b601454811061142f5760405162461bcd60e51b81526020600482015260116024820152705f706f73206f7574206f662072616e676560781b6044820152606401610f36565b816014828154811061144357611443613c11565b9060005260206000209060030201818161145d9190613c4b565b50505050565b6000806000611470610f4d565b915091508360001461149e576114998161148a8685613b8c565b6114949190613ca3565b6129bc565b6114a2565b600f545b949350505050565b6114c260008051602061406d83398151915233611967565b6114df5760405163f982dd0f60e01b815260040160405180910390fd5b6013546000036115265760405162461bcd60e51b8152602060048201526012602482015271195e1c1a5c9e481b9bdd081cdd185c9d195960721b6044820152606401610f36565b42601354106115685760405162461bcd60e51b815260206004820152600e60248201526d6e6f206578706972792074696d6560901b6044820152606401610f36565b6040516370a0823160e01b81523060048201527f00000000000000000000000000000000000000000000000000000000000000006001600160a01b0316906342966c689082906370a0823190602401602060405180830381865afa1580156115d4573d6000803e3d6000fd5b505050506040513d601f19601f820116820180604052508101906115f89190613ce4565b6040518263ffffffff1660e01b815260040161161691815260200190565b600060405180830381600087803b15801561163057600080fd5b505af115801561145d573d6000803e3d6000fd5b60095460405163b9a09fd560e01b81526001600160a01b0391821660048201526000917f0000000000000000000000000000000000000000000000000000000000000000169063b9a09fd590602401602060405180830381865afa1580156116b0573d6000803e3d6000fd5b505050506040513d601f19601f820116820180604052508101906116d49190613cfd565b600a80546001600160a01b0319166001600160a01b038316908117909155604051919250907f17228b08e4c958112a0827a6d8dc8475dba58dd068a3d400800a606794db02a690600090a250565b61174c7f539440820030c4994db4e31b6b800deafd503688728f932addfe7a410515c14c33611967565b611769576040516316390a3f60e31b815260040160405180910390fd5b60125460ff166117b8576012805460ff191660019081179091556040519081527f4543baa938cb97f5073ec206ad35638cdb1f4db8f677d31579b2f6fe7d18c14a906020015b60405180910390a15b565b6117d260008051602061406d83398151915233611967565b6117ef5760405163f982dd0f60e01b815260040160405180910390fd5b60006117fe6020830183613871565b6001600160a01b03160361183d5760405162461bcd60e51b815260206004820152600660248201526506164647220360d41b6044820152606401610f36565b6014805460018101825560009190915281906003027fce6d7b5282bd9a3661ae061feed1dbda4e52ab073b1f9285be6e155d9c38d4ec0161187e8282613c4b565b5061188e90506020820182613871565b6001600160a01b03167f9ae8523a2f3da598191fd7757726fe3d5e63921575c66a5f689dff96702f510460208301356118cd6060850160408601613d1a565b6040805192835290151560208301520160405180910390a250565b61190060008051602061406d83398151915233611967565b61191d5760405163f982dd0f60e01b815260040160405180910390fd5b600b80546001600160a01b0319166001600160a01b0383169081179091556040517fa69f1931be99336e049905baa11d21ed44204d7686e46b4344404d80d47c298890600090a250565b60009182526006602090815260408084206001600160a01b0393909316845291905290205460ff1690565b60018054610bc790613a75565b60008082156119b7576119b28484611be5565b6119ba565b60005b600854600754604051635e60dab560e01b81526001600160a01b037f000000000000000000000000000000000000000000000000000000000000000081166004830152918216602482015260006044820181905293955083929190911690635e60dab5906064016040805180830381865afa158015611a3d573d6000803e3d6000fd5b505050506040513d601f19601f82011682018060405250810190611a619190613d37565b909250905081611a718288613ad6565b611a7b9190613b0b565b925050509250929050565b600081421115611aa957604051632d56313160e11b815260040160405180910390fd5b611ab48585856129d3565b95945050505050565b33600090815260036020526040812080548391908390611ade908490613abf565b90915550506001600160a01b0383166000818152600360205260409081902080548501905551339060008051602061408d83398151915290610ca39086815260200190565b600080600083421115611b4957604051632d56313160e11b815260040160405180910390fd5b611b5588888789612b0a565b925092509250955095509592505050565b611b7e60008051602061406d83398151915233611967565b611b9b5760405163f982dd0f60e01b815260040160405180910390fd5b600880546001600160a01b0319166001600160a01b0383169081179091556040517f6de4326a8b9054d72d9dbab97d27bc4edffadee7d966f5af9cc4eafdaf8e545590600090a250565b6000606482611bf385611f19565b611bfd9190613ad6565b611c079190613b0b565b9392505050565b42841015611c5e5760405162461bcd60e51b815260206004820152601760248201527f5045524d49545f444541444c494e455f455850495245440000000000000000006044820152606401610f36565b60006001611c6a610e6f565b6001600160a01b038a811660008181526005602090815260409182902080546001810190915582517f6e71edae12b1b97f4d1f60370fef10105fa2faae0126114a169c64845d6126c98184015280840194909452938d166060840152608083018c905260a083019390935260c08083018b90528151808403909101815260e08301909152805192019190912061190160f01b6101008301526101028201929092526101228101919091526101420160408051601f198184030181528282528051602091820120600084529083018083525260ff871690820152606081018590526080810184905260a0016020604051602081039080840390855afa158015611d76573d6000803e3d6000fd5b5050604051601f1901519150506001600160a01b03811615801590611dac5750876001600160a01b0316816001600160a01b0316145b611de95760405162461bcd60e51b815260206004820152600e60248201526d24a72b20a624a22fa9a4a3a722a960911b6044820152606401610f36565b6001600160a01b0390811660009081526004602090815260408083208a8516808552908352928190208990555188815291928a16917f8c5be1e5ebec7d5bd14f71427d1e84f3dd0314c0f7b2291e5b200ac8c7c3b925910160405180910390a350505050505050565b600082815260066020526040902060010154611e6d81612577565b610db983836126a1565b60006114a28484846129d3565b611e9c60008051602061406d83398151915233611967565b611eb95760405163f982dd0f60e01b815260040160405180910390fd5b6064811180611ec6575060005b15611ee4576040516304a5f22d60e41b815260040160405180910390fd5b600e8190556040518181527ff247e4dd947ab13ba6c46412e403447a26e67109ba13945a20e3170e9acef88390602001610baf565b600954601154604051635881c47560e01b81526001600160a01b037f00000000000000000000000000000000000000000000000000000000000000008116600483015260248201859052604482019290925260009283921690635881c47590606401600060405180830381865afa158015611f98573d6000803e3d6000fd5b505050506040513d6000823e601f3d908101601f19168201604052611fc09190810190613d71565b80519091506000805b8281101561200a57838181518110611fe357611fe3613c11565b602002602001015182611ff69190613e2f565b91508061200281613e47565b915050611fc9565b50601154611ab49082613b0b565b61203060008051602061406d83398151915233611967565b61204d5760405163f982dd0f60e01b815260040160405180910390fd5b606481118061205a575060005b806120665750600d5481115b15612084576040516304a5f22d60e41b815260040160405180910390fd5b600c8190556040518181527f09734b71a2b91b11a979f46fe8751cc0a22e29af3006d1ba5196a7ace08798b490602001610baf565b6120d160008051602061406d83398151915233611967565b6120ee5760405163f982dd0f60e01b815260040160405180910390fd5b60125460ff16156117b8576012805460ff19169055604051600081527f4543baa938cb97f5073ec206ad35638cdb1f4db8f677d31579b2f6fe7d18c14a906020016117af565b6000808242111561215857604051632d56313160e11b815260040160405180910390fd5b61216487878787612e98565b915091509550959350505050565b61218a60008051602061406d83398151915233611967565b6121a75760405163f982dd0f60e01b815260040160405180910390fd5b60328111806121b4575080155b156121d257604051630ac0408560e01b815260040160405180910390fd5b60118190556040518181527f0ede3419bb2e44475a8c470a557b5e3fa75d2ea0c4a8519c9600579d4091678d90602001610baf565b61221f60008051602061406d83398151915233611967565b61223c5760405163f982dd0f60e01b815260040160405180910390fd5b7f000000000000000000000000000000000000000000000000000000000000000060000361229e5760405162461bcd60e51b815260206004820152600f60248201526e37379032bc3834b93c903a37b5b2b760891b6044820152606401610f36565b601354156122df5760405162461bcd60e51b815260206004820152600e60248201526d195e1c1a5c9e481cdd185c9d195960921b6044820152606401610f36565b6123097f000000000000000000000000000000000000000000000000000000000000000042613e2f565b601355565b61232660008051602061406d83398151915233611967565b6123435760405163f982dd0f60e01b815260040160405180910390fd5b600080836001600160a01b0316639d63848a6040518163ffffffff1660e01b815260040160408051808303816000875af1158015612385573d6000803e3d6000fd5b505050506040513d601f19601f820116820180604052508101906123a99190613e60565b91509150826001600160a01b0316826001600160a01b03161480156123ff57507f00000000000000000000000000000000000000000000000000000000000000006001600160a01b0316816001600160a01b0316145b8061245757507f00000000000000000000000000000000000000000000000000000000000000006001600160a01b0316826001600160a01b03161480156124575750826001600160a01b0316816001600160a01b0316145b6124745760405163a818b0ad60e01b815260040160405180910390fd5b600980546001600160a01b0319166001600160a01b0386811691821790925560405163b9a09fd560e01b815260048101919091527f00000000000000000000000000000000000000000000000000000000000000009091169063b9a09fd590602401602060405180830381865afa1580156124f3573d6000803e3d6000fd5b505050506040513d601f19601f820116820180604052508101906125179190613cfd565b600a80546001600160a01b039283166001600160a01b0319918216179091556007805486841692168217905560405190918616907f8f7f94e208aee73a455947efb48867081ee05f8c16656f34f471c2fec95b8d6e90600090a350505050565b6110a781336131b3565b61258b8282611967565b610f495760008281526006602090815260408083206001600160a01b03851684529091529020805460ff191660011790556125c33390565b6001600160a01b0316816001600160a01b0316837f2f8788117e7eff1d82e926ec794901d17c78024a50270940304540a733656f0d60405160405180910390a45050565b60007f8b73c3c69bb8fe3d512ecc4cf759cc79239f7b179b0ffacaa9a75d522b39400f60006040516126399190613e8f565b6040805191829003822060208301939093528101919091527fc89efdaa54c0f20c7adf612882df0950f5a951637e0307cdcb4c672f298b8bc660608201524660808201523060a082015260c00160405160208183030381529060405280519060200120905090565b6126ab8282611967565b15610f495760008281526006602090815260408083206001600160a01b0385168085529252808320805460ff1916905551339285917ff6391f5c32d9c69d2a47ea670b442974b53935d1edc7fd64eb21e047a839171b9190a45050565b6000846001600160a01b03163b1161271f57600080fd5b604080516001600160a01b0385811660248301528481166044830152606480830185905283518084039091018152608490920183526020820180516001600160e01b03166323b872dd60e01b17905291516000928392908816916127839190613f2a565b6000604051808303816000865af19150503d80600081146127c0576040519150601f19603f3d011682016040523d82523d6000602084013e6127c5565b606091505b50915091508180156127ef5750805115806127ef5750808060200190518101906127ef9190613f46565b6127f857600080fd5b505050505050565b80600260008282546128129190613e2f565b90915550506001600160a01b03821660008181526003602090815260408083208054860190555184815260008051602061408d83398151915291015b60405180910390a35050565b6000836001600160a01b03163b1161287157600080fd5b6040516001600160a01b03838116602483015260448201839052600091829186169063a9059cbb60e01b906064015b60408051601f198184030181529181526020820180516001600160e01b03166001600160e01b03199094169390931790925290516128de9190613f2a565b6000604051808303816000865af19150503d806000811461291b576040519150601f19603f3d011682016040523d82523d6000602084013e612920565b606091505b509150915081801561294a57508051158061294a57508080602001905181019061294a9190613f46565b61295357600080fd5b5050505050565b6001600160a01b03821660009081526003602052604081208054839290612982908490613abf565b90915550506002805482900390556040518181526000906001600160a01b0384169060008051602061408d8339815191529060200161284e565b6000808212156129cf5781600003610b21565b5090565b60125460009060ff16156129f95760405162b4aa3760e01b815260040160405180910390fd5b7f000000000000000000000000000000000000000000000000000000000000000015612a375760405162b4aa3760e01b815260040160405180910390fd5b612a41338561295a565b612a4a84610e4b565b905082811115612a6d576040516323a4850d60e21b815260040160405180910390fd5b600754600090612a86906001600160a01b03168361320c565b9050612a9181613367565b612abc7f0000000000000000000000000000000000000000000000000000000000000000848761285a565b60408051868152602081018490526001600160a01b0385169133917fb1c971764663d561c0ec2baf395a55f33f0a79fabb35bbad580247ba2959523d910160405180910390a3509392505050565b6012546000908190819060ff1615612b345760405162b4aa3760e01b815260040160405180910390fd5b7f000000000000000000000000000000000000000000000000000000000000000015612b725760405162b4aa3760e01b815260040160405180910390fd5b600d54851180612b835750600c5485105b15612ba1576040516304a5f22d60e41b815260040160405180910390fd5b612bab338861295a565b600080612bb8898861199f565b9150915087821115612bdd576040516323a4850d60e21b815260040160405180910390fd5b60008715612c0057600754612bfb906001600160a01b03168461320c565b612c03565b60005b600754909150612c27906001600160a01b03163330612c228686613e2f565b612708565b600854612c5f907f0000000000000000000000000000000000000000000000000000000000000000906001600160a01b03168c613387565b600754600854612c7c916001600160a01b03908116911684613387565b600860009054906101000a90046001600160a01b03166001600160a01b0316635a47ddc37f0000000000000000000000000000000000000000000000000000000000000000600760009054906101000a90046001600160a01b031660008e8760018030426040518a63ffffffff1660e01b8152600401612d0499989796959493929190613f63565b6060604051808303816000875af1158015612d23573d6000803e3d6000fd5b505050506040513d601f19601f82011682018060405250810190612d479190613fb2565b600954909650612d8492506001600160a01b031690507f000000000000000000000000000000000000000000000000000000000000000086613387565b7f00000000000000000000000000000000000000000000000000000000000000006001600160a01b031663d4e54c3b85612dbd8b611463565b6040516001600160e01b031960e085901b168152600481019290925260248201526001600160a01b038a1660448201526064016020604051808303816000875af1158015612e0f573d6000803e3d6000fd5b505050506040513d601f19601f82011682018060405250810190612e339190613ce4565b9450612e3d6133d1565b604080518b8152602081018590529081018690526001600160a01b0388169033907f74b7132649649ee4ac2519ff0bb963ce812aaa4c8a0ad0f73c9ac1149fa6e3f49060600160405180910390a35050509450945094915050565b601254600090819060ff1615612ec05760405162b4aa3760e01b815260040160405180910390fd5b7f000000000000000000000000000000000000000000000000000000000000000015612efe5760405162b4aa3760e01b815260040160405180910390fd5b600d54831180612f0f5750600c5483105b15612f2d576040516304a5f22d60e41b815260040160405180910390fd5b612f37338761295a565b600080612f44888661199f565b9150915086821115612f69576040516323a4850d60e21b815260040160405180910390fd5b60008515612f8c57600754612f87906001600160a01b03168461320c565b612f8f565b60005b600754909150612fae906001600160a01b03163330612c228686613e2f565b600854612fe6907f0000000000000000000000000000000000000000000000000000000000000000906001600160a01b03168b613387565b600754600854613003916001600160a01b03908116911684613387565b600854600754604051635a47ddc360e01b81526001600160a01b0392831692635a47ddc39261306a927f000000000000000000000000000000000000000000000000000000000000000092909116906000908f908990600190819030904290600401613f63565b6060604051808303816000875af1158015613089573d6000803e3d6000fd5b505050506040513d601f19601f820116820180604052508101906130ad9190613fb2565b600a546009549197506001600160a01b0390811693506130d09250168287613387565b806001600160a01b0316631f933c2d89876130ea8b611463565b6040516001600160e01b031960e086901b1681526001600160a01b03909316600484015260248301919091526044820152606401600060405180830381600087803b15801561313857600080fd5b505af115801561314c573d6000803e3d6000fd5b505050506131586133d1565b604080518b8152602081018690529081018690526001600160a01b0389169033907f49a80f92a21531b6bccc1cf51cb96a7f814282e7d6a69d0a4dea0167193cd3589060600160405180910390a35050505094509492505050565b6131bd8282611967565b610f49576131ca8161356f565b6131d5836020613581565b6040516020016131e6929190613fe0565b60408051601f198184030181529082905262461bcd60e51b8252610f369160040161378c565b8060005b60145481101561336057600060646014838154811061323157613231613c11565b9060005260206000209060030201600101548561324e9190613ad6565b6132589190613b0b565b905061329285336014858154811061327257613272613c11565b60009182526020909120600390910201546001600160a01b031684612708565b61329c8184613abf565b9250601482815481106132b1576132b1613c11565b600091825260209091206002600390920201015460ff161561334d57601482815481106132e0576132e0613c11565b60009182526020909120600390910201546040516326341e2d60e21b8152600481018390526001600160a01b03909116906398d078b490602401600060405180830381600087803b15801561333457600080fd5b505af1158015613348573d6000803e3d6000fd5b505050505b508061335881613e47565b915050613210565b5092915050565b60075461337f906001600160a01b0316333084612708565b6110a76133d1565b6000836001600160a01b03163b1161339e57600080fd5b6040516001600160a01b03838116602483015260448201839052600091829186169063095ea7b360e01b906064016128a0565b6007546040516370a0823160e01b81523060048201526000916001600160a01b0316906370a0823190602401602060405180830381865afa15801561341a573d6000803e3d6000fd5b505050506040513d601f19601f8201168201806040525081019061343e9190613ce4565b600b549091506001600160a01b03161561346f57600754600b546110a7916001600160a01b0390811691168361285a565b600a54600754604051634cde602960e11b81526001600160a01b03918216600482015260009291909116906399bcc05290602401602060405180830381865afa1580156134c0573d6000803e3d6000fd5b505050506040513d601f19601f820116820180604052508101906134e49190613ce4565b905080821115610f4957600754600a5461350b916001600160a01b03908116911684613387565b600a5460075460405163b66503cf60e01b81526001600160a01b0391821660048201526024810185905291169063b66503cf90604401600060405180830381600087803b15801561355b57600080fd5b505af11580156127f8573d6000803e3d6000fd5b6060610b216001600160a01b03831660145b60606000613590836002613ad6565b61359b906002613e2f565b67ffffffffffffffff8111156135b3576135b3613d5b565b6040519080825280601f01601f1916602001820160405280156135dd576020820181803683370190505b509050600360fc1b816000815181106135f8576135f8613c11565b60200101906001600160f81b031916908160001a905350600f60fb1b8160018151811061362757613627613c11565b60200101906001600160f81b031916908160001a905350600061364b846002613ad6565b613656906001613e2f565b90505b60018111156136ce576f181899199a1a9b1b9c1cb0b131b232b360811b85600f166010811061368a5761368a613c11565b1a60f81b8282815181106136a0576136a0613c11565b60200101906001600160f81b031916908160001a90535060049490941c936136c781614055565b9050613659565b508315611c075760405162461bcd60e51b815260206004820181905260248201527f537472696e67733a20686578206c656e67746820696e73756666696369656e746044820152606401610f36565b60006020828403121561372f57600080fd5b81356001600160e01b031981168114611c0757600080fd5b60006020828403121561375957600080fd5b5035919050565b60005b8381101561377b578181015183820152602001613763565b8381111561145d5750506000910152565b60208152600082518060208401526137ab816040850160208701613760565b601f01601f19169190910160400192915050565b6001600160a01b03811681146110a757600080fd5b600080604083850312156137e757600080fd5b82356137f2816137bf565b946020939093013593505050565b60008060006060848603121561381557600080fd5b8335613820816137bf565b92506020840135613830816137bf565b929592945050506040919091013590565b6000806040838503121561385457600080fd5b823591506020830135613866816137bf565b809150509250929050565b60006020828403121561388357600080fd5b8135611c07816137bf565b6000606082840312156138a057600080fd5b50919050565b600080608083850312156138b957600080fd5b6138c3848461388e565b946060939093013593505050565b6000606082840312156138e357600080fd5b611c07838361388e565b6000806040838503121561390057600080fd5b50508035926020909101359150565b6000806000806080858703121561392557600080fd5b8435935060208501359250604085013561393e816137bf565b9396929550929360600135925050565b600080600080600060a0868803121561396657600080fd5b8535945060208601359350604086013561397f816137bf565b94979396509394606081013594506080013592915050565b600080600080600080600060e0888a0312156139b257600080fd5b87356139bd816137bf565b965060208801356139cd816137bf565b95506040880135945060608801359350608088013560ff811681146139f157600080fd5b9699959850939692959460a0840135945060c09093013592915050565b600080600060608486031215613a2357600080fd5b83359250602084013591506040840135613a3c816137bf565b809150509250925092565b60008060408385031215613a5a57600080fd5b8235613a65816137bf565b91506020830135613866816137bf565b600181811c90821680613a8957607f821691505b6020821081036138a057634e487b7160e01b600052602260045260246000fd5b634e487b7160e01b600052601160045260246000fd5b600082821015613ad157613ad1613aa9565b500390565b6000816000190483118215151615613af057613af0613aa9565b500290565b634e487b7160e01b600052601260045260246000fd5b600082613b1a57613b1a613af5565b500490565b60008083128015600160ff1b850184121615613b3d57613b3d613aa9565b6001600160ff1b0384018313811615613b5857613b58613aa9565b50500390565b600082613b6d57613b6d613af5565b600160ff1b821460001984141615613b8757613b87613aa9565b500590565b60006001600160ff1b0381841382841380821686840486111615613bb257613bb2613aa9565b600160ff1b6000871282811687830589121615613bd157613bd1613aa9565b60008712925087820587128484161615613bed57613bed613aa9565b87850587128184161615613c0357613c03613aa9565b505050929093029392505050565b634e487b7160e01b600052603260045260246000fd5b634e487b7160e01b600052603160045260246000fd5b80151581146110a757600080fd5b8135613c56816137bf565b81546001600160a01b0319166001600160a01b039190911617815560208201356001820155600281016040830135613c8d81613c3d565b815490151560ff1660ff19919091161790555050565b600080821280156001600160ff1b0384900385131615613cc557613cc5613aa9565b600160ff1b8390038412811615613cde57613cde613aa9565b50500190565b600060208284031215613cf657600080fd5b5051919050565b600060208284031215613d0f57600080fd5b8151611c07816137bf565b600060208284031215613d2c57600080fd5b8135611c0781613c3d565b60008060408385031215613d4a57600080fd5b505080516020909101519092909150565b634e487b7160e01b600052604160045260246000fd5b60006020808385031215613d8457600080fd5b825167ffffffffffffffff80821115613d9c57600080fd5b818501915085601f830112613db057600080fd5b815181811115613dc257613dc2613d5b565b8060051b604051601f19603f83011681018181108582111715613de757613de7613d5b565b604052918252848201925083810185019188831115613e0557600080fd5b938501935b82851015613e2357845184529385019392850192613e0a565b98975050505050505050565b60008219821115613e4257613e42613aa9565b500190565b600060018201613e5957613e59613aa9565b5060010190565b60008060408385031215613e7357600080fd5b8251613e7e816137bf565b6020840151909250613866816137bf565b600080835481600182811c915080831680613eab57607f831692505b60208084108203613eca57634e487b7160e01b86526022600452602486fd5b818015613ede5760018114613eef57613f1c565b60ff19861689528489019650613f1c565b60008a81526020902060005b86811015613f145781548b820152908501908301613efb565b505084890196505b509498975050505050505050565b60008251613f3c818460208701613760565b9190910192915050565b600060208284031215613f5857600080fd5b8151611c0781613c3d565b6001600160a01b03998a168152978916602089015295151560408801526060870194909452608086019290925260a085015260c084015290921660e08201526101008101919091526101200190565b600080600060608486031215613fc757600080fd5b8351925060208401519150604084015190509250925092565b7f416363657373436f6e74726f6c3a206163636f756e7420000000000000000000815260008351614018816017850160208801613760565b7001034b99036b4b9b9b4b733903937b6329607d1b6017918401918201528351614049816028840160208801613760565b01602801949350505050565b60008161406457614064613aa9565b50600019019056fedf8b4c520ffe197c5343c6f5aec59570151ef9a492f2c624fd45ddde6135ec42ddf252ad1be2c89b69c2b068fc378daa952ba7f163c4a11628f55a4df523b3efa264697066735822122005c44a1787d6b361d4602bc3b38fd0b394d5cd1ff7b334f54653599506bf147e64736f6c634300080d0033df8b4c520ffe197c5343c6f5aec59570151ef9a492f2c624fd45ddde6135ec42","linkReferences":{}},"methodIdentifiers":{"ADMIN_ROLE()":"75b238fc","DEFAULT_ADMIN_ROLE()":"a217fddf","DOMAIN_SEPARATOR()":"3644e515","FULL_LOCK()":"54cb0384","MAX_DISCOUNT()":"e3495569","MAX_FEES()":"c2300bef","MAX_TWAP_POINTS()":"881326b3","MINTER_ROLE()":"d5391393","MIN_DISCOUNT()":"2ac8a92c","PAUSER_ROLE()":"e63ab1e9","addTreasury((address,uint256,bool))":"85dc7ca0","allowance(address,address)":"dd62ed3e","approve(address,uint256)":"095ea7b3","balanceOf(address)":"70a08231","burn(uint256)":"42966c68","decimals()":"313ce567","discount()":"6b6f4a9d","exercise(uint256,uint256,address)":"d6379b72","exercise(uint256,uint256,address,uint256)":"a1d50c3a","exerciseLp(uint256,uint256,address,uint256,uint256)":"f897bd1d","exerciseVe(uint256,uint256,address,uint256,uint256)":"a9f6ee33","expire()":"79599f96","expiryCooldownTime()":"8f547b41","expiryTime()":"99bc0aea","gauge()":"a6f19c84","getDiscountedPrice(uint256)":"339ccade","getLockDurationForLpDiscount(uint256)":"787dd9e4","getLpDiscountedPrice(uint256,uint256)":"c7d1e395","getPaymentTokenAmountForExerciseLp(uint256,uint256)":"9e66645b","getRoleAdmin(bytes32)":"248a9ca3","getSlopeInterceptForLpDiscount()":"3cdfed56","getTimeWeightedAveragePrice(uint256)":"e8772bb2","grantRole(bytes32,address)":"2f2ff15d","hasRole(bytes32,address)":"91d14854","isExerciseLpPaused()":"ca25c1dc","isExercisePaused()":"584dc4ec","isExerciseVePaused()":"6167d715","isPaused()":"b187bd26","lockDurationForMaxLpDiscount()":"1adb040a","lockDurationForMinLpDiscount()":"b3427576","maxLPDiscount()":"062e5bbe","minLPDiscount()":"860ca9bb","mint(address,uint256)":"40c10f19","name()":"06fdde03","nonces(address)":"7ecebe00","pair()":"a8aa1b31","pause()":"8456cb59","paymentToken()":"3013ce29","permit(address,address,uint256,uint256,uint8,bytes32,bytes32)":"d505accf","removeTreasury(uint256)":"45e6c585","renounceRole(bytes32,address)":"36568abe","replaceTreasury((address,uint256,bool),uint256)":"59f85eeb","revokeRole(bytes32,address)":"d547741f","rewardsAddress()":"c0973eed","router()":"f887ea40","setDiscount(uint256)":"dabd2719","setGauge(address)":"55a68ed3","setLockDurationForMaxLpDiscount(uint256)":"0694d1f1","setLockDurationForMinLpDiscount(uint256)":"2fc1b057","setMaxLPDiscount(uint256)":"f595c5ad","setMinLPDiscount(uint256)":"50a566c5","setPairAndPaymentToken(address,address)":"fb1d6bd9","setRewardsAddress(address)":"8906758d","setRouter(address)":"c0d78655","setTwapPoints(uint256)":"fa4473b3","startExpire()":"fa7c41a1","supportsInterface(bytes4)":"01ffc9a7","symbol()":"95d89b41","totalSupply()":"18160ddd","transfer(address,uint256)":"a9059cbb","transferFrom(address,address,uint256)":"23b872dd","treasurys(uint256)":"511f2adc","twapPoints()":"5d283021","unPause()":"f7b188a5","underlyingToken()":"2495a599","updateGauge()":"79c79707","voter()":"46c96aac","votingEscrow()":"4f2bfe5b"},"id":15}