{"abi":[{"type":"constructor","inputs":[{"name":"_lpToken","type":"address","internalType":"address"},{"name":"_token","type":"address","internalType":"address"}],"stateMutability":"nonpayable"},{"type":"function","name":"balanceOfNFT","inputs":[{"name":"","type":"uint256","internalType":"uint256"}],"outputs":[{"name":"","type":"uint256","internalType":"uint256"}],"stateMutability":"view"},{"type":"function","name":"baseToken","inputs":[],"outputs":[{"name":"","type":"address","internalType":"address"}],"stateMutability":"view"},{"type":"function","name":"create_lock","inputs":[{"name":"amount","type":"uint256","internalType":"uint256"},{"name":"","type":"uint256","internalType":"uint256"}],"outputs":[],"stateMutability":"nonpayable"},{"type":"function","name":"isApprovedOrOwner","inputs":[{"name":"","type":"address","internalType":"address"},{"name":"","type":"uint256","internalType":"uint256"}],"outputs":[{"name":"","type":"bool","internalType":"bool"}],"stateMutability":"pure"},{"type":"function","name":"lpToken","inputs":[],"outputs":[{"name":"","type":"address","internalType":"address"}],"stateMutability":"view"},{"type":"function","name":"owner","inputs":[],"outputs":[{"name":"","type":"address","internalType":"address"}],"stateMutability":"view"},{"type":"function","name":"ownerOf","inputs":[{"name":"","type":"uint256","internalType":"uint256"}],"outputs":[{"name":"","type":"address","internalType":"address"}],"stateMutability":"view"},{"type":"function","name":"totalSupply","inputs":[],"outputs":[{"name":"","type":"uint256","internalType":"uint256"}],"stateMutability":"view"}],"bytecode":{"object":"0x60e060405260008055600060035534801561001957600080fd5b506040516103d83803806103d88339810160408190526100389161006f565b6001600160a01b039182166080521660a0523360c0526100a2565b80516001600160a01b038116811461006a57600080fd5b919050565b6000806040838503121561008257600080fd5b61008b83610053565b915061009960208401610053565b90509250929050565b60805160a05160c0516103086100d06000396000610151015260006101780152600060d401526103086000f3fe608060405234801561001057600080fd5b50600436106100885760003560e01c806365fc38731161005b57806365fc3873146101375780638da5cb5b1461014c578063c55dae6314610173578063e7e242d41461019a57600080fd5b806318160ddd1461008d578063430c2081146100a95780635fcbd285146100cf5780636352211e1461010e575b600080fd5b61009660005481565b6040519081526020015b60405180910390f35b6100bf6100b7366004610218565b600192915050565b60405190151581526020016100a0565b6100f67f000000000000000000000000000000000000000000000000000000000000000081565b6040516001600160a01b0390911681526020016100a0565b6100f661011c366004610250565b6002602052600090815260409020546001600160a01b031681565b61014a610145366004610269565b6101af565b005b6100f67f000000000000000000000000000000000000000000000000000000000000000081565b6100f67f000000000000000000000000000000000000000000000000000000000000000081565b6100966101a8366004610250565b5060005490565b81600160006003600081546101c3906102a1565b91829055508152602080820192909252604090810160009081209390935560035483526002909152812080546001600160a01b031916331790558054839190819061020f9084906102ba565b90915550505050565b6000806040838503121561022b57600080fd5b82356001600160a01b038116811461024257600080fd5b946020939093013593505050565b60006020828403121561026257600080fd5b5035919050565b6000806040838503121561027c57600080fd5b50508035926020909101359150565b634e487b7160e01b600052601160045260246000fd5b6000600182016102b3576102b361028b565b5060010190565b600082198211156102cd576102cd61028b565b50019056fea2646970667358221220ba78e9f12dd9ca81f42536c1e2e2f9ac708166bd9309740b4148c701ae3a499964736f6c634300080d0033","linkReferences":{}},"methodIdentifiers":{"balanceOfNFT(uint256)":"e7e242d4","baseToken()":"c55dae63","create_lock(uint256,uint256)":"65fc3873","isApprovedOrOwner(address,uint256)":"430c2081","lpToken()":"5fcbd285","owner()":"8da5cb5b","ownerOf(uint256)":"6352211e","totalSupply()":"18160ddd"},"id":122}