{"abi":[{"type":"constructor","inputs":[{"name":"_name","type":"string","internalType":"string"},{"name":"_symbol","type":"string","internalType":"string"},{"name":"_decimals","type":"uint256","internalType":"uint256"},{"name":"_anyswapRouter","type":"address","internalType":"address"}],"stateMutability":"nonpayable"},{"type":"function","name":"DOMAIN_SEPARATOR","inputs":[],"outputs":[{"name":"","type":"bytes32","internalType":"bytes32"}],"stateMutability":"view"},{"type":"function","name":"PERMIT_TYPEHASH","inputs":[],"outputs":[{"name":"","type":"bytes32","internalType":"bytes32"}],"stateMutability":"view"},{"type":"function","name":"allowance","inputs":[{"name":"","type":"address","internalType":"address"},{"name":"","type":"address","internalType":"address"}],"outputs":[{"name":"","type":"uint256","internalType":"uint256"}],"stateMutability":"view"},{"type":"function","name":"anyswapRouter","inputs":[],"outputs":[{"name":"","type":"address","internalType":"address"}],"stateMutability":"view"},{"type":"function","name":"approve","inputs":[{"name":"_spender","type":"address","internalType":"address"},{"name":"_value","type":"uint256","internalType":"uint256"}],"outputs":[{"name":"","type":"bool","internalType":"bool"}],"stateMutability":"nonpayable"},{"type":"function","name":"balance","inputs":[{"name":"account","type":"address","internalType":"address"}],"outputs":[{"name":"","type":"uint256","internalType":"uint256"}],"stateMutability":"view"},{"type":"function","name":"balanceOf","inputs":[{"name":"","type":"address","internalType":"address"}],"outputs":[{"name":"","type":"uint256","internalType":"uint256"}],"stateMutability":"view"},{"type":"function","name":"burn","inputs":[{"name":"account","type":"address","internalType":"address"},{"name":"amount","type":"uint256","internalType":"uint256"}],"outputs":[{"name":"","type":"bool","internalType":"bool"}],"stateMutability":"nonpayable"},{"type":"function","name":"changeVault","inputs":[{"name":"_pendingRouter","type":"address","internalType":"address"}],"outputs":[{"name":"","type":"bool","internalType":"bool"}],"stateMutability":"nonpayable"},{"type":"function","name":"decimals","inputs":[],"outputs":[{"name":"","type":"uint256","internalType":"uint256"}],"stateMutability":"view"},{"type":"function","name":"mint","inputs":[{"name":"account","type":"address","internalType":"address"},{"name":"amount","type":"uint256","internalType":"uint256"}],"outputs":[{"name":"","type":"bool","internalType":"bool"}],"stateMutability":"nonpayable"},{"type":"function","name":"name","inputs":[],"outputs":[{"name":"","type":"string","internalType":"string"}],"stateMutability":"view"},{"type":"function","name":"nonces","inputs":[{"name":"","type":"address","internalType":"address"}],"outputs":[{"name":"","type":"uint256","internalType":"uint256"}],"stateMutability":"view"},{"type":"function","name":"pendingAnyswapRouter","inputs":[],"outputs":[{"name":"","type":"address","internalType":"address"}],"stateMutability":"view"},{"type":"function","name":"pendingRouterDelay","inputs":[],"outputs":[{"name":"","type":"uint256","internalType":"uint256"}],"stateMutability":"view"},{"type":"function","name":"permit","inputs":[{"name":"owner","type":"address","internalType":"address"},{"name":"spender","type":"address","internalType":"address"},{"name":"value","type":"uint256","internalType":"uint256"},{"name":"deadline","type":"uint256","internalType":"uint256"},{"name":"v","type":"uint8","internalType":"uint8"},{"name":"r","type":"bytes32","internalType":"bytes32"},{"name":"s","type":"bytes32","internalType":"bytes32"}],"outputs":[],"stateMutability":"nonpayable"},{"type":"function","name":"symbol","inputs":[],"outputs":[{"name":"","type":"string","internalType":"string"}],"stateMutability":"view"},{"type":"function","name":"token","inputs":[],"outputs":[{"name":"","type":"address","internalType":"address"}],"stateMutability":"view"},{"type":"function","name":"totalSupply","inputs":[],"outputs":[{"name":"","type":"uint256","internalType":"uint256"}],"stateMutability":"view"},{"type":"function","name":"transfer","inputs":[{"name":"_to","type":"address","internalType":"address"},{"name":"_value","type":"uint256","internalType":"uint256"}],"outputs":[{"name":"","type":"bool","internalType":"bool"}],"stateMutability":"nonpayable"},{"type":"function","name":"transferFrom","inputs":[{"name":"_from","type":"address","internalType":"address"},{"name":"_to","type":"address","internalType":"address"},{"name":"_value","type":"uint256","internalType":"uint256"}],"outputs":[{"name":"","type":"bool","internalType":"bool"}],"stateMutability":"nonpayable"},{"type":"event","name":"Approval","inputs":[{"name":"owner","type":"address","indexed":false,"internalType":"address"},{"name":"spender","type":"address","indexed":false,"internalType":"address"},{"name":"value","type":"uint256","indexed":false,"internalType":"uint256"}],"anonymous":false},{"type":"event","name":"LogChangeVault","inputs":[{"name":"oldVault","type":"address","indexed":true,"internalType":"address"},{"name":"newVault","type":"address","indexed":true,"internalType":"address"},{"name":"effectiveTime","type":"uint256","indexed":true,"internalType":"uint256"}],"anonymous":false},{"type":"event","name":"Transfer","inputs":[{"name":"from","type":"address","indexed":false,"internalType":"address"},{"name":"to","type":"address","indexed":false,"internalType":"address"},{"name":"value","type":"uint256","indexed":false,"internalType":"uint256"}],"anonymous":false}],"bytecode":{"object":"0x608060405260006003553480156200001657600080fd5b50604051620011db380380620011db833981016040819052620000399162000363565b600880546001600160a01b0319166001600160a01b038316179055835162000069906001906020870190620001f0565b5082516200007f906000906020860190620001f0565b50600282905560405146907f8b73c3c69bb8fe3d512ecc4cf759cc79239f7b179b0ffacaa9a75d522b39400f90620000ba9060019062000434565b60408051918290038220828201825260018352603160f81b6020938401528151928301939093528101919091527fc89efdaa54c0f20c7adf612882df0950f5a951637e0307cdcb4c672f298b8bc66060820152608081018290523060a082015260c00160408051601f1981840301815291905280516020909101206006556200014533600062000151565b505050505050620004fe565b6001600160a01b0382166000908152600460205260408120805483919083906200017d908490620004d7565b925050819055508160036000828254620001989190620004d7565b909155505060408051600081526001600160a01b03851660208201529081018390527fddf252ad1be2c89b69c2b068fc378daa952ba7f163c4a11628f55a4df523b3ef9060600160405180910390a150600192915050565b828054620001fe90620003f8565b90600052602060002090601f0160209004810192826200022257600085556200026d565b82601f106200023d57805160ff19168380011785556200026d565b828001600101855582156200026d579182015b828111156200026d57825182559160200191906001019062000250565b506200027b9291506200027f565b5090565b5b808211156200027b576000815560010162000280565b634e487b7160e01b600052604160045260246000fd5b600082601f830112620002be57600080fd5b81516001600160401b0380821115620002db57620002db62000296565b604051601f8301601f19908116603f0116810190828211818310171562000306576200030662000296565b816040528381526020925086838588010111156200032357600080fd5b600091505b8382101562000347578582018301518183018401529082019062000328565b83821115620003595760008385830101525b9695505050505050565b600080600080608085870312156200037a57600080fd5b84516001600160401b03808211156200039257600080fd5b620003a088838901620002ac565b95506020870151915080821115620003b757600080fd5b50620003c687828801620002ac565b60408701516060880151919550935090506001600160a01b0381168114620003ed57600080fd5b939692955090935050565b600181811c908216806200040d57607f821691505b6020821081036200042e57634e487b7160e01b600052602260045260246000fd5b50919050565b600080835481600182811c9150808316806200045157607f831692505b602080841082036200047157634e487b7160e01b86526022600452602486fd5b8180156200048857600181146200049a57620004c9565b60ff19861689528489019650620004c9565b60008a81526020902060005b86811015620004c15781548b820152908501908301620004a6565b505084890196505b509498975050505050505050565b60008219821115620004f957634e487b7160e01b600052601160045260246000fd5b500190565b610ccd806200050e6000396000f3fe608060405234801561001057600080fd5b50600436106101375760003560e01c806370a08231116100b8578063a9059cbb1161007c578063a9059cbb1461029f578063d505accf146102b2578063db5de796146102c7578063dd62ed3e146102d0578063e3d670d7146102fb578063fc0c546a1461032457600080fd5b806370a08231146102315780637ecebe001461025157806395d89b41146102715780639a3eb6e9146102795780639dc29fac1461028c57600080fd5b806330adf81f116100ff57806330adf81f146101d2578063313ce567146101f95780633644e5151461020257806340c10f191461020b57806360e232a91461021e57600080fd5b806306fdde031461013c578063095ea7b31461015a5780630ed1713a1461017d57806318160ddd146101a857806323b872dd146101bf575b600080fd5b61014461032a565b6040516101519190610a43565b60405180910390f35b61016d610168366004610ab4565b6103b8565b6040519015158152602001610151565b600954610190906001600160a01b031681565b6040516001600160a01b039091168152602001610151565b6101b160035481565b604051908152602001610151565b61016d6101cd366004610ade565b610423565b6101b17f6e71edae12b1b97f4d1f60370fef10105fa2faae0126114a169c64845d6126c981565b6101b160025481565b6101b160065481565b61016d610219366004610ab4565b61049d565b61016d61022c366004610b1a565b6104b3565b6101b161023f366004610b1a565b60046020526000908152604090205481565b6101b161025f366004610b1a565b60076020526000908152604090205481565b6101446105a4565b600854610190906001600160a01b031681565b61016d61029a366004610ab4565b6105b1565b61016d6102ad366004610ab4565b610651565b6102c56102c0366004610b35565b610665565b005b6101b1600a5481565b6101b16102de366004610ba8565b600560209081526000928352604080842090915290825290205481565b6101b1610309366004610b1a565b6001600160a01b031660009081526004602052604090205490565b30610190565b6001805461033790610bdb565b80601f016020809104026020016040519081016040528092919081815260200182805461036390610bdb565b80156103b05780601f10610385576101008083540402835291602001916103b0565b820191906000526020600020905b81548152906001019060200180831161039357829003601f168201915b505050505081565b3360008181526005602090815260408083206001600160a01b03871684529091528082208490555190917f8c5be1e5ebec7d5bd14f71427d1e84f3dd0314c0f7b2291e5b200ac8c7c3b92591610412919086908690610c15565b60405180910390a150600192915050565b6001600160a01b03831660009081526005602090815260408083203384529091528120546000198114610489576001600160a01b038516600090815260056020908152604080832033845290915281208054859290610483908490610c4f565b90915550505b6104948585856108d1565b95945050505050565b60006104a98383610973565b5060019392505050565b60006104bd6109f0565b6001600160a01b0316336001600160a01b0316146104da57600080fd5b6001600160a01b0382166105355760405162461bcd60e51b815260206004820152601c60248201527f416e7973776170563345524332303a206164647265737328307830290000000060448201526064015b60405180910390fd5b600980546001600160a01b0319166001600160a01b03841617905561055d4262015180610c66565b600a8190556008546040516001600160a01b038086169216907f5c364079e7102c27c608f9b237c735a1b7bfa0b67f27c2ad26bad447bf965cac90600090a4506001919050565b6000805461033790610bdb565b60006105bb6109f0565b6001600160a01b0316336001600160a01b0316146105d857600080fd5b81600360008282546105ea9190610c4f565b90915550506001600160a01b03831660009081526004602052604081208054849290610617908490610c4f565b90915550506040517fddf252ad1be2c89b69c2b068fc378daa952ba7f163c4a11628f55a4df523b3ef906104129085906000908690610c15565b600061065e3384846108d1565b9392505050565b428410156106a95760405162461bcd60e51b815260206004820152601160248201527014dd18589b19558c4e8811561412549151607a1b604482015260640161052c565b6006546001600160a01b038816600090815260076020526040812080549192917f6e71edae12b1b97f4d1f60370fef10105fa2faae0126114a169c64845d6126c9918b918b918b9190876106fc83610c7e565b909155506040805160208101969096526001600160a01b0394851690860152929091166060840152608083015260a082015260c0810187905260e0016040516020818303038152906040528051906020012060405160200161077592919061190160f01b81526002810192909252602282015260420190565b60408051601f198184030181528282528051602091820120600080855291840180845281905260ff88169284019290925260608301869052608083018590529092509060019060a0016020604051602081039080840390855afa1580156107e0573d6000803e3d6000fd5b5050604051601f1901519150506001600160a01b038116158015906108165750886001600160a01b0316816001600160a01b0316145b6108625760405162461bcd60e51b815260206004820152601b60248201527f537461626c6556313a20494e56414c49445f5349474e41545552450000000000604482015260640161052c565b6001600160a01b03808a166000908152600560209081526040808320938c168352929052819020889055517f8c5be1e5ebec7d5bd14f71427d1e84f3dd0314c0f7b2291e5b200ac8c7c3b925906108be908b908b908b90610c15565b60405180910390a1505050505050505050565b6001600160a01b0383166000908152600460205260408120805483919083906108fb908490610c4f565b90915550506001600160a01b03831660009081526004602052604081208054849290610928908490610c66565b90915550506040517fddf252ad1be2c89b69c2b068fc378daa952ba7f163c4a11628f55a4df523b3ef9061096190869086908690610c15565b60405180910390a15060019392505050565b6001600160a01b03821660009081526004602052604081208054839190839061099d908490610c66565b9250508190555081600360008282546109b69190610c66565b90915550506040517fddf252ad1be2c89b69c2b068fc378daa952ba7f163c4a11628f55a4df523b3ef906104129060009086908690610c15565b6000600a54600014158015610a06575042600a54105b15610a3357600954600880546001600160a01b0319166001600160a01b039092169190911790556000600a555b506008546001600160a01b031690565b600060208083528351808285015260005b81811015610a7057858101830151858201604001528201610a54565b81811115610a82576000604083870101525b50601f01601f1916929092016040019392505050565b80356001600160a01b0381168114610aaf57600080fd5b919050565b60008060408385031215610ac757600080fd5b610ad083610a98565b946020939093013593505050565b600080600060608486031215610af357600080fd5b610afc84610a98565b9250610b0a60208501610a98565b9150604084013590509250925092565b600060208284031215610b2c57600080fd5b61065e82610a98565b600080600080600080600060e0888a031215610b5057600080fd5b610b5988610a98565b9650610b6760208901610a98565b95506040880135945060608801359350608088013560ff81168114610b8b57600080fd5b9699959850939692959460a0840135945060c09093013592915050565b60008060408385031215610bbb57600080fd5b610bc483610a98565b9150610bd260208401610a98565b90509250929050565b600181811c90821680610bef57607f821691505b602082108103610c0f57634e487b7160e01b600052602260045260246000fd5b50919050565b6001600160a01b039384168152919092166020820152604081019190915260600190565b634e487b7160e01b600052601160045260246000fd5b600082821015610c6157610c61610c39565b500390565b60008219821115610c7957610c79610c39565b500190565b600060018201610c9057610c90610c39565b506001019056fea26469706673582212205a3ecef7fba236f2b02ea5a56aba178b41f5eec9e31fb89f9153e486c5dfbc1e64736f6c634300080d0033","linkReferences":{}},"methodIdentifiers":{"DOMAIN_SEPARATOR()":"3644e515","PERMIT_TYPEHASH()":"30adf81f","allowance(address,address)":"dd62ed3e","anyswapRouter()":"9a3eb6e9","approve(address,uint256)":"095ea7b3","balance(address)":"e3d670d7","balanceOf(address)":"70a08231","burn(address,uint256)":"9dc29fac","changeVault(address)":"60e232a9","decimals()":"313ce567","mint(address,uint256)":"40c10f19","name()":"06fdde03","nonces(address)":"7ecebe00","pendingAnyswapRouter()":"0ed1713a","pendingRouterDelay()":"db5de796","permit(address,address,uint256,uint256,uint8,bytes32,bytes32)":"d505accf","symbol()":"95d89b41","token()":"fc0c546a","totalSupply()":"18160ddd","transfer(address,uint256)":"a9059cbb","transferFrom(address,address,uint256)":"23b872dd"},"id":120}