{"abi":[{"type":"constructor","inputs":[{"name":"_router","type":"address","internalType":"address"},{"name":"_voter","type":"address","internalType":"address"},{"name":"_pairFactory","type":"address","internalType":"address"},{"name":"_team","type":"address","internalType":"address"}],"stateMutability":"nonpayable"},{"type":"function","name":"addLiquidityAndDepositForInGauge","inputs":[{"name":"account","type":"address","internalType":"address"},{"name":"tokenA","type":"address","internalType":"address"},{"name":"tokenB","type":"address","internalType":"address"},{"name":"stable","type":"bool","internalType":"bool"},{"name":"amountADesired","type":"uint256","internalType":"uint256"},{"name":"amountBDesired","type":"uint256","internalType":"uint256"},{"name":"amountAMin","type":"uint256","internalType":"uint256"},{"name":"amountBMin","type":"uint256","internalType":"uint256"}],"outputs":[{"name":"depositedInGauge","type":"bool","internalType":"bool"},{"name":"lpAmount","type":"uint256","internalType":"uint256"}],"stateMutability":"nonpayable"},{"type":"function","name":"isPaused","inputs":[],"outputs":[{"name":"","type":"bool","internalType":"bool"}],"stateMutability":"view"},{"type":"function","name":"owner","inputs":[],"outputs":[{"name":"","type":"address","internalType":"address"}],"stateMutability":"view"},{"type":"function","name":"pairFactory","inputs":[],"outputs":[{"name":"","type":"address","internalType":"address"}],"stateMutability":"view"},{"type":"function","name":"pause","inputs":[],"outputs":[],"stateMutability":"nonpayable"},{"type":"function","name":"renounceOwnership","inputs":[],"outputs":[],"stateMutability":"nonpayable"},{"type":"function","name":"router","inputs":[],"outputs":[{"name":"","type":"address","internalType":"address"}],"stateMutability":"view"},{"type":"function","name":"setPairFactory","inputs":[{"name":"_pairFactory","type":"address","internalType":"address"}],"outputs":[],"stateMutability":"nonpayable"},{"type":"function","name":"setRouter","inputs":[{"name":"_router","type":"address","internalType":"address"}],"outputs":[],"stateMutability":"nonpayable"},{"type":"function","name":"transferOwnership","inputs":[{"name":"newOwner","type":"address","internalType":"address"}],"outputs":[],"stateMutability":"nonpayable"},{"type":"function","name":"unPause","inputs":[],"outputs":[],"stateMutability":"nonpayable"},{"type":"function","name":"voter","inputs":[],"outputs":[{"name":"","type":"address","internalType":"address"}],"stateMutability":"view"},{"type":"event","name":"LiquidityAdded","inputs":[{"name":"_pair","type":"address","indexed":true,"internalType":"address"},{"name":"_for","type":"address","indexed":true,"internalType":"address"},{"name":"_lpAmount","type":"uint256","indexed":false,"internalType":"uint256"},{"name":"_depositedInGauge","type":"bool","indexed":false,"internalType":"bool"}],"anonymous":false},{"type":"event","name":"OwnershipTransferred","inputs":[{"name":"previousOwner","type":"address","indexed":true,"internalType":"address"},{"name":"newOwner","type":"address","indexed":true,"internalType":"address"}],"anonymous":false},{"type":"event","name":"PairFactorySet","inputs":[{"name":"_pairFactory","type":"address","indexed":true,"internalType":"address"}],"anonymous":false},{"type":"event","name":"PauseStateChanged","inputs":[{"name":"isPaused","type":"bool","indexed":false,"internalType":"bool"}],"anonymous":false},{"type":"event","name":"RouterSet","inputs":[{"name":"_router","type":"address","indexed":true,"internalType":"address"}],"anonymous":false},{"type":"error","name":"LpHelper_Paused","inputs":[]}],"bytecode":{"object":"0x60a060405234801561001057600080fd5b50604051610c5d380380610c5d83398101604081905261002f916100e9565b6100383361007d565b600180546001600160a01b038085166001600160a01b03199283161790925560028054878416921691909117905583166080526100748161007d565b5050505061013d565b600080546001600160a01b038381166001600160a01b0319831681178455604051919092169283917f8be0079c531659141344cd1fd0a4f28419497f9722a3daafe3b4186f6b6457e09190a35050565b80516001600160a01b03811681146100e457600080fd5b919050565b600080600080608085870312156100ff57600080fd5b610108856100cd565b9350610116602086016100cd565b9250610124604086016100cd565b9150610132606086016100cd565b905092959194509250565b608051610aff61015e6000396000818160be01526105920152610aff6000f3fe608060405234801561001057600080fd5b50600436106100b45760003560e01c8063c0d7865511610071578063c0d7865514610157578063e14f870d1461016a578063f2fde38b1461017d578063f7b188a514610190578063f887ea4014610198578063ff717e80146101ab57600080fd5b806346c96aac146100b9578063715018a6146100fd5780637964bac9146101075780638456cb591461011a5780638da5cb5b14610122578063b187bd2614610133575b600080fd5b6100e07f000000000000000000000000000000000000000000000000000000000000000081565b6040516001600160a01b0390911681526020015b60405180910390f35b6101056101d5565b005b610105610115366004610974565b6101e9565b61010561023b565b6000546001600160a01b03166100e0565b60025461014790600160a01b900460ff1681565b60405190151581526020016100f4565b610105610165366004610974565b61029e565b6001546100e0906001600160a01b031681565b61010561018b366004610974565b6102f0565b61010561036e565b6002546100e0906001600160a01b031681565b6101be6101b93660046109a6565b6103c6565b6040805192151583526020830191909152016100f4565b6101dd6106ce565b6101e76000610728565b565b6101f16106ce565b600180546001600160a01b0319166001600160a01b0383169081179091556040517f02dc1bc084ca2735cc0e566b110690f9db270c9470d3d2f95878b40c73993e6690600090a250565b6102436106ce565b600254600160a01b900460ff166101e7576002805460ff60a01b1916600160a01b179055604051600181527f4543baa938cb97f5073ec206ad35638cdb1f4db8f677d31579b2f6fe7d18c14a906020015b60405180910390a1565b6102a66106ce565b600280546001600160a01b0319166001600160a01b0383169081179091556040517fc6b438e6a8a59579ce6a4406cbd203b740e0d47b458aae6596339bcd40c40d1590600090a250565b6102f86106ce565b6001600160a01b0381166103625760405162461bcd60e51b815260206004820152602660248201527f4f776e61626c653a206e6577206f776e657220697320746865207a65726f206160448201526564647265737360d01b60648201526084015b60405180910390fd5b61036b81610728565b50565b6103766106ce565b600254600160a01b900460ff16156101e7576002805460ff60a01b19169055604051600081527f4543baa938cb97f5073ec206ad35638cdb1f4db8f677d31579b2f6fe7d18c14a90602001610294565b6002546000908190600160a01b900460ff16156103f657604051630d7bbe2360e21b815260040160405180910390fd5b61040289333089610778565b61040e88333088610778565b600254610426908a906001600160a01b031688610870565b60025461043e9089906001600160a01b031687610870565b600254604051635a47ddc360e01b81526001600160a01b038b811660048301528a811660248301528915156044830152606482018990526084820188905260a4820187905260c482018690523060e48301524261010483015290911690635a47ddc390610124016060604051808303816000875af11580156104c4573d6000803e3d6000fd5b505050506040513d601f19601f820116820180604052508101906104e89190610a26565b6001546040516306801cc360e41b81526001600160a01b038e811660048301528d811660248301528c151560448301529295506000945091169150636801cc3090606401602060405180830381865afa158015610549573d6000803e3d6000fd5b505050506040513d601f19601f8201168201806040525081019061056d9190610a54565b60405163b9a09fd560e01b81526001600160a01b0380831660048301529192506000917f0000000000000000000000000000000000000000000000000000000000000000169063b9a09fd590602401602060405180830381865afa1580156105d9573d6000803e3d6000fd5b505050506040513d601f19601f820116820180604052508101906105fd9190610a54565b90506001600160a01b03811615610675576040516317a790f160e11b81526001600160a01b038d8116600483015260248201859052821690632f4f21e290604401600060405180830381600087803b15801561065857600080fd5b505af115801561066c573d6000803e3d6000fd5b50505050600193505b6040805184815285151560208201526001600160a01b03808f1692908516917f6cd788a7e08d4fec13a207226f0fd164d174e91f849b2880c63e84c7c1bd2fac910160405180910390a350509850989650505050505050565b6000546001600160a01b031633146101e75760405162461bcd60e51b815260206004820181905260248201527f4f776e61626c653a2063616c6c6572206973206e6f7420746865206f776e65726044820152606401610359565b600080546001600160a01b038381166001600160a01b0319831681178455604051919092169283917f8be0079c531659141344cd1fd0a4f28419497f9722a3daafe3b4186f6b6457e09190a35050565b6000846001600160a01b03163b1161078f57600080fd5b604080516001600160a01b0385811660248301528481166044830152606480830185905283518084039091018152608490920183526020820180516001600160e01b03166323b872dd60e01b17905291516000928392908816916107f39190610a71565b6000604051808303816000865af19150503d8060008114610830576040519150601f19603f3d011682016040523d82523d6000602084013e610835565b606091505b509150915081801561085f57508051158061085f57508080602001905181019061085f9190610aac565b61086857600080fd5b505050505050565b6000836001600160a01b03163b1161088757600080fd5b604080516001600160a01b038481166024830152604480830185905283518084039091018152606490920183526020820180516001600160e01b031663095ea7b360e01b17905291516000928392908716916108e39190610a71565b6000604051808303816000865af19150503d8060008114610920576040519150601f19603f3d011682016040523d82523d6000602084013e610925565b606091505b509150915081801561094f57508051158061094f57508080602001905181019061094f9190610aac565b61095857600080fd5b5050505050565b6001600160a01b038116811461036b57600080fd5b60006020828403121561098657600080fd5b81356109918161095f565b9392505050565b801515811461036b57600080fd5b600080600080600080600080610100898b0312156109c357600080fd5b88356109ce8161095f565b975060208901356109de8161095f565b965060408901356109ee8161095f565b955060608901356109fe81610998565b979a969950949760808101359660a0820135965060c0820135955060e0909101359350915050565b600080600060608486031215610a3b57600080fd5b8351925060208401519150604084015190509250925092565b600060208284031215610a6657600080fd5b81516109918161095f565b6000825160005b81811015610a925760208186018101518583015201610a78565b81811115610aa1576000828501525b509190910192915050565b600060208284031215610abe57600080fd5b81516109918161099856fea26469706673582212201e8934224ab7a79ff7e2e72e0f03a1a180782319124af1f29f30eb62f173a16364736f6c634300080d0033","linkReferences":{}},"methodIdentifiers":{"addLiquidityAndDepositForInGauge(address,address,address,bool,uint256,uint256,uint256,uint256)":"ff717e80","isPaused()":"b187bd26","owner()":"8da5cb5b","pairFactory()":"e14f870d","pause()":"8456cb59","renounceOwnership()":"715018a6","router()":"f887ea40","setPairFactory(address)":"7964bac9","setRouter(address)":"c0d78655","transferOwnership(address)":"f2fde38b","unPause()":"f7b188a5","voter()":"46c96aac"},"id":10}