{"abi":[{"type":"constructor","inputs":[{"name":"_flow","type":"address","internalType":"address"}],"stateMutability":"nonpayable"},{"type":"function","name":"blacklist","inputs":[{"name":"_gauge","type":"address","internalType":"address"}],"outputs":[],"stateMutability":"nonpayable"},{"type":"function","name":"createGauge","inputs":[{"name":"_pool","type":"address","internalType":"address"},{"name":"_external_bribe","type":"address","internalType":"address"},{"name":"_ve","type":"address","internalType":"address"},{"name":"isPair","type":"bool","internalType":"bool"},{"name":"allowedRewards","type":"address[]","internalType":"address[]"}],"outputs":[{"name":"","type":"address","internalType":"address"}],"stateMutability":"nonpayable"},{"type":"function","name":"deployGauge","inputs":[{"name":"_notifyAddress","type":"address","internalType":"address"},{"name":"_pairAddress","type":"address","internalType":"address"},{"name":"_symbol","type":"string","internalType":"string"}],"outputs":[{"name":"","type":"address","internalType":"address"}],"stateMutability":"nonpayable"},{"type":"function","name":"flow","inputs":[],"outputs":[{"name":"","type":"address","internalType":"address"}],"stateMutability":"view"},{"type":"function","name":"gauges","inputs":[{"name":"","type":"uint256","internalType":"uint256"}],"outputs":[{"name":"","type":"address","internalType":"address"}],"stateMutability":"view"},{"type":"function","name":"isWhitelisted","inputs":[{"name":"","type":"address","internalType":"address"}],"outputs":[{"name":"","type":"address","internalType":"address"}],"stateMutability":"view"},{"type":"function","name":"owner","inputs":[],"outputs":[{"name":"","type":"address","internalType":"address"}],"stateMutability":"view"},{"type":"function","name":"renounceOwnership","inputs":[],"outputs":[],"stateMutability":"nonpayable"},{"type":"function","name":"transferOwnership","inputs":[{"name":"newOwner","type":"address","internalType":"address"}],"outputs":[],"stateMutability":"nonpayable"},{"type":"function","name":"whitelist","inputs":[{"name":"_gauge","type":"address","internalType":"address"}],"outputs":[],"stateMutability":"nonpayable"},{"type":"event","name":"OwnershipTransferred","inputs":[{"name":"previousOwner","type":"address","indexed":true,"internalType":"address"},{"name":"newOwner","type":"address","indexed":true,"internalType":"address"}],"anonymous":false}],"bytecode":{"object":"0x60a060405234801561001057600080fd5b5060405161149138038061149183398101604081905261002f91610099565b61003833610049565b6001600160a01b03166080526100c9565b600080546001600160a01b038381166001600160a01b0319831681178455604051919092169283917f8be0079c531659141344cd1fd0a4f28419497f9722a3daafe3b4186f6b6457e09190a35050565b6000602082840312156100ab57600080fd5b81516001600160a01b03811681146100c257600080fd5b9392505050565b6080516113a76100ea6000396000818160e901526102b901526113a76000f3fe60806040523480156200001157600080fd5b5060043610620000ab5760003560e01c80638da5cb5b116200006e5780638da5cb5b146200015a5780639b19251a146200016c578063b05391871462000183578063f2fde38b146200019a578063f9f92be414620001b157600080fd5b80631ede5a8e14620000b0578063343aad8214620000e35780633af32abf146200010b578063715018a61462000137578063830dab201462000143575b600080fd5b620000c7620000c136600462000590565b620001c8565b6040516001600160a01b03909116815260200160405180910390f35b620000c77f000000000000000000000000000000000000000000000000000000000000000081565b620000c76200011c3660046200069d565b6002602052600090815260409020546001600160a01b031681565b6200014162000291565b005b620000c762000154366004620006c2565b620002a9565b6000546001600160a01b0316620000c7565b620001416200017d3660046200069d565b62000360565b620000c76200019436600462000785565b62000394565b62000141620001ab3660046200069d565b620003bf565b62000141620001c23660046200069d565b6200043e565b6001600160a01b03858116600090815260026020526040812054909116620002265760405162461bcd60e51b815260206004820152600c60248201526b085dda1a5d195b1a5cdd195960a21b60448201526064015b60405180910390fd5b506001600160a01b0380861660008181526002602052604081208054600180548082019091557fb10e2d527612073b26eecdfd717e6a320cf44b4afac2b0732d9fcbe2b7fa0cf60180546001600160a01b031916918616919091179055919052541695945050505050565b6200029b6200046f565b620002a76000620004cb565b565b6000620002b56200046f565b60007f00000000000000000000000000000000000000000000000000000000000000008584604051620002e8906200051b565b620002f6939291906200079f565b604051809103906000f08015801562000313573d6000803e3d6000fd5b5090506001600160a01b03841662000329578093505b6001600160a01b03938416600090815260026020526040902080546001600160a01b03191694821694909417909355509092915050565b6200036a6200046f565b6001600160a01b0316600081815260026020526040902080546001600160a01b0319169091179055565b60018181548110620003a557600080fd5b6000918252602090912001546001600160a01b0316905081565b620003c96200046f565b6001600160a01b038116620004305760405162461bcd60e51b815260206004820152602660248201527f4f776e61626c653a206e6577206f776e657220697320746865207a65726f206160448201526564647265737360d01b60648201526084016200021d565b6200043b81620004cb565b50565b620004486200046f565b6001600160a01b0316600090815260026020526040902080546001600160a01b0319169055565b6000546001600160a01b03163314620002a75760405162461bcd60e51b815260206004820181905260248201527f4f776e61626c653a2063616c6c6572206973206e6f7420746865206f776e657260448201526064016200021d565b600080546001600160a01b038381166001600160a01b0319831681178455604051919092169283917f8be0079c531659141344cd1fd0a4f28419497f9722a3daafe3b4186f6b6457e09190a35050565b610b5e806200081483390190565b80356001600160a01b03811681146200054157600080fd5b919050565b634e487b7160e01b600052604160045260246000fd5b604051601f8201601f1916810167ffffffffffffffff8111828210171562000588576200058862000546565b604052919050565b600080600080600060a08688031215620005a957600080fd5b620005b48662000529565b94506020620005c581880162000529565b9450620005d56040880162000529565b935060608701358015158114620005eb57600080fd5b9250608087013567ffffffffffffffff808211156200060957600080fd5b818901915089601f8301126200061e57600080fd5b81358181111562000633576200063362000546565b8060051b9150620006468483016200055c565b818152918301840191848101908c8411156200066157600080fd5b938501935b838510156200068a576200067a8562000529565b8252938501939085019062000666565b8096505050505050509295509295909350565b600060208284031215620006b057600080fd5b620006bb8262000529565b9392505050565b600080600060608486031215620006d857600080fd5b620006e38462000529565b92506020620006f481860162000529565b9250604085013567ffffffffffffffff808211156200071257600080fd5b818701915087601f8301126200072757600080fd5b8135818111156200073c576200073c62000546565b62000750601f8201601f191685016200055c565b915080825288848285010111156200076757600080fd5b80848401858401376000848284010152508093505050509250925092565b6000602082840312156200079857600080fd5b5035919050565b600060018060a01b038086168352602081861681850152606060408501528451915081606085015260005b82811015620007e857858101820151858201608001528101620007ca565b82811115620007fb576000608084870101525b5050601f01601f19169190910160800194935050505056fe60c0604052600180553480156200001557600080fd5b5060405162000b5e38038062000b5e833981016040819052620000389162000143565b6001600160a01b03808416608052821660a0528051620000609060009060208401906200006a565b5050505062000283565b828054620000789062000247565b90600052602060002090601f0160209004810192826200009c5760008555620000e7565b82601f10620000b757805160ff1916838001178555620000e7565b82800160010185558215620000e7579182015b82811115620000e7578251825591602001919060010190620000ca565b50620000f5929150620000f9565b5090565b5b80821115620000f55760008155600101620000fa565b80516001600160a01b03811681146200012857600080fd5b919050565b634e487b7160e01b600052604160045260246000fd5b6000806000606084860312156200015957600080fd5b620001648462000110565b925060206200017581860162000110565b60408601519093506001600160401b03808211156200019357600080fd5b818701915087601f830112620001a857600080fd5b815181811115620001bd57620001bd6200012d565b604051601f8201601f19908116603f01168101908382118183101715620001e857620001e86200012d565b816040528281528a868487010111156200020157600080fd5b600093505b8284101562000225578484018601518185018701529285019262000206565b82841115620002375760008684830101525b8096505050505050509250925092565b600181811c908216806200025c57607f821691505b6020821081036200027d57634e487b7160e01b600052602260045260246000fd5b50919050565b60805160a05161089a620002c4600039600081816101280152818161036501526103a001526000818160a6015281816102040152610344015261089a6000f3fe608060405234801561001057600080fd5b50600436106100885760003560e01c806395d89b411161005b57806395d89b41146100ec57806399bcc05214610101578063aaf6474614610123578063b66503cf1461014a57600080fd5b806331279d3d1461008d578063343aad82146100a15780633a4b66f1146100e557806345a1de79146100e5575b600080fd5b61009f61009b366004610627565b5050565b005b6100c87f000000000000000000000000000000000000000000000000000000000000000081565b6040516001600160a01b0390911681526020015b60405180910390f35b60006100c8565b6100f461015d565b6040516100dc919061072f565b61011561010f366004610762565b50600090565b6040519081526020016100dc565b6100c87f000000000000000000000000000000000000000000000000000000000000000081565b61009f610158366004610784565b6101eb565b6000805461016a906107ae565b80601f0160208091040260200160405190810160405280929190818152602001828054610196906107ae565b80156101e35780601f106101b8576101008083540402835291602001916101e3565b820191906000526020600020905b8154815290600101906020018083116101c657829003601f168201915b505050505081565b6001546001146101fa57600080fd5b60026001819055507f00000000000000000000000000000000000000000000000000000000000000006001600160a01b0316826001600160a01b03161461024057600080fd5b6000811161024d57600080fd5b6040516370a0823160e01b81523060048201526000906001600160a01b038416906370a0823190602401602060405180830381865afa158015610294573d6000803e3d6000fd5b505050506040513d601f19601f820116820180604052508101906102b891906107e8565b90506102c68333308561040e565b6040516370a0823160e01b81523060048201526000906001600160a01b038516906370a0823190602401602060405180830381865afa15801561030d573d6000803e3d6000fd5b505050506040513d601f19601f8201168201806040525081019061033191906107e8565b905061033d8282610801565b925061038a7f00000000000000000000000000000000000000000000000000000000000000007f000000000000000000000000000000000000000000000000000000000000000085610506565b604051633c6b16ab60e01b8152600481018490527f00000000000000000000000000000000000000000000000000000000000000006001600160a01b031690633c6b16ab90602401600060405180830381600087803b1580156103ec57600080fd5b505af1158015610400573d6000803e3d6000fd5b505060018055505050505050565b6000846001600160a01b03163b1161042557600080fd5b604080516001600160a01b0385811660248301528481166044830152606480830185905283518084039091018152608490920183526020820180516001600160e01b03166323b872dd60e01b17905291516000928392908816916104899190610826565b6000604051808303816000865af19150503d80600081146104c6576040519150601f19603f3d011682016040523d82523d6000602084013e6104cb565b606091505b50915091508180156104f55750805115806104f55750808060200190518101906104f59190610842565b6104fe57600080fd5b505050505050565b6000836001600160a01b03163b1161051d57600080fd5b604080516001600160a01b038481166024830152604480830185905283518084039091018152606490920183526020820180516001600160e01b031663095ea7b360e01b17905291516000928392908716916105799190610826565b6000604051808303816000865af19150503d80600081146105b6576040519150601f19603f3d011682016040523d82523d6000602084013e6105bb565b606091505b50915091508180156105e55750805115806105e55750808060200190518101906105e59190610842565b6105ee57600080fd5b5050505050565b80356001600160a01b038116811461060c57600080fd5b919050565b634e487b7160e01b600052604160045260246000fd5b6000806040838503121561063a57600080fd5b610643836105f5565b915060208084013567ffffffffffffffff8082111561066157600080fd5b818601915086601f83011261067557600080fd5b81358181111561068757610687610611565b8060051b604051601f19603f830116810181811085821117156106ac576106ac610611565b6040529182528482019250838101850191898311156106ca57600080fd5b938501935b828510156106ef576106e0856105f5565b845293850193928501926106cf565b8096505050505050509250929050565b60005b8381101561071a578181015183820152602001610702565b83811115610729576000848401525b50505050565b602081526000825180602084015261074e8160408501602087016106ff565b601f01601f19169190910160400192915050565b60006020828403121561077457600080fd5b61077d826105f5565b9392505050565b6000806040838503121561079757600080fd5b6107a0836105f5565b946020939093013593505050565b600181811c908216806107c257607f821691505b6020821081036107e257634e487b7160e01b600052602260045260246000fd5b50919050565b6000602082840312156107fa57600080fd5b5051919050565b60008282101561082157634e487b7160e01b600052601160045260246000fd5b500390565b600082516108388184602087016106ff565b9190910192915050565b60006020828403121561085457600080fd5b8151801515811461077d57600080fdfea2646970667358221220f70dccd9f2861134264c3af9be5e95b4f788ccfa57071db07a9562fcf3596a1364736f6c634300080d0033a26469706673582212201cbc4877b75c511c41377a652ee6b725e128f9f75f489329f398ca5688fa89b464736f6c634300080d0033","linkReferences":{}},"methodIdentifiers":{"blacklist(address)":"f9f92be4","createGauge(address,address,address,bool,address[])":"1ede5a8e","deployGauge(address,address,string)":"830dab20","flow()":"343aad82","gauges(uint256)":"b0539187","isWhitelisted(address)":"3af32abf","owner()":"8da5cb5b","renounceOwnership()":"715018a6","transferOwnership(address)":"f2fde38b","whitelist(address)":"9b19251a"},"id":29}