{"abi":[{"type":"constructor","inputs":[{"name":"base_token_addr","type":"address","internalType":"address"},{"name":"lp_token_addr","type":"address","internalType":"address"},{"name":"art_proxy","type":"address","internalType":"address"},{"name":"_owner","type":"address","internalType":"address"}],"stateMutability":"nonpayable"},{"type":"function","name":"DELEGATION_TYPEHASH","inputs":[],"outputs":[{"name":"","type":"bytes32","internalType":"bytes32"}],"stateMutability":"view"},{"type":"function","name":"DOMAIN_TYPEHASH","inputs":[],"outputs":[{"name":"","type":"bytes32","internalType":"bytes32"}],"stateMutability":"view"},{"type":"function","name":"MAX_DELEGATES","inputs":[],"outputs":[{"name":"","type":"uint256","internalType":"uint256"}],"stateMutability":"view"},{"type":"function","name":"abstain","inputs":[{"name":"_tokenId","type":"uint256","internalType":"uint256"}],"outputs":[],"stateMutability":"nonpayable"},{"type":"function","name":"approve","inputs":[{"name":"_approved","type":"address","internalType":"address"},{"name":"_tokenId","type":"uint256","internalType":"uint256"}],"outputs":[],"stateMutability":"nonpayable"},{"type":"function","name":"artProxy","inputs":[],"outputs":[{"name":"","type":"address","internalType":"address"}],"stateMutability":"view"},{"type":"function","name":"attach","inputs":[{"name":"_tokenId","type":"uint256","internalType":"uint256"}],"outputs":[],"stateMutability":"nonpayable"},{"type":"function","name":"attachments","inputs":[{"name":"","type":"uint256","internalType":"uint256"}],"outputs":[{"name":"","type":"uint256","internalType":"uint256"}],"stateMutability":"view"},{"type":"function","name":"balanceOf","inputs":[{"name":"_owner","type":"address","internalType":"address"}],"outputs":[{"name":"","type":"uint256","internalType":"uint256"}],"stateMutability":"view"},{"type":"function","name":"balanceOfAtNFT","inputs":[{"name":"_tokenId","type":"uint256","internalType":"uint256"},{"name":"_block","type":"uint256","internalType":"uint256"}],"outputs":[{"name":"","type":"uint256","internalType":"uint256"}],"stateMutability":"view"},{"type":"function","name":"balanceOfNFT","inputs":[{"name":"_tokenId","type":"uint256","internalType":"uint256"}],"outputs":[{"name":"","type":"uint256","internalType":"uint256"}],"stateMutability":"view"},{"type":"function","name":"balanceOfNFTAt","inputs":[{"name":"_tokenId","type":"uint256","internalType":"uint256"},{"name":"_t","type":"uint256","internalType":"uint256"}],"outputs":[{"name":"","type":"uint256","internalType":"uint256"}],"stateMutability":"view"},{"type":"function","name":"baseToken","inputs":[],"outputs":[{"name":"","type":"address","internalType":"address"}],"stateMutability":"view"},{"type":"function","name":"block_number","inputs":[],"outputs":[{"name":"","type":"uint256","internalType":"uint256"}],"stateMutability":"view"},{"type":"function","name":"block_split","inputs":[{"name":"_tokenId","type":"uint256","internalType":"uint256"}],"outputs":[],"stateMutability":"nonpayable"},{"type":"function","name":"blockedSplit","inputs":[{"name":"","type":"uint256","internalType":"uint256"}],"outputs":[{"name":"","type":"bool","internalType":"bool"}],"stateMutability":"view"},{"type":"function","name":"checkpoint","inputs":[],"outputs":[],"stateMutability":"nonpayable"},{"type":"function","name":"checkpoints","inputs":[{"name":"","type":"address","internalType":"address"},{"name":"","type":"uint32","internalType":"uint32"}],"outputs":[{"name":"timestamp","type":"uint256","internalType":"uint256"}],"stateMutability":"view"},{"type":"function","name":"create_lock","inputs":[{"name":"_value","type":"uint256","internalType":"uint256"},{"name":"_lock_duration","type":"uint256","internalType":"uint256"}],"outputs":[{"name":"","type":"uint256","internalType":"uint256"}],"stateMutability":"nonpayable"},{"type":"function","name":"create_lock_for","inputs":[{"name":"_value","type":"uint256","internalType":"uint256"},{"name":"_lock_duration","type":"uint256","internalType":"uint256"},{"name":"_to","type":"address","internalType":"address"}],"outputs":[{"name":"","type":"uint256","internalType":"uint256"}],"stateMutability":"nonpayable"},{"type":"function","name":"currentTokenId","inputs":[],"outputs":[{"name":"","type":"uint256","internalType":"uint256"}],"stateMutability":"view"},{"type":"function","name":"decimals","inputs":[],"outputs":[{"name":"","type":"uint8","internalType":"uint8"}],"stateMutability":"view"},{"type":"function","name":"delegate","inputs":[{"name":"delegatee","type":"address","internalType":"address"}],"outputs":[],"stateMutability":"nonpayable"},{"type":"function","name":"delegateBySig","inputs":[{"name":"delegatee","type":"address","internalType":"address"},{"name":"nonce","type":"uint256","internalType":"uint256"},{"name":"expiry","type":"uint256","internalType":"uint256"},{"name":"v","type":"uint8","internalType":"uint8"},{"name":"r","type":"bytes32","internalType":"bytes32"},{"name":"s","type":"bytes32","internalType":"bytes32"}],"outputs":[],"stateMutability":"nonpayable"},{"type":"function","name":"delegates","inputs":[{"name":"delegator","type":"address","internalType":"address"}],"outputs":[{"name":"","type":"address","internalType":"address"}],"stateMutability":"view"},{"type":"function","name":"deposit_for","inputs":[{"name":"_tokenId","type":"uint256","internalType":"uint256"},{"name":"_value","type":"uint256","internalType":"uint256"}],"outputs":[],"stateMutability":"nonpayable"},{"type":"function","name":"detach","inputs":[{"name":"_tokenId","type":"uint256","internalType":"uint256"}],"outputs":[],"stateMutability":"nonpayable"},{"type":"function","name":"disable_max_lock","inputs":[{"name":"_tokenId","type":"uint256","internalType":"uint256"}],"outputs":[],"stateMutability":"nonpayable"},{"type":"function","name":"enable_max_lock","inputs":[{"name":"_tokenId","type":"uint256","internalType":"uint256"}],"outputs":[],"stateMutability":"nonpayable"},{"type":"function","name":"epoch","inputs":[],"outputs":[{"name":"","type":"uint256","internalType":"uint256"}],"stateMutability":"view"},{"type":"function","name":"getApproved","inputs":[{"name":"_tokenId","type":"uint256","internalType":"uint256"}],"outputs":[{"name":"","type":"address","internalType":"address"}],"stateMutability":"view"},{"type":"function","name":"getPastTotalSupply","inputs":[{"name":"timestamp","type":"uint256","internalType":"uint256"}],"outputs":[{"name":"","type":"uint256","internalType":"uint256"}],"stateMutability":"view"},{"type":"function","name":"getPastVotes","inputs":[{"name":"account","type":"address","internalType":"address"},{"name":"timestamp","type":"uint256","internalType":"uint256"}],"outputs":[{"name":"","type":"uint256","internalType":"uint256"}],"stateMutability":"view"},{"type":"function","name":"getPastVotesIndex","inputs":[{"name":"account","type":"address","internalType":"address"},{"name":"timestamp","type":"uint256","internalType":"uint256"}],"outputs":[{"name":"","type":"uint32","internalType":"uint32"}],"stateMutability":"view"},{"type":"function","name":"getVotes","inputs":[{"name":"account","type":"address","internalType":"address"}],"outputs":[{"name":"","type":"uint256","internalType":"uint256"}],"stateMutability":"view"},{"type":"function","name":"get_last_user_slope","inputs":[{"name":"_tokenId","type":"uint256","internalType":"uint256"}],"outputs":[{"name":"","type":"int128","internalType":"int128"}],"stateMutability":"view"},{"type":"function","name":"increase_amount","inputs":[{"name":"_tokenId","type":"uint256","internalType":"uint256"},{"name":"_value","type":"uint256","internalType":"uint256"}],"outputs":[],"stateMutability":"nonpayable"},{"type":"function","name":"increase_unlock_time","inputs":[{"name":"_tokenId","type":"uint256","internalType":"uint256"},{"name":"_lock_duration","type":"uint256","internalType":"uint256"}],"outputs":[],"stateMutability":"nonpayable"},{"type":"function","name":"isApprovedForAll","inputs":[{"name":"_owner","type":"address","internalType":"address"},{"name":"_operator","type":"address","internalType":"address"}],"outputs":[{"name":"","type":"bool","internalType":"bool"}],"stateMutability":"view"},{"type":"function","name":"isApprovedOrOwner","inputs":[{"name":"_spender","type":"address","internalType":"address"},{"name":"_tokenId","type":"uint256","internalType":"uint256"}],"outputs":[{"name":"","type":"bool","internalType":"bool"}],"stateMutability":"nonpayable"},{"type":"function","name":"locked","inputs":[{"name":"","type":"uint256","internalType":"uint256"}],"outputs":[{"name":"amount","type":"int128","internalType":"int128"},{"name":"end","type":"uint256","internalType":"uint256"}],"stateMutability":"view"},{"type":"function","name":"locked__end","inputs":[{"name":"_tokenId","type":"uint256","internalType":"uint256"}],"outputs":[{"name":"","type":"uint256","internalType":"uint256"}],"stateMutability":"view"},{"type":"function","name":"lpToken","inputs":[],"outputs":[{"name":"","type":"address","internalType":"address"}],"stateMutability":"view"},{"type":"function","name":"maxLockIdToIndex","inputs":[{"name":"","type":"uint256","internalType":"uint256"}],"outputs":[{"name":"","type":"uint256","internalType":"uint256"}],"stateMutability":"view"},{"type":"function","name":"maxLockToggle","inputs":[],"outputs":[],"stateMutability":"nonpayable"},{"type":"function","name":"max_lock","inputs":[{"name":"_tokenId","type":"uint256","internalType":"uint256"}],"outputs":[],"stateMutability":"nonpayable"},{"type":"function","name":"max_lock_bulk","inputs":[],"outputs":[],"stateMutability":"nonpayable"},{"type":"function","name":"max_lock_bulk","inputs":[{"name":"start","type":"uint256","internalType":"uint256"},{"name":"finish","type":"uint256","internalType":"uint256"}],"outputs":[],"stateMutability":"nonpayable"},{"type":"function","name":"max_lock_enabled","inputs":[],"outputs":[{"name":"","type":"bool","internalType":"bool"}],"stateMutability":"view"},{"type":"function","name":"max_locked_nfts","inputs":[{"name":"","type":"uint256","internalType":"uint256"}],"outputs":[{"name":"","type":"uint256","internalType":"uint256"}],"stateMutability":"view"},{"type":"function","name":"merge","inputs":[{"name":"_from","type":"uint256","internalType":"uint256"},{"name":"_to","type":"uint256","internalType":"uint256"}],"outputs":[],"stateMutability":"nonpayable"},{"type":"function","name":"name","inputs":[],"outputs":[{"name":"","type":"string","internalType":"string"}],"stateMutability":"view"},{"type":"function","name":"nonces","inputs":[{"name":"","type":"address","internalType":"address"}],"outputs":[{"name":"","type":"uint256","internalType":"uint256"}],"stateMutability":"view"},{"type":"function","name":"numCheckpoints","inputs":[{"name":"","type":"address","internalType":"address"}],"outputs":[{"name":"","type":"uint32","internalType":"uint32"}],"stateMutability":"view"},{"type":"function","name":"owner","inputs":[],"outputs":[{"name":"","type":"address","internalType":"address"}],"stateMutability":"view"},{"type":"function","name":"ownerOf","inputs":[{"name":"_tokenId","type":"uint256","internalType":"uint256"}],"outputs":[{"name":"","type":"address","internalType":"address"}],"stateMutability":"view"},{"type":"function","name":"ownership_change","inputs":[{"name":"","type":"uint256","internalType":"uint256"}],"outputs":[{"name":"","type":"uint256","internalType":"uint256"}],"stateMutability":"view"},{"type":"function","name":"point_history","inputs":[{"name":"","type":"uint256","internalType":"uint256"}],"outputs":[{"name":"bias","type":"int128","internalType":"int128"},{"name":"slope","type":"int128","internalType":"int128"},{"name":"ts","type":"uint256","internalType":"uint256"},{"name":"blk","type":"uint256","internalType":"uint256"}],"stateMutability":"view"},{"type":"function","name":"safeTransferFrom","inputs":[{"name":"_from","type":"address","internalType":"address"},{"name":"_to","type":"address","internalType":"address"},{"name":"_tokenId","type":"uint256","internalType":"uint256"}],"outputs":[],"stateMutability":"nonpayable"},{"type":"function","name":"safeTransferFrom","inputs":[{"name":"_from","type":"address","internalType":"address"},{"name":"_to","type":"address","internalType":"address"},{"name":"_tokenId","type":"uint256","internalType":"uint256"},{"name":"_data","type":"bytes","internalType":"bytes"}],"outputs":[],"stateMutability":"nonpayable"},{"type":"function","name":"setApprovalForAll","inputs":[{"name":"_operator","type":"address","internalType":"address"},{"name":"_approved","type":"bool","internalType":"bool"}],"outputs":[],"stateMutability":"nonpayable"},{"type":"function","name":"setArtProxy","inputs":[{"name":"_proxy","type":"address","internalType":"address"}],"outputs":[],"stateMutability":"nonpayable"},{"type":"function","name":"setTeam","inputs":[{"name":"_team","type":"address","internalType":"address"}],"outputs":[],"stateMutability":"nonpayable"},{"type":"function","name":"setVoter","inputs":[{"name":"_voter","type":"address","internalType":"address"}],"outputs":[],"stateMutability":"nonpayable"},{"type":"function","name":"slope_changes","inputs":[{"name":"","type":"uint256","internalType":"uint256"}],"outputs":[{"name":"","type":"int128","internalType":"int128"}],"stateMutability":"view"},{"type":"function","name":"split","inputs":[{"name":"_tokenId","type":"uint256","internalType":"uint256"},{"name":"amount","type":"uint256","internalType":"uint256"}],"outputs":[],"stateMutability":"nonpayable"},{"type":"function","name":"supply","inputs":[],"outputs":[{"name":"","type":"uint256","internalType":"uint256"}],"stateMutability":"view"},{"type":"function","name":"supportsInterface","inputs":[{"name":"_interfaceID","type":"bytes4","internalType":"bytes4"}],"outputs":[{"name":"","type":"bool","internalType":"bool"}],"stateMutability":"view"},{"type":"function","name":"symbol","inputs":[],"outputs":[{"name":"","type":"string","internalType":"string"}],"stateMutability":"view"},{"type":"function","name":"team","inputs":[],"outputs":[{"name":"","type":"address","internalType":"address"}],"stateMutability":"view"},{"type":"function","name":"tokenOfOwnerByIndex","inputs":[{"name":"_owner","type":"address","internalType":"address"},{"name":"_tokenIndex","type":"uint256","internalType":"uint256"}],"outputs":[{"name":"","type":"uint256","internalType":"uint256"}],"stateMutability":"view"},{"type":"function","name":"tokenURI","inputs":[{"name":"_tokenId","type":"uint256","internalType":"uint256"}],"outputs":[{"name":"","type":"string","internalType":"string"}],"stateMutability":"view"},{"type":"function","name":"totalSupply","inputs":[],"outputs":[{"name":"","type":"uint256","internalType":"uint256"}],"stateMutability":"view"},{"type":"function","name":"totalSupplyAt","inputs":[{"name":"_block","type":"uint256","internalType":"uint256"}],"outputs":[{"name":"","type":"uint256","internalType":"uint256"}],"stateMutability":"view"},{"type":"function","name":"totalSupplyAtT","inputs":[{"name":"t","type":"uint256","internalType":"uint256"}],"outputs":[{"name":"","type":"uint256","internalType":"uint256"}],"stateMutability":"view"},{"type":"function","name":"transferFrom","inputs":[{"name":"_from","type":"address","internalType":"address"},{"name":"_to","type":"address","internalType":"address"},{"name":"_tokenId","type":"uint256","internalType":"uint256"}],"outputs":[],"stateMutability":"nonpayable"},{"type":"function","name":"user_point_epoch","inputs":[{"name":"","type":"uint256","internalType":"uint256"}],"outputs":[{"name":"","type":"uint256","internalType":"uint256"}],"stateMutability":"view"},{"type":"function","name":"user_point_history","inputs":[{"name":"","type":"uint256","internalType":"uint256"},{"name":"","type":"uint256","internalType":"uint256"}],"outputs":[{"name":"bias","type":"int128","internalType":"int128"},{"name":"slope","type":"int128","internalType":"int128"},{"name":"ts","type":"uint256","internalType":"uint256"},{"name":"blk","type":"uint256","internalType":"uint256"}],"stateMutability":"view"},{"type":"function","name":"user_point_history__ts","inputs":[{"name":"_tokenId","type":"uint256","internalType":"uint256"},{"name":"_idx","type":"uint256","internalType":"uint256"}],"outputs":[{"name":"","type":"uint256","internalType":"uint256"}],"stateMutability":"view"},{"type":"function","name":"version","inputs":[],"outputs":[{"name":"","type":"string","internalType":"string"}],"stateMutability":"view"},{"type":"function","name":"voted","inputs":[{"name":"","type":"uint256","internalType":"uint256"}],"outputs":[{"name":"","type":"bool","internalType":"bool"}],"stateMutability":"view"},{"type":"function","name":"voter","inputs":[],"outputs":[{"name":"","type":"address","internalType":"address"}],"stateMutability":"view"},{"type":"function","name":"voting","inputs":[{"name":"_tokenId","type":"uint256","internalType":"uint256"}],"outputs":[],"stateMutability":"nonpayable"},{"type":"function","name":"withdraw","inputs":[{"name":"_tokenId","type":"uint256","internalType":"uint256"}],"outputs":[],"stateMutability":"nonpayable"},{"type":"event","name":"Approval","inputs":[{"name":"owner","type":"address","indexed":true,"internalType":"address"},{"name":"approved","type":"address","indexed":true,"internalType":"address"},{"name":"tokenId","type":"uint256","indexed":true,"internalType":"uint256"}],"anonymous":false},{"type":"event","name":"ApprovalForAll","inputs":[{"name":"owner","type":"address","indexed":true,"internalType":"address"},{"name":"operator","type":"address","indexed":true,"internalType":"address"},{"name":"approved","type":"bool","indexed":false,"internalType":"bool"}],"anonymous":false},{"type":"event","name":"DelegateChanged","inputs":[{"name":"delegator","type":"address","indexed":true,"internalType":"address"},{"name":"fromDelegate","type":"address","indexed":true,"internalType":"address"},{"name":"toDelegate","type":"address","indexed":true,"internalType":"address"}],"anonymous":false},{"type":"event","name":"DelegateVotesChanged","inputs":[{"name":"delegate","type":"address","indexed":true,"internalType":"address"},{"name":"previousBalance","type":"uint256","indexed":false,"internalType":"uint256"},{"name":"newBalance","type":"uint256","indexed":false,"internalType":"uint256"}],"anonymous":false},{"type":"event","name":"Deposit","inputs":[{"name":"provider","type":"address","indexed":true,"internalType":"address"},{"name":"tokenId","type":"uint256","indexed":false,"internalType":"uint256"},{"name":"value","type":"uint256","indexed":false,"internalType":"uint256"},{"name":"locktime","type":"uint256","indexed":true,"internalType":"uint256"},{"name":"deposit_type","type":"uint8","indexed":false,"internalType":"enum VotingEscrow.DepositType"},{"name":"ts","type":"uint256","indexed":false,"internalType":"uint256"}],"anonymous":false},{"type":"event","name":"Remove","inputs":[{"name":"provider","type":"address","indexed":true,"internalType":"address"},{"name":"tokenId","type":"uint256","indexed":false,"internalType":"uint256"},{"name":"value","type":"uint256","indexed":false,"internalType":"uint256"},{"name":"locktime","type":"uint256","indexed":true,"internalType":"uint256"},{"name":"ts","type":"uint256","indexed":false,"internalType":"uint256"}],"anonymous":false},{"type":"event","name":"Supply","inputs":[{"name":"prevSupply","type":"uint256","indexed":false,"internalType":"uint256"},{"name":"supply","type":"uint256","indexed":false,"internalType":"uint256"}],"anonymous":false},{"type":"event","name":"Transfer","inputs":[{"name":"from","type":"address","indexed":true,"internalType":"address"},{"name":"to","type":"address","indexed":true,"internalType":"address"},{"name":"tokenId","type":"uint256","indexed":true,"internalType":"uint256"}],"anonymous":false},{"type":"event","name":"Withdraw","inputs":[{"name":"provider","type":"address","indexed":true,"internalType":"address"},{"name":"tokenId","type":"uint256","indexed":false,"internalType":"uint256"},{"name":"value","type":"uint256","indexed":false,"internalType":"uint256"},{"name":"ts","type":"uint256","indexed":false,"internalType":"uint256"}],"anonymous":false}],"bytecode":{"object":"0x60e060405260068054600160ff199182168117909255600b805490911690911790553480156200002e57600080fd5b506040516200542c3803806200542c8339810160408190526200005191620001d4565b6001600160a01b0384811660c05283811660a05260008054336001600160a01b03199182168117835560018054831690911781556002805490921686851617909155918316608052437f3617319a054d772f909f7c479a2cebe5066e836a939412e32403c99029b92f0155427f3617319a054d772f909f7c479a2cebe5066e836a939412e32403c99029b92f005560046020527f9fe05126d2d9ecf60592e254dead906a4b2e492f36cca727682c38e9008c6ac1805460ff1990811684179091557f4267c0a6fd96b7a87f183ee8744f24d011423cd0e0142b3f563f183d8d9a456b8054821684179055635b5e139f60e01b82527e24030bcf4927897dffe721c2d8dda4bfd8910861687c42b03a463b43b041478054909116909217909155600554604051909130916000805160206200540c833981519152908290a460055460405160009030906000805160206200540c833981519152908390a45050505062000231565b80516001600160a01b0381168114620001cf57600080fd5b919050565b60008060008060808587031215620001eb57600080fd5b620001f685620001b7565b93506200020660208601620001b7565b92506200021660408601620001b7565b91506200022660608601620001b7565b905092959194509250565b60805160a05160c05161519d6200026f6000396000610b41015260008181610882015281816113cb0152612e2c015260006109ba015261519d6000f3fe608060405234801561001057600080fd5b50600436106104ab5760003560e01c806370a082311161026d578063c1f0fb9f11610151578063e441135c116100ce578063ee99fe2811610092578063ee99fe2814610c9e578063f1127ed814610cb1578063f8a0576314610cdc578063fae5ae4e14610cff578063fbd3a29d14610d0c578063fd4a77f114610d1f57600080fd5b8063e441135c14610c00578063e7a324dc14610c20578063e7e242d414610c47578063e985e9c514610c5a578063edaee1a914610c9657600080fd5b8063d0a1798811610115578063d0a1798814610b76578063d1c2babb14610b89578063d1febfb914610b9c578063d4e54c3b14610bda578063e0514aba14610bed57600080fd5b8063c1f0fb9f14610b0e578063c2c4c5c114610b21578063c3cda52014610b29578063c55dae6314610b3c578063c87b56dd14610b6357600080fd5b806395d89b41116101ea578063a22cb465116101ae578063a22cb46514610a67578063a4d855df14610a7a578063b45a3c0e14610a8d578063b64eab7d14610ad5578063b7ffaf0e14610ae8578063b88d4fde14610afb57600080fd5b806395d89b411461052d578063981b24d014610a1b578063986b7d8a14610a2e5780639ab24eb014610a41578063a183af5214610a5457600080fd5b80638c2c9baf116102315780638c2c9baf146109a25780638da5cb5b146109b55780638e539e8c146109dc5780638fbb38ff146109ef578063900cf0cf14610a1257600080fd5b806370a08231146109265780637116c60c14610939578063711974841461094c5780637ecebe001461096f57806385f2aef21461098f57600080fd5b80632f745c59116103945780634bc2a657116103115780635f5b0c32116102d55780635f5b0c32146108745780635fcbd2851461087d5780636352211e146108a457806365fc3873146108cd5780636f548837146108e05780636fcfff451461090057600080fd5b80634bc2a6571461080457806354fd4d50146108175780635594a0451461083b578063587cde1e1461084e5780635c19a95c1461086157600080fd5b806342842e0e1161035857806342842e0e14610792578063430c2081146107a5578063461f711c146107b857806346c96aac146107de5780634b19becc146107f157600080fd5b80632f745c59146106f9578063313ce5671461072f5780633586d148146107495780633a46b1a81461076c578063424a87641461077f57600080fd5b80630bf8c9631161042d57806320606b70116103f157806320606b701461068057806323b872dd146106a757806324c7edc0146106ba57806325a58b56146106cd5780632e1a7d4d146106d35780632e720f7d146106e657600080fd5b80630bf8c963146105f75780630d6a20331461060a5780631376f3da1461062a57806318160ddd146106655780631c984bc31461066d57600080fd5b8063072b330211610474578063072b33021461055e5780630758c7d814610568578063081812fc14610590578063095cf5c6146105d1578063095ea7b3146105e457600080fd5b80629a9b7b146104b057806301ffc9a7146104c7578063047fc9aa1461050457806305a4e6101461050d57806306fdde031461052d575b600080fd5b6005545b6040519081526020015b60405180910390f35b6104f46104d536600461484c565b6001600160e01b03191660009081526004602052604090205460ff1690565b60405190151581526020016104be565b6104b460175481565b6104b461051b366004614869565b60096020526000908152604090205481565b61055160405180604001604052806005815260200164766542564d60d81b81525081565b6040516104be91906148da565b610566610d32565b005b61057b610576366004614909565b610d43565b60405163ffffffff90911681526020016104be565b6105b961059e366004614869565b6000908152600d60205260409020546001600160a01b031690565b6040516001600160a01b0390911681526020016104be565b6105666105df366004614933565b610eb6565b6105666105f2366004614909565b610eef565b610566610605366004614869565b610fd7565b6104b4610618366004614869565b60186020526000908152604090205481565b61063d61063836600461494e565b611056565b60408051600f95860b81529390940b60208401529282015260608101919091526080016104be565b6104b461109d565b6104b461067b36600461494e565b6110ad565b6104b47f8cad95687ba82c2ce50e74f7b754645e5117c3a5bec8151c0726d5857980a86681565b6105666106b5366004614970565b6110df565b6105666106c8366004614869565b6110f0565b436104b4565b6105666106e1366004614869565b611241565b6105666106f4366004614933565b6114ee565b6104b4610707366004614909565b6001600160a01b03919091166000908152601060209081526040808320938352929052205490565b610737601281565b60405160ff90911681526020016104be565b6104f4610757366004614869565b600c6020526000908152604090205460ff1681565b6104b461077a366004614909565b611527565b61056661078d36600461494e565b6115c6565b6105666107a0366004614970565b611608565b6104f46107b3366004614909565b611623565b6107cb6107c6366004614869565b611636565b604051600f9190910b81526020016104be565b6000546105b9906001600160a01b031681565b6105666107ff36600461494e565b611679565b610566610812366004614933565b611865565b610551604051806040016040528060058152602001640312e302e360dc1b81525081565b6002546105b9906001600160a01b031681565b6105b961085c366004614933565b61189e565b61056661086f366004614933565b6118ce565b6104b461040081565b6105b97f000000000000000000000000000000000000000000000000000000000000000081565b6105b96108b2366004614869565b6000908152600760205260409020546001600160a01b031690565b6104b46108db36600461494e565b6118e9565b6104b46108ee366004614869565b600f6020526000908152604090205481565b61057b61090e366004614933565b601c6020526000908152604090205463ffffffff1681565b6104b4610934366004614933565b61192b565b6104b4610947366004614869565b611949565b6107cb61095a366004614869565b601660205260009081526040902054600f0b81565b6104b461097d366004614933565b601d6020526000908152604090205481565b6001546105b9906001600160a01b031681565b6104b46109b036600461494e565b6119a9565b6105b97f000000000000000000000000000000000000000000000000000000000000000081565b6104b46109ea366004614869565b6119b5565b6104f46109fd366004614869565b60196020526000908152604090205460ff1681565b6104b460155481565b6104b4610a29366004614869565b6119c0565b610566610a3c366004614869565b611b62565b6104b4610a4f366004614933565b611ba6565b610566610a6236600461494e565b611c79565b610566610a753660046149ba565b611d78565b610566610a8836600461494e565b611dfc565b610abb610a9b366004614869565b60146020526000908152604090208054600190910154600f9190910b9082565b60408051600f9390930b83526020830191909152016104be565b610566610ae3366004614869565b611fb1565b610566610af6366004614869565b612055565b610566610b09366004614a60565b612195565b610566610b1c366004614869565b612334565b610566612363565b610566610b37366004614b0b565b6123a1565b6105b97f000000000000000000000000000000000000000000000000000000000000000081565b610551610b71366004614869565b6126e1565b6104b4610b84366004614869565b61280d565b610566610b9736600461494e565b61282e565b61063d610baa366004614869565b600360205260009081526040902080546001820154600290920154600f82810b93600160801b909304900b919084565b6104b4610be8366004614b6b565b612993565b6104b4610bfb36600461494e565b6129d6565b6104b4610c0e366004614869565b60126020526000908152604090205481565b6104b47fe48329057bfd03d55e49b547132e39cffd9c1820ad7b9d4c5307691425d15adf81565b6104b4610c55366004614869565b6129e2565b6104f4610c68366004614ba0565b6001600160a01b039182166000908152600e6020908152604080832093909416825291909152205460ff1690565b610566612a0a565b610566610cac36600461494e565b612a35565b6104b4610cbf366004614bd3565b601b60209081526000928352604080842090915290825290205481565b6104b4610cea366004614869565b60009081526014602052604090206001015490565b600b546104f49060ff1681565b610566610d1a366004614869565b612b09565b610566610d2d366004614869565b612b3a565b600a54610d41906000906115c6565b565b6001600160a01b0382166000908152601c602052604081205463ffffffff16808203610d73576000915050610eb0565b6001600160a01b0384166000908152601b602052604081208491610d98600185614c1e565b63ffffffff16815260208101919091526040016000205411610dc757610dbf600182614c1e565b915050610eb0565b6001600160a01b0384166000908152601b60209081526040808320838052909152902054831015610dfc576000915050610eb0565b600080610e0a600184614c1e565b90505b8163ffffffff168163ffffffff161115610eab5760006002610e2f8484614c1e565b610e399190614c59565b610e439083614c1e565b6001600160a01b0388166000908152601b6020908152604080832063ffffffff851684529091529020805491925090879003610e8557509350610eb092505050565b8054871115610e9657819350610ea4565b610ea1600183614c1e565b92505b5050610e0d565b509150505b92915050565b6001546001600160a01b03163314610ecd57600080fd5b600180546001600160a01b0319166001600160a01b0392909216919091179055565b6000818152600760205260409020546001600160a01b031680610f1157600080fd5b806001600160a01b0316836001600160a01b031603610f2f57600080fd5b6000828152600760209081526040808320546001600160a01b038581168552600e845282852033808752945291909320549216149060ff168180610f705750805b610f7957600080fd5b6000848152600d602052604080822080546001600160a01b0319166001600160a01b0389811691821790925591518793918716917f8c5be1e5ebec7d5bd14f71427d1e84f3dd0314c0f7b2291e5b200ac8c7c3b92591a45050505050565b610fe13382612b6c565b610fed57610fed614c7c565b6000818152600c602052604090205460ff161561103b5760405162461bcd60e51b8152602060048201526007602482015266189b1bd8dad95960ca1b60448201526064015b60405180910390fd5b6000908152600c60205260409020805460ff19166001179055565b601360205281600052604060002081633b9aca00811061107557600080fd5b6003020180546001820154600290920154600f82810b9550600160801b90920490910b925084565b60006110a842611949565b905090565b600082815260136020526040812082633b9aca0081106110cf576110cf614c92565b6003020160010154905092915050565b6110eb83838333612bdc565b505050565b6000818152600960205260409020541580159061110f5750600b5460ff165b1561123e57600081815260146020908152604080832081518083019092528054600f0b825260010154918101919091529062093a80806111536301dfe20042614ca8565b61115d9190614cc0565b6111679190614cd4565b905081602001518111156110eb57428260200151116111b75760405162461bcd60e51b815260206004820152600c60248201526b131bd8dac8195e1c1a5c995960a21b6044820152606401611032565b60008260000151600f0b136112025760405162461bcd60e51b8152602060048201526011602482015270139bdd1a1a5b99c81a5cc81b1bd8dad959607a1b6044820152606401611032565b6112106301dfe20042614ca8565b81111561122f5760405162461bcd60e51b815260040161103290614cf3565b6110eb83600083856003612d1d565b50565b60065460ff1660011461125357600080fd5b6006805460ff1916600217905561126a3382612b6c565b61127657611276614c7c565b6000818152601860205260409020541580156112a1575060008181526019602052604090205460ff16155b6112bd5760405162461bcd60e51b815260040161103290614d2a565b60008181526014602090815260409182902082518084019093528054600f0b8352600101549082018190524210156113305760405162461bcd60e51b8152602060048201526016602482015275546865206c6f636b206469646e27742065787069726560501b6044820152606401611032565b8051604080518082018252600080825260208083018281528783526014909152929020905181546001600160801b0319166001600160801b039091161781559051600190910155601754600f9190910b9061138b8282614d4c565b60175560408051808201909152600080825260208201526113af9085908590612f40565b60405163a9059cbb60e01b8152336004820152602481018390527f00000000000000000000000000000000000000000000000000000000000000006001600160a01b03169063a9059cbb906044016020604051808303816000875af115801561141c573d6000803e3d6000fd5b505050506040513d601f19601f820116820180604052508101906114409190614d63565b61144c5761144c614c7c565b6114558461355c565b60408051858152602081018490524281830152905133917f02f25270a4d87bea75db541cdfe559334a275b4a233520ed6c0a2429667cca94919081900360600190a27f5e2aa66efd74cce82b21852e317e5490d9ecc9e6bb953ae24d90851258cc2f5c816114c38482614d4c565b6040805192835260208301919091520160405180910390a150506006805460ff191660011790555050565b6001546001600160a01b0316331461150557600080fd5b600280546001600160a01b0319166001600160a01b0392909216919091179055565b6000806115348484610d43565b6001600160a01b0385166000908152601b6020908152604080832063ffffffff851684529091528120919250600190910190805b82548110156115bc57600083828154811061158557611585614c92565b9060005260206000200154905061159c818861362f565b6115a69084614ca8565b92505080806115b490614d80565b915050611568565b5095945050505050565b815b818110156110eb576115f6600a82815481106115e6576115e6614c92565b90600052602060002001546110f0565b8061160081614d80565b9150506115c8565b6110eb83838360405180602001604052806000815250612195565b600061162f8383612b6c565b9392505050565b6000818152601260209081526040808320546013909252822081633b9aca00811061166357611663614c92565b6003020154600160801b9004600f0b9392505050565b6000828152601860205260409020541580156116a4575060008281526019602052604090205460ff16155b6116c05760405162461bcd60e51b815260040161103290614d2a565b6116ca3383612b6c565b6116d357600080fd5b6000828152600c602052604090205460ff16156117225760405162461bcd60e51b815260206004820152600d60248201526c1cdc1b1a5d08189b1bd8dad959609a1b6044820152606401611032565b600082815260076020908152604080832054601483529281902081518083019092528054600f0b8083526001909101549282018390526001600160a01b03909316929091908481116117a75760405162461bcd60e51b815260206004820152600e60248201526d616d6f756e74203e2076616c756560901b6044820152606401611032565b814281116117c75760405162461bcd60e51b815260040161103290614d99565b6117d56301dfe20042614ca8565b8111156117f45760405162461bcd60e51b815260040161103290614cf3565b61180087878387613703565b60056000815461180f90614d80565b909155506005546118208682613836565b5060008181526014602090815260409182902082518084019093528054600f0b8352600101549082015261185b908290899085906005612d1d565b5050505050505050565b6000546001600160a01b0316331461187c57600080fd5b600080546001600160a01b0319166001600160a01b0392909216919091179055565b6001600160a01b038082166000908152601a602052604081205490911680156118c7578061162f565b5090919050565b6001600160a01b0381166118df5750335b61123e33826138a7565b60065460009060ff166001146118fe57600080fd5b6006805460ff1916600217905561191683833361391a565b90506006805460ff1916600117905592915050565b6001600160a01b038116600090815260086020526040812054610eb0565b601554600081815260036020908152604080832081516080810183528154600f81810b8352600160801b909104900b938101939093526001810154918301919091526002015460608201529091906119a18185613a02565b949350505050565b600061162f8383613b03565b6000610eb082611949565b6000438211156119d2576119d2614c7c565b60155460006119e18483613ddc565b600081815260036020908152604080832081516080810183528154600f81810b8352600160801b909104900b9381019390935260018101549183019190915260020154606082015291925083831015611af0576000600381611a44866001614ca8565b8152602080820192909252604090810160002081516080810183528154600f81810b8352600160801b909104900b9381019390935260018101549183019190915260020154606080830182905285015191925014611aea5782606001518160600151611ab09190614d4c565b83604001518260400151611ac49190614d4c565b6060850151611ad3908a614d4c565b611add9190614cd4565b611ae79190614cc0565b91505b50611b3f565b43826060015114611b3f576060820151611b0a9043614d4c565b6040830151611b199042614d4c565b6060840151611b289089614d4c565b611b329190614cd4565b611b3c9190614cc0565b90505b611b5882828460400151611b539190614ca8565b613a02565b9695505050505050565b6000546001600160a01b03163314611b7957600080fd5b600081815260186020526040902054611b9490600190614d4c565b60009182526018602052604090912055565b6001600160a01b0381166000908152601c602052604081205463ffffffff16808203611bd55750600092915050565b6001600160a01b0383166000908152601b6020526040812081611bf9600185614c1e565b63ffffffff1663ffffffff16815260200190815260200160002060010190506000805b8254811015611c70576000838281548110611c3957611c39614c92565b90600052602060002001549050611c50814261362f565b611c5a9084614ca8565b9250508080611c6890614d80565b915050611c1c565b50949350505050565b60065460ff16600114611c8b57600080fd5b6006805460ff19166002179055611ca23383612b6c565b611cae57611cae614c7c565b60008281526014602090815260409182902082518084019093528054600f0b8352600101549082015281611ce457611ce4614c7c565b60008160000151600f0b13611d345760405162461bcd60e51b8152602060048201526016602482015275139bc8195e1a5cdd1a5b99c81b1bd8dac8199bdd5b9960521b6044820152606401611032565b42816020015111611d575760405162461bcd60e51b815260040161103290614ddf565b611d6683836000846002612d1d565b50506006805460ff1916600117905550565b336001600160a01b03831603611d9057611d90614c7c565b336000818152600e602090815260408083206001600160a01b03871680855290835292819020805460ff191686151590811790915590519081529192917f17307eab39ab6107e8899845ad3d59bd9653f200f220920489ca2b5937696c31910160405180910390a35050565b60065460ff16600114611e0e57600080fd5b6006805460ff19166002179055611e253383612b6c565b611e3157611e31614c7c565b600082815260146020908152604080832081518083019092528054600f0b825260010154918101919091529062093a8080611e6c8542614ca8565b611e769190614cc0565b611e809190614cd4565b905042826020015111611ec45760405162461bcd60e51b815260206004820152600c60248201526b131bd8dac8195e1c1a5c995960a21b6044820152606401611032565b60008260000151600f0b13611f0f5760405162461bcd60e51b8152602060048201526011602482015270139bdd1a1a5b99c81a5cc81b1bd8dad959607a1b6044820152606401611032565b81602001518111611f625760405162461bcd60e51b815260206004820152601f60248201527f43616e206f6e6c7920696e637265617365206c6f636b206475726174696f6e006044820152606401611032565b611f706301dfe20042614ca8565b811115611f8f5760405162461bcd60e51b815260040161103290614cf3565b611f9e84600083856003612d1d565b50506006805460ff191660011790555050565b611fbb3382612b6c565b611fc757611fc7614c7c565b6000818152600960205260409020541561200d5760405162461bcd60e51b8152602060048201526007602482015266195b98589b195960ca1b6044820152606401611032565b600a80546001810182557fc65a7bb8d6351c1cf70c95a316cc6a92839c986682d98bc35f958f4883f9d2a8018290555460008281526009602052604090205561123e816110f0565b61205f3382612b6c565b61206b5761206b614c7c565b60008181526009602052604081205490036120b35760405162461bcd60e51b8152602060048201526008602482015267191a5cd8589b195960c21b6044820152606401611032565b6000818152600960205260408120546120ce90600190614d4c565b600083815260096020526040812055600a8054919250906120f190600190614d4c565b8154811061210157612101614c92565b9060005260206000200154600a828154811061211f5761211f614c92565b600091825260209091200155612136816001614ca8565b60096000600a848154811061214d5761214d614c92565b9060005260206000200154815260200190815260200160002081905550600a80548061217b5761217b614e23565b600190038181906000526020600020016000905590555050565b6121a184848433612bdc565b823b1561232e57604051630a85bd0160e11b81526001600160a01b0384169063150b7a02906121da903390889087908790600401614e39565b6020604051808303816000875af1925050508015612215575060408051601f3d908101601f1916820190925261221291810190614e6c565b60015b6122bd573d808015612243576040519150601f19603f3d011682016040523d82523d6000602084013e612248565b606091505b5080516000036122b55760405162461bcd60e51b815260206004820152603260248201527f4552433732313a207472616e7366657220746f206e6f6e20455243373231526560448201527131b2b4bb32b91034b6b83632b6b2b73a32b960711b6064820152608401611032565b805181602001fd5b6001600160e01b03198116630a85bd0160e11b1461232c5760405162461bcd60e51b815260206004820152602660248201527f4552433732313a2045524337323152656365697665722072656a656374656420604482015265746f6b656e7360d01b6064820152608401611032565b505b50505050565b6000546001600160a01b0316331461234b57600080fd5b6000908152601960205260409020805460ff19169055565b610d41600060405180604001604052806000600f0b8152602001600081525060405180604001604052806000600f0b81526020016000815250612f40565b604080518082018252600580825264766542564d60d81b60209283015282518084018452908152640312e302e360dc1b9082015281517f8cad95687ba82c2ce50e74f7b754645e5117c3a5bec8151c0726d5857980a866818301527fb9257b14fe0b60fe4c24872651fc8d0ce1623b35e04e55ba78fb311c3799756e818401527f06c015bd22b4c69690933c1058878ebdfef31f9aaae40bbe86d8a09fe1b2972c60608201524660808201523060a0808301919091528351808303909101815260c0820184528051908301207fe48329057bfd03d55e49b547132e39cffd9c1820ad7b9d4c5307691425d15adf60e08301526001600160a01b038a1661010083015261012082018990526101408083018990528451808403909101815261016083019094528351939092019290922061190160f01b61018084015261018283018290526101a2830181905290916000906101c20160408051601f198184030181528282528051602091820120600080855291840180845281905260ff8a169284019290925260608301889052608083018790529092509060019060a0016020604051602081039080840390855afa158015612560573d6000803e3d6000fd5b5050604051601f1901519150506001600160a01b0381166125da5760405162461bcd60e51b815260206004820152602e60248201527f566f74696e67457363726f773a3a64656c656761746542795369673a20696e7660448201526d616c6964207369676e617475726560901b6064820152608401611032565b6001600160a01b0381166000908152601d602052604081208054916125fe83614d80565b9190505589146126635760405162461bcd60e51b815260206004820152602a60248201527f566f74696e67457363726f773a3a64656c656761746542795369673a20696e76604482015269616c6964206e6f6e636560b01b6064820152608401611032565b874211156126ca5760405162461bcd60e51b815260206004820152602e60248201527f566f74696e67457363726f773a3a64656c656761746542795369673a2073696760448201526d1b985d1d5c9948195e1c1a5c995960921b6064820152608401611032565b6126d4818b6138a7565b505050505b505050505050565b6000818152600760205260409020546060906001600160a01b03166127485760405162461bcd60e51b815260206004820152601b60248201527f517565727920666f72206e6f6e6578697374656e7420746f6b656e00000000006044820152606401611032565b60008281526014602090815260409182902082518084019093528054600f0b835260010154908201526002546001600160a01b031663dd9ec1498461278d814261362f565b6020850151855160405160e086901b6001600160e01b0319168152600481019490945260248401929092526044830152600f0b6064820152608401600060405180830381865afa1580156127e5573d6000803e3d6000fd5b505050506040513d6000823e601f3d908101601f1916820160405261162f9190810190614e89565b600a818154811061281d57600080fd5b600091825260209091200154905081565b600082815260186020526040902054158015612859575060008281526019602052604090205460ff16155b6128755760405162461bcd60e51b815260040161103290614d2a565b80820361288157600080fd5b61288b3383612b6c565b61289457600080fd5b61289e3382612b6c565b6128a757600080fd5b6000828152601460208181526040808420815180830183528154600f90810b825260019283015482860190815288885295855283872084518086019095528054820b855290920154938301849052805194519095929490910b921115612911578260200151612917565b83602001515b604080518082018252600080825260208083018281528b835260148252848320935184546001600160801b0319166001600160801b039091161784555160019093019290925582518084019093528083529082015290915061297c9087908690612f40565b6129858661355c565b6126d9858383866004612d1d565b60065460009060ff166001146129a857600080fd5b6006805460ff191660021790556129c084848461391a565b90506006805460ff191660011790559392505050565b600061162f838361362f565b6000818152600f6020526040812054439003612a0057506000919050565b610eb0824261362f565b6001546001600160a01b03163314612a2157600080fd5b600b805460ff19811660ff90911615179055565b60065460ff16600114612a4757600080fd5b6006805460ff1916600217905560008281526014602090815260409182902082518084019093528054600f0b8352600101549082015281612a8757600080fd5b60008160000151600f0b13612ad75760405162461bcd60e51b8152602060048201526016602482015275139bc8195e1a5cdd1a5b99c81b1bd8dac8199bdd5b9960521b6044820152606401611032565b42816020015111612afa5760405162461bcd60e51b815260040161103290614ddf565b611d6683836000846000612d1d565b6000546001600160a01b03163314612b2057600080fd5b600081815260186020526040902054611b94906001614ca8565b6000546001600160a01b03163314612b5157600080fd5b6000908152601960205260409020805460ff19166001179055565b6000612b77826110f0565b600082815260076020908152604080832054600d8352818420546001600160a01b03918216808652600e8552838620898416808852955292909420549193838514939116149060ff168280612bc95750815b80612bd15750805b979650505050505050565b600082815260186020526040902054158015612c07575060008281526019602052604090205460ff16155b612c235760405162461bcd60e51b815260040161103290614d2a565b612c2d8183612b6c565b612c3657600080fd5b826001600160a01b0316846001600160a01b031603612c845760405162461bcd60e51b815260206004820152600a60248201526966726f6d203d3d20746f60b01b6044820152606401611032565b612c8e8483613e62565b612c988483613ec9565b612cb3612ca48561189e565b612cad8561189e565b84613f4a565b612cbd83836142ac565b6000828152600f60209081526040808320439055600c909152808220805460ff191690555183916001600160a01b0380871692908816917fddf252ad1be2c89b69c2b068fc378daa952ba7f163c4a11628f55a4df523b3ef91a450505050565b6017548290612d2c8682614ca8565b6017556040805180820190915260008082526020820152825160208085015190830152600f0b8152825187908490612d65908390614ef7565b600f0b9052508515612d7957602083018690525b6000888152601460209081526040909120845181546001600160801b0319166001600160801b0390911617815590840151600190910155612dbb888285612f40565b338715801590612ddd57506004856005811115612dda57612dda614f46565b14155b8015612dfb57506005856005811115612df857612df8614f46565b14155b15612ea5576040516323b872dd60e01b81526001600160a01b038281166004830152306024830152604482018a90527f000000000000000000000000000000000000000000000000000000000000000016906323b872dd906064016020604051808303816000875af1158015612e75573d6000803e3d6000fd5b505050506040513d601f19601f82011682018060405250810190612e999190614d63565b612ea557612ea5614c7c565b8360200151816001600160a01b03167fff04ccafc360e16b67d682d17bd9503c4c6b9a131f6be6325762dc9ffc7de6248b8b8942604051612ee99493929190614f5c565b60405180910390a37f5e2aa66efd74cce82b21852e317e5490d9ecc9e6bb953ae24d90851258cc2f5c83612f1d8a82614ca8565b6040805192835260208301919091520160405180910390a1505050505050505050565b604080516080810182526000808252602082018190529181018290526060810191909152604080516080810182526000808252602082018190529181018290526060810191909152601554600090819087156130ab57428760200151118015612fb0575060008760000151600f0b135b15612ff5578651612fc6906301dfe20090614f9a565b600f0b602080870191909152870151612fe0904290614d4c565b8560200151612fef9190614fd8565b600f0b85525b42866020015111801561300f575060008660000151600f0b135b15613054578551613025906301dfe20090614f9a565b600f0b60208086019190915286015161303f904290614d4c565b846020015161304e9190614fd8565b600f0b84525b602080880151600090815260168252604090205490870151600f9190910b9350156130ab578660200151866020015103613090578291506130ab565b602080870151600090815260169091526040902054600f0b91505b604080516080810182526000808252602082015242918101919091524360608201528115613120575060008181526003602090815260409182902082516080810184528154600f81810b8352600160801b909104900b9281019290925260018101549282019290925260029091015460608201525b60408101518160004283101561316d57604084015161313f9042614d4c565b606085015161314e9043614d4c565b61316090670de0b6b3a7640000614cd4565b61316a9190614cc0565b90505b600062093a8061317d8186614cc0565b6131879190614cd4565b905060005b60ff811015613301576131a262093a8083614ca8565b91506000428311156131b6574292506131ca565b50600082815260166020526040902054600f0b5b6131d48684614d4c565b87602001516131e39190614fd8565b875188906131f290839061506d565b600f0b90525060208701805182919061320c908390614ef7565b600f90810b90915288516000910b1215905061322757600087525b60008760200151600f0b121561323f57600060208801525b60408088018490528501519295508592670de0b6b3a7640000906132639085614d4c565b61326d9086614cd4565b6132779190614cc0565b85606001516132869190614ca8565b6060880152613296600189614ca8565b97504283036132ab5750436060870152613301565b6000888152600360209081526040918290208951918a01516001600160801b03908116600160801b0292169190911781559088015160018201556060880151600290910155506132fa81614d80565b905061318c565b505060158590558b1561338c5788602001518860200151613322919061506d565b846020018181516133339190614ef7565b600f0b90525088518851613347919061506d565b84518590613356908390614ef7565b600f90810b90915260208601516000910b1215905061337757600060208501525b60008460000151600f0b121561338c57600084525b6000858152600360209081526040918290208651918701516001600160801b03908116600160801b02921691909117815590850151600182015560608501516002909101558b1561354e57428b6020015111156134435760208901516133f29088614ef7565b96508a602001518a6020015103613415576020880151613412908861506d565b96505b60208b810151600090815260169091526040902080546001600160801b0319166001600160801b0389161790555b428a60200151111561349e578a602001518a60200151111561349e57602088015161346e908761506d565b60208b810151600090815260169091526040902080546001600160801b0319166001600160801b03831617905595505b60008c8152601260205260408120546134b8906001614ca8565b905080601260008f815260200190815260200160002081905550428960400181815250504389606001818152505088601360008f815260200190815260200160002082633b9aca00811061350e5761350e614c92565b825160208401516001600160801b03908116600160801b029116176003919091029190910190815560408201516001820155606090910151600290910155505b505050505050505050505050565b6135663382612b6c565b6135b25760405162461bcd60e51b815260206004820181905260248201527f63616c6c6572206973206e6f74206f776e6572206e6f7220617070726f7665646044820152606401611032565b6000818152600760205260408120546001600160a01b0316906135d59083610eef565b6135e96135e18261189e565b600084613f4a565b6135f38183613ec9565b60405182906000906001600160a01b038416907fddf252ad1be2c89b69c2b068fc378daa952ba7f163c4a11628f55a4df523b3ef908390a45050565b60008281526012602052604081205480820361364f576000915050610eb0565b600084815260136020526040812082633b9aca00811061367157613671614c92565b60408051608081018252600392909202929092018054600f81810b8452600160801b909104900b6020830152600181015492820183905260020154606082015291506136bd90856150bd565b81602001516136cc9190614fd8565b815182906136db90839061506d565b600f90810b90915282516000910b121590506136f657600081525b51600f0b9150610eb09050565b60175481906137128582614d4c565b6017556040805180820190915260008082526020820152825160208085015190830152600f0b815282518690849061374b90839061506d565b600f0b905250841561375f57602083018590525b6000878152601460209081526040909120845181546001600160801b0319166001600160801b03909116178155908401516001909101556137a1878285612f40565b602083810151604080518a8152928301899052428382015251339283917f2a0b07427e51f942dbd7c84f6390f6207f9e620caca964ac9928e94053388d479181900360600190a37f5e2aa66efd74cce82b21852e317e5490d9ecc9e6bb953ae24d90851258cc2f5c836138148982614d4c565b6040805192835260208301919091520160405180910390a15050505050505050565b60006001600160a01b03831661384e5761384e614c7c565b61385c6000612cad8561189e565b61386683836142ac565b60405182906001600160a01b038516906000907fddf252ad1be2c89b69c2b068fc378daa952ba7f163c4a11628f55a4df523b3ef908290a450600192915050565b60006138b28361189e565b6001600160a01b038481166000818152601a602052604080822080546001600160a01b031916888616908117909155905194955093928516927f3134e8a2e6d97e929a7e54011ea5485d7d196dd5f0ba4d4ef95803e8e3fc257f9190a46110eb838284614342565b60008062093a808061392c8642614ca8565b6139369190614cc0565b6139409190614cd4565b90506000851161394f57600080fd5b42811161396e5760405162461bcd60e51b815260040161103290614d99565b61397c6301dfe20042614ca8565b81111561399b5760405162461bcd60e51b815260040161103290614cf3565b6005600081546139aa90614d80565b909155506005546139bb8482613836565b5060008181526014602090815260409182902082518084019093528054600f0b8352600190810154918301919091526139f991839189918691612d1d565b95945050505050565b600080839050600062093a80808360400151613a1e9190614cc0565b613a289190614cd4565b905060005b60ff811015613adb57613a4362093a8083614ca8565b9150600085831115613a5757859250613a6b565b50600082815260166020526040902054600f0b5b6040840151613a7a9084614d4c565b8460200151613a899190614fd8565b84518590613a9890839061506d565b600f0b905250858303613aab5750613adb565b8084602001818151613abd9190614ef7565b600f0b9052505060408301829052613ad481614d80565b9050613a2d565b5060008260000151600f0b1215613af157600082525b50516001600160801b03169392505050565b600043821115613b1557613b15614c7c565b600083815260126020526040812054815b6080811015613bb55781831015613bb55760006002613b458486614ca8565b613b50906001614ca8565b613b5a9190614cc0565b6000888152601360205260409020909150869082633b9aca008110613b8157613b81614c92565b600302016002015411613b9657809350613ba4565b613ba1600182614d4c565b92505b50613bae81614d80565b9050613b26565b50600085815260136020526040812083633b9aca008110613bd857613bd8614c92565b60408051608081018252600392909202929092018054600f81810b8452600160801b909104900b602083015260018101549282019290925260029091015460608201526015549091506000613c2d8783613ddc565b600081815260036020908152604080832081516080810183528154600f81810b8352600160801b909104900b938101939093526001810154918301919091526002015460608201529192508084841015613d0c576000600381613c91876001614ca8565b8152602080820192909252604090810160002081516080810183528154600f81810b8352600160801b909104900b93810193909352600181015491830191909152600201546060808301829052860151919250613cee9190614d4c565b925083604001518160400151613d049190614d4c565b915050613d30565b6060830151613d1b9043614d4c565b9150826040015142613d2d9190614d4c565b90505b60408301518215613d6d578284606001518c613d4c9190614d4c565b613d569084614cd4565b613d609190614cc0565b613d6a9082614ca8565b90505b6040870151613d7c9082614d4c565b8760200151613d8b9190614fd8565b87518890613d9a90839061506d565b600f90810b90915288516000910b129050613dca57505093516001600160801b03169650610eb095505050505050565b60009950505050505050505050610eb0565b60008082815b6080811015613e585781831015613e585760006002613e018486614ca8565b613e0c906001614ca8565b613e169190614cc0565b6000818152600360205260409020600201549091508710613e3957809350613e47565b613e44600182614d4c565b92505b50613e5181614d80565b9050613de2565b5090949350505050565b6000818152600760205260409020546001600160a01b03838116911614613e8b57613e8b614c7c565b6000818152600d60205260409020546001600160a01b031615613ec5576000818152600d6020526040902080546001600160a01b03191690555b5050565b6000818152600760205260409020546001600160a01b03838116911614613ef257613ef2614c7c565b600081815260076020526040902080546001600160a01b0319169055613f1882826146fe565b6001600160a01b0382166000908152600860205260408120805460019290613f41908490614d4c565b90915550505050565b816001600160a01b0316836001600160a01b031614158015613f6c5750600081115b156110eb576001600160a01b038316156140ed576001600160a01b0383166000908152601c602052604081205463ffffffff169081613fd0576001600160a01b0385166000908152601b602090815260408083208380529091529020600101614012565b6001600160a01b0385166000908152601b6020526040812090613ff4600185614c1e565b63ffffffff1663ffffffff1681526020019081526020016000206001015b9050600061401f866147bd565b6001600160a01b0387166000908152601b6020908152604080832063ffffffff8516845290915281209192506001909101905b83548110156140ac57600084828154811061406f5761406f614c92565b90600052602060002001549050868114614099578254600181018455600084815260209020018190555b50806140a481614d80565b915050614052565b506140b88460016150fc565b6001600160a01b0388166000908152601c60205260409020805463ffffffff191663ffffffff92909216919091179055505050505b6001600160a01b038216156110eb576001600160a01b0382166000908152601c602052604081205463ffffffff16908161414c576001600160a01b0384166000908152601b60209081526040808320838052909152902060010161418e565b6001600160a01b0384166000908152601b6020526040812090614170600185614c1e565b63ffffffff1663ffffffff1681526020019081526020016000206001015b9050600061419b856147bd565b6001600160a01b0386166000908152601b6020908152604080832063ffffffff8516845290915290208354919250600190810191610400916141dd9190614ca8565b11156141fb5760405162461bcd60e51b815260040161103290615124565b60005b835481101561424d57600084828154811061421b5761421b614c92565b60009182526020808320909101548554600181018755868452919092200155508061424581614d80565b9150506141fe565b508054600181810183556000838152602090209091018690556142719085906150fc565b6001600160a01b0387166000908152601c60205260409020805463ffffffff9290921663ffffffff1990921691909117905550505050505050565b6000818152600760205260409020546001600160a01b0316156142d1576142d1614c7c565b600081815260076020908152604080832080546001600160a01b0319166001600160a01b038716908117909155808452600880845282852080546010865284872081885286528487208890558787526011865293862093909355908452909152805460019290613f41908490614ca8565b806001600160a01b0316826001600160a01b0316146110eb576001600160a01b038216156144f5576001600160a01b0382166000908152601c602052604081205463ffffffff1690816143ba576001600160a01b0384166000908152601b6020908152604080832083805290915290206001016143fc565b6001600160a01b0384166000908152601b60205260408120906143de600185614c1e565b63ffffffff1663ffffffff1681526020019081526020016000206001015b90506000614409856147bd565b6001600160a01b0386166000908152601b6020908152604080832063ffffffff8516845290915281209192506001909101905b83548110156144b457600084828154811061445957614459614c92565b600091825260208083209091015480835260079091526040909120549091506001600160a01b03908116908a16146144a1578254600181018455600084815260209020018190555b50806144ac81614d80565b91505061443c565b506144c08460016150fc565b6001600160a01b0387166000908152601c60205260409020805463ffffffff191663ffffffff92909216919091179055505050505b6001600160a01b038116156110eb576001600160a01b0381166000908152601c602052604081205463ffffffff169081614554576001600160a01b0383166000908152601b602090815260408083208380529091529020600101614596565b6001600160a01b0383166000908152601b6020526040812090614578600185614c1e565b63ffffffff1663ffffffff1681526020019081526020016000206001015b905060006145a3846147bd565b6001600160a01b038086166000908152601b6020908152604080832063ffffffff861684528252808320938b16835260089091529020548454929350600190910191610400906145f4908390614ca8565b11156146125760405162461bcd60e51b815260040161103290615124565b60005b845481101561466457600085828154811061463257614632614c92565b60009182526020808320909101548654600181018855878452919092200155508061465c81614d80565b915050614615565b5060005b818110156146b6576001600160a01b038916600090815260106020908152604080832084845282528220548554600181018755868452919092200155806146ae81614d80565b915050614668565b506146c28560016150fc565b6001600160a01b0387166000908152601c60205260409020805463ffffffff9290921663ffffffff199092169190911790555050505050505050565b6001600160a01b03821660009081526008602052604081205461472390600190614d4c565b600083815260116020526040902054909150808203614772576001600160a01b03841660009081526010602090815260408083208584528252808320839055858352601190915281205561232e565b6001600160a01b039390931660009081526010602090815260408083209383529281528282208054868452848420819055835260119091528282209490945592839055908252812055565b6001600160a01b0381166000908152601c6020526040812054429063ffffffff16801580159061482657506001600160a01b0384166000908152601b60205260408120839161480d600185614c1e565b63ffffffff168152602081019190915260400160002054145b1561162f576119a1600182614c1e565b6001600160e01b03198116811461123e57600080fd5b60006020828403121561485e57600080fd5b813561162f81614836565b60006020828403121561487b57600080fd5b5035919050565b60005b8381101561489d578181015183820152602001614885565b8381111561232e5750506000910152565b600081518084526148c6816020860160208601614882565b601f01601f19169290920160200192915050565b60208152600061162f60208301846148ae565b80356001600160a01b038116811461490457600080fd5b919050565b6000806040838503121561491c57600080fd5b614925836148ed565b946020939093013593505050565b60006020828403121561494557600080fd5b61162f826148ed565b6000806040838503121561496157600080fd5b50508035926020909101359150565b60008060006060848603121561498557600080fd5b61498e846148ed565b925061499c602085016148ed565b9150604084013590509250925092565b801515811461123e57600080fd5b600080604083850312156149cd57600080fd5b6149d6836148ed565b915060208301356149e6816149ac565b809150509250929050565b634e487b7160e01b600052604160045260246000fd5b604051601f8201601f1916810167ffffffffffffffff81118282101715614a3057614a306149f1565b604052919050565b600067ffffffffffffffff821115614a5257614a526149f1565b50601f01601f191660200190565b60008060008060808587031215614a7657600080fd5b614a7f856148ed565b9350614a8d602086016148ed565b925060408501359150606085013567ffffffffffffffff811115614ab057600080fd5b8501601f81018713614ac157600080fd5b8035614ad4614acf82614a38565b614a07565b818152886020838501011115614ae957600080fd5b8160208401602083013760006020838301015280935050505092959194509250565b60008060008060008060c08789031215614b2457600080fd5b614b2d876148ed565b95506020870135945060408701359350606087013560ff81168114614b5157600080fd5b9598949750929560808101359460a0909101359350915050565b600080600060608486031215614b8057600080fd5b8335925060208401359150614b97604085016148ed565b90509250925092565b60008060408385031215614bb357600080fd5b614bbc836148ed565b9150614bca602084016148ed565b90509250929050565b60008060408385031215614be657600080fd5b614bef836148ed565b9150602083013563ffffffff811681146149e657600080fd5b634e487b7160e01b600052601160045260246000fd5b600063ffffffff83811690831681811015614c3b57614c3b614c08565b039392505050565b634e487b7160e01b600052601260045260246000fd5b600063ffffffff80841680614c7057614c70614c43565b92169190910492915050565b634e487b7160e01b600052600160045260246000fd5b634e487b7160e01b600052603260045260246000fd5b60008219821115614cbb57614cbb614c08565b500190565b600082614ccf57614ccf614c43565b500490565b6000816000190483118215151615614cee57614cee614c08565b500290565b6020808252601f908201527f566f74696e67206c6f636b2063616e206265203532207765656b73206d617800604082015260600190565b602080825260089082015267185d1d1858da195960c21b604082015260600190565b600082821015614d5e57614d5e614c08565b500390565b600060208284031215614d7557600080fd5b815161162f816149ac565b600060018201614d9257614d92614c08565b5060010190565b60208082526026908201527f43616e206f6e6c79206c6f636b20756e74696c2074696d6520696e207468652060408201526566757475726560d01b606082015260800190565b60208082526024908201527f43616e6e6f742061646420746f2065787069726564206c6f636b2e20576974686040820152636472617760e01b606082015260800190565b634e487b7160e01b600052603160045260246000fd5b6001600160a01b0385811682528416602082015260408101839052608060608201819052600090611b58908301846148ae565b600060208284031215614e7e57600080fd5b815161162f81614836565b600060208284031215614e9b57600080fd5b815167ffffffffffffffff811115614eb257600080fd5b8201601f81018413614ec357600080fd5b8051614ed1614acf82614a38565b818152856020838501011115614ee657600080fd5b6139f9826020830160208601614882565b600081600f0b83600f0b600082128260016001607f1b0303821381151615614f2157614f21614c08565b8260016001607f1b0319038212811615614f3d57614f3d614c08565b50019392505050565b634e487b7160e01b600052602160045260246000fd5b848152602081018490526080810160068410614f8857634e487b7160e01b600052602160045260246000fd5b60408201939093526060015292915050565b600081600f0b83600f0b80614fb157614fb1614c43565b60016001607f1b0319821460001982141615614fcf57614fcf614c08565b90059392505050565b600081600f0b83600f0b60016001607f1b0360008213600084138383048511828216161561500857615008614c08565b60016001607f1b0319600085128281168783058712161561502b5761502b614c08565b6000871292508582058712848416161561504757615047614c08565b8585058712818416161561505d5761505d614c08565b5050509290910295945050505050565b600081600f0b83600f0b600081128160016001607f1b03190183128115161561509857615098614c08565b8160016001607f1b030183138116156150b3576150b3614c08565b5090039392505050565b60008083128015600160ff1b8501841216156150db576150db614c08565b6001600160ff1b03840183138116156150f6576150f6614c08565b50500390565b600063ffffffff80831681851680830382111561511b5761511b614c08565b01949350505050565b60208082526023908201527f64737452657020776f756c64206861766520746f6f206d616e7920746f6b656e60408201526249647360e81b60608201526080019056fea26469706673582212207feec1cfed0ae4430a585429dba1456f0383b36d74846ba9b363c2f48340d95c64736f6c634300080d0033ddf252ad1be2c89b69c2b068fc378daa952ba7f163c4a11628f55a4df523b3ef","linkReferences":{}},"methodIdentifiers":{"DELEGATION_TYPEHASH()":"e7a324dc","DOMAIN_TYPEHASH()":"20606b70","MAX_DELEGATES()":"5f5b0c32","abstain(uint256)":"c1f0fb9f","approve(address,uint256)":"095ea7b3","artProxy()":"5594a045","attach(uint256)":"fbd3a29d","attachments(uint256)":"0d6a2033","balanceOf(address)":"70a08231","balanceOfAtNFT(uint256,uint256)":"8c2c9baf","balanceOfNFT(uint256)":"e7e242d4","balanceOfNFTAt(uint256,uint256)":"e0514aba","baseToken()":"c55dae63","block_number()":"25a58b56","block_split(uint256)":"0bf8c963","blockedSplit(uint256)":"3586d148","checkpoint()":"c2c4c5c1","checkpoints(address,uint32)":"f1127ed8","create_lock(uint256,uint256)":"65fc3873","create_lock_for(uint256,uint256,address)":"d4e54c3b","currentTokenId()":"009a9b7b","decimals()":"313ce567","delegate(address)":"5c19a95c","delegateBySig(address,uint256,uint256,uint8,bytes32,bytes32)":"c3cda520","delegates(address)":"587cde1e","deposit_for(uint256,uint256)":"ee99fe28","detach(uint256)":"986b7d8a","disable_max_lock(uint256)":"b7ffaf0e","enable_max_lock(uint256)":"b64eab7d","epoch()":"900cf0cf","getApproved(uint256)":"081812fc","getPastTotalSupply(uint256)":"8e539e8c","getPastVotes(address,uint256)":"3a46b1a8","getPastVotesIndex(address,uint256)":"0758c7d8","getVotes(address)":"9ab24eb0","get_last_user_slope(uint256)":"461f711c","increase_amount(uint256,uint256)":"a183af52","increase_unlock_time(uint256,uint256)":"a4d855df","isApprovedForAll(address,address)":"e985e9c5","isApprovedOrOwner(address,uint256)":"430c2081","locked(uint256)":"b45a3c0e","locked__end(uint256)":"f8a05763","lpToken()":"5fcbd285","maxLockIdToIndex(uint256)":"05a4e610","maxLockToggle()":"edaee1a9","max_lock(uint256)":"24c7edc0","max_lock_bulk()":"072b3302","max_lock_bulk(uint256,uint256)":"424a8764","max_lock_enabled()":"fae5ae4e","max_locked_nfts(uint256)":"d0a17988","merge(uint256,uint256)":"d1c2babb","name()":"06fdde03","nonces(address)":"7ecebe00","numCheckpoints(address)":"6fcfff45","owner()":"8da5cb5b","ownerOf(uint256)":"6352211e","ownership_change(uint256)":"6f548837","point_history(uint256)":"d1febfb9","safeTransferFrom(address,address,uint256)":"42842e0e","safeTransferFrom(address,address,uint256,bytes)":"b88d4fde","setApprovalForAll(address,bool)":"a22cb465","setArtProxy(address)":"2e720f7d","setTeam(address)":"095cf5c6","setVoter(address)":"4bc2a657","slope_changes(uint256)":"71197484","split(uint256,uint256)":"4b19becc","supply()":"047fc9aa","supportsInterface(bytes4)":"01ffc9a7","symbol()":"95d89b41","team()":"85f2aef2","tokenOfOwnerByIndex(address,uint256)":"2f745c59","tokenURI(uint256)":"c87b56dd","totalSupply()":"18160ddd","totalSupplyAt(uint256)":"981b24d0","totalSupplyAtT(uint256)":"7116c60c","transferFrom(address,address,uint256)":"23b872dd","user_point_epoch(uint256)":"e441135c","user_point_history(uint256,uint256)":"1376f3da","user_point_history__ts(uint256,uint256)":"1c984bc3","version()":"54fd4d50","voted(uint256)":"8fbb38ff","voter()":"46c96aac","voting(uint256)":"fd4a77f1","withdraw(uint256)":"2e1a7d4d"},"id":24}