{"abi":[{"type":"receive","stateMutability":"payable"},{"type":"function","name":"DOMAIN_SEPARATOR","inputs":[],"outputs":[{"name":"","type":"bytes32","internalType":"bytes32"}],"stateMutability":"view"},{"type":"function","name":"allowance","inputs":[{"name":"","type":"address","internalType":"address"},{"name":"","type":"address","internalType":"address"}],"outputs":[{"name":"","type":"uint256","internalType":"uint256"}],"stateMutability":"view"},{"type":"function","name":"approve","inputs":[{"name":"spender","type":"address","internalType":"address"},{"name":"amount","type":"uint256","internalType":"uint256"}],"outputs":[{"name":"","type":"bool","internalType":"bool"}],"stateMutability":"nonpayable"},{"type":"function","name":"balanceOf","inputs":[{"name":"","type":"address","internalType":"address"}],"outputs":[{"name":"","type":"uint256","internalType":"uint256"}],"stateMutability":"view"},{"type":"function","name":"burn","inputs":[{"name":"from","type":"address","internalType":"address"},{"name":"value","type":"uint256","internalType":"uint256"}],"outputs":[],"stateMutability":"nonpayable"},{"type":"function","name":"decimals","inputs":[],"outputs":[{"name":"","type":"uint8","internalType":"uint8"}],"stateMutability":"view"},{"type":"function","name":"deposit","inputs":[],"outputs":[],"stateMutability":"payable"},{"type":"function","name":"mint","inputs":[{"name":"to","type":"address","internalType":"address"},{"name":"value","type":"uint256","internalType":"uint256"}],"outputs":[],"stateMutability":"nonpayable"},{"type":"function","name":"name","inputs":[],"outputs":[{"name":"","type":"string","internalType":"string"}],"stateMutability":"view"},{"type":"function","name":"nonces","inputs":[{"name":"","type":"address","internalType":"address"}],"outputs":[{"name":"","type":"uint256","internalType":"uint256"}],"stateMutability":"view"},{"type":"function","name":"permit","inputs":[{"name":"owner","type":"address","internalType":"address"},{"name":"spender","type":"address","internalType":"address"},{"name":"value","type":"uint256","internalType":"uint256"},{"name":"deadline","type":"uint256","internalType":"uint256"},{"name":"v","type":"uint8","internalType":"uint8"},{"name":"r","type":"bytes32","internalType":"bytes32"},{"name":"s","type":"bytes32","internalType":"bytes32"}],"outputs":[],"stateMutability":"nonpayable"},{"type":"function","name":"symbol","inputs":[],"outputs":[{"name":"","type":"string","internalType":"string"}],"stateMutability":"view"},{"type":"function","name":"totalSupply","inputs":[],"outputs":[{"name":"","type":"uint256","internalType":"uint256"}],"stateMutability":"view"},{"type":"function","name":"transfer","inputs":[{"name":"to","type":"address","internalType":"address"},{"name":"amount","type":"uint256","internalType":"uint256"}],"outputs":[{"name":"","type":"bool","internalType":"bool"}],"stateMutability":"nonpayable"},{"type":"function","name":"transferFrom","inputs":[{"name":"from","type":"address","internalType":"address"},{"name":"to","type":"address","internalType":"address"},{"name":"amount","type":"uint256","internalType":"uint256"}],"outputs":[{"name":"","type":"bool","internalType":"bool"}],"stateMutability":"nonpayable"},{"type":"function","name":"withdraw","inputs":[{"name":"amount","type":"uint256","internalType":"uint256"}],"outputs":[],"stateMutability":"nonpayable"},{"type":"event","name":"Approval","inputs":[{"name":"owner","type":"address","indexed":true,"internalType":"address"},{"name":"spender","type":"address","indexed":true,"internalType":"address"},{"name":"amount","type":"uint256","indexed":false,"internalType":"uint256"}],"anonymous":false},{"type":"event","name":"Deposit","inputs":[{"name":"from","type":"address","indexed":true,"internalType":"address"},{"name":"amount","type":"uint256","indexed":false,"internalType":"uint256"}],"anonymous":false},{"type":"event","name":"Transfer","inputs":[{"name":"from","type":"address","indexed":true,"internalType":"address"},{"name":"to","type":"address","indexed":true,"internalType":"address"},{"name":"amount","type":"uint256","indexed":false,"internalType":"uint256"}],"anonymous":false},{"type":"event","name":"Withdrawal","inputs":[{"name":"to","type":"address","indexed":true,"internalType":"address"},{"name":"amount","type":"uint256","indexed":false,"internalType":"uint256"}],"anonymous":false}],"bytecode":{"object":"0x60e06040523480156200001157600080fd5b50604080518082018252600d81526c2bb930b83832b21022ba3432b960991b6020808301918252835180850190945260048452630ae8aa8960e31b9084015281519192916012916200006791600091906200013c565b5081516200007d9060019060208501906200013c565b5060ff81166080524660a05262000093620000a0565b60c05250620002c1915050565b60007f8b73c3c69bb8fe3d512ecc4cf759cc79239f7b179b0ffacaa9a75d522b39400f6000604051620000d491906200021e565b6040805191829003822060208301939093528101919091527fc89efdaa54c0f20c7adf612882df0950f5a951637e0307cdcb4c672f298b8bc660608201524660808201523060a082015260c00160405160208183030381529060405280519060200120905090565b8280546200014a90620001e2565b90600052602060002090601f0160209004810192826200016e5760008555620001b9565b82601f106200018957805160ff1916838001178555620001b9565b82800160010185558215620001b9579182015b82811115620001b95782518255916020019190600101906200019c565b50620001c7929150620001cb565b5090565b5b80821115620001c75760008155600101620001cc565b600181811c90821680620001f757607f821691505b6020821081036200021857634e487b7160e01b600052602260045260246000fd5b50919050565b600080835481600182811c9150808316806200023b57607f831692505b602080841082036200025b57634e487b7160e01b86526022600452602486fd5b8180156200027257600181146200028457620002b3565b60ff19861689528489019650620002b3565b60008a81526020902060005b86811015620002ab5781548b82015290850190830162000290565b505084890196505b509498975050505050505050565b60805160a05160c051610dbe620002f160003960006105f4015260006105bf015260006101dc0152610dbe6000f3fe6080604052600436106100f75760003560e01c806370a082311161008a578063a9059cbb11610059578063a9059cbb146102d4578063d0e30db0146102f4578063d505accf146102fc578063dd62ed3e1461031c57600080fd5b806370a08231146102455780637ecebe001461027257806395d89b411461029f5780639dc29fac146102b457600080fd5b80632e1a7d4d116100c65780632e1a7d4d146101aa578063313ce567146101ca5780633644e5151461021057806340c10f191461022557600080fd5b806306fdde031461010b578063095ea7b31461013657806318160ddd1461016657806323b872dd1461018a57600080fd5b3661010657610104610354565b005b600080fd5b34801561011757600080fd5b50610120610395565b60405161012d9190610a96565b60405180910390f35b34801561014257600080fd5b50610156610151366004610b07565b610423565b604051901515815260200161012d565b34801561017257600080fd5b5061017c60025481565b60405190815260200161012d565b34801561019657600080fd5b506101566101a5366004610b31565b61048f565b3480156101b657600080fd5b506101046101c5366004610b6d565b61056f565b3480156101d657600080fd5b506101fe7f000000000000000000000000000000000000000000000000000000000000000081565b60405160ff909116815260200161012d565b34801561021c57600080fd5b5061017c6105bb565b34801561023157600080fd5b50610104610240366004610b07565b610616565b34801561025157600080fd5b5061017c610260366004610b86565b60036020526000908152604090205481565b34801561027e57600080fd5b5061017c61028d366004610b86565b60056020526000908152604090205481565b3480156102ab57600080fd5b50610120610624565b3480156102c057600080fd5b506101046102cf366004610b07565b610631565b3480156102e057600080fd5b506101566102ef366004610b07565b61063b565b610104610354565b34801561030857600080fd5b50610104610317366004610ba8565b6106a1565b34801561032857600080fd5b5061017c610337366004610c1b565b600460209081526000928352604080842090915290825290205481565b61035e33346108ea565b60405134815233907fe1fffcc4923d04b559f4d29a8bfc6cda04eb5b0d3c460751c2402c5c5cc9109c9060200160405180910390a2565b600080546103a290610c4e565b80601f01602080910402602001604051908101604052809291908181526020018280546103ce90610c4e565b801561041b5780601f106103f05761010080835404028352916020019161041b565b820191906000526020600020905b8154815290600101906020018083116103fe57829003601f168201915b505050505081565b3360008181526004602090815260408083206001600160a01b038716808552925280832085905551919290917f8c5be1e5ebec7d5bd14f71427d1e84f3dd0314c0f7b2291e5b200ac8c7c3b9259061047e9086815260200190565b60405180910390a350600192915050565b6001600160a01b038316600090815260046020908152604080832033845290915281205460001981146104eb576104c68382610c9e565b6001600160a01b03861660009081526004602090815260408083203384529091529020555b6001600160a01b03851660009081526003602052604081208054859290610513908490610c9e565b90915550506001600160a01b0380851660008181526003602052604090819020805487019055519091871690600080516020610d698339815191529061055c9087815260200190565b60405180910390a3506001949350505050565b6105793382610944565b60405181815233907f7fcf532c15f0a6db0bd6d0e038bea71d30d808c7d98cb3bf7268a95bf5081b659060200160405180910390a26105b833826109a6565b50565b60007f000000000000000000000000000000000000000000000000000000000000000046146105f1576105ec6109fc565b905090565b507f000000000000000000000000000000000000000000000000000000000000000090565b61062082826108ea565b5050565b600180546103a290610c4e565b6106208282610944565b3360009081526003602052604081208054839190839061065c908490610c9e565b90915550506001600160a01b03831660008181526003602052604090819020805485019055513390600080516020610d698339815191529061047e9086815260200190565b428410156106f65760405162461bcd60e51b815260206004820152601760248201527f5045524d49545f444541444c494e455f4558504952454400000000000000000060448201526064015b60405180910390fd5b600060016107026105bb565b6001600160a01b038a811660008181526005602090815260409182902080546001810190915582517f6e71edae12b1b97f4d1f60370fef10105fa2faae0126114a169c64845d6126c98184015280840194909452938d166060840152608083018c905260a083019390935260c08083018b90528151808403909101815260e08301909152805192019190912061190160f01b6101008301526101028201929092526101228101919091526101420160408051601f198184030181528282528051602091820120600084529083018083525260ff871690820152606081018590526080810184905260a0016020604051602081039080840390855afa15801561080e573d6000803e3d6000fd5b5050604051601f1901519150506001600160a01b038116158015906108445750876001600160a01b0316816001600160a01b0316145b6108815760405162461bcd60e51b815260206004820152600e60248201526d24a72b20a624a22fa9a4a3a722a960911b60448201526064016106ed565b6001600160a01b0390811660009081526004602090815260408083208a8516808552908352928190208990555188815291928a16917f8c5be1e5ebec7d5bd14f71427d1e84f3dd0314c0f7b2291e5b200ac8c7c3b925910160405180910390a350505050505050565b80600260008282546108fc9190610cb5565b90915550506001600160a01b038216600081815260036020908152604080832080548601905551848152600080516020610d6983398151915291015b60405180910390a35050565b6001600160a01b0382166000908152600360205260408120805483929061096c908490610c9e565b90915550506002805482900390556040518181526000906001600160a01b03841690600080516020610d6983398151915290602001610938565b600080600080600085875af19050806109f75760405162461bcd60e51b815260206004820152601360248201527211551217d514905394d1915497d19052531151606a1b60448201526064016106ed565b505050565b60007f8b73c3c69bb8fe3d512ecc4cf759cc79239f7b179b0ffacaa9a75d522b39400f6000604051610a2e9190610ccd565b6040805191829003822060208301939093528101919091527fc89efdaa54c0f20c7adf612882df0950f5a951637e0307cdcb4c672f298b8bc660608201524660808201523060a082015260c00160405160208183030381529060405280519060200120905090565b600060208083528351808285015260005b81811015610ac357858101830151858201604001528201610aa7565b81811115610ad5576000604083870101525b50601f01601f1916929092016040019392505050565b80356001600160a01b0381168114610b0257600080fd5b919050565b60008060408385031215610b1a57600080fd5b610b2383610aeb565b946020939093013593505050565b600080600060608486031215610b4657600080fd5b610b4f84610aeb565b9250610b5d60208501610aeb565b9150604084013590509250925092565b600060208284031215610b7f57600080fd5b5035919050565b600060208284031215610b9857600080fd5b610ba182610aeb565b9392505050565b600080600080600080600060e0888a031215610bc357600080fd5b610bcc88610aeb565b9650610bda60208901610aeb565b95506040880135945060608801359350608088013560ff81168114610bfe57600080fd5b9699959850939692959460a0840135945060c09093013592915050565b60008060408385031215610c2e57600080fd5b610c3783610aeb565b9150610c4560208401610aeb565b90509250929050565b600181811c90821680610c6257607f821691505b602082108103610c8257634e487b7160e01b600052602260045260246000fd5b50919050565b634e487b7160e01b600052601160045260246000fd5b600082821015610cb057610cb0610c88565b500390565b60008219821115610cc857610cc8610c88565b500190565b600080835481600182811c915080831680610ce957607f831692505b60208084108203610d0857634e487b7160e01b86526022600452602486fd5b818015610d1c5760018114610d2d57610d5a565b60ff19861689528489019650610d5a565b60008a81526020902060005b86811015610d525781548b820152908501908301610d39565b505084890196505b50949897505050505050505056feddf252ad1be2c89b69c2b068fc378daa952ba7f163c4a11628f55a4df523b3efa26469706673582212209f947f51d5f3bfbe09fd085d89e8d9803ffb2a00ec7e52fd5fabb6c26d3bb70d64736f6c634300080d0033","linkReferences":{}},"methodIdentifiers":{"DOMAIN_SEPARATOR()":"3644e515","allowance(address,address)":"dd62ed3e","approve(address,uint256)":"095ea7b3","balanceOf(address)":"70a08231","burn(address,uint256)":"9dc29fac","decimals()":"313ce567","deposit()":"d0e30db0","mint(address,uint256)":"40c10f19","name()":"06fdde03","nonces(address)":"7ecebe00","permit(address,address,uint256,uint256,uint8,bytes32,bytes32)":"d505accf","symbol()":"95d89b41","totalSupply()":"18160ddd","transfer(address,uint256)":"a9059cbb","transferFrom(address,address,uint256)":"23b872dd","withdraw(uint256)":"2e1a7d4d"},"id":123}