{"abi":[{"type":"constructor","inputs":[{"name":"_stake","type":"address","internalType":"address"},{"name":"__ve","type":"address","internalType":"address"},{"name":"_oFlow","type":"address","internalType":"address"},{"name":"_allowedRewardTokens","type":"address[]","internalType":"address[]"}],"stateMutability":"nonpayable"},{"type":"function","name":"_ve","inputs":[],"outputs":[{"name":"","type":"address","internalType":"address"}],"stateMutability":"view"},{"type":"function","name":"balanceOf","inputs":[{"name":"","type":"address","internalType":"address"}],"outputs":[{"name":"","type":"uint256","internalType":"uint256"}],"stateMutability":"view"},{"type":"function","name":"balanceWithLock","inputs":[{"name":"","type":"address","internalType":"address"}],"outputs":[{"name":"","type":"uint256","internalType":"uint256"}],"stateMutability":"view"},{"type":"function","name":"batchRewardPerToken","inputs":[{"name":"token","type":"address","internalType":"address"},{"name":"maxRuns","type":"uint256","internalType":"uint256"}],"outputs":[],"stateMutability":"nonpayable"},{"type":"function","name":"batchUpdateRewardPerToken","inputs":[{"name":"token","type":"address","internalType":"address"},{"name":"maxRuns","type":"uint256","internalType":"uint256"}],"outputs":[],"stateMutability":"nonpayable"},{"type":"function","name":"checkpoints","inputs":[{"name":"","type":"address","internalType":"address"},{"name":"","type":"uint256","internalType":"uint256"}],"outputs":[{"name":"timestamp","type":"uint256","internalType":"uint256"},{"name":"balanceOf","type":"uint256","internalType":"uint256"}],"stateMutability":"view"},{"type":"function","name":"deposit","inputs":[{"name":"amount","type":"uint256","internalType":"uint256"},{"name":"tokenId","type":"uint256","internalType":"uint256"}],"outputs":[],"stateMutability":"nonpayable"},{"type":"function","name":"depositAll","inputs":[{"name":"tokenId","type":"uint256","internalType":"uint256"}],"outputs":[],"stateMutability":"nonpayable"},{"type":"function","name":"depositWithLock","inputs":[{"name":"account","type":"address","internalType":"address"},{"name":"amount","type":"uint256","internalType":"uint256"},{"name":"_lockDuration","type":"uint256","internalType":"uint256"}],"outputs":[],"stateMutability":"nonpayable"},{"type":"function","name":"derivedBalance","inputs":[{"name":"account","type":"address","internalType":"address"}],"outputs":[{"name":"","type":"uint256","internalType":"uint256"}],"stateMutability":"view"},{"type":"function","name":"derivedBalances","inputs":[{"name":"","type":"address","internalType":"address"}],"outputs":[{"name":"","type":"uint256","internalType":"uint256"}],"stateMutability":"view"},{"type":"function","name":"derivedSupply","inputs":[],"outputs":[{"name":"","type":"uint256","internalType":"uint256"}],"stateMutability":"view"},{"type":"function","name":"earned","inputs":[{"name":"token","type":"address","internalType":"address"},{"name":"account","type":"address","internalType":"address"}],"outputs":[{"name":"","type":"uint256","internalType":"uint256"}],"stateMutability":"view"},{"type":"function","name":"fees0","inputs":[],"outputs":[{"name":"","type":"uint256","internalType":"uint256"}],"stateMutability":"view"},{"type":"function","name":"fees1","inputs":[],"outputs":[{"name":"","type":"uint256","internalType":"uint256"}],"stateMutability":"view"},{"type":"function","name":"flow","inputs":[],"outputs":[{"name":"","type":"address","internalType":"address"}],"stateMutability":"view"},{"type":"function","name":"getPriorBalanceIndex","inputs":[{"name":"account","type":"address","internalType":"address"},{"name":"timestamp","type":"uint256","internalType":"uint256"}],"outputs":[{"name":"","type":"uint256","internalType":"uint256"}],"stateMutability":"view"},{"type":"function","name":"getPriorRewardPerToken","inputs":[{"name":"token","type":"address","internalType":"address"},{"name":"timestamp","type":"uint256","internalType":"uint256"}],"outputs":[{"name":"","type":"uint256","internalType":"uint256"},{"name":"","type":"uint256","internalType":"uint256"}],"stateMutability":"view"},{"type":"function","name":"getPriorSupplyIndex","inputs":[{"name":"timestamp","type":"uint256","internalType":"uint256"}],"outputs":[{"name":"","type":"uint256","internalType":"uint256"}],"stateMutability":"view"},{"type":"function","name":"getReward","inputs":[{"name":"account","type":"address","internalType":"address"},{"name":"tokens","type":"address[]","internalType":"address[]"}],"outputs":[],"stateMutability":"nonpayable"},{"type":"function","name":"isReward","inputs":[{"name":"","type":"address","internalType":"address"}],"outputs":[{"name":"","type":"bool","internalType":"bool"}],"stateMutability":"view"},{"type":"function","name":"lastEarn","inputs":[{"name":"","type":"address","internalType":"address"},{"name":"","type":"address","internalType":"address"}],"outputs":[{"name":"","type":"uint256","internalType":"uint256"}],"stateMutability":"view"},{"type":"function","name":"lastTimeRewardApplicable","inputs":[{"name":"token","type":"address","internalType":"address"}],"outputs":[{"name":"","type":"uint256","internalType":"uint256"}],"stateMutability":"view"},{"type":"function","name":"lastUpdateTime","inputs":[{"name":"","type":"address","internalType":"address"}],"outputs":[{"name":"","type":"uint256","internalType":"uint256"}],"stateMutability":"view"},{"type":"function","name":"left","inputs":[{"name":"token","type":"address","internalType":"address"}],"outputs":[{"name":"","type":"uint256","internalType":"uint256"}],"stateMutability":"view"},{"type":"function","name":"lockEnd","inputs":[{"name":"","type":"address","internalType":"address"}],"outputs":[{"name":"","type":"uint256","internalType":"uint256"}],"stateMutability":"view"},{"type":"function","name":"notifyRewardAmount","inputs":[{"name":"token","type":"address","internalType":"address"},{"name":"amount","type":"uint256","internalType":"uint256"}],"outputs":[],"stateMutability":"nonpayable"},{"type":"function","name":"numCheckpoints","inputs":[{"name":"","type":"address","internalType":"address"}],"outputs":[{"name":"","type":"uint256","internalType":"uint256"}],"stateMutability":"view"},{"type":"function","name":"oFlow","inputs":[],"outputs":[{"name":"","type":"address","internalType":"address"}],"stateMutability":"view"},{"type":"function","name":"periodFinish","inputs":[{"name":"","type":"address","internalType":"address"}],"outputs":[{"name":"","type":"uint256","internalType":"uint256"}],"stateMutability":"view"},{"type":"function","name":"rewardPerToken","inputs":[{"name":"token","type":"address","internalType":"address"}],"outputs":[{"name":"","type":"uint256","internalType":"uint256"}],"stateMutability":"view"},{"type":"function","name":"rewardPerTokenCheckpoints","inputs":[{"name":"","type":"address","internalType":"address"},{"name":"","type":"uint256","internalType":"uint256"}],"outputs":[{"name":"timestamp","type":"uint256","internalType":"uint256"},{"name":"rewardPerToken","type":"uint256","internalType":"uint256"}],"stateMutability":"view"},{"type":"function","name":"rewardPerTokenNumCheckpoints","inputs":[{"name":"","type":"address","internalType":"address"}],"outputs":[{"name":"","type":"uint256","internalType":"uint256"}],"stateMutability":"view"},{"type":"function","name":"rewardPerTokenStored","inputs":[{"name":"","type":"address","internalType":"address"}],"outputs":[{"name":"","type":"uint256","internalType":"uint256"}],"stateMutability":"view"},{"type":"function","name":"rewardRate","inputs":[{"name":"","type":"address","internalType":"address"}],"outputs":[{"name":"","type":"uint256","internalType":"uint256"}],"stateMutability":"view"},{"type":"function","name":"rewards","inputs":[{"name":"","type":"uint256","internalType":"uint256"}],"outputs":[{"name":"","type":"address","internalType":"address"}],"stateMutability":"view"},{"type":"function","name":"rewardsListLength","inputs":[],"outputs":[{"name":"","type":"uint256","internalType":"uint256"}],"stateMutability":"view"},{"type":"function","name":"setOFlow","inputs":[{"name":"_oFlow","type":"address","internalType":"address"}],"outputs":[],"stateMutability":"nonpayable"},{"type":"function","name":"stake","inputs":[],"outputs":[{"name":"","type":"address","internalType":"address"}],"stateMutability":"view"},{"type":"function","name":"supplyCheckpoints","inputs":[{"name":"","type":"uint256","internalType":"uint256"}],"outputs":[{"name":"timestamp","type":"uint256","internalType":"uint256"},{"name":"supply","type":"uint256","internalType":"uint256"}],"stateMutability":"view"},{"type":"function","name":"supplyNumCheckpoints","inputs":[],"outputs":[{"name":"","type":"uint256","internalType":"uint256"}],"stateMutability":"view"},{"type":"function","name":"swapOutRewardToken","inputs":[{"name":"i","type":"uint256","internalType":"uint256"},{"name":"oldToken","type":"address","internalType":"address"},{"name":"newToken","type":"address","internalType":"address"}],"outputs":[],"stateMutability":"nonpayable"},{"type":"function","name":"tokenIds","inputs":[{"name":"","type":"address","internalType":"address"}],"outputs":[{"name":"","type":"uint256","internalType":"uint256"}],"stateMutability":"view"},{"type":"function","name":"totalSupply","inputs":[],"outputs":[{"name":"","type":"uint256","internalType":"uint256"}],"stateMutability":"view"},{"type":"function","name":"userRewardPerTokenStored","inputs":[{"name":"","type":"address","internalType":"address"},{"name":"","type":"address","internalType":"address"}],"outputs":[{"name":"","type":"uint256","internalType":"uint256"}],"stateMutability":"view"},{"type":"function","name":"withdraw","inputs":[{"name":"amount","type":"uint256","internalType":"uint256"}],"outputs":[],"stateMutability":"nonpayable"},{"type":"function","name":"withdrawAll","inputs":[],"outputs":[],"stateMutability":"nonpayable"},{"type":"function","name":"withdrawToken","inputs":[{"name":"amount","type":"uint256","internalType":"uint256"},{"name":"tokenId","type":"uint256","internalType":"uint256"}],"outputs":[],"stateMutability":"nonpayable"},{"type":"event","name":"ClaimRewards","inputs":[{"name":"from","type":"address","indexed":true,"internalType":"address"},{"name":"reward","type":"address","indexed":true,"internalType":"address"},{"name":"amount","type":"uint256","indexed":false,"internalType":"uint256"}],"anonymous":false},{"type":"event","name":"Deposit","inputs":[{"name":"from","type":"address","indexed":true,"internalType":"address"},{"name":"tokenId","type":"uint256","indexed":false,"internalType":"uint256"},{"name":"amount","type":"uint256","indexed":false,"internalType":"uint256"}],"anonymous":false},{"type":"event","name":"NotifyReward","inputs":[{"name":"from","type":"address","indexed":true,"internalType":"address"},{"name":"reward","type":"address","indexed":true,"internalType":"address"},{"name":"amount","type":"uint256","indexed":false,"internalType":"uint256"}],"anonymous":false},{"type":"event","name":"OFlowSet","inputs":[{"name":"_oFlow","type":"address","indexed":true,"internalType":"address"}],"anonymous":false},{"type":"event","name":"Withdraw","inputs":[{"name":"from","type":"address","indexed":true,"internalType":"address"},{"name":"tokenId","type":"uint256","indexed":false,"internalType":"uint256"},{"name":"amount","type":"uint256","indexed":false,"internalType":"uint256"}],"anonymous":false}],"bytecode":{"object":"0x60e060405260016018553480156200001657600080fd5b506040516200383238038062003832833981016040819052620000399162000328565b6001600160a01b0384811660805283811660a0819052600080546001600160a01b031916928516929092179091556040805163c55dae6360e01b8152905163c55dae63916004808201926020929091908290030181865afa158015620000a3573d6000803e3d6000fd5b505050506040513d601f19601f82011682018060405250810190620000c9919062000433565b6001600160a01b0390811660c0819052600054620000eb9216600019620001fc565b60005b8151811015620001f15760006001600160a01b031682828151811062000118576200011862000458565b60200260200101516001600160a01b031614620001dc576001600f60008484815181106200014a576200014a62000458565b60200260200101516001600160a01b03166001600160a01b0316815260200190815260200160002060006101000a81548160ff021916908315150217905550600e828281518110620001a057620001a062000458565b60209081029190910181015182546001810184556000938452919092200180546001600160a01b0319166001600160a01b039092169190911790555b80620001e8816200046e565b915050620000ee565b5050505050620004f8565b6000836001600160a01b03163b116200021457600080fd5b604080516001600160a01b038481166024830152604480830185905283518084039091018152606490920183526020820180516001600160e01b031663095ea7b360e01b179052915160009283929087169162000272919062000496565b6000604051808303816000865af19150503d8060008114620002b1576040519150601f19603f3d011682016040523d82523d6000602084013e620002b6565b606091505b5091509150818015620002e4575080511580620002e4575080806020019051810190620002e49190620004d4565b620002ee57600080fd5b5050505050565b80516001600160a01b03811681146200030d57600080fd5b919050565b634e487b7160e01b600052604160045260246000fd5b600080600080608085870312156200033f57600080fd5b6200034a85620002f5565b935060206200035b818701620002f5565b93506200036b60408701620002f5565b60608701519093506001600160401b03808211156200038957600080fd5b818801915088601f8301126200039e57600080fd5b815181811115620003b357620003b362000312565b8060051b604051601f19603f83011681018181108582111715620003db57620003db62000312565b60405291825284820192508381018501918b831115620003fa57600080fd5b938501935b8285101562000423576200041385620002f5565b84529385019392850192620003ff565b989b979a50959850505050505050565b6000602082840312156200044657600080fd5b6200045182620002f5565b9392505050565b634e487b7160e01b600052603260045260246000fd5b6000600182016200048f57634e487b7160e01b600052601160045260246000fd5b5060010190565b6000825160005b81811015620004b957602081860181015185830152016200049d565b81811115620004c9576000828501525b509190910192915050565b600060208284031215620004e757600080fd5b815180151581146200045157600080fd5b60805160a05160c0516132c46200056e6000396000818161040001528181610f390152611cea015260008181610594015281816112fe0152818161155801528181611c18015261235601526000818161043f015281816114fb01528181611b720152818161218601526122d901526132c46000f3fe608060405234801561001057600080fd5b50600436106102a05760003560e01c8063853828b611610167578063d7da4bb0116100ce578063f122977711610087578063f12297771461071f578063f301af4214610732578063f7412baf14610745578063fc97a3031461076c578063fd3140981461078c578063fdb483c71461079f57600080fd5b8063d7da4bb0146106bf578063da09d19d146106c8578063e2bbb158146106e8578063e6886396146106fb578063e8111a1214610703578063f00dc8ef1461070c57600080fd5b80639ce43f90116101205780639ce43f9014610605578063a495e5b514610625578063aa47965214610650578063b66503cf14610670578063c6f678bd14610683578063d35e25441461069657600080fd5b8063853828b6146105875780638dd598fb1461058f57806393f1c442146105b65780639418f939146105bf5780639843bafa146105d257806399bcc052146105f257600080fd5b80633a4b66f11161020b578063638634ee116101c4578063638634ee146104ee57806363fb415b1461050157806368fcee1a146105215780636fcfff451461053457806370a082311461055457806376f4be361461057457600080fd5b80633a4b66f11461043a5780633ca068b6146104615780634665b5c91461048c5780634c02a21c1461049f5780634d5ce038146104a85780635a45d052146104db57600080fd5b8063221ca18c1161025d578063221ca18c1461037557806323792279146103955780632ce9aead146103b55780632e1a7d4d146103d557806331279d3d146103e8578063343aad82146103fb57600080fd5b806301316ddf146102a55780630cdfebfa146102f1578063115c6f391461032357806318160ddd146103445780631f933c2d1461034d578063211dc32d14610362575b600080fd5b6102d76102b3366004612eff565b60146020908152600092835260408084209091529082529020805460019091015482565b604080519283526020830191909152015b60405180910390f35b6102d76102ff366004612eff565b60106020908152600092835260408084209091529082529020805460019091015482565b610336610331366004612eff565b6107b2565b6040519081526020016102e8565b610336600a5481565b61036061035b366004612f2b565b610921565b005b610336610370366004612f60565b610a8c565b610336610383366004612f99565b60036020526000908152604090205481565b6103366103a3366004612f99565b600d6020526000908152604090205481565b6103366103c3366004612f99565b60056020526000908152604090205481565b6103606103e3366004612fb6565b610d10565b6103606103f6366004612fe5565b610d46565b6104227f000000000000000000000000000000000000000000000000000000000000000081565b6040516001600160a01b0390911681526020016102e8565b6104227f000000000000000000000000000000000000000000000000000000000000000081565b61033661046f366004612f60565b600860209081526000928352604080842090915290825290205481565b600054610422906001600160a01b031681565b61033660175481565b6104cb6104b6366004612f99565b600f6020526000908152604090205460ff1681565b60405190151581526020016102e8565b6103606104e9366004612eff565b611145565b6103366104fc366004612f99565b61117d565b61033661050f366004612f99565b60026020526000908152604090205481565b61036061052f366004612eff565b6111a1565b610336610542366004612f99565b60116020526000908152604090205481565b610336610562366004612f99565b600b6020526000908152604090205481565b610336610582366004612fb6565b6111ad565b6103606112e1565b6104227f000000000000000000000000000000000000000000000000000000000000000081565b61033660165481565b6103606105cd3660046130bf565b6112fc565b6103366105e0366004612f99565b600c6020526000908152604090205481565b610336610600366004612f99565b61146c565b610336610613366004612f99565b60066020526000908152604090205481565b610336610633366004612f60565b600760209081526000928352604080842090915290825290205481565b61033661065e366004612f99565b60156020526000908152604090205481565b61036061067e366004612eff565b6114dd565b610360610691366004612fb6565b611b59565b6103366106a4366004612f99565b6001600160a01b03166000908152600b602052604090205490565b61033660015481565b6103366106d6366004612f99565b60046020526000908152604090205481565b6103606106f6366004613101565b611bee565b600e54610336565b61033660135481565b61036061071a366004612f99565b611c16565b61033661072d366004612f99565b611d49565b610422610740366004612fb6565b611e08565b6102d7610753366004612fb6565b6012602052600090815260409020805460019091015482565b61033661077a366004612f99565b60096020526000908152604090205481565b6102d761079a366004612eff565b611e32565b6103606107ad366004613101565b612053565b6001600160a01b0382166000908152601160205260408120548082036107dc57600091505061091b565b6001600160a01b03841660009081526010602052604081208491610801600185613139565b8152602001908152602001600020600001541161082b57610823600182613139565b91505061091b565b6001600160a01b038416600090815260106020908152604080832083805290915290205483101561086057600091505061091b565b60008061086e600184613139565b90505b8181111561091657600060026108878484613139565b6108919190613150565b61089b9083613139565b6001600160a01b03881660009081526010602090815260408083208484528252918290208251808401909352805480845260019091015491830191909152919250908790036108f05750935061091b92505050565b80518711156109015781935061090f565b61090c600183613139565b92505b5050610871565b509150505b92915050565b60185460011461093057600080fd5b6002601855336001600160a01b038416148061095657506000546001600160a01b031633145b61095f57600080fd5b61096b838360006122bf565b6001600160a01b0383166000908152600d602052604090205442106109b1576001600160a01b0383166000908152600d60209081526040808320839055600c9091528120555b6001600160a01b0383166000908152600c6020526040812080548492906109d9908490613172565b90915550506001600160a01b0383166000908152600d602052604081205490610a028342613172565b905080821115610a655760405162461bcd60e51b815260206004820152602360248201527f5468652063757272656e74206c6f636b20656e64203e206e6577206c6f636b20604482015262195b9960ea1b60648201526084015b60405180910390fd5b6001600160a01b039094166000908152600d60205260409020939093555050600160185550565b6001600160a01b038083166000818152600760209081526040808320948616835293815283822054928252601481528382208280529052918220548291610ad291612542565b6001600160a01b03841660009081526011602052604081205491925003610afd57600091505061091b565b6000610b0984836107b2565b6001600160a01b03851660009081526011602052604081205491925090610b3290600190613139565b905060008115610c4457825b610b49600184613139565b8111610c42576001600160a01b03871660008181526010602081815260408084208685528083528185208251808401909352805483526001908101548385015295855292909152928290610b9e908690613172565b81526020019081526020016000206040518060400160405290816000820154815260200160018201548152505090506000610bdd8b8460000151611e32565b5090506000610bf08c8460000151611e32565b509050670de0b6b3a7640000610c068383613139565b8560200151610c15919061318a565b610c1f9190613150565b610c299087613172565b9550505050508080610c3a906131a9565b915050610b3e565b505b6001600160a01b0386166000908152601060209081526040808320858452825280832081518083019092528054808352600190910154928201929092529190610c8e908a90611e32565b506001600160a01b03808b166000908152600860209081526040808320938d1683529290522054909150670de0b6b3a764000090610ccd908390612542565b610cd68b611d49565b610ce09190613139565b8360200151610cef919061318a565b610cf99190613150565b610d039084613172565b9998505050505050505050565b336000908152600b60205260408120548203610d385750336000908152600960205260409020545b610d428282612053565b5050565b336001600160a01b03831614610d5b57600080fd5b60005b81518110156110a357610d8e828281518110610d7c57610d7c6131c2565b60200260200101516000196001612558565b60066000858581518110610da457610da46131c2565b60200260200101516001600160a01b03166001600160a01b03168152602001908152602001600020600060056000878781518110610de457610de46131c2565b60200260200101516001600160a01b03166001600160a01b0316815260200190815260200160002060008491905055839190505550506000610e3f838381518110610e3157610e316131c2565b602002602001015185610a8c565b90504260076000858581518110610e5857610e586131c2565b60200260200101516001600160a01b03166001600160a01b031681526020019081526020016000206000866001600160a01b03166001600160a01b031681526020019081526020016000208190555060066000848481518110610ebd57610ebd6131c2565b60200260200101516001600160a01b03166001600160a01b031681526020019081526020016000205460086000858581518110610efc57610efc6131c2565b6020908102919091018101516001600160a01b03908116835282820193909352604091820160009081209389168152929052902055801561102a577f00000000000000000000000000000000000000000000000000000000000000006001600160a01b0316838381518110610f7357610f736131c2565b60200260200101516001600160a01b031603611015576000546040516340c10f1960e01b81526001600160a01b03868116600483015260248201849052909116906340c10f1990604401600060405180830381600087803b158015610fd757600080fd5b505af1925050508015610fe8575060015b61101057611010838381518110611001576110016131c2565b60200260200101518583612748565b61102a565b61102a838381518110611001576110016131c2565b82828151811061103c5761103c6131c2565b60200260200101516001600160a01b0316336001600160a01b03167f9aa05b3d70a9e3e2f004f039648839560576334fb45c81f91b6db03ad9e2efc98360405161108891815260200190565b60405180910390a3508061109b816131a9565b915050610d5e565b506001600160a01b03821660009081526002602052604081205460018054919283926110d0908490613139565b9091555050506001600160a01b0382166000908152600b602090815260408083205460029092528220819055600180549192839261110f908490613172565b90915550506001600160a01b038316600090815260026020526040902054611138908490612848565b611140612953565b505050565b61114f82826129f8565b6001600160a01b03909316600090815260066020908152604080832060059092529091209390935590915550565b6001600160a01b03811660009081526004602052604081205461091b904290612b5b565b61114f82826000612558565b6013546000908082036111c35750600092915050565b82601260006111d3600185613139565b815260200190815260200160002060000154116111fc576111f5600182613139565b9392505050565b6000805260126020527f7e7fa33969761a458e04f477e039a608702b4f924981d6653935a8319a08ad7b548310156112375750600092915050565b600080611245600184613139565b90505b818111156112d9576000600261125e8484613139565b6112689190613150565b6112729083613139565b6000818152601260209081526040918290208251808401909352805480845260019091015491830191909152919250908790036112b3575095945050505050565b80518711156112c4578193506112d2565b6112cf600183613139565b92505b5050611248565b509392505050565b336000908152600b60205260409020546112fa90610d10565b565b7f00000000000000000000000000000000000000000000000000000000000000006001600160a01b03166385f2aef26040518163ffffffff1660e01b81526004016020604051808303816000875af115801561135c573d6000803e3d6000fd5b505050506040513d601f19601f8201168201806040525081019061138091906131d8565b6001600160a01b0316336001600160a01b0316146113b05760405162461bcd60e51b8152600401610a5c906131f5565b816001600160a01b0316600e84815481106113cd576113cd6131c2565b6000918252602090912001546001600160a01b0316146113ec57600080fd5b6001600160a01b038083166000908152600f6020526040808220805460ff199081169091559284168252902080549091166001179055600e805482919085908110611439576114396131c2565b9060005260206000200160006101000a8154816001600160a01b0302191690836001600160a01b03160217905550505050565b6001600160a01b038116600090815260046020526040812054421061149357506000919050565b6001600160a01b0382166000908152600460205260408120546114b7904290613139565b6001600160a01b0384166000908152600360205260409020549091506111f5908261318a565b6018546001146114ec57600080fd5b60026018556001600160a01b037f000000000000000000000000000000000000000000000000000000000000000081169083160361152957600080fd5b6000811161153657600080fd5b6001600160a01b0382166000908152600f602052604090205460ff1661165c577f00000000000000000000000000000000000000000000000000000000000000006001600160a01b03166385f2aef26040518163ffffffff1660e01b81526004016020604051808303816000875af11580156115b6573d6000803e3d6000fd5b505050506040513d601f19601f820116820180604052508101906115da91906131d8565b6001600160a01b0316336001600160a01b03161461160a5760405162461bcd60e51b8152600401610a5c906131f5565b600e5460041161165c5760405162461bcd60e51b815260206004820152601760248201527f746f6f206d616e79207265776172647320746f6b656e730000000000000000006044820152606401610a5c565b6001600160a01b03821660009081526003602052604081205490036116875761168782600042612b6a565b611695826000196001612558565b6001600160a01b03841660009081526006602090815260408083206005835281842094909455939092556004909152205442106117ec576040516370a0823160e01b81523060048201526000906001600160a01b038416906370a0823190602401602060405180830381865afa158015611713573d6000803e3d6000fd5b505050506040513d601f19601f820116820180604052508101906117379190613218565b905061174583333085612c59565b6040516370a0823160e01b81523060048201526000906001600160a01b038516906370a0823190602401602060405180830381865afa15801561178c573d6000803e3d6000fd5b505050506040513d601f19601f820116820180604052508101906117b09190613218565b90506117bc8282613139565b92506117cb62093a8084613150565b6001600160a01b0385166000908152600360205260409020555061196d9050565b6001600160a01b038216600090815260046020526040812054611810904290613139565b6001600160a01b03841660009081526003602052604081205491925090611837908361318a565b905080831161184557600080fd5b6040516370a0823160e01b81523060048201526000906001600160a01b038616906370a0823190602401602060405180830381865afa15801561188c573d6000803e3d6000fd5b505050506040513d601f19601f820116820180604052508101906118b09190613218565b90506118be85333087612c59565b6040516370a0823160e01b81523060048201526000906001600160a01b038716906370a0823190602401602060405180830381865afa158015611905573d6000803e3d6000fd5b505050506040513d601f19601f820116820180604052508101906119299190613218565b90506119358282613139565b945062093a806119458487613172565b61194f9190613150565b6001600160a01b038716600090815260036020526040902055505050505b6001600160a01b03821660009081526003602052604090205461198f57600080fd5b6040516370a0823160e01b81523060048201526000906001600160a01b038416906370a0823190602401602060405180830381865afa1580156119d6573d6000803e3d6000fd5b505050506040513d601f19601f820116820180604052508101906119fa9190613218565b9050611a0962093a8082613150565b6001600160a01b0384166000908152600360205260409020541115611a705760405162461bcd60e51b815260206004820152601860248201527f50726f76696465642072657761726420746f6f206869676800000000000000006044820152606401610a5c565b611a7d62093a8042613172565b6001600160a01b038416600090815260046020908152604080832093909355600f9052205460ff16611b0f576001600160a01b0383166000818152600f60205260408120805460ff19166001908117909155600e805491820181559091527fbb7b4a454dc3493923482f07822329ed19e8244eff582cc204f8554c3620c3fd0180546001600160a01b03191690911790555b6040518281526001600160a01b0384169033907ff70d5c697de7ea828df48e5c4573cb2194c659f1901f70110c52b066dcf508269060200160405180910390a35050600160185550565b6040516370a0823160e01b8152336004820152611beb907f00000000000000000000000000000000000000000000000000000000000000006001600160a01b0316906370a0823190602401602060405180830381865afa158015611bc1573d6000803e3d6000fd5b505050506040513d601f19601f82011682018060405250810190611be59190613218565b82611bee565b50565b601854600114611bfd57600080fd5b6002601855611c0d3383836122bf565b50506001601855565b7f00000000000000000000000000000000000000000000000000000000000000006001600160a01b03166385f2aef26040518163ffffffff1660e01b81526004016020604051808303816000875af1158015611c76573d6000803e3d6000fd5b505050506040513d601f19601f82011682018060405250810190611c9a91906131d8565b6001600160a01b0316336001600160a01b031614611cca5760405162461bcd60e51b8152600401610a5c906131f5565b600080546001600160a01b0319166001600160a01b038316179055611d127f000000000000000000000000000000000000000000000000000000000000000082600019612d51565b6040516001600160a01b038216907f1da6983162fbed6342bb3a16724b0ea000cb17abdcd9d7699a13866ee978cd8290600090a250565b6000600154600003611d7157506001600160a01b031660009081526006602052604090205490565b6001546001600160a01b03831660009081526003602090815260408083205460058352818420546004909352922054670de0b6b3a76400009291611db491612b5b565b611dbd8661117d565b611dc79190613139565b611dd1919061318a565b611ddb919061318a565b611de59190613150565b6001600160a01b03831660009081526006602052604090205461091b9190613172565b600e8181548110611e1857600080fd5b6000918252602090912001546001600160a01b0316905081565b6001600160a01b0382166000908152601560205260408120548190808203611e6157600080925092505061204c565b6001600160a01b03851660009081526014602052604081208591611e86600185613139565b81526020019081526020016000206000015411611f23576001600160a01b038516600090815260146020526040812090611ec1600184613139565b81526020019081526020016000206001015460146000876001600160a01b03166001600160a01b031681526020019081526020016000206000600184611f079190613139565b815260200190815260200160002060000154925092505061204c565b6001600160a01b0385166000908152601460209081526040808320838052909152902054841015611f5b57600080925092505061204c565b600080611f69600184613139565b90505b8181111561201b5760006002611f828484613139565b611f8c9190613150565b611f969083613139565b6001600160a01b0389166000908152601460209081526040808320848452825291829020825180840190935280548084526001909101549183019190915291925090889003611ff55760208101519051909650945061204c9350505050565b805188111561200657819350612014565b612011600183613139565b92505b5050611f6c565b506001600160a01b038616600090815260146020908152604080832093835292905220600181015490549093509150505b9250929050565b60185460011461206257600080fd5b600260185561206f612d9b565b336000908152600b6020908152604080832054600c90925282205490916120968284613139565b90508085111561214557336000908152600d60205260409020544210156120f85760405162461bcd60e51b8152602060048201526016602482015275546865206c6f636b206469646e27742065787069726560501b6044820152606401610a5c565b60006121048685613139565b90508060000361213057336000908152600d60209081526040808320839055600c909152812055612143565b336000908152600c602052604090208190555b505b84600a60008282546121579190613139565b9091555050336000908152600b60205260408120805487929061217b908490613139565b909155506121ac90507f00000000000000000000000000000000000000000000000000000000000000003387612748565b83156121e2573360009081526009602052604090205484146121cd57600080fd5b336000908152600960205260408120556121f5565b3360009081526009602052604090205493505b336000908152600260205260408120546001805491928392612218908490613139565b9091555050336000908152600b6020908152604080832054600290925282208190556001805491935083929091612250908490613172565b90915550503360008181526002602052604090205461226f9190612848565b612277612953565b604080518681526020810188905233917ff279e6a1f5e320cca91135676d9cb6e44ca8a08c0b88342bcdb1144f6511b568910160405180910390a25050600160185550505050565b600082116122cc57600080fd5b6122d4612d9b565b6123007f0000000000000000000000000000000000000000000000000000000000000000333085612c59565b81600a60008282546123129190613172565b90915550506001600160a01b0383166000908152600b60205260408120805484929061233f908490613172565b9091555050801561245a57826001600160a01b03167f00000000000000000000000000000000000000000000000000000000000000006001600160a01b0316636352211e836040518263ffffffff1660e01b81526004016123a291815260200190565b602060405180830381865afa1580156123bf573d6000803e3d6000fd5b505050506040513d601f19601f820116820180604052508101906123e391906131d8565b6001600160a01b0316146123f657600080fd5b6001600160a01b0383166000908152600960205260408120549003612431576001600160a01b03831660009081526009602052604090208190555b6001600160a01b038316600090815260096020526040902054811461245557600080fd5b612475565b506001600160a01b0382166000908152600960205260409020545b6001600160a01b03831660009081526002602052604081205460018054919283926124a1908490613139565b9091555050506001600160a01b0383166000908152600b60209081526040808320546002909252822081905560018054919283926124e0908490613172565b909155506124f090508482612848565b6124f8612953565b60408051838152602081018590526001600160a01b038616917f90890809c654f11d6e72a28fa60149770a0d11ec6c92319d6ceb2bb0a4ea1a15910160405180910390a250505050565b600081831161255157816111f5565b5090919050565b6001600160a01b03831660009081526005602090815260408083205460069092528220546013548392919083036125925792509050612740565b6001600160a01b03871660009081526003602052604081205490036125bd5792504291506127409050565b60006125c8836111ad565b905060006125e460016013546125de9190613139565b89612b5b565b905080156126bd57815b6125f9600183613139565b81116126bb5760008181526012602090815260409182902082518084019093528054835260010154908201819052156126a857600060128161263c856001613172565b81526020019081526020016000206040518060400160405290816000820154815260200160018201548152505090506000806126878e8460000151866000015187602001518d612e1f565b90925090506126968289613172565b97506126a38e8983612b6a565b975050505b50806126b3816131a9565b9150506125ee565b505b86156127375760008181526012602090815260409182902082518084019093528054835260010154908201819052156127355760006127168b6126ff8d61117d565b845161270b908a612542565b85602001518a612e1f565b5090506127238186613172565b94506127308b8642612b6a565b429550505b505b50909350909150505b935093915050565b6000836001600160a01b03163b1161275f57600080fd5b6040516001600160a01b03838116602483015260448201839052600091829186169063a9059cbb60e01b906064015b60408051601f198184030181529181526020820180516001600160e01b03166001600160e01b03199094169390931790925290516127cc9190613231565b6000604051808303816000865af19150503d8060008114612809576040519150601f19603f3d011682016040523d82523d6000602084013e61280e565b606091505b5091509150818015612838575080511580612838575080806020019051810190612838919061326c565b61284157600080fd5b5050505050565b6001600160a01b038216600090815260116020526040902054429080158015906128a657506001600160a01b03841660009081526010602052604081208391612892600185613139565b815260200190815260200160002060000154145b156128e9576001600160a01b038416600090815260106020526040812084916128d0600185613139565b815260208101919091526040016000206001015561294d565b60408051808201825283815260208082018681526001600160a01b038816600090815260108352848120868252909252929020905181559051600191820155612933908290613172565b6001600160a01b0385166000908152601160205260409020555b50505050565b60135442811580159061298557508060126000612971600186613139565b815260200190815260200160002060000154145b156129b6576001546012600060018561299e9190613139565b81526020810191909152604001600020600101555050565b6040805180820182528281526001805460208084019182526000878152601290915293909320915182559151908201556129f1908390613172565b6013555050565b6001600160a01b0382166000908152600560209081526040808320546006909252822054601354839291908303612a32579250905061204c565b6001600160a01b0386166000908152600360205260408120549003612a5d57925042915061204c9050565b6000612a68836111ad565b90506000612a846001601354612a7e9190613139565b88612b5b565b9050815b81811015612b4c576000818152601260209081526040918290208251808401909352805483526001015490820181905215612b39576000601281612acd856001613172565b8152602001908152602001600020604051806040016040529081600082015481526020016001820154815250509050600080612b188d8460000151866000015187602001518d612e1f565b9092509050612b278289613172565b9750612b348d8983612b6a565b975050505b5080612b44816131a9565b915050612a88565b50919792965091945050505050565b600081831061255157816111f5565b6001600160a01b0383166000908152601560205260409020548015801590612bc657506001600160a01b03841660009081526014602052604081208391612bb2600185613139565b815260200190815260200160002060000154145b15612bf0576001600160a01b038416600090815260146020526040812084916128d0600185613139565b60408051808201825283815260208082018681526001600160a01b038816600090815260148352848120868252909252929020905181559051600191820155612c3a908290613172565b6001600160a01b03851660009081526015602052604090205550505050565b6000846001600160a01b03163b11612c7057600080fd5b604080516001600160a01b0385811660248301528481166044830152606480830185905283518084039091018152608490920183526020820180516001600160e01b03166323b872dd60e01b1790529151600092839290881691612cd49190613231565b6000604051808303816000865af19150503d8060008114612d11576040519150601f19603f3d011682016040523d82523d6000602084013e612d16565b606091505b5091509150818015612d40575080511580612d40575080806020019051810190612d40919061326c565b612d4957600080fd5b505050505050565b6000836001600160a01b03163b11612d6857600080fd5b6040516001600160a01b03838116602483015260448201839052600091829186169063095ea7b360e01b9060640161278e565b600e5460005b81811015610d42576000600e8281548110612dbe57612dbe6131c2565b6000918252602090912001546001600160a01b03169050612de3816000196001612558565b6001600160a01b039092166000908152600660209081526040808320600590925290912092909255905580612e17816131a9565b915050612da1565b6000806000612e2e8785612542565b6001600160a01b0389166000908152600360205260409020549091508590670de0b6b3a764000090612e81612e638a89612542565b6001600160a01b038d16600090815260046020526040902054612b5b565b6001600160a01b038c16600090815260046020526040902054612ea5908690612b5b565b612eaf9190613139565b612eb9919061318a565b612ec3919061318a565b612ecd9190613150565b9890975095505050505050565b6001600160a01b0381168114611beb57600080fd5b8035612efa81612eda565b919050565b60008060408385031215612f1257600080fd5b8235612f1d81612eda565b946020939093013593505050565b600080600060608486031215612f4057600080fd5b8335612f4b81612eda565b95602085013595506040909401359392505050565b60008060408385031215612f7357600080fd5b8235612f7e81612eda565b91506020830135612f8e81612eda565b809150509250929050565b600060208284031215612fab57600080fd5b81356111f581612eda565b600060208284031215612fc857600080fd5b5035919050565b634e487b7160e01b600052604160045260246000fd5b60008060408385031215612ff857600080fd5b823561300381612eda565b915060208381013567ffffffffffffffff8082111561302157600080fd5b818601915086601f83011261303557600080fd5b81358181111561304757613047612fcf565b8060051b604051601f19603f8301168101818110858211171561306c5761306c612fcf565b60405291825284820192508381018501918983111561308a57600080fd5b938501935b828510156130af576130a085612eef565b8452938501939285019261308f565b8096505050505050509250929050565b6000806000606084860312156130d457600080fd5b8335925060208401356130e681612eda565b915060408401356130f681612eda565b809150509250925092565b6000806040838503121561311457600080fd5b50508035926020909101359150565b634e487b7160e01b600052601160045260246000fd5b60008282101561314b5761314b613123565b500390565b60008261316d57634e487b7160e01b600052601260045260246000fd5b500490565b6000821982111561318557613185613123565b500190565b60008160001904831182151516156131a4576131a4613123565b500290565b6000600182016131bb576131bb613123565b5060010190565b634e487b7160e01b600052603260045260246000fd5b6000602082840312156131ea57600080fd5b81516111f581612eda565b6020808252600990820152686f6e6c79207465616d60b81b604082015260600190565b60006020828403121561322a57600080fd5b5051919050565b6000825160005b818110156132525760208186018101518583015201613238565b81811115613261576000828501525b509190910192915050565b60006020828403121561327e57600080fd5b815180151581146111f557600080fdfea26469706673582212204d85152e300ec39b51550e8c355d78059bb18695e9f685c89ddf96de14420bd664736f6c634300080d0033","linkReferences":{}},"methodIdentifiers":{"_ve()":"8dd598fb","balanceOf(address)":"70a08231","balanceWithLock(address)":"9843bafa","batchRewardPerToken(address,uint256)":"5a45d052","batchUpdateRewardPerToken(address,uint256)":"68fcee1a","checkpoints(address,uint256)":"0cdfebfa","deposit(uint256,uint256)":"e2bbb158","depositAll(uint256)":"c6f678bd","depositWithLock(address,uint256,uint256)":"1f933c2d","derivedBalance(address)":"d35e2544","derivedBalances(address)":"63fb415b","derivedSupply()":"d7da4bb0","earned(address,address)":"211dc32d","fees0()":"93f1c442","fees1()":"4c02a21c","flow()":"343aad82","getPriorBalanceIndex(address,uint256)":"115c6f39","getPriorRewardPerToken(address,uint256)":"fd314098","getPriorSupplyIndex(uint256)":"76f4be36","getReward(address,address[])":"31279d3d","isReward(address)":"4d5ce038","lastEarn(address,address)":"a495e5b5","lastTimeRewardApplicable(address)":"638634ee","lastUpdateTime(address)":"2ce9aead","left(address)":"99bcc052","lockEnd(address)":"23792279","notifyRewardAmount(address,uint256)":"b66503cf","numCheckpoints(address)":"6fcfff45","oFlow()":"4665b5c9","periodFinish(address)":"da09d19d","rewardPerToken(address)":"f1229777","rewardPerTokenCheckpoints(address,uint256)":"01316ddf","rewardPerTokenNumCheckpoints(address)":"aa479652","rewardPerTokenStored(address)":"9ce43f90","rewardRate(address)":"221ca18c","rewards(uint256)":"f301af42","rewardsListLength()":"e6886396","setOFlow(address)":"f00dc8ef","stake()":"3a4b66f1","supplyCheckpoints(uint256)":"f7412baf","supplyNumCheckpoints()":"e8111a12","swapOutRewardToken(uint256,address,address)":"9418f939","tokenIds(address)":"fc97a303","totalSupply()":"18160ddd","userRewardPerTokenStored(address,address)":"3ca068b6","withdraw(uint256)":"2e1a7d4d","withdrawAll()":"853828b6","withdrawToken(uint256,uint256)":"fdb483c7"},"id":6}