{"abi":[{"type":"constructor","inputs":[{"name":"_treasury","type":"address","internalType":"address"},{"name":"_bribeGauge","type":"address","internalType":"address"},{"name":"_optionToken","type":"address","internalType":"address"},{"name":"_router","type":"address","internalType":"address"}],"stateMutability":"nonpayable"},{"type":"function","name":"balanceOfOToken","inputs":[],"outputs":[{"name":"","type":"uint256","internalType":"uint256"}],"stateMutability":"view"},{"type":"function","name":"balanceOfPaymentToken","inputs":[],"outputs":[{"name":"","type":"uint256","internalType":"uint256"}],"stateMutability":"view"},{"type":"function","name":"balanceOfUnderlyingToken","inputs":[],"outputs":[{"name":"","type":"uint256","internalType":"uint256"}],"stateMutability":"view"},{"type":"function","name":"bribeGauge","inputs":[],"outputs":[{"name":"","type":"address","internalType":"address"}],"stateMutability":"view"},{"type":"function","name":"disperse","inputs":[],"outputs":[],"stateMutability":"nonpayable"},{"type":"function","name":"giveAllowances","inputs":[],"outputs":[],"stateMutability":"nonpayable"},{"type":"function","name":"inCaseTokensGetStuck","inputs":[{"name":"_token","type":"address","internalType":"address"},{"name":"_to","type":"address","internalType":"address"}],"outputs":[],"stateMutability":"nonpayable"},{"type":"function","name":"optionToken","inputs":[],"outputs":[{"name":"","type":"address","internalType":"address"}],"stateMutability":"view"},{"type":"function","name":"owner","inputs":[],"outputs":[{"name":"","type":"address","internalType":"address"}],"stateMutability":"view"},{"type":"function","name":"paymentToken","inputs":[],"outputs":[{"name":"","type":"address","internalType":"address"}],"stateMutability":"view"},{"type":"function","name":"ratio","inputs":[],"outputs":[{"name":"","type":"uint256","internalType":"uint256"}],"stateMutability":"view"},{"type":"function","name":"removeAllowances","inputs":[],"outputs":[],"stateMutability":"nonpayable"},{"type":"function","name":"renounceOwnership","inputs":[],"outputs":[],"stateMutability":"nonpayable"},{"type":"function","name":"router","inputs":[],"outputs":[{"name":"","type":"address","internalType":"address"}],"stateMutability":"view"},{"type":"function","name":"setBribeGauge","inputs":[{"name":"_bribeGauge","type":"address","internalType":"address"}],"outputs":[],"stateMutability":"nonpayable"},{"type":"function","name":"setRatio","inputs":[{"name":"_ratio","type":"uint256","internalType":"uint256"}],"outputs":[],"stateMutability":"nonpayable"},{"type":"function","name":"setRouter","inputs":[{"name":"_router","type":"address","internalType":"address"}],"outputs":[],"stateMutability":"nonpayable"},{"type":"function","name":"setTreasury","inputs":[{"name":"_treasury","type":"address","internalType":"address"}],"outputs":[],"stateMutability":"nonpayable"},{"type":"function","name":"transferOwnership","inputs":[{"name":"newOwner","type":"address","internalType":"address"}],"outputs":[],"stateMutability":"nonpayable"},{"type":"function","name":"treasury","inputs":[],"outputs":[{"name":"","type":"address","internalType":"address"}],"stateMutability":"view"},{"type":"function","name":"underlyingToken","inputs":[],"outputs":[{"name":"","type":"address","internalType":"address"}],"stateMutability":"view"},{"type":"event","name":"OwnershipTransferred","inputs":[{"name":"previousOwner","type":"address","indexed":true,"internalType":"address"},{"name":"newOwner","type":"address","indexed":true,"internalType":"address"}],"anonymous":false}],"bytecode":{"object":"0x608060405260506007553480156200001657600080fd5b50604051620012fa380380620012fa833981016040819052620000399162000401565b6200004433620001a9565b600180546001600160a01b038087166001600160a01b03199283161790925560048054848416908316178155600280548785169084161790556003805493861693909216831790915560408051633013ce2960e01b81529051633013ce299282810192602092919082900301816000875af1158015620000c8573d6000803e3d6000fd5b505050506040513d601f19601f82011682018060405250810190620000ee91906200045e565b600580546001600160a01b0319166001600160a01b0392831617905560035460408051632495a59960e01b815290519190921691632495a59991600480830192602092919082900301816000875af11580156200014f573d6000803e3d6000fd5b505050506040513d601f19601f820116820180604052508101906200017591906200045e565b600680546001600160a01b0319166001600160a01b03929092169190911790556200019f620001f9565b50505050620004a7565b600080546001600160a01b038381166001600160a01b0319831681178455604051919092169283917f8be0079c531659141344cd1fd0a4f28419497f9722a3daafe3b4186f6b6457e09190a35050565b6200020362000383565b60035460025460405163095ea7b360e01b81526001600160a01b039182166004820152600019602482015291169063095ea7b3906044016020604051808303816000875af11580156200025a573d6000803e3d6000fd5b505050506040513d601f19601f8201168201806040525081019062000280919062000483565b5060065460035460405163095ea7b360e01b81526001600160a01b039182166004820152600019602482015291169063095ea7b3906044016020604051808303816000875af1158015620002d8573d6000803e3d6000fd5b505050506040513d601f19601f82011682018060405250810190620002fe919062000483565b506005546004805460405163095ea7b360e01b81526001600160a01b039182169281019290925260001960248301529091169063095ea7b3906044016020604051808303816000875af11580156200035a573d6000803e3d6000fd5b505050506040513d601f19601f8201168201806040525081019062000380919062000483565b50565b6000546001600160a01b03163314620003e25760405162461bcd60e51b815260206004820181905260248201527f4f776e61626c653a2063616c6c6572206973206e6f7420746865206f776e6572604482015260640160405180910390fd5b565b80516001600160a01b0381168114620003fc57600080fd5b919050565b600080600080608085870312156200041857600080fd5b6200042385620003e4565b93506200043360208601620003e4565b92506200044360408601620003e4565b91506200045360608601620003e4565b905092959194509250565b6000602082840312156200047157600080fd5b6200047c82620003e4565b9392505050565b6000602082840312156200049657600080fd5b815180151581146200047c57600080fd5b610e4380620004b76000396000f3fe608060405234801561001057600080fd5b50600436106101375760003560e01c806363d1ccc8116100b85780638da5cb5b1161007c5780638da5cb5b1461022f578063b2237ba314610240578063c0d7865514610253578063f0f4426014610266578063f2fde38b14610279578063f887ea401461028c57600080fd5b806363d1ccc8146101fb578063715018a61461020e57806371ca337d146102165780637387a4951461021f57806388b6ff9c1461022757600080fd5b806346a935c9116100ff57806346a935c9146101ba57806349fa3b80146101c257806354b83c1c146101ca57806361d027b3146101e0578063629532c3146101f357600080fd5b80631939bbc11461013c5780632495a599146101515780632bab754b146101815780633013ce29146101945780633fa0dc75146101a7575b600080fd5b61014f61014a366004610c09565b61029f565b005b600654610164906001600160a01b031681565b6040516001600160a01b0390911681526020015b60405180910390f35b600354610164906001600160a01b031681565b600554610164906001600160a01b031681565b61014f6101b5366004610c3c565b61038c565b61014f6103c9565b61014f610547565b6101d261067c565b604051908152602001610178565b600154610164906001600160a01b031681565b6101d26106ef565b600254610164906001600160a01b031681565b61014f610720565b6101d260075481565b6101d2610734565b61014f610765565b6000546001600160a01b0316610164565b61014f61024e366004610c5e565b610a41565b61014f610261366004610c3c565b610a4e565b61014f610274366004610c3c565b610a8b565b61014f610287366004610c3c565b610ac8565b600454610164906001600160a01b031681565b6102a7610b43565b6040516370a0823160e01b81523060048201526000906001600160a01b038416906370a0823190602401602060405180830381865afa1580156102ee573d6000803e3d6000fd5b505050506040513d601f19601f820116820180604052508101906103129190610c77565b60405163a9059cbb60e01b81529091506001600160a01b0384169063a9059cbb906103439085908590600401610c90565b6020604051808303816000875af1158015610362573d6000803e3d6000fd5b505050506040513d601f19601f820116820180604052508101906103869190610ca9565b50505050565b610394610b43565b6001600160a01b0381166103a757600080fd5b600280546001600160a01b0319166001600160a01b0392909216919091179055565b6103d1610b43565b60035460025460405163095ea7b360e01b81526001600160a01b039283169263095ea7b3926104099291169060001990600401610c90565b6020604051808303816000875af1158015610428573d6000803e3d6000fd5b505050506040513d601f19601f8201168201806040525081019061044c9190610ca9565b5060065460035460405163095ea7b360e01b81526001600160a01b039283169263095ea7b3926104859291169060001990600401610c90565b6020604051808303816000875af11580156104a4573d6000803e3d6000fd5b505050506040513d601f19601f820116820180604052508101906104c89190610ca9565b506005546004805460405163095ea7b360e01b81526001600160a01b039384169363095ea7b39361050193909116916000199101610c90565b6020604051808303816000875af1158015610520573d6000803e3d6000fd5b505050506040513d601f19601f820116820180604052508101906105449190610ca9565b50565b61054f610b43565b60035460025460405163095ea7b360e01b81526001600160a01b039283169263095ea7b39261058692911690600090600401610c90565b6020604051808303816000875af11580156105a5573d6000803e3d6000fd5b505050506040513d601f19601f820116820180604052508101906105c99190610ca9565b5060065460035460405163095ea7b360e01b81526001600160a01b039283169263095ea7b39261060192911690600090600401610c90565b6020604051808303816000875af1158015610620573d6000803e3d6000fd5b505050506040513d601f19601f820116820180604052508101906106449190610ca9565b506005546004805460405163095ea7b360e01b81526001600160a01b039384169363095ea7b393610501939091169160009101610c90565b6006546040516370a0823160e01b81523060048201526000916001600160a01b0316906370a08231906024015b602060405180830381865afa1580156106c6573d6000803e3d6000fd5b505050506040513d601f19601f820116820180604052508101906106ea9190610c77565b905090565b6003546040516370a0823160e01b81523060048201526000916001600160a01b0316906370a08231906024016106a9565b610728610b43565b6107326000610b9d565b565b6005546040516370a0823160e01b81523060048201526000916001600160a01b0316906370a08231906024016106a9565b600061076f610734565b600754909150156109c457600060646007548361078c9190610ce1565b6107969190610d00565b600480546005546006546040516313dcfc5960e01b8152938401859052600160248501526001600160a01b03918216604485015281166064840152600060848401523060a48401524260c484015292935091909116906313dcfc599060e4016000604051808303816000875af1158015610814573d6000803e3d6000fd5b505050506040513d6000823e601f3d908101601f1916820160405261083c9190810190610d38565b50610845610734565b9150600061085161067c565b9050600061085d6106ef565b6003546040516340c10f1960e01b81529192506001600160a01b0316906340c10f19906108909030908690600401610c90565b600060405180830381600087803b1580156108aa57600080fd5b505af11580156108be573d6000803e3d6000fd5b5050505060006108cc6106ef565b905060006108da8383610df6565b60035460025460405163095ea7b360e01b81529293506001600160a01b039182169263095ea7b3926109129216908590600401610c90565b6020604051808303816000875af1158015610931573d6000803e3d6000fd5b505050506040513d601f19601f820116820180604052508101906109559190610ca9565b5060025460035460405163b66503cf60e01b81526001600160a01b039283169263b66503cf9261098c929116908590600401610c90565b600060405180830381600087803b1580156109a657600080fd5b505af11580156109ba573d6000803e3d6000fd5b5050505050505050505b60055460015460405163a9059cbb60e01b81526001600160a01b039283169263a9059cbb926109fa929116908590600401610c90565b6020604051808303816000875af1158015610a19573d6000803e3d6000fd5b505050506040513d601f19601f82011682018060405250810190610a3d9190610ca9565b5050565b610a49610b43565b600755565b610a56610b43565b6001600160a01b038116610a6957600080fd5b600480546001600160a01b0319166001600160a01b0392909216919091179055565b610a93610b43565b6001600160a01b038116610aa657600080fd5b600180546001600160a01b0319166001600160a01b0392909216919091179055565b610ad0610b43565b6001600160a01b038116610b3a5760405162461bcd60e51b815260206004820152602660248201527f4f776e61626c653a206e6577206f776e657220697320746865207a65726f206160448201526564647265737360d01b60648201526084015b60405180910390fd5b61054481610b9d565b6000546001600160a01b031633146107325760405162461bcd60e51b815260206004820181905260248201527f4f776e61626c653a2063616c6c6572206973206e6f7420746865206f776e65726044820152606401610b31565b600080546001600160a01b038381166001600160a01b0319831681178455604051919092169283917f8be0079c531659141344cd1fd0a4f28419497f9722a3daafe3b4186f6b6457e09190a35050565b80356001600160a01b0381168114610c0457600080fd5b919050565b60008060408385031215610c1c57600080fd5b610c2583610bed565b9150610c3360208401610bed565b90509250929050565b600060208284031215610c4e57600080fd5b610c5782610bed565b9392505050565b600060208284031215610c7057600080fd5b5035919050565b600060208284031215610c8957600080fd5b5051919050565b6001600160a01b03929092168252602082015260400190565b600060208284031215610cbb57600080fd5b81518015158114610c5757600080fd5b634e487b7160e01b600052601160045260246000fd5b6000816000190483118215151615610cfb57610cfb610ccb565b500290565b600082610d1d57634e487b7160e01b600052601260045260246000fd5b500490565b634e487b7160e01b600052604160045260246000fd5b60006020808385031215610d4b57600080fd5b825167ffffffffffffffff80821115610d6357600080fd5b818501915085601f830112610d7757600080fd5b815181811115610d8957610d89610d22565b8060051b604051601f19603f83011681018181108582111715610dae57610dae610d22565b604052918252848201925083810185019188831115610dcc57600080fd5b938501935b82851015610dea57845184529385019392850192610dd1565b98975050505050505050565b600082821015610e0857610e08610ccb565b50039056fea26469706673582212204b466dc24b852c81662af8db1ac1c972244958161f7e928ad97f39c4f123854c64736f6c634300080d0033","linkReferences":{}},"methodIdentifiers":{"balanceOfOToken()":"629532c3","balanceOfPaymentToken()":"7387a495","balanceOfUnderlyingToken()":"54b83c1c","bribeGauge()":"63d1ccc8","disperse()":"88b6ff9c","giveAllowances()":"46a935c9","inCaseTokensGetStuck(address,address)":"1939bbc1","optionToken()":"2bab754b","owner()":"8da5cb5b","paymentToken()":"3013ce29","ratio()":"71ca337d","removeAllowances()":"49fa3b80","renounceOwnership()":"715018a6","router()":"f887ea40","setBribeGauge(address)":"3fa0dc75","setRatio(uint256)":"b2237ba3","setRouter(address)":"c0d78655","setTreasury(address)":"f0f44260","transferOwnership(address)":"f2fde38b","treasury()":"61d027b3","underlyingToken()":"2495a599"},"id":2}