{"abi":[{"type":"constructor","inputs":[{"name":"_router","type":"address","internalType":"address"}],"stateMutability":"nonpayable"},{"type":"function","name":"addOToken","inputs":[{"name":"_oToken","type":"address","internalType":"address"}],"outputs":[],"stateMutability":"nonpayable"},{"type":"function","name":"donatePaymentToken","inputs":[{"name":"_paymentToken","type":"address","internalType":"address"},{"name":"_amount","type":"uint256","internalType":"uint256"}],"outputs":[],"stateMutability":"nonpayable"},{"type":"function","name":"exercise","inputs":[{"name":"_oToken","type":"address","internalType":"address"},{"name":"_amount","type":"uint256","internalType":"uint256"},{"name":"_minOut","type":"uint256","internalType":"uint256"}],"outputs":[],"stateMutability":"nonpayable"},{"type":"function","name":"fee","inputs":[],"outputs":[{"name":"","type":"uint256","internalType":"uint256"}],"stateMutability":"view"},{"type":"function","name":"getAmountOfPaymentTokensAfterExercise","inputs":[{"name":"_oToken","type":"address","internalType":"address"},{"name":"_underlyingToken","type":"address","internalType":"address"},{"name":"_paymentToken","type":"address","internalType":"address"},{"name":"_amount","type":"uint256","internalType":"uint256"}],"outputs":[{"name":"","type":"uint256","internalType":"uint256"}],"stateMutability":"view"},{"type":"function","name":"inCaseTokensGetStuck","inputs":[{"name":"_token","type":"address","internalType":"address"},{"name":"_to","type":"address","internalType":"address"}],"outputs":[],"stateMutability":"nonpayable"},{"type":"function","name":"isOToken","inputs":[{"name":"","type":"address","internalType":"address"}],"outputs":[{"name":"","type":"bool","internalType":"bool"}],"stateMutability":"view"},{"type":"function","name":"owner","inputs":[],"outputs":[{"name":"","type":"address","internalType":"address"}],"stateMutability":"view"},{"type":"function","name":"removeOToken","inputs":[{"name":"_oToken","type":"address","internalType":"address"}],"outputs":[],"stateMutability":"nonpayable"},{"type":"function","name":"renounceOwnership","inputs":[],"outputs":[],"stateMutability":"nonpayable"},{"type":"function","name":"router","inputs":[],"outputs":[{"name":"","type":"address","internalType":"address"}],"stateMutability":"view"},{"type":"function","name":"setFee","inputs":[{"name":"_fee","type":"uint256","internalType":"uint256"}],"outputs":[],"stateMutability":"nonpayable"},{"type":"function","name":"transferOwnership","inputs":[{"name":"newOwner","type":"address","internalType":"address"}],"outputs":[],"stateMutability":"nonpayable"},{"type":"event","name":"Donated","inputs":[{"name":"_timestamp","type":"uint256","indexed":true,"internalType":"uint256"},{"name":"_paymentToken","type":"address","indexed":true,"internalType":"address"},{"name":"_amount","type":"uint256","indexed":false,"internalType":"uint256"}],"anonymous":false},{"type":"event","name":"Exercise","inputs":[{"name":"_oToken","type":"address","indexed":true,"internalType":"address"},{"name":"_from","type":"address","indexed":true,"internalType":"address"},{"name":"_amount","type":"uint256","indexed":false,"internalType":"uint256"},{"name":"_profit","type":"uint256","indexed":false,"internalType":"uint256"}],"anonymous":false},{"type":"event","name":"OTokenAdded","inputs":[{"name":"_oToken","type":"address","indexed":true,"internalType":"address"}],"anonymous":false},{"type":"event","name":"OTokenRemoved","inputs":[{"name":"_oToken","type":"address","indexed":true,"internalType":"address"}],"anonymous":false},{"type":"event","name":"OwnershipTransferred","inputs":[{"name":"previousOwner","type":"address","indexed":true,"internalType":"address"},{"name":"newOwner","type":"address","indexed":true,"internalType":"address"}],"anonymous":false}],"bytecode":{"object":"0x60806040526101f460035534801561001657600080fd5b50604051611454380380611454833981016040819052610035916100b3565b61003e33610063565b600180546001600160a01b0319166001600160a01b03929092169190911790556100e3565b600080546001600160a01b038381166001600160a01b0319831681178455604051919092169283917f8be0079c531659141344cd1fd0a4f28419497f9722a3daafe3b4186f6b6457e09190a35050565b6000602082840312156100c557600080fd5b81516001600160a01b03811681146100dc57600080fd5b9392505050565b611362806100f26000396000f3fe608060405234801561001057600080fd5b50600436106100cf5760003560e01c8063715018a61161008c5780638da5cb5b116100665780638da5cb5b146101a9578063ddca3f43146101ce578063f2fde38b146101d7578063f887ea40146101ea57600080fd5b8063715018a61461016d5780637753a427146101755780638ac9ab371461019657600080fd5b8063164a91ec146100d45780631939bbc1146100e95780634344c6ba146100fc578063439e2cfe1461010f578063603a524c1461014757806369fe0e2d1461015a575b600080fd5b6100e76100e236600461106a565b6101fd565b005b6100e76100f736600461108e565b610336565b6100e761010a3660046110c7565b610426565b61013261011d36600461106a565b60026020526000908152604090205460ff1681565b60405190151581526020015b60405180910390f35b6100e76101553660046110f3565b610534565b6100e7610168366004611128565b610c97565b6100e7610ca4565b610188610183366004611141565b610cb8565b60405190815260200161013e565b6100e76101a436600461106a565b610df5565b6000546001600160a01b03165b6040516001600160a01b03909116815260200161013e565b61018860035481565b6100e76101e536600461106a565b610f32565b6001546101b6906001600160a01b031681565b610205610fab565b6001600160a01b0381166000818152600260209081526040808320805460ff191690558051633013ce2960e01b81529051929392633013ce2992600480840193919291829003018187875af1158015610262573d6000803e3d6000fd5b505050506040513d601f19601f820116820180604052508101906102869190611192565b60405163095ea7b360e01b81526001600160a01b038481166004830152600060248301529192509082169063095ea7b3906044016020604051808303816000875af11580156102d9573d6000803e3d6000fd5b505050506040513d601f19601f820116820180604052508101906102fd91906111af565b506040516001600160a01b038316907faf78b9a87a238eb1aeab02992f63daef20bc47fbdbc2c80164960ff9e2a028c390600090a25050565b61033e610fab565b6040516370a0823160e01b81523060048201526000906001600160a01b038416906370a0823190602401602060405180830381865afa158015610385573d6000803e3d6000fd5b505050506040513d601f19601f820116820180604052508101906103a991906111d1565b60405163a9059cbb60e01b81526001600160a01b038481166004830152602482018390529192509084169063a9059cbb906044016020604051808303816000875af11580156103fc573d6000803e3d6000fd5b505050506040513d601f19601f8201168201806040525081019061042091906111af565b50505050565b600081116104745760405162461bcd60e51b81526020600482015260166024820152756e65656420746f20616464206174206c65617374203160501b60448201526064015b60405180910390fd5b6040516323b872dd60e01b8152336004820152306024820152604481018290526001600160a01b038316906323b872dd906064016020604051808303816000875af11580156104c7573d6000803e3d6000fd5b505050506040513d601f19601f820116820180604052508101906104eb91906111af565b50816001600160a01b0316427f1b606d34afacd55873aba0fd274841a10c63e18455f2dffebad2fc60a36b2c838360405161052891815260200190565b60405180910390a35050565b6001600160a01b03831660009081526002602052604090205460ff166105915760405162461bcd60e51b81526020600482015260126024820152712737ba1030903b30b634b21037aa37b5b2b760711b604482015260640161046b565b600082116105cf5760405162461bcd60e51b815260206004820152600b60248201526a05f616d6f756e74203c20360ac1b604482015260640161046b565b806000036105db575060015b6040516323b872dd60e01b8152336004820152306024820152604481018390526001600160a01b038416906323b872dd906064016020604051808303816000875af115801561062e573d6000803e3d6000fd5b505050506040513d601f19601f8201168201806040525081019061065291906111af565b506000836001600160a01b0316633013ce296040518163ffffffff1660e01b81526004016020604051808303816000875af1158015610695573d6000803e3d6000fd5b505050506040513d601f19601f820116820180604052508101906106b99190611192565b90506000846001600160a01b0316632495a5996040518163ffffffff1660e01b81526004016020604051808303816000875af11580156106fd573d6000803e3d6000fd5b505050506040513d601f19601f820116820180604052508101906107219190611192565b6040516370a0823160e01b81523060048201529091506000906001600160a01b038416906370a0823190602401602060405180830381865afa15801561076b573d6000803e3d6000fd5b505050506040513d601f19601f8201168201806040525081019061078f91906111d1565b6040516370a0823160e01b81523060048201529091506000906001600160a01b038416906370a0823190602401602060405180830381865afa1580156107d9573d6000803e3d6000fd5b505050506040513d601f19601f820116820180604052508101906107fd91906111d1565b6040516319ce656f60e11b8152600481018890529091506000906001600160a01b0389169063339ccade90602401602060405180830381865afa158015610848573d6000803e3d6000fd5b505050506040513d601f19601f8201168201806040525081019061086c91906111d1565b90508083116108bd5760405162461bcd60e51b815260206004820152601960248201527f4e6f7420656e6f756768207061796d656e7420746f6b656e7300000000000000604482015260640161046b565b604051636b1bcdb960e11b815260048101889052602481018290523060448201526001600160a01b0389169063d6379b72906064016020604051808303816000875af1158015610911573d6000803e3d6000fd5b505050506040513d601f19601f8201168201806040525081019061093591906111d1565b506040516370a0823160e01b81523060048201526000906001600160a01b038616906370a0823190602401602060405180830381865afa15801561097d573d6000803e3d6000fd5b505050506040513d601f19601f820116820180604052508101906109a191906111d1565b905060006109af8483611200565b60015460405163095ea7b360e01b81526001600160a01b0391821660048201526024810183905291925087169063095ea7b3906044016020604051808303816000875af1158015610a04573d6000803e3d6000fd5b505050506040513d601f19601f82011682018060405250810190610a2891906111af565b506001546040516313dcfc5960e01b815260048101839052602481018a90526001600160a01b0388811660448301528981166064830152600060848301523060a48301524260c4830152909116906313dcfc599060e4016000604051808303816000875af1158015610a9e573d6000803e3d6000fd5b505050506040513d6000823e601f3d908101601f19168201604052610ac6919081019061122d565b506040516370a0823160e01b81523060048201526000906001600160a01b038916906370a0823190602401602060405180830381865afa158015610b0e573d6000803e3d6000fd5b505050506040513d601f19601f82011682018060405250810190610b3291906111d1565b9050858111610b835760405162461bcd60e51b815260206004820152601860248201527f4e6f742070726f66697461626c65206578636572636973650000000000000000604482015260640161046b565b6000610b8f8783611200565b9050600061271060035483610ba491906112eb565b610bae919061130a565b90506000610bbc8284611200565b60405163a9059cbb60e01b8152336004820152602481018290529091506001600160a01b038c169063a9059cbb906044016020604051808303816000875af1158015610c0c573d6000803e3d6000fd5b505050506040513d601f19601f82011682018060405250810190610c3091906111af565b50336001600160a01b03168e6001600160a01b03167fb1c971764663d561c0ec2baf395a55f33f0a79fabb35bbad580247ba2959523d8f84604051610c7f929190918252602082015260400190565b60405180910390a35050505050505050505050505050565b610c9f610fab565b600355565b610cac610fab565b610cb66000611005565b565b6040516319ce656f60e11b81526004810182905260009081906001600160a01b0387169063339ccade90602401602060405180830381865afa158015610d02573d6000803e3d6000fd5b505050506040513d601f19601f82011682018060405250810190610d2691906111d1565b60015460405163da21423160e01b8152600481018690526001600160a01b03888116602483015287811660448301526000606483018190529394509091169063da21423190608401602060405180830381865afa158015610d8b573d6000803e3d6000fd5b505050506040513d601f19601f82011682018060405250810190610daf91906111d1565b90506000610dbd8383611200565b9050600061271060035483610dd291906112eb565b610ddc919061130a565b9050610de88183611200565b9998505050505050505050565b610dfd610fab565b6001600160a01b0381166000818152600260209081526040808320805460ff191660011790558051633013ce2960e01b81529051929392633013ce2992600480840193919291829003018187875af1158015610e5d573d6000803e3d6000fd5b505050506040513d601f19601f82011682018060405250810190610e819190611192565b60405163095ea7b360e01b81526001600160a01b03848116600483015260001960248301529192509082169063095ea7b3906044016020604051808303816000875af1158015610ed5573d6000803e3d6000fd5b505050506040513d601f19601f82011682018060405250810190610ef991906111af565b506040516001600160a01b038316907fcfab46cef508d07894ef14c2e29d9ffbd6813f966b63cbe6bf686990c1d8fcc790600090a25050565b610f3a610fab565b6001600160a01b038116610f9f5760405162461bcd60e51b815260206004820152602660248201527f4f776e61626c653a206e6577206f776e657220697320746865207a65726f206160448201526564647265737360d01b606482015260840161046b565b610fa881611005565b50565b6000546001600160a01b03163314610cb65760405162461bcd60e51b815260206004820181905260248201527f4f776e61626c653a2063616c6c6572206973206e6f7420746865206f776e6572604482015260640161046b565b600080546001600160a01b038381166001600160a01b0319831681178455604051919092169283917f8be0079c531659141344cd1fd0a4f28419497f9722a3daafe3b4186f6b6457e09190a35050565b6001600160a01b0381168114610fa857600080fd5b60006020828403121561107c57600080fd5b813561108781611055565b9392505050565b600080604083850312156110a157600080fd5b82356110ac81611055565b915060208301356110bc81611055565b809150509250929050565b600080604083850312156110da57600080fd5b82356110e581611055565b946020939093013593505050565b60008060006060848603121561110857600080fd5b833561111381611055565b95602085013595506040909401359392505050565b60006020828403121561113a57600080fd5b5035919050565b6000806000806080858703121561115757600080fd5b843561116281611055565b9350602085013561117281611055565b9250604085013561118281611055565b9396929550929360600135925050565b6000602082840312156111a457600080fd5b815161108781611055565b6000602082840312156111c157600080fd5b8151801515811461108757600080fd5b6000602082840312156111e357600080fd5b5051919050565b634e487b7160e01b600052601160045260246000fd5b600082821015611212576112126111ea565b500390565b634e487b7160e01b600052604160045260246000fd5b6000602080838503121561124057600080fd5b825167ffffffffffffffff8082111561125857600080fd5b818501915085601f83011261126c57600080fd5b81518181111561127e5761127e611217565b8060051b604051601f19603f830116810181811085821117156112a3576112a3611217565b6040529182528482019250838101850191888311156112c157600080fd5b938501935b828510156112df578451845293850193928501926112c6565b98975050505050505050565b6000816000190483118215151615611305576113056111ea565b500290565b60008261132757634e487b7160e01b600052601260045260246000fd5b50049056fea26469706673582212205c548fb82dfd41948c473c52765f73d43b045e213a9c46ddd05e96aa0509d5c164736f6c634300080d0033","linkReferences":{}},"methodIdentifiers":{"addOToken(address)":"8ac9ab37","donatePaymentToken(address,uint256)":"4344c6ba","exercise(address,uint256,uint256)":"603a524c","fee()":"ddca3f43","getAmountOfPaymentTokensAfterExercise(address,address,address,uint256)":"7753a427","inCaseTokensGetStuck(address,address)":"1939bbc1","isOToken(address)":"439e2cfe","owner()":"8da5cb5b","removeOToken(address)":"164a91ec","renounceOwnership()":"715018a6","router()":"f887ea40","setFee(uint256)":"69fe0e2d","transferOwnership(address)":"f2fde38b"},"id":3}