{"abi":[{"type":"constructor","inputs":[],"stateMutability":"nonpayable"},{"type":"function","name":"MAX_FEE","inputs":[],"outputs":[{"name":"","type":"uint256","internalType":"uint256"}],"stateMutability":"view"},{"type":"function","name":"allPairs","inputs":[{"name":"","type":"uint256","internalType":"uint256"}],"outputs":[{"name":"","type":"address","internalType":"address"}],"stateMutability":"view"},{"type":"function","name":"allPairsLength","inputs":[],"outputs":[{"name":"","type":"uint256","internalType":"uint256"}],"stateMutability":"view"},{"type":"function","name":"createPair","inputs":[{"name":"tokenA","type":"address","internalType":"address"},{"name":"tokenB","type":"address","internalType":"address"},{"name":"stable","type":"bool","internalType":"bool"}],"outputs":[{"name":"pair","type":"address","internalType":"address"}],"stateMutability":"nonpayable"},{"type":"function","name":"deployer","inputs":[],"outputs":[{"name":"","type":"address","internalType":"address"}],"stateMutability":"view"},{"type":"function","name":"feesOverrides","inputs":[{"name":"","type":"address","internalType":"address"}],"outputs":[{"name":"","type":"uint256","internalType":"uint256"}],"stateMutability":"view"},{"type":"function","name":"getFee","inputs":[{"name":"_pair","type":"address","internalType":"address"}],"outputs":[{"name":"","type":"uint256","internalType":"uint256"}],"stateMutability":"view"},{"type":"function","name":"getInitializable","inputs":[],"outputs":[{"name":"","type":"address","internalType":"address"},{"name":"","type":"address","internalType":"address"},{"name":"","type":"bool","internalType":"bool"}],"stateMutability":"view"},{"type":"function","name":"getPair","inputs":[{"name":"","type":"address","internalType":"address"},{"name":"","type":"address","internalType":"address"},{"name":"","type":"bool","internalType":"bool"}],"outputs":[{"name":"","type":"address","internalType":"address"}],"stateMutability":"view"},{"type":"function","name":"isPair","inputs":[{"name":"","type":"address","internalType":"address"}],"outputs":[{"name":"","type":"bool","internalType":"bool"}],"stateMutability":"view"},{"type":"function","name":"isPaused","inputs":[{"name":"_pair","type":"address","internalType":"address"}],"outputs":[{"name":"","type":"bool","internalType":"bool"}],"stateMutability":"view"},{"type":"function","name":"isPausedAll","inputs":[],"outputs":[{"name":"","type":"bool","internalType":"bool"}],"stateMutability":"view"},{"type":"function","name":"isPausedOverride","inputs":[{"name":"","type":"address","internalType":"address"}],"outputs":[{"name":"","type":"bool","internalType":"bool"}],"stateMutability":"view"},{"type":"function","name":"owner","inputs":[],"outputs":[{"name":"","type":"address","internalType":"address"}],"stateMutability":"view"},{"type":"function","name":"pairCodeHash","inputs":[],"outputs":[{"name":"","type":"bytes32","internalType":"bytes32"}],"stateMutability":"pure"},{"type":"function","name":"renounceOwnership","inputs":[],"outputs":[],"stateMutability":"nonpayable"},{"type":"function","name":"setFee","inputs":[{"name":"_stable","type":"bool","internalType":"bool"},{"name":"_fee","type":"uint256","internalType":"uint256"}],"outputs":[],"stateMutability":"nonpayable"},{"type":"function","name":"setFeesOverrides","inputs":[{"name":"_pair","type":"address","internalType":"address"},{"name":"_fee","type":"uint256","internalType":"uint256"}],"outputs":[],"stateMutability":"nonpayable"},{"type":"function","name":"setPause","inputs":[{"name":"_state","type":"bool","internalType":"bool"}],"outputs":[],"stateMutability":"nonpayable"},{"type":"function","name":"setPausePair","inputs":[{"name":"_pair","type":"address","internalType":"address"},{"name":"_state","type":"bool","internalType":"bool"}],"outputs":[],"stateMutability":"nonpayable"},{"type":"function","name":"setTank","inputs":[{"name":"_tank","type":"address","internalType":"address"}],"outputs":[],"stateMutability":"nonpayable"},{"type":"function","name":"setVoter","inputs":[{"name":"_voter","type":"address","internalType":"address"}],"outputs":[],"stateMutability":"nonpayable"},{"type":"function","name":"stableFee","inputs":[],"outputs":[{"name":"","type":"uint256","internalType":"uint256"}],"stateMutability":"view"},{"type":"function","name":"tank","inputs":[],"outputs":[{"name":"","type":"address","internalType":"address"}],"stateMutability":"view"},{"type":"function","name":"transferOwnership","inputs":[{"name":"newOwner","type":"address","internalType":"address"}],"outputs":[],"stateMutability":"nonpayable"},{"type":"function","name":"volatileFee","inputs":[],"outputs":[{"name":"","type":"uint256","internalType":"uint256"}],"stateMutability":"view"},{"type":"function","name":"voter","inputs":[],"outputs":[{"name":"","type":"address","internalType":"address"}],"stateMutability":"view"},{"type":"event","name":"FeeSet","inputs":[{"name":"setter","type":"address","indexed":true,"internalType":"address"},{"name":"stable","type":"bool","indexed":false,"internalType":"bool"},{"name":"fee","type":"uint256","indexed":false,"internalType":"uint256"}],"anonymous":false},{"type":"event","name":"OwnershipTransferred","inputs":[{"name":"previousOwner","type":"address","indexed":true,"internalType":"address"},{"name":"newOwner","type":"address","indexed":true,"internalType":"address"}],"anonymous":false},{"type":"event","name":"PairCreated","inputs":[{"name":"token0","type":"address","indexed":true,"internalType":"address"},{"name":"token1","type":"address","indexed":true,"internalType":"address"},{"name":"stable","type":"bool","indexed":false,"internalType":"bool"},{"name":"pair","type":"address","indexed":false,"internalType":"address"},{"name":"","type":"uint256","indexed":false,"internalType":"uint256"}],"anonymous":false},{"type":"event","name":"Paused","inputs":[{"name":"pauser","type":"address","indexed":true,"internalType":"address"},{"name":"paused","type":"bool","indexed":false,"internalType":"bool"}],"anonymous":false},{"type":"event","name":"PausedPair","inputs":[{"name":"pauser","type":"address","indexed":true,"internalType":"address"},{"name":"pair","type":"address","indexed":false,"internalType":"address"},{"name":"paused","type":"bool","indexed":false,"internalType":"bool"}],"anonymous":false},{"type":"event","name":"TankSet","inputs":[{"name":"setter","type":"address","indexed":true,"internalType":"address"},{"name":"tank","type":"address","indexed":true,"internalType":"address"}],"anonymous":false},{"type":"event","name":"VoterSet","inputs":[{"name":"setter","type":"address","indexed":true,"internalType":"address"},{"name":"voter","type":"address","indexed":true,"internalType":"address"}],"anonymous":false}],"bytecode":{"object":"0x608060405234801561001057600080fd5b5061001a3361003c565b6003600281905560199055600680546001600160a01b0319163317905561008c565b600080546001600160a01b038381166001600160a01b0319831681178455604051919092169283917f8be0079c531659141344cd1fd0a4f28419497f9722a3daafe3b4186f6b6457e09190a35050565b6154478061009b6000396000f3fe60806040523480156200001157600080fd5b5060043610620001cc5760003560e01c80638da5cb5b116200010d578063bedb86fb11620000a3578063e5e31b13116200007a578063e5e31b1314620003f4578063eb13c4cf146200041a578063f2fde38b1462000453578063f934e7c5146200046a57600080fd5b8063bedb86fb14620003b2578063d5f3948814620003c9578063e1f76b4414620003dd57600080fd5b8063ad8c3cd211620000e4578063ad8c3cd21462000366578063b7f01bfc146200037d578063b88c91481462000391578063bc063e1a14620003a857600080fd5b80638da5cb5b14620003355780639aab92481462000347578063a0e6adf1146200035157600080fd5b80635084ed0311620001835780635caa1426116200015a5780635caa142614620002c05780636801cc3014620002d7578063715018a6146200031457806382dfdce4146200031e57600080fd5b80635084ed031462000285578063574f2ba3146200028f5780635b14f183146200029857600080fd5b80631e3dd18b14620001d1578063269eec3a146200020557806340bbd775146200021e57806346c96aac14620002375780634bc2a657146200024b5780634e24f35e1462000262575b600080fd5b620001e8620001e236600462000e02565b62000490565b6040516001600160a01b0390911681526020015b60405180910390f35b6200021c6200021636600462000e32565b620004bb565b005b6200022860025481565b604051908152602001620001fc565b600454620001e8906001600160a01b031681565b6200021c6200025c36600462000e61565b62000528565b620002286200027336600462000e61565b600a6020526000908152604090205481565b6200022860035481565b60085462000228565b620002af620002a936600462000e61565b6200062b565b6040519015158152602001620001fc565b6200021c620002d136600462000e90565b62000665565b620001e8620002e836600462000ece565b60076020908152600093845260408085208252928452828420905282529020546001600160a01b031681565b6200021c620006d5565b620001e86200032f36600462000ece565b620006ed565b6000546001600160a01b0316620001e8565b6200022862000a97565b600054620002af90600160a01b900460ff1681565b6200021c6200037736600462000e61565b62000acb565b600554620001e8906001600160a01b031681565b62000228620003a236600462000e61565b62000b21565b620002286101f481565b6200021c620003c336600462000f20565b62000bc4565b600654620001e8906001600160a01b031681565b6200021c620003ee36600462000f40565b62000c29565b620002af6200040536600462000e61565b60096020526000908152604090205460ff1681565b600b54600c54604080516001600160a01b0393841681529282166020840152600160a01b90910460ff16151590820152606001620001fc565b6200021c6200046436600462000e61565b62000cc9565b620002af6200047b36600462000e61565b60016020526000908152604090205460ff1681565b60088181548110620004a157600080fd5b6000918252602090912001546001600160a01b0316905081565b620004c562000d48565b6101f48111156200050c5760405162461bcd60e51b815260206004820152600c60248201526b0cccaca40e8dede40d0d2ced60a31b60448201526064015b60405180910390fd5b6001600160a01b039091166000908152600a6020526040902055565b6004546001600160a01b031615620005835760405162461bcd60e51b815260206004820152601f60248201527f54686520766f7465722068617320616c7265616479206265656e207365742e00604482015260640162000503565b6006546001600160a01b03163314620005df5760405162461bcd60e51b815260206004820152601c60248201527f4e6f7420617574686f726973656420746f2073657420766f7465722e00000000604482015260640162000503565b600480546001600160a01b0319166001600160a01b03831690811790915560405133907fb32f3288ab299698a7e6e1d7a3dc2cecab02b83346c3745708bd2121c9adb58990600090a350565b6001600160a01b038116600090815260016020526040812054815460ff91821691600160a01b90910416806200065e5750805b9392505050565b6200066f62000d48565b6001600160a01b038216600081815260016020908152604091829020805460ff191685151590811790915582519384529083015233917fe6b4cd56edc58fdd76e66e4045bd1ddab92785e607d7f76c65b4386d4865d13391015b60405180910390a25050565b620006df62000d48565b620006eb600062000da4565b565b6000826001600160a01b0316846001600160a01b031603620007375760405162461bcd60e51b8152602060048201526002602482015261494160f01b604482015260640162000503565b600080846001600160a01b0316866001600160a01b0316106200075c5784866200075f565b85855b90925090506001600160a01b038216620007a15760405162461bcd60e51b81526020600482015260026024820152615a4160f01b604482015260640162000503565b6001600160a01b0382811660009081526007602090815260408083208585168452825280832088151584529091529020541615620008075760405162461bcd60e51b8152602060048201526002602482015261504560f01b604482015260640162000503565b8315620008c657600480546040805163030d028960e21b8152905132936001600160a01b0390931692630c340a24928082019260209290918290030181865afa15801562000859573d6000803e3d6000fd5b505050506040513d601f19601f820116820180604052508101906200087f919062000f61565b6001600160a01b031614620008c65760405162461bcd60e51b815260206004820152600c60248201526b3737ba1033b7bb32b93737b960a11b604482015260640162000503565b6040516bffffffffffffffffffffffff19606084811b8216602084015283901b16603482015284151560f81b604882015260009060490160408051601f19818403018152908290528051602090910120600c80546001600160a01b038087166001600160a01b03198b1515600160a01b0281166001600160a81b03199094169390931717909255600b805492881692909116919091179055915081906200096d9062000df4565b8190604051809103906000f59050801580156200098e573d6000803e3d6000fd5b506001600160a01b0384811660008181526007602081815260408084208987168086529083528185208d15158087529084528286208054988a166001600160a01b0319998a16811790915582875294845282862087875284528286208187528452828620805489168617905560088054600181810183557ff3f7a9fe364faab93b216da50a3214154f22a0a2b415b23a84c8169e8b636ee39091018054909a1687179099558587526009855295839020805460ff1916909817909755935481519687529186019290925290840152929650907fc4805696c66d7cf352fc1d6bb633ad5ee82f6cb577c453024b6e0eb8306c6fc99060600160405180910390a35050509392505050565b60006040518060200162000aab9062000df4565b6020820181038252601f19601f8201166040525080519060200120905090565b62000ad562000d48565b600580546001600160a01b0319166001600160a01b03831690811790915560405133907f36ed8bbc0a01e979a20cc34c97d74e8a95b8b96fc9df3cf65016ac4f87c9b4ea90600090a350565b6001600160a01b0381166000908152600a6020526040812054801562000b475792915050565b826001600160a01b03166322be3de16040518163ffffffff1660e01b8152600401602060405180830381865afa15801562000b86573d6000803e3d6000fd5b505050506040513d601f19601f8201168201806040525081019062000bac919062000f81565b62000bba576003546200065e565b6002549392505050565b62000bce62000d48565b60008054821515600160a01b0260ff60a01b1990911617905560405133907fe8699cf681560fd07de85543bd994263f4557bdc5179dd702f256d15fd083e1d9062000c1e90841515815260200190565b60405180910390a250565b62000c3362000d48565b6101f481111562000c765760405162461bcd60e51b815260206004820152600c60248201526b0cccaca40e8dede40d0d2ced60a31b604482015260640162000503565b811562000c8857600281905562000c8e565b60038190555b6040805183151581526020810183905233917fff8c07b46b41610b204623c0b2b01f1046618bb634e9b619f71f56eb89630fc09101620006c9565b62000cd362000d48565b6001600160a01b03811662000d3a5760405162461bcd60e51b815260206004820152602660248201527f4f776e61626c653a206e6577206f776e657220697320746865207a65726f206160448201526564647265737360d01b606482015260840162000503565b62000d458162000da4565b50565b6000546001600160a01b03163314620006eb5760405162461bcd60e51b815260206004820181905260248201527f4f776e61626c653a2063616c6c6572206973206e6f7420746865206f776e6572604482015260640162000503565b600080546001600160a01b038381166001600160a01b0319831681178455604051919092169283917f8be0079c531659141344cd1fd0a4f28419497f9722a3daafe3b4186f6b6457e09190a35050565b6144708062000fa283390190565b60006020828403121562000e1557600080fd5b5035919050565b6001600160a01b038116811462000d4557600080fd5b6000806040838503121562000e4657600080fd5b823562000e538162000e1c565b946020939093013593505050565b60006020828403121562000e7457600080fd5b81356200065e8162000e1c565b801515811462000d4557600080fd5b6000806040838503121562000ea457600080fd5b823562000eb18162000e1c565b9150602083013562000ec38162000e81565b809150509250929050565b60008060006060848603121562000ee457600080fd5b833562000ef18162000e1c565b9250602084013562000f038162000e1c565b9150604084013562000f158162000e81565b809150509250925092565b60006020828403121562000f3357600080fd5b81356200065e8162000e81565b6000806040838503121562000f5457600080fd5b823562000e538162000e81565b60006020828403121562000f7457600080fd5b81516200065e8162000e1c565b60006020828403121562000f9457600080fd5b81516200065e8162000e8156fe61014060405260006002556001600f553480156200001c57600080fd5b503360e0526200002b6200068c565b6000806000336001600160a01b031663eb13c4cf6040518163ffffffff1660e01b8152600401606060405180830381865afa1580156200006f573d6000803e3d6000fd5b505050506040513d601f19601f82011682018060405250810190620000959190620007d8565b801580156080526001600160a01b0380841660c052841660a0529295509093509150620002da57826001600160a01b03166395d89b416040518163ffffffff1660e01b8152600401600060405180830381865afa158015620000fb573d6000803e3d6000fd5b505050506040513d6000823e601f3d908101601f1916820160405262000125919081019062000873565b826001600160a01b03166395d89b416040518163ffffffff1660e01b8152600401600060405180830381865afa15801562000164573d6000803e3d6000fd5b505050506040513d6000823e601f3d908101601f191682016040526200018e919081019062000873565b604051602001620001a19291906200092b565b60405160208183030381529060405260009080519060200190620001c792919062000715565b50826001600160a01b03166395d89b416040518163ffffffff1660e01b8152600401600060405180830381865afa15801562000207573d6000803e3d6000fd5b505050506040513d6000823e601f3d908101601f1916820160405262000231919081019062000873565b826001600160a01b03166395d89b416040518163ffffffff1660e01b8152600401600060405180830381865afa15801562000270573d6000803e3d6000fd5b505050506040513d6000823e601f3d908101601f191682016040526200029a919081019062000873565b604051602001620002ad92919062000986565b60405160208183030381529060405260019080519060200190620002d392919062000715565b50620004f3565b826001600160a01b03166395d89b416040518163ffffffff1660e01b8152600401600060405180830381865afa15801562000319573d6000803e3d6000fd5b505050506040513d6000823e601f3d908101601f1916820160405262000343919081019062000873565b826001600160a01b03166395d89b416040518163ffffffff1660e01b8152600401600060405180830381865afa15801562000382573d6000803e3d6000fd5b505050506040513d6000823e601f3d908101601f19168201604052620003ac919081019062000873565b604051602001620003bf929190620009d7565b60405160208183030381529060405260009080519060200190620003e592919062000715565b50826001600160a01b03166395d89b416040518163ffffffff1660e01b8152600401600060405180830381865afa15801562000425573d6000803e3d6000fd5b505050506040513d6000823e601f3d908101601f191682016040526200044f919081019062000873565b826001600160a01b03166395d89b416040518163ffffffff1660e01b8152600401600060405180830381865afa1580156200048e573d6000803e3d6000fd5b505050506040513d6000823e601f3d908101601f19168201604052620004b8919081019062000873565b604051602001620004cb92919062000a34565b60405160208183030381529060405260019080519060200190620004f192919062000715565b505b826001600160a01b031663313ce5676040518163ffffffff1660e01b8152600401602060405180830381865afa15801562000532573d6000803e3d6000fd5b505050506040513d601f19601f8201168201806040525081019062000558919062000a56565b6200056590600a62000b97565b6101008181525050816001600160a01b031663313ce5676040518163ffffffff1660e01b8152600401602060405180830381865afa158015620005ac573d6000803e3d6000fd5b505050506040513d601f19601f82011682018060405250810190620005d2919062000a56565b620005df90600a62000b97565b6101205250506040805160608101825242815260006020820181815292820181815260098054600181018255925291517f6e1540171b6c0c960b71a7020d9f60077f6af931a8bbf590da0223dacf75c7af60039092029182015591517f6e1540171b6c0c960b71a7020d9f60077f6af931a8bbf590da0223dacf75c7b0830155517f6e1540171b6c0c960b71a7020d9f60077f6af931a8bbf590da0223dacf75c7b1909101555062000c02565b60e0516001600160a01b03166346c96aac6040518163ffffffff1660e01b8152600401602060405180830381865afa158015620006cd573d6000803e3d6000fd5b505050506040513d601f19601f82011682018060405250810190620006f3919062000ba8565b600880546001600160a01b0319166001600160a01b0392909216919091179055565b828054620007239062000bc6565b90600052602060002090601f01602090048101928262000747576000855562000792565b82601f106200076257805160ff191683800117855562000792565b8280016001018555821562000792579182015b828111156200079257825182559160200191906001019062000775565b50620007a0929150620007a4565b5090565b5b80821115620007a05760008155600101620007a5565b80516001600160a01b0381168114620007d357600080fd5b919050565b600080600060608486031215620007ee57600080fd5b620007f984620007bb565b92506200080960208501620007bb565b9150604084015180151581146200081f57600080fd5b809150509250925092565b634e487b7160e01b600052604160045260246000fd5b60005b838110156200085d57818101518382015260200162000843565b838111156200086d576000848401525b50505050565b6000602082840312156200088657600080fd5b81516001600160401b03808211156200089e57600080fd5b818401915084601f830112620008b357600080fd5b815181811115620008c857620008c86200082a565b604051601f8201601f19908116603f01168101908382118183101715620008f357620008f36200082a565b816040528281528760208487010111156200090d57600080fd5b6200092083602083016020880162000840565b979650505050505050565b6e029ba30b13632ab189020a6a690169608d1b8152600083516200095781600f85016020880162000840565b602f60f81b600f9184019182015283516200097a81601084016020880162000840565b01601001949350505050565b6473414d4d2d60d81b815260008351620009a881600585016020880162000840565b602f60f81b6005918401918201528351620009cb81600684016020880162000840565b01600601949350505050565b7002b37b630ba34b632ab189020a6a690169607d1b81526000835162000a0581601185016020880162000840565b602f60f81b601191840191820152835162000a2881601284016020880162000840565b01601201949350505050565b6476414d4d2d60d81b815260008351620009a881600585016020880162000840565b60006020828403121562000a6957600080fd5b815160ff8116811462000a7b57600080fd5b9392505050565b634e487b7160e01b600052601160045260246000fd5b600181815b8085111562000ad957816000190482111562000abd5762000abd62000a82565b8085161562000acb57918102915b93841c939080029062000a9d565b509250929050565b60008262000af25750600162000b91565b8162000b015750600062000b91565b816001811462000b1a576002811462000b255762000b45565b600191505062000b91565b60ff84111562000b395762000b3962000a82565b50506001821b62000b91565b5060208310610133831016604e8410600b841016171562000b6a575081810a62000b91565b62000b76838362000a98565b806000190482111562000b8d5762000b8d62000a82565b0290505b92915050565b600062000a7b60ff84168362000ae1565b60006020828403121562000bbb57600080fd5b62000a7b82620007bb565b600181811c9082168062000bdb57607f821691505b60208210810362000bfc57634e487b7160e01b600052602260045260246000fd5b50919050565b60805160a05160c05160e05161010051610120516136ff62000d7160003960008181610405015281816125de015281816128c80152818161298a0152612a950152600081816103e20152818161259d01528181612889015281816129cc0152612a6f01526000818161075901528181610b9a01528181610c480152818161211601526121dc01526000818161048f0152818161060e015281816106a5015281816108b501528181610b7101528181610d1701528181610e4c015281816112e4015281816116780152818161186301528181611d3c01526123390152600081816102e301528181610467015281816105e90152818161089401528181610b4f01528181610ce701528181610dbf015281816112b3015281816115e20152818161184101528181611d1a015281816122b10152818161290a0152818161295101528181612a360152612ad90152600081816103740152818161043701528181612575015261285501526136ff6000f3fe608060405234801561001057600080fd5b506004361061025e5760003560e01c806370a0823111610146578063bc25cf77116100c3578063d505accf11610087578063d505accf146106c7578063dd62ed3e146106da578063e727331a14610705578063ebeb31db1461070d578063f140a35a14610715578063fff6cae91461072857600080fd5b8063bc25cf7714610672578063bf944dbc14610685578063c245febc1461068e578063c5700a0214610697578063d21220a7146106a057600080fd5b806395d89b411161010a57806395d89b41146105d35780639d63848a146105db5780639e8cc04b14610639578063a9059cbb1461064c578063b22d8fe01461065f57600080fd5b806370a082311461052d5780637ecebe001461054d57806389afcb441461056d5780638a7b8cf21461059557806391f36d65146105bf57600080fd5b806323b872dd116101df57806345a1de79116101a357806345a1de79146104c557806346c96aac146104d8578063517b3f82146104eb5780635881c475146104fe5780635a76f25e146105115780636a6278421461051a57600080fd5b806323b872dd14610396578063252c09d7146103a9578063313ce567146103bc578063392f37e9146103d6578063443cb4bc146104bc57600080fd5b806313345fe11161022657806313345fe11461031d57806318160ddd1461033d57806319999566146103545780631df8c7171461036757806322be3de11461036f57600080fd5b8063022c0d9f1461026357806306fdde03146102785780630902f1ac14610296578063095ea7b3146102bb5780630dfe1681146102de575b600080fd5b610276610271366004613108565b610730565b005b610280610f34565b60405161028d91906131ce565b60405180910390f35b600a54600b54600c545b6040805193845260208401929092529082015260600161028d565b6102ce6102c9366004613201565b610fc2565b604051901515815260200161028d565b6103057f000000000000000000000000000000000000000000000000000000000000000081565b6040516001600160a01b03909116815260200161028d565b61033061032b36600461322d565b61102f565b60405161028d9190613268565b61034660025481565b60405190815260200161028d565b6102766103623660046132ac565b61122b565b6102a061134c565b6102ce7f000000000000000000000000000000000000000000000000000000000000000081565b6102ce6103a43660046132c9565b6113bb565b6102a06103b736600461330a565b611484565b6103c4601281565b60405160ff909116815260200161028d565b600a54600b54604080517f000000000000000000000000000000000000000000000000000000000000000081527f000000000000000000000000000000000000000000000000000000000000000060208201529081019290925260608201527f0000000000000000000000000000000000000000000000000000000000000000151560808201526001600160a01b037f0000000000000000000000000000000000000000000000000000000000000000811660a08301527f00000000000000000000000000000000000000000000000000000000000000001660c082015260e00161028d565b610346600a5481565b600754610305906001600160a01b031681565b600854610305906001600160a01b031681565b6103466104f9366004613201565b6114b7565b61033061050c366004613323565b61159f565b610346600b5481565b6103466105283660046132ac565b6115ae565b61034661053b3660046132ac565b60046020526000908152604090205481565b61034661055b3660046132ac565b60066020526000908152604090205481565b61058061057b3660046132ac565b61180f565b6040805192835260208301919091520161028d565b61059d611b2c565b604080518251815260208084015190820152918101519082015260600161028d565b6008546102ce90600160a01b900460ff1681565b610280611bac565b604080516001600160a01b037f0000000000000000000000000000000000000000000000000000000000000000811682527f00000000000000000000000000000000000000000000000000000000000000001660208201520161028d565b610346610647366004613323565b611bb9565b6102ce61065a366004613201565b611c26565b61027661066d366004613366565b611c3c565b6102766106803660046132ac565b611cee565b610346600d5481565b610346600e5481565b610346600c5481565b6103057f000000000000000000000000000000000000000000000000000000000000000081565b6102766106d5366004613383565b611e0c565b6103466106e83660046133fa565b600360209081526000928352604080842090915290825290205481565b610276612114565b600954610346565b610346610723366004613433565b6121b8565b610276612284565b600f5460011461073f57600080fd5b6002600f55604051635b14f18360e01b81523060048201527f00000000000000000000000000000000000000000000000000000000000000006001600160a01b031690635b14f18390602401602060405180830381865afa1580156107a8573d6000803e3d6000fd5b505050506040513d601f19601f820116820180604052508101906107cc9190613458565b156108095760405162461bcd60e51b81526020600482015260086024820152671a5cd4185d5cd95960c21b60448201526064015b60405180910390fd5b60008511806108185750600084115b61084a5760405162461bcd60e51b8152602060048201526003602482015262494f4160e81b6044820152606401610800565b600a54600b54818710801561085e57508086105b61088f5760405162461bcd60e51b8152602060048201526002602482015261125360f21b6044820152606401610800565b6000807f00000000000000000000000000000000000000000000000000000000000000007f00000000000000000000000000000000000000000000000000000000000000006001600160a01b03898116908316148015906109025750806001600160a01b0316896001600160a01b031614155b6109335760405162461bcd60e51b8152602060048201526002602482015261125560f21b6044820152606401610800565b8a1561094457610944828a8d6123be565b891561095557610955818a8c6123be565b86156109c257604051639a7bff7960e01b81526001600160a01b038a1690639a7bff799061098f9033908f908f908e908e90600401613475565b600060405180830381600087803b1580156109a957600080fd5b505af11580156109bd573d6000803e3d6000fd5b505050505b6040516370a0823160e01b81523060048201526001600160a01b038316906370a0823190602401602060405180830381865afa158015610a06573d6000803e3d6000fd5b505050506040513d601f19601f82011682018060405250810190610a2a91906134c1565b6040516370a0823160e01b81523060048201529094506001600160a01b038216906370a0823190602401602060405180830381865afa158015610a71573d6000803e3d6000fd5b505050506040513d601f19601f82011682018060405250810190610a9591906134c1565b9250505060008985610aa791906134f0565b8311610ab4576000610ac8565b610abe8a866134f0565b610ac890846134f0565b90506000610ad68a866134f0565b8311610ae3576000610af7565b610aed8a866134f0565b610af790846134f0565b90506000821180610b085750600081115b610b3a5760405162461bcd60e51b815260206004820152600360248201526249494160e81b6044820152606401610800565b604051631711922960e31b81523060048201527f0000000000000000000000000000000000000000000000000000000000000000907f000000000000000000000000000000000000000000000000000000000000000090600090612710907f00000000000000000000000000000000000000000000000000000000000000006001600160a01b03169063b88c914890602401602060405180830381865afa158015610be9573d6000803e3d6000fd5b505050506040513d601f19601f82011682018060405250810190610c0d91906134c1565b610c179087613507565b610c21919061353c565b604051631711922960e31b8152306004820152909150600090612710906001600160a01b037f0000000000000000000000000000000000000000000000000000000000000000169063b88c914890602401602060405180830381865afa158015610c8f573d6000803e3d6000fd5b505050506040513d601f19601f82011682018060405250810190610cb391906134c1565b610cbd9087613507565b610cc7919061353c565b600854909150600160a01b900460ff1615610d3c578515610d0c57610d0c7f0000000000000000000000000000000000000000000000000000000000000000836124be565b8415610d3c57610d3c7f0000000000000000000000000000000000000000000000000000000000000000826124be565b8515610d4f57610d4c82896134f0565b97505b8415610d6257610d5f81886134f0565b96505b610d6c8a8a612571565b610d768989612571565b1015610da85760405162461bcd60e51b81526020600482015260016024820152604b60f81b6044820152606401610800565b50506040516370a0823160e01b81523060048201527f00000000000000000000000000000000000000000000000000000000000000006001600160a01b031692506370a082319150602401602060405180830381865afa158015610e10573d6000803e3d6000fd5b505050506040513d601f19601f82011682018060405250810190610e3491906134c1565b6040516370a0823160e01b81523060048201529094507f00000000000000000000000000000000000000000000000000000000000000006001600160a01b0316906370a0823190602401602060405180830381865afa158015610e9b573d6000803e3d6000fd5b505050506040513d601f19601f82011682018060405250810190610ebf91906134c1565b9250610ecd848488886126bd565b60408051838152602081018390529081018c9052606081018b90526001600160a01b038a169033907fd78ad95fa46c994b6551d0da85fc275fe613ce37657fb8d5e3d130840159d8229060800160405180910390a350506001600f55505050505050505050565b60008054610f419061355e565b80601f0160208091040260200160405190810160405280929190818152602001828054610f6d9061355e565b8015610fba5780601f10610f8f57610100808354040283529160200191610fba565b820191906000526020600020905b815481529060010190602001808311610f9d57829003601f168201915b505050505081565b3360008181526003602090815260408083206001600160a01b038716808552925280832085905551919290917f8c5be1e5ebec7d5bd14f71427d1e84f3dd0314c0f7b2291e5b200ac8c7c3b9259061101d9086815260200190565b60405180910390a35060015b92915050565b606060008367ffffffffffffffff81111561104c5761104c613598565b604051908082528060200260200182016040528015611075578160200160208202803683370190505b5060095490915060009061108b906001906134f0565b905060006110998587613507565b6110a390836134f0565b90506000805b8383101561121b576110bb87846135ae565b91506000600984815481106110d2576110d26135c6565b906000526020600020906003020160000154600984815481106110f7576110f76135c6565b90600052602060002090600302016000015461111391906134f0565b90506000816009868154811061112b5761112b6135c6565b90600052602060002090600302016001015460098681548110611150576111506135c6565b90600052602060002090600302016001015461116c91906134f0565b611176919061353c565b90506000826009878154811061118e5761118e6135c6565b906000526020600020906003020160020154600987815481106111b3576111b36135c6565b9060005260206000209060030201600201546111cf91906134f0565b6111d9919061353c565b90506111e78c8e8484612851565b8885815181106111f9576111f96135c6565b602090810291909101015250505060010161121487846135ae565b92506110a9565b509293505050505b949350505050565b6008546001600160a01b0316331461128f5760405162461bcd60e51b815260206004820152602160248201527f4f6e6c7920766f7465722063616e207365742065787465726e616c20627269626044820152606560f81b6064820152608401610800565b600780546001600160a01b0319166001600160a01b0383169081179091556112db907f000000000000000000000000000000000000000000000000000000000000000090600019612b46565b600754611315907f0000000000000000000000000000000000000000000000000000000000000000906001600160a01b0316600019612b46565b6040516001600160a01b038216907f03e9b76bf8c2d2d6948b20459194f64843d25ada1a13e3481bf88399831a046190600090a250565b600d54600e54426000808061136a600a54600b54600c549192909190565b9250925092508381146113b357600061138382866134f0565b905061138f8185613507565b61139990886135ae565b96506113a58184613507565b6113af90876135ae565b9550505b505050909192565b6001600160a01b0383166000818152600360209081526040808320338085529252822054919290919082148015906113f557506000198114155b1561146b57600061140685836134f0565b6001600160a01b038881166000818152600360209081526040808320948916808452948252918290208590559051848152939450919290917f8c5be1e5ebec7d5bd14f71427d1e84f3dd0314c0f7b2291e5b200ac8c7c3b925910160405180910390a3505b611476868686612b90565b6001925050505b9392505050565b6009818154811061149457600080fd5b600091825260209091206003909102018054600182015460029092015490925083565b6000806114c2611b2c565b90506000806114cf61134c565b5084519193509150420361153757600980546114ed906002906134f0565b815481106114fd576114fd6135c6565b9060005260206000209060030201604051806060016040529081600082015481526020016001820154815260200160028201548152505092505b825160009061154690426134f0565b905060008185602001518561155b91906134f0565b611565919061353c565b905060008286604001518561157a91906134f0565b611584919061353c565b9050611592888a8484612851565b9998505050505050505050565b6060611223848484600161102f565b6000600f546001146115bf57600080fd5b6002600f55600a54600b546040516370a0823160e01b81523060048201526000907f00000000000000000000000000000000000000000000000000000000000000006001600160a01b0316906370a0823190602401602060405180830381865afa158015611631573d6000803e3d6000fd5b505050506040513d601f19601f8201168201806040525081019061165591906134c1565b6040516370a0823160e01b81523060048201529091506000906001600160a01b037f000000000000000000000000000000000000000000000000000000000000000016906370a0823190602401602060405180830381865afa1580156116bf573d6000803e3d6000fd5b505050506040513d601f19601f820116820180604052508101906116e391906134c1565b905060006116f185846134f0565b905060006116ff85846134f0565b6002549091506000819003611741576103e861172361171e8486613507565b612c3e565b61172d91906134f0565b975061173c60006103e8612d26565b611776565b6117738761174f8386613507565b611759919061353c565b876117648486613507565b61176e919061353c565b612db0565b97505b600088116117ac5760405162461bcd60e51b8152602060048201526003602482015262494c4d60e81b6044820152606401610800565b6117b68989612d26565b6117c2858589896126bd565b604080518481526020810184905233917f4c209b5fc8ad50758f13e2e1088ba56a560dff690a1c6fef26394f4c03821c4f910160405180910390a250506001600f55509395945050505050565b600080600f5460011461182157600080fd5b6002600f55600a54600b546040516370a0823160e01b81523060048201527f0000000000000000000000000000000000000000000000000000000000000000907f0000000000000000000000000000000000000000000000000000000000000000906000906001600160a01b038416906370a0823190602401602060405180830381865afa1580156118b7573d6000803e3d6000fd5b505050506040513d601f19601f820116820180604052508101906118db91906134c1565b6040516370a0823160e01b81523060048201529091506000906001600160a01b038416906370a0823190602401602060405180830381865afa158015611925573d6000803e3d6000fd5b505050506040513d601f19601f8201168201806040525081019061194991906134c1565b30600090815260046020526040902054600254919250908061196b8584613507565b611975919061353c565b9950806119828484613507565b61198c919061353c565b985060008a11801561199e5750600089115b6119d05760405162461bcd60e51b815260206004820152600360248201526224a62160e91b6044820152606401610800565b6119da3083612dc6565b6119e5868c8c6123be565b6119f0858c8b6123be565b6040516370a0823160e01b81523060048201526001600160a01b038716906370a0823190602401602060405180830381865afa158015611a34573d6000803e3d6000fd5b505050506040513d601f19601f82011682018060405250810190611a5891906134c1565b6040516370a0823160e01b81523060048201529094506001600160a01b038616906370a0823190602401602060405180830381865afa158015611a9f573d6000803e3d6000fd5b505050506040513d601f19601f82011682018060405250810190611ac391906134c1565b9250611ad184848a8a6126bd565b604080518b8152602081018b90526001600160a01b038d169133917fdccd412f0b1252819cb1fd330b93224ca42612892bb3f4f789976e6d81936496910160405180910390a350505050505050506001600f81905550915091565b611b5060405180606001604052806000815260200160008152602001600081525090565b60098054611b60906001906134f0565b81548110611b7057611b706135c6565b90600052602060002090600302016040518060600160405290816000820154815260200160018201548152602001600282015481525050905090565b60018054610f419061355e565b600080611bc9858585600161102f565b90506000805b8251811015611c1157828181518110611bea57611bea6135c6565b602002602001015182611bfd91906135ae565b915080611c09816135dc565b915050611bcf565b50611c1c848261353c565b9695505050505050565b6000611c33338484612b90565b50600192915050565b6008546001600160a01b03163314611c965760405162461bcd60e51b815260206004820152601c60248201527f4f6e6c7920766f7465722063616e2073657420686173206761756765000000006044820152606401610800565b60088054821515600160a01b0260ff60a01b199091161790556040517f352eb552c369d470b6f2286567a9f272a1210ad788562e697f254cad5611f10590611ce390831515815260200190565b60405180910390a150565b600f54600114611cfd57600080fd5b6002600f55600a546040516370a0823160e01b81523060048201527f0000000000000000000000000000000000000000000000000000000000000000917f000000000000000000000000000000000000000000000000000000000000000091611dca9184918691906001600160a01b038416906370a08231906024015b602060405180830381865afa158015611d97573d6000803e3d6000fd5b505050506040513d601f19601f82011682018060405250810190611dbb91906134c1565b611dc591906134f0565b6123be565b600b546040516370a0823160e01b8152306004820152611e029183918691906001600160a01b038416906370a0823190602401611d7a565b50506001600f5550565b42841015611e4c5760405162461bcd60e51b815260206004820152600d60248201526c14185a5c8e8811561412549151609a1b6044820152606401610800565b7f8b73c3c69bb8fe3d512ecc4cf759cc79239f7b179b0ffacaa9a75d522b39400f6000604051611e7c91906135f5565b60408051918290038220828201825260018352603160f81b6020938401528151928301939093528101919091527fc89efdaa54c0f20c7adf612882df0950f5a951637e0307cdcb4c672f298b8bc660608201524660808201523060a082015260c00160408051601f19818403018152918152815160209283012060058190556001600160a01b038a166000908152600690935290822080547f6e71edae12b1b97f4d1f60370fef10105fa2faae0126114a169c64845d6126c9918b918b918b919087611f47836135dc565b909155506040805160208101969096526001600160a01b0394851690860152929091166060840152608083015260a082015260c0810187905260e00160405160208183030381529060405280519060200120604051602001611fc092919061190160f01b81526002810192909252602282015260420190565b60408051601f198184030181528282528051602091820120600080855291840180845281905260ff88169284019290925260608301869052608083018590529092509060019060a0016020604051602081039080840390855afa15801561202b573d6000803e3d6000fd5b5050604051601f1901519150506001600160a01b038116158015906120615750886001600160a01b0316816001600160a01b0316145b6120ad5760405162461bcd60e51b815260206004820152601760248201527f506169723a20494e56414c49445f5349474e41545552450000000000000000006044820152606401610800565b6001600160a01b038981166000818152600360209081526040808320948d16808452948252918290208b905590518a81527f8c5be1e5ebec7d5bd14f71427d1e84f3dd0314c0f7b2291e5b200ac8c7c3b925910160405180910390a3505050505050505050565b7f00000000000000000000000000000000000000000000000000000000000000006001600160a01b03166346c96aac6040518163ffffffff1660e01b8152600401602060405180830381865afa158015612172573d6000803e3d6000fd5b505050506040513d601f19601f820116820180604052508101906121969190613690565b600880546001600160a01b0319166001600160a01b0392909216919091179055565b600a54600b54604051631711922960e31b81523060048201526000929190612710907f00000000000000000000000000000000000000000000000000000000000000006001600160a01b03169063b88c914890602401602060405180830381865afa15801561222b573d6000803e3d6000fd5b505050506040513d601f19601f8201168201806040525081019061224f91906134c1565b6122599087613507565b612263919061353c565b61226d90866134f0565b945061227b85858484612851565b95945050505050565b600f5460011461229357600080fd5b6002600f556040516370a0823160e01b81523060048201526123b7907f00000000000000000000000000000000000000000000000000000000000000006001600160a01b0316906370a0823190602401602060405180830381865afa158015612300573d6000803e3d6000fd5b505050506040513d601f19601f8201168201806040525081019061232491906134c1565b6040516370a0823160e01b81523060048201527f00000000000000000000000000000000000000000000000000000000000000006001600160a01b0316906370a0823190602401602060405180830381865afa158015612388573d6000803e3d6000fd5b505050506040513d601f19601f820116820180604052508101906123ac91906134c1565b600a54600b546126bd565b6001600f55565b6000836001600160a01b03163b116123d557600080fd5b6040516001600160a01b03838116602483015260448201839052600091829186169063a9059cbb60e01b906064015b60408051601f198184030181529181526020820180516001600160e01b03166001600160e01b031990941693909317909252905161244291906136ad565b6000604051808303816000865af19150503d806000811461247f576040519150601f19603f3d011682016040523d82523d6000602084013e612484565b606091505b50915091508180156124ae5750805115806124ae5750808060200190518101906124ae9190613458565b6124b757600080fd5b5050505050565b60075460405163b66503cf60e01b81526001600160a01b038481166004830152602482018490529091169063b66503cf90604401600060405180830381600087803b15801561250c57600080fd5b505af1158015612520573d6000803e3d6000fd5b5050600754604080518581526001600160a01b03928316602082015291861693507ff5b850648f086f3f988a2c06dd4214f39db9fa92ee563e6246c398361d1963ad92500160405180910390a25050565b60007f0000000000000000000000000000000000000000000000000000000000000000156126ac5760007f00000000000000000000000000000000000000000000000000000000000000006125ce85670de0b6b3a7640000613507565b6125d8919061353c565b905060007f000000000000000000000000000000000000000000000000000000000000000061260f85670de0b6b3a7640000613507565b612619919061353c565b90506000670de0b6b3a76400006126308385613507565b61263a919061353c565b90506000670de0b6b3a76400006126518480613507565b61265b919061353c565b670de0b6b3a764000061266e8680613507565b612678919061353c565b61268291906135ae565b9050670de0b6b3a76400006126978284613507565b6126a1919061353c565b945050505050611029565b6126b68284613507565b9050611029565b600c5442906000906126cf90836134f0565b90506000811180156126e057508315155b80156126eb57508215155b15612732576126fa8185613507565b600d600082825461270b91906135ae565b9091555061271b90508184613507565b600e600082825461272c91906135ae565b90915550505b600061273c611b2c565b805190915061274b90846134f0565b91506107088211156128005760408051606081018252848152600d5460208201908152600e549282019283526009805460018101825560009190915291517f6e1540171b6c0c960b71a7020d9f60077f6af931a8bbf590da0223dacf75c7af600390930292830155517f6e1540171b6c0c960b71a7020d9f60077f6af931a8bbf590da0223dacf75c7b082015590517f6e1540171b6c0c960b71a7020d9f60077f6af931a8bbf590da0223dacf75c7b1909101555b600a879055600b869055600c83905560408051888152602081018890527fcf2aa50876cdfbb541206f89af0ee78d44a2abf8d328e37fa4917f982149848a910160405180910390a150505050505050565b60007f000000000000000000000000000000000000000000000000000000000000000015612ad45760006128858484612571565b90507f00000000000000000000000000000000000000000000000000000000000000006128ba85670de0b6b3a7640000613507565b6128c4919061353c565b93507f00000000000000000000000000000000000000000000000000000000000000006128f984670de0b6b3a7640000613507565b612903919061353c565b92506000807f00000000000000000000000000000000000000000000000000000000000000006001600160a01b0316876001600160a01b03161461294857848661294b565b85855b915091507f00000000000000000000000000000000000000000000000000000000000000006001600160a01b0316876001600160a01b0316146129ca577f00000000000000000000000000000000000000000000000000000000000000006129bb89670de0b6b3a7640000613507565b6129c5919061353c565b612a07565b7f00000000000000000000000000000000000000000000000000000000000000006129fd89670de0b6b3a7640000613507565b612a07919061353c565b97506000612a1f612a18848b6135ae565b8584612e48565b612a2990836134f0565b9050670de0b6b3a76400007f00000000000000000000000000000000000000000000000000000000000000006001600160a01b0316896001600160a01b031614612a93577f0000000000000000000000000000000000000000000000000000000000000000612ab5565b7f00000000000000000000000000000000000000000000000000000000000000005b612abf9083613507565b612ac9919061353c565b945050505050611223565b6000807f00000000000000000000000000000000000000000000000000000000000000006001600160a01b0316866001600160a01b031614612b17578385612b1a565b84845b9092509050612b2987836135ae565b612b338289613507565b612b3d919061353c565b92505050611223565b6000836001600160a01b03163b11612b5d57600080fd5b6040516001600160a01b03838116602483015260448201839052600091829186169063095ea7b360e01b90606401612404565b6001600160a01b03831660009081526004602052604081208054839290612bb89084906134f0565b90915550506001600160a01b03821660009081526004602052604081208054839290612be59084906135ae565b92505081905550816001600160a01b0316836001600160a01b03167fddf252ad1be2c89b69c2b068fc378daa952ba7f163c4a11628f55a4df523b3ef83604051612c3191815260200190565b60405180910390a3505050565b600081600003612c5057506000919050565b60006001612c5d84612f57565b901c6001901b90506001818481612c7657612c76613526565b048201901c90506001818481612c8e57612c8e613526565b048201901c90506001818481612ca657612ca6613526565b048201901c90506001818481612cbe57612cbe613526565b048201901c90506001818481612cd657612cd6613526565b048201901c90506001818481612cee57612cee613526565b048201901c90506001818481612d0657612d06613526565b048201901c905061147d81828581612d2057612d20613526565b04612db0565b8060026000828254612d3891906135ae565b90915550506001600160a01b03821660009081526004602052604081208054839290612d659084906135ae565b90915550506040518181526001600160a01b038316906000907fddf252ad1be2c89b69c2b068fc378daa952ba7f163c4a11628f55a4df523b3ef906020015b60405180910390a35050565b6000818310612dbf578161147d565b5090919050565b8060026000828254612dd891906134f0565b90915550506001600160a01b03821660009081526004602052604081208054839290612e059084906134f0565b90915550506040518181526000906001600160a01b038416907fddf252ad1be2c89b69c2b068fc378daa952ba7f163c4a11628f55a4df523b3ef90602001612da4565b6000805b60ff811015612f4e57826000612e628783612feb565b905085811015612eb2576000612e788887613088565b612e8283896134f0565b612e9490670de0b6b3a7640000613507565b612e9e919061353c565b9050612eaa81876135ae565b955050612ef4565b6000612ebe8887613088565b612ec888846134f0565b612eda90670de0b6b3a7640000613507565b612ee4919061353c565b9050612ef081876134f0565b9550505b81851115612f1d576001612f0883876134f0565b11612f185784935050505061147d565b612f39565b6001612f2986846134f0565b11612f395784935050505061147d565b50508080612f46906135dc565b915050612e4c565b50909392505050565b600080608083901c15612f6c57608092831c92015b604083901c15612f7e57604092831c92015b602083901c15612f9057602092831c92015b601083901c15612fa257601092831c92015b600883901c15612fb457600892831c92015b600483901c15612fc657600492831c92015b600283901c15612fd857600292831c92015b600183901c156110295760010192915050565b6000670de0b6b3a7640000828185816130048280613507565b61300e919061353c565b6130189190613507565b613022919061353c565b61302c9190613507565b613036919061353c565b670de0b6b3a764000080848161304c8280613507565b613056919061353c565b6130609190613507565b61306a919061353c565b6130749086613507565b61307e919061353c565b61147d91906135ae565b6000670de0b6b3a7640000838161309f8280613507565b6130a9919061353c565b6130b39190613507565b6130bd919061353c565b670de0b6b3a7640000806130d18580613507565b6130db919061353c565b6130e6866003613507565b6130749190613507565b6001600160a01b038116811461310557600080fd5b50565b60008060008060006080868803121561312057600080fd5b85359450602086013593506040860135613139816130f0565b9250606086013567ffffffffffffffff8082111561315657600080fd5b818801915088601f83011261316a57600080fd5b81358181111561317957600080fd5b89602082850101111561318b57600080fd5b9699959850939650602001949392505050565b60005b838110156131b95781810151838201526020016131a1565b838111156131c8576000848401525b50505050565b60208152600082518060208401526131ed81604085016020870161319e565b601f01601f19169190910160400192915050565b6000806040838503121561321457600080fd5b823561321f816130f0565b946020939093013593505050565b6000806000806080858703121561324357600080fd5b843561324e816130f0565b966020860135965060408601359560600135945092505050565b6020808252825182820181905260009190848201906040850190845b818110156132a057835183529284019291840191600101613284565b50909695505050505050565b6000602082840312156132be57600080fd5b813561147d816130f0565b6000806000606084860312156132de57600080fd5b83356132e9816130f0565b925060208401356132f9816130f0565b929592945050506040919091013590565b60006020828403121561331c57600080fd5b5035919050565b60008060006060848603121561333857600080fd5b8335613343816130f0565b95602085013595506040909401359392505050565b801515811461310557600080fd5b60006020828403121561337857600080fd5b813561147d81613358565b600080600080600080600060e0888a03121561339e57600080fd5b87356133a9816130f0565b965060208801356133b9816130f0565b95506040880135945060608801359350608088013560ff811681146133dd57600080fd5b9699959850939692959460a0840135945060c09093013592915050565b6000806040838503121561340d57600080fd5b8235613418816130f0565b91506020830135613428816130f0565b809150509250929050565b6000806040838503121561344657600080fd5b823591506020830135613428816130f0565b60006020828403121561346a57600080fd5b815161147d81613358565b60018060a01b038616815284602082015283604082015260806060820152816080820152818360a0830137600081830160a090810191909152601f909201601f19160101949350505050565b6000602082840312156134d357600080fd5b5051919050565b634e487b7160e01b600052601160045260246000fd5b600082821015613502576135026134da565b500390565b6000816000190483118215151615613521576135216134da565b500290565b634e487b7160e01b600052601260045260246000fd5b60008261355957634e487b7160e01b600052601260045260246000fd5b500490565b600181811c9082168061357257607f821691505b60208210810361359257634e487b7160e01b600052602260045260246000fd5b50919050565b634e487b7160e01b600052604160045260246000fd5b600082198211156135c1576135c16134da565b500190565b634e487b7160e01b600052603260045260246000fd5b6000600182016135ee576135ee6134da565b5060010190565b600080835481600182811c91508083168061361157607f831692505b6020808410820361363057634e487b7160e01b86526022600452602486fd5b818015613644576001811461365557613682565b60ff19861689528489019650613682565b60008a81526020902060005b8681101561367a5781548b820152908501908301613661565b505084890196505b509498975050505050505050565b6000602082840312156136a257600080fd5b815161147d816130f0565b600082516136bf81846020870161319e565b919091019291505056fea2646970667358221220da89621c19b15f5362953ed213e3f752b969688c3ad7160f0946487874b0e2c364736f6c634300080d0033a2646970667358221220b8a13e80913780bcf03bf6442bd1ee36ff66c6a5d8960cfaeff8353fbee6077164736f6c634300080d0033","linkReferences":{}},"methodIdentifiers":{"MAX_FEE()":"bc063e1a","allPairs(uint256)":"1e3dd18b","allPairsLength()":"574f2ba3","createPair(address,address,bool)":"82dfdce4","deployer()":"d5f39488","feesOverrides(address)":"4e24f35e","getFee(address)":"b88c9148","getInitializable()":"eb13c4cf","getPair(address,address,bool)":"6801cc30","isPair(address)":"e5e31b13","isPaused(address)":"5b14f183","isPausedAll()":"a0e6adf1","isPausedOverride(address)":"f934e7c5","owner()":"8da5cb5b","pairCodeHash()":"9aab9248","renounceOwnership()":"715018a6","setFee(bool,uint256)":"e1f76b44","setFeesOverrides(address,uint256)":"269eec3a","setPause(bool)":"bedb86fb","setPausePair(address,bool)":"5caa1426","setTank(address)":"ad8c3cd2","setVoter(address)":"4bc2a657","stableFee()":"40bbd775","tank()":"b7f01bfc","transferOwnership(address)":"f2fde38b","volatileFee()":"5084ed03","voter()":"46c96aac"},"id":28}