{"abi":[{"type":"constructor","inputs":[{"name":"_wBribe","type":"address","internalType":"address"},{"name":"_team","type":"address","internalType":"address"},{"name":"_name","type":"string","internalType":"string"}],"stateMutability":"nonpayable"},{"type":"function","name":"balance","inputs":[{"name":"_bribeToken","type":"address","internalType":"address"}],"outputs":[{"name":"","type":"uint256","internalType":"uint256"}],"stateMutability":"view"},{"type":"function","name":"bribe","inputs":[],"outputs":[],"stateMutability":"nonpayable"},{"type":"function","name":"bribeName","inputs":[],"outputs":[{"name":"","type":"string","internalType":"string"}],"stateMutability":"view"},{"type":"function","name":"bribeTokenToWeeksLeft","inputs":[{"name":"","type":"address","internalType":"address"}],"outputs":[{"name":"","type":"uint256","internalType":"uint256"}],"stateMutability":"view"},{"type":"function","name":"bribeTokens","inputs":[{"name":"","type":"uint256","internalType":"uint256"}],"outputs":[{"name":"","type":"address","internalType":"address"}],"stateMutability":"view"},{"type":"function","name":"bribeTokensDeposited","inputs":[{"name":"","type":"address","internalType":"address"}],"outputs":[{"name":"","type":"bool","internalType":"bool"}],"stateMutability":"view"},{"type":"function","name":"bribeTypeQuantity","inputs":[],"outputs":[{"name":"","type":"uint256","internalType":"uint256"}],"stateMutability":"view"},{"type":"function","name":"deposit","inputs":[{"name":"_bribeToken","type":"address","internalType":"address"},{"name":"_amount","type":"uint256","internalType":"uint256"},{"name":"_weeks","type":"uint256","internalType":"uint256"}],"outputs":[],"stateMutability":"nonpayable"},{"type":"function","name":"depositSealed","inputs":[],"outputs":[{"name":"","type":"bool","internalType":"bool"}],"stateMutability":"view"},{"type":"function","name":"emptyOut","inputs":[],"outputs":[],"stateMutability":"nonpayable"},{"type":"function","name":"inCaseTokensGetStuck","inputs":[{"name":"_token","type":"address","internalType":"address"}],"outputs":[],"stateMutability":"nonpayable"},{"type":"function","name":"initProject","inputs":[{"name":"_newWallet","type":"address","internalType":"address"}],"outputs":[],"stateMutability":"nonpayable"},{"type":"function","name":"initialized","inputs":[],"outputs":[{"name":"","type":"bool","internalType":"bool"}],"stateMutability":"view"},{"type":"function","name":"nextWeek","inputs":[],"outputs":[{"name":"","type":"uint256","internalType":"uint256"}],"stateMutability":"view"},{"type":"function","name":"owner","inputs":[],"outputs":[{"name":"","type":"address","internalType":"address"}],"stateMutability":"view"},{"type":"function","name":"project","inputs":[],"outputs":[{"name":"","type":"address","internalType":"address"}],"stateMutability":"view"},{"type":"function","name":"reclockBribeToNow","inputs":[],"outputs":[],"stateMutability":"nonpayable"},{"type":"function","name":"renounceOwnership","inputs":[],"outputs":[],"stateMutability":"nonpayable"},{"type":"function","name":"seal","inputs":[],"outputs":[],"stateMutability":"nonpayable"},{"type":"function","name":"setProject","inputs":[{"name":"_newWallet","type":"address","internalType":"address"}],"outputs":[],"stateMutability":"nonpayable"},{"type":"function","name":"setWBribe","inputs":[{"name":"_newBribe","type":"address","internalType":"address"}],"outputs":[],"stateMutability":"nonpayable"},{"type":"function","name":"transferOwnership","inputs":[{"name":"newOwner","type":"address","internalType":"address"}],"outputs":[],"stateMutability":"nonpayable"},{"type":"function","name":"unSeal","inputs":[],"outputs":[],"stateMutability":"nonpayable"},{"type":"function","name":"wBribe","inputs":[],"outputs":[{"name":"","type":"address","internalType":"address"}],"stateMutability":"view"},{"type":"event","name":"Bribed","inputs":[{"name":"_timestamp","type":"uint256","indexed":true,"internalType":"uint256"},{"name":"_briber","type":"address","indexed":false,"internalType":"address"}],"anonymous":false},{"type":"event","name":"Deposited","inputs":[{"name":"_bribeToken","type":"address","indexed":true,"internalType":"address"},{"name":"_amount","type":"uint256","indexed":false,"internalType":"uint256"},{"name":"_weeks","type":"uint256","indexed":false,"internalType":"uint256"}],"anonymous":false},{"type":"event","name":"EmptiedOut","inputs":[{"name":"_timestamp","type":"uint256","indexed":true,"internalType":"uint256"},{"name":"project","type":"address","indexed":false,"internalType":"address"}],"anonymous":false},{"type":"event","name":"NewBribeSet","inputs":[{"name":"_timestamp","type":"uint256","indexed":true,"internalType":"uint256"},{"name":"wbribe","type":"address","indexed":false,"internalType":"address"}],"anonymous":false},{"type":"event","name":"OwnershipTransferred","inputs":[{"name":"previousOwner","type":"address","indexed":true,"internalType":"address"},{"name":"newOwner","type":"address","indexed":true,"internalType":"address"}],"anonymous":false},{"type":"event","name":"Sealed","inputs":[{"name":"_timestamp","type":"uint256","indexed":true,"internalType":"uint256"}],"anonymous":false},{"type":"event","name":"UnSealed","inputs":[{"name":"_timestamp","type":"uint256","indexed":true,"internalType":"uint256"}],"anonymous":false}],"bytecode":{"object":"0x60806040523480156200001157600080fd5b5060405162001629380380620016298339810160408190526200003491620001b1565b6200003f3362000088565b600180546001600160a01b0319166001600160a01b038516179055620000658262000088565b4260035580516200007e906007906020840190620000d8565b50505050620002f1565b600080546001600160a01b038381166001600160a01b0319831681178455604051919092169283917f8be0079c531659141344cd1fd0a4f28419497f9722a3daafe3b4186f6b6457e09190a35050565b828054620000e690620002b5565b90600052602060002090601f0160209004810192826200010a576000855562000155565b82601f106200012557805160ff191683800117855562000155565b8280016001018555821562000155579182015b828111156200015557825182559160200191906001019062000138565b506200016392915062000167565b5090565b5b8082111562000163576000815560010162000168565b80516001600160a01b03811681146200019657600080fd5b919050565b634e487b7160e01b600052604160045260246000fd5b600080600060608486031215620001c757600080fd5b620001d2846200017e565b92506020620001e38186016200017e565b60408601519093506001600160401b03808211156200020157600080fd5b818701915087601f8301126200021657600080fd5b8151818111156200022b576200022b6200019b565b604051601f8201601f19908116603f011681019083821181831017156200025657620002566200019b565b816040528281528a868487010111156200026f57600080fd5b600093505b8284101562000293578484018601518185018701529285019262000274565b82841115620002a55760008684830101525b8096505050505050509250925092565b600181811c90821680620002ca57607f821691505b602082108103620002eb57634e487b7160e01b600052602260045260246000fd5b50919050565b61132880620003016000396000f3fe608060405234801561001057600080fd5b50600436106101585760003560e01c80638da5cb5b116100c3578063e3d670d71161007c578063e3d670d7146102b0578063f2fde38b146102c3578063f49fdb1f146102d6578063f5ae2240146102e9578063f60ca60d146102fc578063fb108ea61461030f57600080fd5b80638da5cb5b14610224578063a2a24b0014610249578063d6f781841461025e578063da3e24f914610271578063dea6b68c1461027a578063def68a9c1461029d57600080fd5b80633fb27b85116101155780633fb27b85146101d157806345fa9a99146101d95780634e0d8f3a146101e15780636d49e704146101e95780636d809e4314610209578063715018a61461021c57600080fd5b80630efe6a8b1461015d5780630f70abf314610172578063158ef93e1461019b57806316423081146101af5780632beb346e146101c157806337d0208c146101c9575b600080fd5b61017061016b366004611113565b610322565b005b60025461018690600160a01b900460ff1681565b60405190151581526020015b60405180910390f35b60025461018690600160a81b900460ff1681565b6004545b604051908152602001610192565b6101706105c4565b610170610727565b6101706108e4565b610170610976565b6101706109e1565b6101b36101f7366004611146565b60066020526000908152604090205481565b610170610217366004611146565b610a23565b610170610ae0565b6000546001600160a01b03165b6040516001600160a01b039091168152602001610192565b610251610af4565b6040516101929190611198565b600154610231906001600160a01b031681565b6101b360035481565b610186610288366004611146565b60056020526000908152604090205460ff1681565b6101706102ab366004611146565b610b82565b6101b36102be366004611146565b610c5d565b6101706102d1366004611146565b610cce565b6101706102e4366004611146565b610d47565b6102316102f73660046111cb565b610dca565b600254610231906001600160a01b031681565b61017061031d366004611146565b610df4565b6002546001600160a01b031633146103815760405162461bcd60e51b815260206004820152601a60248201527f6f6e6c79207468652070726f6a6563742063616e20627269626500000000000060448201526064015b60405180910390fd5b600082116103d15760405162461bcd60e51b815260206004820181905260248201527f5768792061726520796f75206465706f736974696e67203020746f6b656e733f6044820152606401610378565b600081116104215760405162461bcd60e51b815260206004820152601f60248201527f596f75206861766520746f20707574206174206c656173742031207765656b006044820152606401610378565b61042d83333085610e0b565b600154604051636eb1769f60e11b81523060048201526001600160a01b03918216602482015260009185169063dd62ed3e90604401602060405180830381865afa15801561047f573d6000803e3d6000fd5b505050506040513d601f19601f820116820180604052508101906104a391906111e4565b6001549091506104c79085906001600160a01b03166104c28685611213565b610f03565b6001600160a01b03841660009081526005602052604090205460ff1661054d576001600160a01b0384166000818152600560205260408120805460ff191660019081179091556004805491820181559091527f8a35acfbc15ff81a39ae7d344fd709f28e8600b4aa8c65c6b64bfe7fe36bd19b0180546001600160a01b03191690911790555b6001600160a01b03841660009081526006602052604081208054849290610575908490611213565b909155505060408051848152602081018490526001600160a01b038616917f73a19dd210f1a7f902193214c0ee91dd35ee5b4d920cba8d519eca65a7b488ca910160405180910390a250505050565b6002546001600160a01b0316331461061e5760405162461bcd60e51b815260206004820152601a60248201527f6f6e6c792070726f6a6563742063616e20656d707479206f75740000000000006044820152606401610378565b600254600160a01b900460ff161561066c5760405162461bcd60e51b815260206004820152601160248201527019195c1bdcda5d081a5cc81cd9585b1959607a1b6044820152606401610378565b6004546000805b828110156106df576000600482815481106106905761069061122b565b6000918252602090912001546001600160a01b031690506106b081610c5d565b6001600160a01b03821660009081526006602052604081205592506106d6813385611003565b50600101610673565b506002546040516001600160a01b03909116815242907f314ab44270369eb4162d801785aaac822ccaed837772ddcc0ee423e61866afc3906020015b60405180910390a25050565b6003544210156107795760405162461bcd60e51b815260206004820152601d60248201527f74686973206272696265642074686973207765656b20616c72656164790000006044820152606401610378565b6004546000805b8281101561089e576004818154811061079b5761079b61122b565b60009182526020808320909101546001600160a01b03168083526006909152604082205490935090816107cd85610c5d565b6107d79190611241565b905060006107e660c883611241565b90506107f3853383611003565b6001546001600160a01b031663b66503cf8661080f8486611263565b6040516001600160e01b031960e085901b1681526001600160a01b0390921660048301526024820152604401600060405180830381600087803b15801561085557600080fd5b505af1158015610869573d6000803e3d6000fd5b5050505060018361087a9190611263565b6001600160a01b038616600090815260066020526040902055505050600101610780565b506003546108af9062093a80611213565b60038190556040513381527fb566e4109bc037672ee221047bb93100370941b59d141e5cd4b3f47ba59dbdbf9060200161071b565b6002546001600160a01b031633146109365760405162461bcd60e51b81526020600482015260156024820152741bdb9b1e481c1c9bda9958dd0818d85b881cd9585b605a1b6044820152606401610378565b6002805460ff60a01b1916600160a01b17905560405142907fba34121df90b0e77cf350d3550142d4cd66df49d5ac6c50c9560399f8820a06190600090a2565b6002546001600160a01b031633148061099957506000546001600160a01b031633145b6109db5760405162461bcd60e51b8152602060048201526013602482015272796f752063616e27742063616c6c207468697360681b6044820152606401610378565b42600355565b6109e961104d565b6002805460ff60a01b1916905560405142907f8d69e63f880c29c2d33a2682d94a8e1d5f284f03b818b7d53bf6de6972d6382790600090a2565b610a2b61104d565b600254600160a81b900460ff1615610a995760405162461bcd60e51b815260206004820152602b60248201527f70726f6a6563742077616c6c65742063616e206f6e6c7920626520736574206f60448201526a6e6365206279207465616d60a81b6064820152608401610378565b600254600160a81b900460ff16610abe576002805460ff60a81b1916600160a81b1790555b600280546001600160a01b0319166001600160a01b0392909216919091179055565b610ae861104d565b610af260006110a7565b565b60078054610b019061127a565b80601f0160208091040260200160405190810160405280929190818152602001828054610b2d9061127a565b8015610b7a5780601f10610b4f57610100808354040283529160200191610b7a565b820191906000526020600020905b815481529060010190602001808311610b5d57829003601f168201915b505050505081565b610b8a61104d565b6001600160a01b03811660009081526005602052604090205460ff1615610be15760405162461bcd60e51b815260206004820152600b60248201526a10b13934b132aa37b5b2b760a91b6044820152606401610378565b6040516370a0823160e01b81523060048201526000906001600160a01b038316906370a0823190602401602060405180830381865afa158015610c28573d6000803e3d6000fd5b505050506040513d601f19601f82011682018060405250810190610c4c91906111e4565b9050610c59823383611003565b5050565b6040516370a0823160e01b81523060048201526000906001600160a01b038316906370a0823190602401602060405180830381865afa158015610ca4573d6000803e3d6000fd5b505050506040513d601f19601f82011682018060405250810190610cc891906111e4565b92915050565b610cd661104d565b6001600160a01b038116610d3b5760405162461bcd60e51b815260206004820152602660248201527f4f776e61626c653a206e6577206f776e657220697320746865207a65726f206160448201526564647265737360d01b6064820152608401610378565b610d44816110a7565b50565b6002546001600160a01b031633148015610d6b5750600254600160a01b900460ff16155b610d7457600080fd5b600180546001600160a01b0319166001600160a01b03831690811790915560405190815242907fba148a3da007db5686a2bee27c986c79d81ccd2f9df0a711ff6c5f15cb977d9e9060200160405180910390a250565b60048181548110610dda57600080fd5b6000918252602090912001546001600160a01b0316905081565b6002546001600160a01b03163314610abe57600080fd5b6000846001600160a01b03163b11610e2257600080fd5b604080516001600160a01b0385811660248301528481166044830152606480830185905283518084039091018152608490920183526020820180516001600160e01b03166323b872dd60e01b1790529151600092839290881691610e8691906112b4565b6000604051808303816000865af19150503d8060008114610ec3576040519150601f19603f3d011682016040523d82523d6000602084013e610ec8565b606091505b5091509150818015610ef2575080511580610ef2575080806020019051810190610ef291906112d0565b610efb57600080fd5b505050505050565b6000836001600160a01b03163b11610f1a57600080fd5b6040516001600160a01b03838116602483015260448201839052600091829186169063095ea7b360e01b906064015b60408051601f198184030181529181526020820180516001600160e01b03166001600160e01b0319909416939093179092529051610f8791906112b4565b6000604051808303816000865af19150503d8060008114610fc4576040519150601f19603f3d011682016040523d82523d6000602084013e610fc9565b606091505b5091509150818015610ff3575080511580610ff3575080806020019051810190610ff391906112d0565b610ffc57600080fd5b5050505050565b6000836001600160a01b03163b1161101a57600080fd5b6040516001600160a01b03838116602483015260448201839052600091829186169063a9059cbb60e01b90606401610f49565b6000546001600160a01b03163314610af25760405162461bcd60e51b815260206004820181905260248201527f4f776e61626c653a2063616c6c6572206973206e6f7420746865206f776e65726044820152606401610378565b600080546001600160a01b038381166001600160a01b0319831681178455604051919092169283917f8be0079c531659141344cd1fd0a4f28419497f9722a3daafe3b4186f6b6457e09190a35050565b80356001600160a01b038116811461110e57600080fd5b919050565b60008060006060848603121561112857600080fd5b611131846110f7565b95602085013595506040909401359392505050565b60006020828403121561115857600080fd5b611161826110f7565b9392505050565b60005b8381101561118357818101518382015260200161116b565b83811115611192576000848401525b50505050565b60208152600082518060208401526111b7816040850160208701611168565b601f01601f19169190910160400192915050565b6000602082840312156111dd57600080fd5b5035919050565b6000602082840312156111f657600080fd5b5051919050565b634e487b7160e01b600052601160045260246000fd5b60008219821115611226576112266111fd565b500190565b634e487b7160e01b600052603260045260246000fd5b60008261125e57634e487b7160e01b600052601260045260246000fd5b500490565b600082821015611275576112756111fd565b500390565b600181811c9082168061128e57607f821691505b6020821081036112ae57634e487b7160e01b600052602260045260246000fd5b50919050565b600082516112c6818460208701611168565b9190910192915050565b6000602082840312156112e257600080fd5b8151801515811461116157600080fdfea2646970667358221220a73873cbf7b134b9aeeabcac07626993e97cc82da365775e0f7166c9d8877c7364736f6c634300080d0033","linkReferences":{}},"methodIdentifiers":{"balance(address)":"e3d670d7","bribe()":"37d0208c","bribeName()":"a2a24b00","bribeTokenToWeeksLeft(address)":"6d49e704","bribeTokens(uint256)":"f5ae2240","bribeTokensDeposited(address)":"dea6b68c","bribeTypeQuantity()":"16423081","deposit(address,uint256,uint256)":"0efe6a8b","depositSealed()":"0f70abf3","emptyOut()":"2beb346e","inCaseTokensGetStuck(address)":"def68a9c","initProject(address)":"6d809e43","initialized()":"158ef93e","nextWeek()":"da3e24f9","owner()":"8da5cb5b","project()":"f60ca60d","reclockBribeToNow()":"45fa9a99","renounceOwnership()":"715018a6","seal()":"3fb27b85","setProject(address)":"fb108ea6","setWBribe(address)":"f49fdb1f","transferOwnership(address)":"f2fde38b","unSeal()":"4e0d8f3a","wBribe()":"d6f78184"},"id":1}