{"abi":[{"type":"fallback","stateMutability":"payable"},{"type":"receive","stateMutability":"payable"},{"type":"function","name":"acceptTeam","inputs":[{"name":"_minter","type":"address","internalType":"address"}],"outputs":[],"stateMutability":"nonpayable"},{"type":"function","name":"addLiquidity","inputs":[{"name":"_router","type":"address","internalType":"address payable"},{"name":"_tokenA","type":"address","internalType":"address"},{"name":"_tokenB","type":"address","internalType":"address"},{"name":"_stable","type":"bool","internalType":"bool"},{"name":"_amountADesired","type":"uint256","internalType":"uint256"},{"name":"_amountBDesired","type":"uint256","internalType":"uint256"},{"name":"_amountAMin","type":"uint256","internalType":"uint256"},{"name":"_amountBMin","type":"uint256","internalType":"uint256"},{"name":"_to","type":"address","internalType":"address"},{"name":"_deadline","type":"uint256","internalType":"uint256"}],"outputs":[],"stateMutability":"nonpayable"},{"type":"function","name":"addLiquidityETH","inputs":[{"name":"_router","type":"address","internalType":"address payable"},{"name":"_token","type":"address","internalType":"address"},{"name":"_stable","type":"bool","internalType":"bool"},{"name":"_amountTokenDesired","type":"uint256","internalType":"uint256"},{"name":"_amountTokenMin","type":"uint256","internalType":"uint256"},{"name":"_amountETHMin","type":"uint256","internalType":"uint256"},{"name":"_to","type":"address","internalType":"address"},{"name":"_deadline","type":"uint256","internalType":"uint256"}],"outputs":[],"stateMutability":"payable"},{"type":"function","name":"approve","inputs":[{"name":"_token","type":"address","internalType":"address"},{"name":"_spender","type":"address","internalType":"address"},{"name":"_amount","type":"uint256","internalType":"uint256"}],"outputs":[],"stateMutability":"nonpayable"},{"type":"function","name":"approveEscrow","inputs":[{"name":"_escrow","type":"address","internalType":"address"},{"name":"_approved","type":"address","internalType":"address"},{"name":"_tokenId","type":"uint256","internalType":"uint256"}],"outputs":[],"stateMutability":"nonpayable"},{"type":"function","name":"create_lock","inputs":[{"name":"_escrow","type":"address","internalType":"address"},{"name":"_amount","type":"uint256","internalType":"uint256"},{"name":"_duration","type":"uint256","internalType":"uint256"}],"outputs":[],"stateMutability":"nonpayable"},{"type":"function","name":"deposit","inputs":[{"name":"_gauge","type":"address","internalType":"address"},{"name":"_amount","type":"uint256","internalType":"uint256"},{"name":"_tokenId","type":"uint256","internalType":"uint256"}],"outputs":[],"stateMutability":"nonpayable"},{"type":"function","name":"getAmountOut","inputs":[{"name":"_pair","type":"address","internalType":"address"},{"name":"_amountIn","type":"uint256","internalType":"uint256"},{"name":"_tokenIn","type":"address","internalType":"address"}],"outputs":[{"name":"","type":"uint256","internalType":"uint256"}],"stateMutability":"view"},{"type":"function","name":"getGaugeReward","inputs":[{"name":"_gauge","type":"address","internalType":"address"},{"name":"_account","type":"address","internalType":"address"},{"name":"_tokens","type":"address[]","internalType":"address[]"}],"outputs":[],"stateMutability":"nonpayable"},{"type":"function","name":"getStakeReward","inputs":[{"name":"_staking","type":"address","internalType":"address"}],"outputs":[],"stateMutability":"nonpayable"},{"type":"function","name":"merge","inputs":[{"name":"_escrow","type":"address","internalType":"address"},{"name":"_from","type":"uint256","internalType":"uint256"},{"name":"_to","type":"uint256","internalType":"uint256"}],"outputs":[],"stateMutability":"nonpayable"},{"type":"function","name":"mint","inputs":[{"name":"_pair","type":"address","internalType":"address"},{"name":"_to","type":"address","internalType":"address"}],"outputs":[],"stateMutability":"nonpayable"},{"type":"function","name":"onERC721Received","inputs":[{"name":"_operator","type":"address","internalType":"address"},{"name":"_from","type":"address","internalType":"address"},{"name":"_tokenId","type":"uint256","internalType":"uint256"},{"name":"_data","type":"bytes","internalType":"bytes"}],"outputs":[{"name":"","type":"bytes4","internalType":"bytes4"}],"stateMutability":"nonpayable"},{"type":"function","name":"setFee","inputs":[{"name":"_factory","type":"address","internalType":"address"},{"name":"_stable","type":"bool","internalType":"bool"},{"name":"_fee","type":"uint256","internalType":"uint256"}],"outputs":[],"stateMutability":"nonpayable"},{"type":"function","name":"setTank","inputs":[{"name":"_factory","type":"address","internalType":"address"},{"name":"_tank","type":"address","internalType":"address"}],"outputs":[],"stateMutability":"nonpayable"},{"type":"function","name":"setTeam","inputs":[{"name":"_minter","type":"address","internalType":"address"},{"name":"_team","type":"address","internalType":"address"}],"outputs":[],"stateMutability":"nonpayable"},{"type":"function","name":"setTeamEmissions","inputs":[{"name":"_minter","type":"address","internalType":"address"},{"name":"_rate","type":"uint256","internalType":"uint256"}],"outputs":[],"stateMutability":"nonpayable"},{"type":"function","name":"setWeeklyEmissionPerGauge","inputs":[{"name":"_minter","type":"address","internalType":"address"},{"name":"_weeklyEmissionPerGauge","type":"uint256","internalType":"uint256"}],"outputs":[],"stateMutability":"nonpayable"},{"type":"function","name":"stakeStake","inputs":[{"name":"_staking","type":"address","internalType":"address"},{"name":"_amount","type":"uint256","internalType":"uint256"}],"outputs":[],"stateMutability":"nonpayable"},{"type":"function","name":"swapExactTokensForTokens","inputs":[{"name":"_router","type":"address","internalType":"address payable"},{"name":"_amountIn","type":"uint256","internalType":"uint256"},{"name":"_amountOutMin","type":"uint256","internalType":"uint256"},{"name":"_routes","type":"tuple[]","internalType":"struct Router.route[]","components":[{"name":"from","type":"address","internalType":"address"},{"name":"to","type":"address","internalType":"address"},{"name":"stable","type":"bool","internalType":"bool"}]},{"name":"_to","type":"address","internalType":"address"},{"name":"_deadline","type":"uint256","internalType":"uint256"}],"outputs":[],"stateMutability":"nonpayable"},{"type":"function","name":"transfer","inputs":[{"name":"_token","type":"address","internalType":"address"},{"name":"_to","type":"address","internalType":"address"},{"name":"_amount","type":"uint256","internalType":"uint256"}],"outputs":[],"stateMutability":"nonpayable"},{"type":"function","name":"transferFrom","inputs":[{"name":"_escrow","type":"address","internalType":"address"},{"name":"_from","type":"address","internalType":"address"},{"name":"_to","type":"address","internalType":"address"},{"name":"_tokenId","type":"uint256","internalType":"uint256"}],"outputs":[],"stateMutability":"nonpayable"},{"type":"function","name":"withdrawGauge","inputs":[{"name":"_gauge","type":"address","internalType":"address"},{"name":"_amount","type":"uint256","internalType":"uint256"}],"outputs":[],"stateMutability":"nonpayable"},{"type":"function","name":"withdrawStake","inputs":[{"name":"_staking","type":"address","internalType":"address"},{"name":"_amount","type":"uint256","internalType":"uint256"}],"outputs":[],"stateMutability":"nonpayable"}],"bytecode":{"object":"0x608060405234801561001057600080fd5b50611377806100206000396000f3fe6080604052600436106101435760003560e01c80636f9a1c00116100b0578063c60662721161006c578063c6066272146102d5578063cacd8359146103a8578063e1f21c67146103c8578063e41c3a4e146103e8578063ee1fe2ad14610408578063ff9c8ac61461042857005b80636f9a1c00146102f5578063804dc8af1461030857806385ea33f414610328578063a6cad31314610348578063b5ed201614610368578063beabacc81461038857005b8063463dcf0a116100ff578063463dcf0a146102355780634d318018146102555780634d649bd51461027557806358ea1dba1461029557806362790177146102b55780636b42318a146102d557005b80630efe6a8b1461014c57806314f8decf1461016c578063150b7a021461018c57806315dacbea146101d55780631d75c22c146101f55780632a7f364e1461021557005b3661014a57005b005b34801561015857600080fd5b5061014a610167366004610ba1565b610456565b34801561017857600080fd5b5061014a610187366004610be4565b6104bd565b34801561019857600080fd5b506101b76101a7366004610c6c565b630a85bd0160e11b949350505050565b6040516001600160e01b031990911681526020015b60405180910390f35b3480156101e157600080fd5b5061014a6101f0366004610d30565b6104f2565b34801561020157600080fd5b5061014a610210366004610d81565b610562565b34801561022157600080fd5b5061014a610230366004610da5565b6105b8565b34801561024157600080fd5b5061014a610250366004610ba1565b6105ed565b34801561026157600080fd5b5061014a610270366004610d81565b610621565b34801561028157600080fd5b5061014a610290366004610dd5565b61065c565b3480156102a157600080fd5b5061014a6102b0366004610e78565b610714565b3480156102c157600080fd5b5061014a6102d0366004610e78565b610773565b3480156102e157600080fd5b5061014a6102f0366004610e78565b6107a0565b61014a610303366004610ea4565b6107cd565b34801561031457600080fd5b5061014a610323366004610f29565b610874565b34801561033457600080fd5b5061014a610343366004610e78565b6108f1565b34801561035457600080fd5b5061014a610363366004611003565b61091e565b34801561037457600080fd5b5061014a6103833660046110c9565b61094c565b34801561039457600080fd5b5061014a6103a3366004610da5565b61097a565b3480156103b457600080fd5b5061014a6103c3366004610ba1565b6109f4565b3480156103d457600080fd5b5061014a6103e3366004610da5565b610a28565b3480156103f457600080fd5b5061014a6104033660046110c9565b610a5d565b34801561041457600080fd5b5061014a6104233660046110c9565b610a8b565b34801561043457600080fd5b50610448610443366004611102565b610afc565b6040519081526020016101cc565b604051631c57762b60e31b815260048101839052602481018290526001600160a01b0384169063e2bbb158906044015b600060405180830381600087803b1580156104a057600080fd5b505af11580156104b4573d6000803e3d6000fd5b50505050505050565b60405163387ddad160e21b81528215156004820152602481018290526001600160a01b0384169063e1f76b4490604401610486565b6040516323b872dd60e01b81526001600160a01b0384811660048301528381166024830152604482018390528516906323b872dd90606401600060405180830381600087803b15801561054457600080fd5b505af1158015610558573d6000803e3d6000fd5b5050505050505050565b806001600160a01b031663b5cc143a6040518163ffffffff1660e01b8152600401600060405180830381600087803b15801561059d57600080fd5b505af11580156105b1573d6000803e3d6000fd5b5050505050565b60405163095ea7b360e01b81526001600160a01b0383811660048301526024820183905284169063095ea7b390604401610486565b60405163d1c2babb60e01b815260048101839052602481018290526001600160a01b0384169063d1c2babb90604401610486565b806001600160a01b0316633d18b9126040518163ffffffff1660e01b8152600401600060405180830381600087803b15801561059d57600080fd5b604051635a47ddc360e01b81526001600160a01b038a8116600483015289811660248301528815156044830152606482018890526084820187905260a4820186905260c4820185905283811660e483015261010482018390528b1690635a47ddc390610124016060604051808303816000875af11580156106e1573d6000803e3d6000fd5b505050506040513d601f19601f820116820180604052508101906107059190611144565b50505050505050505050505050565b60405163534a7e1d60e11b8152600481018290526001600160a01b0383169063a694fc3a906024015b600060405180830381600087803b15801561075757600080fd5b505af115801561076b573d6000803e3d6000fd5b505050505050565b6040516316e8b53560e11b8152600481018290526001600160a01b03831690632dd16a6a9060240161073d565b604051632e1a7d4d60e01b8152600481018290526001600160a01b03831690632e1a7d4d9060240161073d565b6040516302df835360e61b81526001600160a01b038881166004830152871515602483015260448201879052606482018690526084820185905283811660a483015260c4820183905289169063b7e0d4c090349060e40160606040518083038185885af1158015610842573d6000803e3d6000fd5b50505050506040513d601f19601f820116820180604052508101906108679190611144565b5050505050505050505050565b604051631e82ecdb60e31b81526001600160a01b0388169063f41766d8906108aa90899089908990899089908990600401611172565b6000604051808303816000875af11580156108c9573d6000803e3d6000fd5b505050506040513d6000823e601f3d908101601f19168201604052610558919081019061121e565b604051632e8f7b1f60e01b8152600481018290526001600160a01b03831690632e8f7b1f9060240161073d565b6040516331279d3d60e01b81526001600160a01b038416906331279d3d9061048690859085906004016112af565b6040516304ae7ae360e11b81526001600160a01b03828116600483015283169063095cf5c69060240161073d565b60405163a9059cbb60e01b81526001600160a01b0383811660048301526024820183905284169063a9059cbb906044015b6020604051808303816000875af11580156109ca573d6000803e3d6000fd5b505050506040513d601f19601f820116820180604052508101906109ee919061130b565b50505050565b6040516365fc387360e01b815260048101839052602481018290526001600160a01b038416906365fc387390604401610486565b60405163095ea7b360e01b81526001600160a01b0383811660048301526024820183905284169063095ea7b3906044016109ab565b6040516356c61e6960e11b81526001600160a01b03828116600483015283169063ad8c3cd29060240161073d565b6040516335313c2160e11b81526001600160a01b038281166004830152831690636a627842906024016020604051808303816000875af1158015610ad3573d6000803e3d6000fd5b505050506040513d601f19601f82011682018060405250810190610af79190611328565b505050565b6040516378a051ad60e11b8152600481018390526001600160a01b0382811660248301526000919085169063f140a35a90604401602060405180830381865afa158015610b4d573d6000803e3d6000fd5b505050506040513d601f19601f82011682018060405250810190610b719190611328565b949350505050565b6001600160a01b0381168114610b8e57600080fd5b50565b8035610b9c81610b79565b919050565b600080600060608486031215610bb657600080fd5b8335610bc181610b79565b95602085013595506040909401359392505050565b8015158114610b8e57600080fd5b600080600060608486031215610bf957600080fd5b8335610c0481610b79565b92506020840135610c1481610bd6565b929592945050506040919091013590565b634e487b7160e01b600052604160045260246000fd5b604051601f8201601f1916810167ffffffffffffffff81118282101715610c6457610c64610c25565b604052919050565b60008060008060808587031215610c8257600080fd5b8435610c8d81610b79565b9350602085810135610c9e81610b79565b935060408601359250606086013567ffffffffffffffff80821115610cc257600080fd5b818801915088601f830112610cd657600080fd5b813581811115610ce857610ce8610c25565b610cfa601f8201601f19168501610c3b565b91508082528984828501011115610d1057600080fd5b808484018584013760008482840101525080935050505092959194509250565b60008060008060808587031215610d4657600080fd5b8435610d5181610b79565b93506020850135610d6181610b79565b92506040850135610d7181610b79565b9396929550929360600135925050565b600060208284031215610d9357600080fd5b8135610d9e81610b79565b9392505050565b600080600060608486031215610dba57600080fd5b8335610dc581610b79565b92506020840135610c1481610b79565b6000806000806000806000806000806101408b8d031215610df557600080fd5b8a35610e0081610b79565b995060208b0135610e1081610b79565b985060408b0135610e2081610b79565b975060608b0135610e3081610bd6565b965060808b0135955060a08b0135945060c08b0135935060e08b013592506101008b0135610e5d81610b79565b809250506101208b013590509295989b9194979a5092959850565b60008060408385031215610e8b57600080fd5b8235610e9681610b79565b946020939093013593505050565b600080600080600080600080610100898b031215610ec157600080fd5b8835610ecc81610b79565b97506020890135610edc81610b79565b96506040890135610eec81610bd6565b9550606089013594506080890135935060a0890135925060c0890135610f1181610b79565b8092505060e089013590509295985092959890939650565b600080600080600080600060c0888a031215610f4457600080fd5b8735610f4f81610b79565b96506020880135955060408801359450606088013567ffffffffffffffff80821115610f7a57600080fd5b818a0191508a601f830112610f8e57600080fd5b813581811115610f9d57600080fd5b8b6020606083028501011115610fb257600080fd5b602083019650809550505050610fca60808901610b91565b915060a0880135905092959891949750929550565b600067ffffffffffffffff821115610ff957610ff9610c25565b5060051b60200190565b60008060006060848603121561101857600080fd5b833561102381610b79565b925060208481013561103481610b79565b9250604085013567ffffffffffffffff81111561105057600080fd5b8501601f8101871361106157600080fd5b803561107461106f82610fdf565b610c3b565b81815260059190911b8201830190838101908983111561109357600080fd5b928401925b828410156110ba5783356110ab81610b79565b82529284019290840190611098565b80955050505050509250925092565b600080604083850312156110dc57600080fd5b82356110e781610b79565b915060208301356110f781610b79565b809150509250929050565b60008060006060848603121561111757600080fd5b833561112281610b79565b925060208401359150604084013561113981610b79565b809150509250925092565b60008060006060848603121561115957600080fd5b8351925060208401519150604084015190509250925092565b600060a0820188835260208881850152604060a0818601528288845260c08601905089935060005b898110156111f25784356111ad81610b79565b6001600160a01b03908116835285850135906111c882610b79565b1682850152848301356111da81610bd6565b1515828401526060948501949091019060010161119a565b506001600160a01b0388166060870152935061120d92505050565b826080830152979650505050505050565b6000602080838503121561123157600080fd5b825167ffffffffffffffff81111561124857600080fd5b8301601f8101851361125957600080fd5b805161126761106f82610fdf565b81815260059190911b8201830190838101908783111561128657600080fd5b928401925b828410156112a45783518252928401929084019061128b565b979650505050505050565b6001600160a01b038381168252604060208084018290528451918401829052600092858201929091906060860190855b818110156112fd5785518516835294830194918301916001016112df565b509098975050505050505050565b60006020828403121561131d57600080fd5b8151610d9e81610bd6565b60006020828403121561133a57600080fd5b505191905056fea2646970667358221220b0dc6fe59992c433507a21c42c91b81a04ddc866e3855d9c253e29f037885dec64736f6c634300080d0033","linkReferences":{}},"methodIdentifiers":{"acceptTeam(address)":"1d75c22c","addLiquidity(address,address,address,bool,uint256,uint256,uint256,uint256,address,uint256)":"4d649bd5","addLiquidityETH(address,address,bool,uint256,uint256,uint256,address,uint256)":"6f9a1c00","approve(address,address,uint256)":"e1f21c67","approveEscrow(address,address,uint256)":"2a7f364e","create_lock(address,uint256,uint256)":"cacd8359","deposit(address,uint256,uint256)":"0efe6a8b","getAmountOut(address,uint256,address)":"ff9c8ac6","getGaugeReward(address,address,address[])":"a6cad313","getStakeReward(address)":"4d318018","merge(address,uint256,uint256)":"463dcf0a","mint(address,address)":"ee1fe2ad","onERC721Received(address,address,uint256,bytes)":"150b7a02","setFee(address,bool,uint256)":"14f8decf","setTank(address,address)":"e41c3a4e","setTeam(address,address)":"b5ed2016","setTeamEmissions(address,uint256)":"85ea33f4","setWeeklyEmissionPerGauge(address,uint256)":"62790177","stakeStake(address,uint256)":"58ea1dba","swapExactTokensForTokens(address,uint256,uint256,(address,address,bool)[],address,uint256)":"804dc8af","transfer(address,address,uint256)":"beabacc8","transferFrom(address,address,address,uint256)":"15dacbea","withdrawGauge(address,uint256)":"6b42318a","withdrawStake(address,uint256)":"c6066272"},"id":118}