{"abi":[{"type":"constructor","inputs":[{"name":"_team","type":"address","internalType":"address"},{"name":"_maxLock","type":"uint256","internalType":"uint256"},{"name":"_optionToken","type":"address","internalType":"address"},{"name":"_voter","type":"address","internalType":"address"},{"name":"_lpLockDuration","type":"uint256","internalType":"uint256"}],"stateMutability":"nonpayable"},{"type":"function","name":"balanceOfFlow","inputs":[],"outputs":[{"name":"","type":"uint256","internalType":"uint256"}],"stateMutability":"view"},{"type":"function","name":"balanceOfOToken","inputs":[],"outputs":[{"name":"","type":"uint256","internalType":"uint256"}],"stateMutability":"view"},{"type":"function","name":"boostBribePaused","inputs":[],"outputs":[{"name":"","type":"bool","internalType":"bool"}],"stateMutability":"view"},{"type":"function","name":"boostLpPaused","inputs":[],"outputs":[{"name":"","type":"bool","internalType":"bool"}],"stateMutability":"view"},{"type":"function","name":"boostVePaused","inputs":[],"outputs":[{"name":"","type":"bool","internalType":"bool"}],"stateMutability":"view"},{"type":"function","name":"boostedBuyAndBribe","inputs":[{"name":"_amount","type":"uint256","internalType":"uint256"},{"name":"_minOut","type":"uint256","internalType":"uint256"},{"name":"_pool","type":"address","internalType":"address"}],"outputs":[],"stateMutability":"nonpayable"},{"type":"function","name":"boostedBuyAndLPLock","inputs":[{"name":"_amount","type":"uint256","internalType":"uint256"},{"name":"_minOut","type":"uint256","internalType":"uint256"}],"outputs":[],"stateMutability":"nonpayable"},{"type":"function","name":"boostedBuyAndVeLock","inputs":[{"name":"_amount","type":"uint256","internalType":"uint256"},{"name":"_minOut","type":"uint256","internalType":"uint256"}],"outputs":[],"stateMutability":"nonpayable"},{"type":"function","name":"bribeMatchRate","inputs":[],"outputs":[{"name":"","type":"uint256","internalType":"uint256"}],"stateMutability":"view"},{"type":"function","name":"checkFlowBalanceEnoughForBribe","inputs":[{"name":"_paymentAmount","type":"uint256","internalType":"uint256"}],"outputs":[{"name":"","type":"bool","internalType":"bool"}],"stateMutability":"view"},{"type":"function","name":"checkFlowBalanceEnoughForLP","inputs":[{"name":"_paymentAmount","type":"uint256","internalType":"uint256"}],"outputs":[{"name":"","type":"bool","internalType":"bool"}],"stateMutability":"view"},{"type":"function","name":"checkFlowBalanceEnoughForVE","inputs":[{"name":"_paymentAmount","type":"uint256","internalType":"uint256"}],"outputs":[{"name":"","type":"bool","internalType":"bool"}],"stateMutability":"view"},{"type":"function","name":"flow","inputs":[],"outputs":[{"name":"","type":"address","internalType":"address"}],"stateMutability":"view"},{"type":"function","name":"gauge","inputs":[],"outputs":[{"name":"","type":"address","internalType":"address"}],"stateMutability":"view"},{"type":"function","name":"getAmountsForLPLock","inputs":[{"name":"_amount","type":"uint256","internalType":"uint256"}],"outputs":[{"name":"","type":"uint256","internalType":"uint256"},{"name":"","type":"uint256","internalType":"uint256"},{"name":"","type":"uint256","internalType":"uint256"}],"stateMutability":"view"},{"type":"function","name":"getExpectedAmountForBribe","inputs":[{"name":"_paymentAmount","type":"uint256","internalType":"uint256"}],"outputs":[{"name":"","type":"uint256","internalType":"uint256"}],"stateMutability":"view"},{"type":"function","name":"getExpectedAmountForLP","inputs":[{"name":"_paymentAmount","type":"uint256","internalType":"uint256"}],"outputs":[{"name":"","type":"uint256","internalType":"uint256"},{"name":"","type":"uint256","internalType":"uint256"}],"stateMutability":"view"},{"type":"function","name":"getExpectedAmountForVE","inputs":[{"name":"_paymentAmount","type":"uint256","internalType":"uint256"}],"outputs":[{"name":"","type":"uint256","internalType":"uint256"}],"stateMutability":"view"},{"type":"function","name":"giveAllowances","inputs":[],"outputs":[],"stateMutability":"nonpayable"},{"type":"function","name":"inCaseTokensGetStuck","inputs":[{"name":"_token","type":"address","internalType":"address"},{"name":"_to","type":"address","internalType":"address"}],"outputs":[],"stateMutability":"nonpayable"},{"type":"function","name":"lpLockDuration","inputs":[],"outputs":[{"name":"","type":"uint256","internalType":"uint256"}],"stateMutability":"view"},{"type":"function","name":"lpMatchRate","inputs":[],"outputs":[{"name":"","type":"uint256","internalType":"uint256"}],"stateMutability":"view"},{"type":"function","name":"maxBribeAmount","inputs":[],"outputs":[{"name":"","type":"uint256","internalType":"uint256"}],"stateMutability":"view"},{"type":"function","name":"maxLock","inputs":[],"outputs":[{"name":"","type":"uint256","internalType":"uint256"}],"stateMutability":"view"},{"type":"function","name":"maxLpLockableAmount","inputs":[],"outputs":[{"name":"","type":"uint256","internalType":"uint256"}],"stateMutability":"view"},{"type":"function","name":"maxVeLockableAmount","inputs":[],"outputs":[{"name":"","type":"uint256","internalType":"uint256"}],"stateMutability":"view"},{"type":"function","name":"notifyRewardAmount","inputs":[{"name":"_amount","type":"uint256","internalType":"uint256"}],"outputs":[],"stateMutability":"nonpayable"},{"type":"function","name":"optionToken","inputs":[],"outputs":[{"name":"","type":"address","internalType":"address"}],"stateMutability":"view"},{"type":"function","name":"owner","inputs":[],"outputs":[{"name":"","type":"address","internalType":"address"}],"stateMutability":"view"},{"type":"function","name":"pair","inputs":[],"outputs":[{"name":"","type":"address","internalType":"address"}],"stateMutability":"view"},{"type":"function","name":"pauseBribeBoost","inputs":[{"name":"_tf","type":"bool","internalType":"bool"}],"outputs":[],"stateMutability":"nonpayable"},{"type":"function","name":"pauseLPBoost","inputs":[{"name":"_tf","type":"bool","internalType":"bool"}],"outputs":[],"stateMutability":"nonpayable"},{"type":"function","name":"pauseVeBoost","inputs":[{"name":"_tf","type":"bool","internalType":"bool"}],"outputs":[],"stateMutability":"nonpayable"},{"type":"function","name":"paymentToken","inputs":[],"outputs":[{"name":"","type":"address","internalType":"address"}],"stateMutability":"view"},{"type":"function","name":"removeAllowances","inputs":[],"outputs":[],"stateMutability":"nonpayable"},{"type":"function","name":"renounceOwnership","inputs":[],"outputs":[],"stateMutability":"nonpayable"},{"type":"function","name":"router","inputs":[],"outputs":[{"name":"","type":"address","internalType":"address"}],"stateMutability":"view"},{"type":"function","name":"setBribeMatchRate","inputs":[{"name":"_rate","type":"uint256","internalType":"uint256"}],"outputs":[],"stateMutability":"nonpayable"},{"type":"function","name":"setGauge","inputs":[{"name":"_gauge","type":"address","internalType":"address"}],"outputs":[],"stateMutability":"nonpayable"},{"type":"function","name":"setLPLockDuration","inputs":[{"name":"_lpLockDuration","type":"uint256","internalType":"uint256"}],"outputs":[],"stateMutability":"nonpayable"},{"type":"function","name":"setLpMatchRate","inputs":[{"name":"_rate","type":"uint256","internalType":"uint256"}],"outputs":[],"stateMutability":"nonpayable"},{"type":"function","name":"setOptionToken","inputs":[{"name":"_optionToken","type":"address","internalType":"address"}],"outputs":[],"stateMutability":"nonpayable"},{"type":"function","name":"setPair","inputs":[{"name":"_pair","type":"address","internalType":"address"}],"outputs":[],"stateMutability":"nonpayable"},{"type":"function","name":"setPaymentToken","inputs":[{"name":"_paymentToken","type":"address","internalType":"address"}],"outputs":[],"stateMutability":"nonpayable"},{"type":"function","name":"setRouter","inputs":[{"name":"_router","type":"address","internalType":"address"}],"outputs":[],"stateMutability":"nonpayable"},{"type":"function","name":"setVeMatchRate","inputs":[{"name":"_rate","type":"uint256","internalType":"uint256"}],"outputs":[],"stateMutability":"nonpayable"},{"type":"function","name":"transferOwnership","inputs":[{"name":"newOwner","type":"address","internalType":"address"}],"outputs":[],"stateMutability":"nonpayable"},{"type":"function","name":"veMatchRate","inputs":[],"outputs":[{"name":"","type":"uint256","internalType":"uint256"}],"stateMutability":"view"},{"type":"function","name":"voter","inputs":[],"outputs":[{"name":"","type":"address","internalType":"address"}],"stateMutability":"view"},{"type":"function","name":"voting_escrow","inputs":[],"outputs":[{"name":"","type":"address","internalType":"address"}],"stateMutability":"view"},{"type":"event","name":"Boosted","inputs":[{"name":"_timestamp","type":"uint256","indexed":true,"internalType":"uint256"},{"name":"_totalLocked","type":"uint256","indexed":false,"internalType":"uint256"},{"name":"_locker","type":"address","indexed":false,"internalType":"address"}],"anonymous":false},{"type":"event","name":"MatchRateChanged","inputs":[{"name":"_timestamp","type":"uint256","indexed":true,"internalType":"uint256"},{"name":"_type","type":"string","indexed":false,"internalType":"string"},{"name":"_newRate","type":"uint256","indexed":false,"internalType":"uint256"}],"anonymous":false},{"type":"event","name":"OwnershipTransferred","inputs":[{"name":"previousOwner","type":"address","indexed":true,"internalType":"address"},{"name":"newOwner","type":"address","indexed":true,"internalType":"address"}],"anonymous":false},{"type":"event","name":"Pausings","inputs":[{"name":"_timestamp","type":"uint256","indexed":true,"internalType":"uint256"},{"name":"_type","type":"string","indexed":false,"internalType":"string"},{"name":"_paused","type":"bool","indexed":false,"internalType":"bool"}],"anonymous":false},{"type":"event","name":"RewardsAdded","inputs":[{"name":"_timestamp","type":"uint256","indexed":true,"internalType":"uint256"},{"name":"_amount","type":"uint256","indexed":false,"internalType":"uint256"}],"anonymous":false}],"bytecode":{"object":"0x60806040526014600955603c600a556032600b553480156200002057600080fd5b506040516200317838038062003178833981016040819052620000439162000717565b6200004e33620003c3565b6200005985620003c3565b600880546001600160a01b0319166001600160a01b03841690811790915560408051638dd598fb60e01b81529051638dd598fb916004808201926020929091908290030181865afa158015620000b3573d6000803e3d6000fd5b505050506040513d601f19601f82011682018060405250810190620000d9919062000775565b600780546001600160a01b0319166001600160a01b039290921691821790556040805163c55dae6360e01b8152905163c55dae63916004808201926020929091908290030181865afa15801562000134573d6000803e3d6000fd5b505050506040513d601f19601f820116820180604052508101906200015a919062000775565b600680546001600160a01b039283166001600160a01b03199182161790915560028054928616929091168217905560408051633013ce2960e01b81529051633013ce299160048181019260209290919082900301816000875af1158015620001c6573d6000803e3d6000fd5b505050506040513d601f19601f82011682018060405250810190620001ec919062000775565b600160006101000a8154816001600160a01b0302191690836001600160a01b03160217905550826001600160a01b031663f887ea406040518163ffffffff1660e01b81526004016020604051808303816000875af115801562000253573d6000803e3d6000fd5b505050506040513d601f19601f8201168201806040525081019062000279919062000775565b600360006101000a8154816001600160a01b0302191690836001600160a01b03160217905550826001600160a01b031663a6f19c846040518163ffffffff1660e01b81526004016020604051808303816000875af1158015620002e0573d6000803e3d6000fd5b505050506040513d601f19601f8201168201806040525081019062000306919062000775565b600480546001600160a01b0319166001600160a01b0392909216918217815560408051633a4b66f160e01b81529051633a4b66f1928281019260209291908290030181865afa1580156200035e573d6000803e3d6000fd5b505050506040513d601f19601f8201168201806040525081019062000384919062000775565b600580546001600160a01b0319166001600160a01b0392909216919091179055600d849055600c819055620003b862000413565b5050505050620007be565b600080546001600160a01b038381166001600160a01b0319831681178455604051919092169283917f8be0079c531659141344cd1fd0a4f28419497f9722a3daafe3b4186f6b6457e09190a35050565b6200041d62000699565b60065460075460405163095ea7b360e01b81526001600160a01b039182166004820152600019602482015291169063095ea7b3906044016020604051808303816000875af115801562000474573d6000803e3d6000fd5b505050506040513d601f19601f820116820180604052508101906200049a91906200079a565b5060065460035460405163095ea7b360e01b81526001600160a01b039182166004820152600019602482015291169063095ea7b3906044016020604051808303816000875af1158015620004f2573d6000803e3d6000fd5b505050506040513d601f19601f820116820180604052508101906200051891906200079a565b5060015460035460405163095ea7b360e01b81526001600160a01b039182166004820152600019602482015291169063095ea7b3906044016020604051808303816000875af115801562000570573d6000803e3d6000fd5b505050506040513d601f19601f820116820180604052508101906200059691906200079a565b5060065460025460405163095ea7b360e01b81526001600160a01b039182166004820152600019602482015291169063095ea7b3906044016020604051808303816000875af1158015620005ee573d6000803e3d6000fd5b505050506040513d601f19601f820116820180604052508101906200061491906200079a565b506005546004805460405163095ea7b360e01b81526001600160a01b039182169281019290925260001960248301529091169063095ea7b3906044016020604051808303816000875af115801562000670573d6000803e3d6000fd5b505050506040513d601f19601f820116820180604052508101906200069691906200079a565b50565b6000546001600160a01b03163314620006f85760405162461bcd60e51b815260206004820181905260248201527f4f776e61626c653a2063616c6c6572206973206e6f7420746865206f776e6572604482015260640160405180910390fd5b565b80516001600160a01b03811681146200071257600080fd5b919050565b600080600080600060a086880312156200073057600080fd5b6200073b86620006fa565b9450602086015193506200075260408701620006fa565b92506200076260608701620006fa565b9150608086015190509295509295909350565b6000602082840312156200078857600080fd5b6200079382620006fa565b9392505050565b600060208284031215620007ad57600080fd5b815180151581146200079357600080fd5b6129aa80620007ce6000396000f3fe608060405234801561001057600080fd5b50600436106102d65760003560e01c80636c0b3e4611610182578063a6f19c84116100e9578063da733f0d116100a2578063e5449cca1161007c578063e5449cca14610620578063f2b297cd14610632578063f2fde38b14610645578063f887ea401461065857600080fd5b8063da733f0d146105fb578063de35eb2414610604578063dfe050311461060d57600080fd5b8063a6f19c8414610594578063a8aa1b31146105a7578063a8c82ad1146105ba578063c08028c9146105c2578063c0d78655146105d5578063d5de2475146105e857600080fd5b80638b31e7231161013b5780638b31e7231461052e5780638da5cb5b146105415780638e0fe4111461055257806396dd509c146105655780639a9fcb09146105785780639c6dfd9b1461058157600080fd5b80636c0b3e46146104c75780636f7ebb75146104d0578063715018a6146104e35780637b2c1840146104eb5780637ba4dd4c146105135780638187f5161461051b57600080fd5b80633c6b16ab1161024157806349fa3b80116101fa5780635b120759116101d45780635b12075914610486578063629532c3146104995780636a326ab1146104a15780636bad49fe146104b457600080fd5b806349fa3b80146104585780634f06e0f71461046057806355a68ed31461047357600080fd5b80633c6b16ab146104015780634048cd781461041457806343e442c6146104275780634553a8241461043057806346a935c91461043d57806346c96aac1461044557600080fd5b8063227438d911610293578063227438d9146103675780632906eda21461036f5780632bab754b1461039d5780633013ce29146103c8578063343aad82146103db578063392090b8146103ee57600080fd5b8063156e34b0146102db578063180cfa1d146103035780631939bbc114610316578063216d1c581461032b57806321a10f92146103415780632269c5f214610354575b600080fd5b600e546102ee9062010000900460ff1681565b60405190151581526020015b60405180910390f35b6102ee610311366004612432565b61066b565b610329610324366004612460565b610725565b005b610333610812565b6040519081526020016102fa565b6102ee61034f366004612432565b610885565b610329610362366004612499565b610935565b610333610ec3565b61038261037d366004612432565b610ef3565b604080519384526020840192909252908201526060016102fa565b6002546103b0906001600160a01b031681565b6040516001600160a01b0390911681526020016102fa565b6001546103b0906001600160a01b031681565b6006546103b0906001600160a01b031681565b6103336103fc366004612432565b610ff9565b61032961040f366004612432565b61108e565b6103296104223660046124d2565b611193565b61033360095481565b600e546102ee9060ff1681565b61032961167f565b6008546103b0906001600160a01b031681565b6103296118f5565b61032961046e3660046124f4565b611aa5565b6103296104813660046124f4565b611ae2565b6102ee610494366004612432565b611b1f565b610333611bb4565b6103296104af3660046124f4565b611be5565b6103296104c236600461251f565b611c22565b610333600d5481565b6103336104de366004612432565b611c71565b610329611d06565b6104fe6104f9366004612432565b611d1a565b604080519283526020830191909152016102fa565b610333611dbf565b6103296105293660046124f4565b611dde565b61032961053c366004612432565b611e1b565b6000546001600160a01b03166103b0565b610329610560366004612432565b611e28565b610329610573366004612432565b611e88565b610333600b5481565b61032961058f36600461251f565b611f09565b6004546103b0906001600160a01b031681565b6005546103b0906001600160a01b031681565b610333611f7c565b6103296105d0366004612432565b611f9b565b6103296105e33660046124f4565b611ffb565b6103296105f636600461251f565b612038565b610333600a5481565b610333600c5481565b6007546103b0906001600160a01b031681565b600e546102ee90610100900460ff1681565b6103296106403660046124d2565b612080565b6103296106533660046124f4565b612312565b6003546103b0906001600160a01b031681565b60008060008061067a85610ef3565b60035460015460065460405163da21423160e01b81529598509396509194506000936001600160a01b039182169363da214231936106c4938a93918116921690879060040161253c565b602060405180830381865afa1580156106e1573d6000803e3d6000fd5b505050506040513d601f19601f820116820180604052508101906107059190612563565b90506107118183612592565b610719610812565b10159695505050505050565b61072d612388565b6040516370a0823160e01b81523060048201526000906001600160a01b038416906370a0823190602401602060405180830381865afa158015610774573d6000803e3d6000fd5b505050506040513d601f19601f820116820180604052508101906107989190612563565b60405163a9059cbb60e01b81529091506001600160a01b0384169063a9059cbb906107c990859085906004016125a9565b6020604051808303816000875af11580156107e8573d6000803e3d6000fd5b505050506040513d601f19601f8201168201806040525081019061080c91906125c2565b50505050565b6006546040516370a0823160e01b81523060048201526000916001600160a01b0316906370a08231906024015b602060405180830381865afa15801561085c573d6000803e3d6000fd5b505050506040513d601f19601f820116820180604052508101906108809190612563565b905090565b60035460015460065460405163da21423160e01b815260009384936001600160a01b039182169363da214231936108c79389938116921690879060040161253c565b602060405180830381865afa1580156108e4573d6000803e3d6000fd5b505050506040513d601f19601f820116820180604052508101906109089190612563565b90506064600a548261091a91906125df565b61092491906125fe565b61092c610812565b10159392505050565b600e5462010000900460ff16156109675760405162461bcd60e51b815260040161095e90612620565b60405180910390fd5b600083116109875760405162461bcd60e51b815260040161095e90612648565b6000610991610812565b116109ae5760405162461bcd60e51b815260040161095e9061268c565b6001546040516323b872dd60e01b81526001600160a01b03909116906323b872dd906109e2903390309088906004016126c3565b6020604051808303816000875af1158015610a01573d6000803e3d6000fd5b505050506040513d601f19601f82011682018060405250810190610a2591906125c2565b5081600003610a3357600191505b6000610a3d610812565b6003546001546006546040516313dcfc5960e01b81529394506001600160a01b03928316936313dcfc5993610a85938a938a93918316921690600090309042906004016126e7565b6000604051808303816000875af1158015610aa4573d6000803e3d6000fd5b505050506040513d6000823e601f3d908101601f19168201604052610acc9190810190612738565b506000610ad7610812565b90506000610ae58383612592565b90506000610af1611bb4565b6002546040516340c10f1960e01b81529192506001600160a01b0316906340c10f1990610b2490309086906004016125a9565b600060405180830381600087803b158015610b3e57600080fd5b505af1158015610b52573d6000803e3d6000fd5b505050506000610b60611bb4565b90506000610b6e8383612592565b60085460405163b9a09fd560e01b81526001600160a01b038a811660048301529293506000929091169063b9a09fd590602401602060405180830381865afa158015610bbe573d6000803e3d6000fd5b505050506040513d601f19601f82011682018060405250810190610be291906127f6565b600854604051631703e5f960e01b81526001600160a01b038084166004830152929350911690631703e5f990602401602060405180830381865afa158015610c2e573d6000803e3d6000fd5b505050506040513d601f19601f82011682018060405250810190610c5291906125c2565b610c905760405162461bcd60e51b815260206004820152600f60248201526e6761756765206e6f7420616c69766560881b604482015260640161095e565b60085460405163ae21c4cb60e01b81526001600160a01b038381166004830152600092169063ae21c4cb90602401602060405180830381865afa158015610cdb573d6000803e3d6000fd5b505050506040513d601f19601f82011682018060405250810190610cff91906127f6565b60025460405163095ea7b360e01b81529192506001600160a01b03169063095ea7b390610d3290849087906004016125a9565b6020604051808303816000875af1158015610d51573d6000803e3d6000fd5b505050506040513d601f19601f82011682018060405250810190610d7591906125c2565b5060025460405163b66503cf60e01b81526001600160a01b038381169263b66503cf92610daa929091169087906004016125a9565b600060405180830381600087803b158015610dc457600080fd5b505af1158015610dd8573d6000803e3d6000fd5b5050505060006064600b5488610dee91906125df565b610df891906125fe565b600754600d5460405163d4e54c3b60e01b81526004810184905260248101919091523360448201529192506001600160a01b03169063d4e54c3b906064016020604051808303816000875af1158015610e55573d6000803e3d6000fd5b505050506040513d601f19601f82011682018060405250810190610e799190612563565b506040805182815233602082015242917fe1b931d2b8ee0a004219fe936a06ecb92204cde9fce14f9a62f6c698cf17253591015b60405180910390a2505050505050505050505050565b600080610ece610812565b90506000600b54826064610ee291906125df565b610eec91906125fe565b9392505050565b6000806000806064600954600287610f0b91906125fe565b610f1591906125df565b610f1f91906125fe565b610f2a6002876125fe565b610f349190612592565b90506000610f428287612592565b600354600654600154604051635e60dab560e01b81526001600160a01b039283166004820152908216602482015260006044820181905293945083929190911690635e60dab5906064016040805180830381865afa158015610fa8573d6000803e3d6000fd5b505050506040513d601f19601f82011682018060405250810190610fcc9190612813565b9092509050600081610fde84866125df565b610fe891906125fe565b949993985093965091945050505050565b60035460015460065460405163da21423160e01b815260009384936001600160a01b039182169363da2142319361103b9389938116921690879060040161253c565b602060405180830381865afa158015611058573d6000803e3d6000fd5b505050506040513d601f19601f8201168201806040525081019061107c9190612563565b90506064600b5482610ee291906125df565b600081116110de5760405162461bcd60e51b815260206004820152601b60248201527f6e65656420746f20616464206174206c65617374203120464c4f570000000000604482015260640161095e565b6006546040516323b872dd60e01b81526001600160a01b03909116906323b872dd90611112903390309086906004016126c3565b6020604051808303816000875af1158015611131573d6000803e3d6000fd5b505050506040513d601f19601f8201168201806040525081019061115591906125c2565b50427f40df43107e8b4d467127964bd3c966687c0a6a39aaede970755397fd09535e988260405161118891815260200190565b60405180910390a250565b600e5460ff16156111b65760405162461bcd60e51b815260040161095e90612620565b600082116111d65760405162461bcd60e51b815260040161095e90612648565b60006111e0610812565b116111fd5760405162461bcd60e51b815260040161095e9061268c565b6001546040516370a0823160e01b81523060048201526000916001600160a01b0316906370a0823190602401602060405180830381865afa158015611246573d6000803e3d6000fd5b505050506040513d601f19601f8201168201806040525081019061126a9190612563565b6001546040516323b872dd60e01b81529192506001600160a01b0316906323b872dd9061129f903390309088906004016126c3565b6020604051808303816000875af11580156112be573d6000803e3d6000fd5b505050506040513d601f19601f820116820180604052508101906112e291906125c2565b50816000036112f057600191505b60008060006112fe86610ef3565b925092509250600061130e610812565b6003546001546006546040516313dcfc5960e01b81529394506001600160a01b03928316936313dcfc5993611356938a938d93918316921690600090309042906004016126e7565b6000604051808303816000875af1158015611375573d6000803e3d6000fd5b505050506040513d6000823e601f3d908101601f1916820160405261139d9190810190612738565b5060006113a8610812565b905060006113b68383612592565b60035460065460018054604051635a47ddc360e01b81526001600160a01b03938416600482015290831660248201526000604482015260648101899052608481018a905260a4810182905260c48101919091523060e4820152426101048201529293501690635a47ddc390610124016060604051808303816000875af1158015611444573d6000803e3d6000fd5b505050506040513d601f19601f820116820180604052508101906114689190612837565b50506005546040516370a0823160e01b8152306004820152600092506001600160a01b03909116906370a0823190602401602060405180830381865afa1580156114b6573d6000803e3d6000fd5b505050506040513d601f19601f820116820180604052508101906114da9190612563565b60048054600c54604051631f933c2d60e01b815233938101939093526024830184905260448301529192506001600160a01b0390911690631f933c2d90606401600060405180830381600087803b15801561153457600080fd5b505af1158015611548573d6000803e3d6000fd5b50506001546040516370a0823160e01b8152306004820152600093506001600160a01b0390911691506370a0823190602401602060405180830381865afa158015611597573d6000803e3d6000fd5b505050506040513d601f19601f820116820180604052508101906115bb9190612563565b905060006115c98a83612592565b905080156116485760015460405163a9059cbb60e01b81526001600160a01b039091169063a9059cbb9061160390339085906004016125a9565b6020604051808303816000875af1158015611622573d6000803e3d6000fd5b505050506040513d601f19601f8201168201806040525081019061164691906125c2565b505b6040805184815233602082015242917fe1b931d2b8ee0a004219fe936a06ecb92204cde9fce14f9a62f6c698cf1725359101610ead565b611687612388565b60065460075460405163095ea7b360e01b81526001600160a01b039283169263095ea7b3926116bf92911690600019906004016125a9565b6020604051808303816000875af11580156116de573d6000803e3d6000fd5b505050506040513d601f19601f8201168201806040525081019061170291906125c2565b5060065460035460405163095ea7b360e01b81526001600160a01b039283169263095ea7b39261173b92911690600019906004016125a9565b6020604051808303816000875af115801561175a573d6000803e3d6000fd5b505050506040513d601f19601f8201168201806040525081019061177e91906125c2565b5060015460035460405163095ea7b360e01b81526001600160a01b039283169263095ea7b3926117b792911690600019906004016125a9565b6020604051808303816000875af11580156117d6573d6000803e3d6000fd5b505050506040513d601f19601f820116820180604052508101906117fa91906125c2565b5060065460025460405163095ea7b360e01b81526001600160a01b039283169263095ea7b39261183392911690600019906004016125a9565b6020604051808303816000875af1158015611852573d6000803e3d6000fd5b505050506040513d601f19601f8201168201806040525081019061187691906125c2565b506005546004805460405163095ea7b360e01b81526001600160a01b039384169363095ea7b3936118af939091169160001991016125a9565b6020604051808303816000875af11580156118ce573d6000803e3d6000fd5b505050506040513d601f19601f820116820180604052508101906118f291906125c2565b50565b6118fd612388565b60065460075460405163095ea7b360e01b81526001600160a01b039283169263095ea7b392611934929116906000906004016125a9565b6020604051808303816000875af1158015611953573d6000803e3d6000fd5b505050506040513d601f19601f8201168201806040525081019061197791906125c2565b5060065460035460405163095ea7b360e01b81526001600160a01b039283169263095ea7b3926119af929116906000906004016125a9565b6020604051808303816000875af11580156119ce573d6000803e3d6000fd5b505050506040513d601f19601f820116820180604052508101906119f291906125c2565b5060015460035460405163095ea7b360e01b81526001600160a01b039283169263095ea7b392611a2a929116906000906004016125a9565b6020604051808303816000875af1158015611a49573d6000803e3d6000fd5b505050506040513d601f19601f82011682018060405250810190611a6d91906125c2565b5060065460025460405163095ea7b360e01b81526001600160a01b039283169263095ea7b392611833929116906000906004016125a9565b611aad612388565b6001600160a01b038116611ac057600080fd5b600280546001600160a01b0319166001600160a01b0392909216919091179055565b611aea612388565b6001600160a01b038116611afd57600080fd5b600480546001600160a01b0319166001600160a01b0392909216919091179055565b60035460015460065460405163da21423160e01b815260009384936001600160a01b039182169363da21423193611b619389938116921690879060040161253c565b602060405180830381865afa158015611b7e573d6000803e3d6000fd5b505050506040513d601f19601f82011682018060405250810190611ba29190612563565b90506064600b548261091a91906125df565b6002546040516370a0823160e01b81523060048201526000916001600160a01b0316906370a082319060240161083f565b611bed612388565b6001600160a01b038116611c0057600080fd5b600180546001600160a01b0319166001600160a01b0392909216919091179055565b611c2a612388565b600e805462ff00001916620100008315150217905560405142907ffcfe851f5b056824cad73f940e9f37e7e8650bfd2baab54376300fa0b709b06f90611188908490612865565b60035460015460065460405163da21423160e01b815260009384936001600160a01b039182169363da21423193611cb39389938116921690879060040161253c565b602060405180830381865afa158015611cd0573d6000803e3d6000fd5b505050506040513d601f19601f82011682018060405250810190611cf49190612563565b90506064600a5482610ee291906125df565b611d0e612388565b611d1860006123e2565b565b60035460015460065460405163da21423160e01b8152600093849384936001600160a01b039283169363da21423193611d60938a9390821692911690879060040161253c565b602060405180830381865afa158015611d7d573d6000803e3d6000fd5b505050506040513d601f19601f82011682018060405250810190611da19190612563565b90506000806000611db187610ef3565b999098509650505050505050565b600080611dca610812565b90506000600954826064610ee291906125df565b611de6612388565b6001600160a01b038116611df957600080fd5b600580546001600160a01b0319166001600160a01b0392909216919091179055565b611e23612388565b600c55565b611e30612388565b6064811115611e515760405162461bcd60e51b815260040161095e9061289f565b80600b81905550427fa43e18f7c8dcd412099d57b2348fd68ed844b29deb62a030f8493b36b8687d7c8260405161118891906128d6565b611e90612388565b6064811115611eb15760405162461bcd60e51b815260040161095e9061289f565b600a81905560408051818152600791810191909152661d99509bdbdcdd60ca1b60608201526020810182905242907fa43e18f7c8dcd412099d57b2348fd68ed844b29deb62a030f8493b36b8687d7c90608001611188565b611f11612388565b600e80548215156101000261ff001990911617905560405142907ffcfe851f5b056824cad73f940e9f37e7e8650bfd2baab54376300fa0b709b06f906111889084906040808252600790820152661599509bdbdcdd60ca1b6060820152901515602082015260800190565b600080611f87610812565b90506000600a54826064610ee291906125df565b611fa3612388565b6064811115611fc45760405162461bcd60e51b815260040161095e9061289f565b80600981905550427fa43e18f7c8dcd412099d57b2348fd68ed844b29deb62a030f8493b36b8687d7c82604051611188919061290e565b612003612388565b6001600160a01b03811661201657600080fd5b600380546001600160a01b0319166001600160a01b0392909216919091179055565b612040612388565b600e805460ff191682151517905560405142907ffcfe851f5b056824cad73f940e9f37e7e8650bfd2baab54376300fa0b709b06f90611188908490612935565b600e54610100900460ff16156120a85760405162461bcd60e51b815260040161095e90612620565b600082116120c85760405162461bcd60e51b815260040161095e90612648565b60006120d2610812565b116120ef5760405162461bcd60e51b815260040161095e9061268c565b6001546040516323b872dd60e01b81526001600160a01b03909116906323b872dd90612123903390309087906004016126c3565b6020604051808303816000875af1158015612142573d6000803e3d6000fd5b505050506040513d601f19601f8201168201806040525081019061216691906125c2565b5080600003612173575060015b600061217d610812565b6003546001546006546040516313dcfc5960e01b81529394506001600160a01b03928316936313dcfc59936121c59389938993918316921690600090309042906004016126e7565b6000604051808303816000875af11580156121e4573d6000803e3d6000fd5b505050506040513d6000823e601f3d908101601f1916820160405261220c9190810190612738565b506000612217610812565b905060006122258383612592565b90506000816064600a548461223a91906125df565b61224491906125fe565b61224e919061295c565b600754600d5460405163d4e54c3b60e01b81526004810184905260248101919091523360448201529192506001600160a01b03169063d4e54c3b906064016020604051808303816000875af11580156122ab573d6000803e3d6000fd5b505050506040513d601f19601f820116820180604052508101906122cf9190612563565b506040805182815233602082015242917fe1b931d2b8ee0a004219fe936a06ecb92204cde9fce14f9a62f6c698cf172535910160405180910390a2505050505050565b61231a612388565b6001600160a01b03811661237f5760405162461bcd60e51b815260206004820152602660248201527f4f776e61626c653a206e6577206f776e657220697320746865207a65726f206160448201526564647265737360d01b606482015260840161095e565b6118f2816123e2565b6000546001600160a01b03163314611d185760405162461bcd60e51b815260206004820181905260248201527f4f776e61626c653a2063616c6c6572206973206e6f7420746865206f776e6572604482015260640161095e565b600080546001600160a01b038381166001600160a01b0319831681178455604051919092169283917f8be0079c531659141344cd1fd0a4f28419497f9722a3daafe3b4186f6b6457e09190a35050565b60006020828403121561244457600080fd5b5035919050565b6001600160a01b03811681146118f257600080fd5b6000806040838503121561247357600080fd5b823561247e8161244b565b9150602083013561248e8161244b565b809150509250929050565b6000806000606084860312156124ae57600080fd5b833592506020840135915060408401356124c78161244b565b809150509250925092565b600080604083850312156124e557600080fd5b50508035926020909101359150565b60006020828403121561250657600080fd5b8135610eec8161244b565b80151581146118f257600080fd5b60006020828403121561253157600080fd5b8135610eec81612511565b9384526001600160a01b039283166020850152911660408301521515606082015260800190565b60006020828403121561257557600080fd5b5051919050565b634e487b7160e01b600052601160045260246000fd5b6000828210156125a4576125a461257c565b500390565b6001600160a01b03929092168252602082015260400190565b6000602082840312156125d457600080fd5b8151610eec81612511565b60008160001904831182151516156125f9576125f961257c565b500290565b60008261261b57634e487b7160e01b600052601260045260246000fd5b500490565b6020808252600e908201526d1d1a1a5cc81a5cc81c185d5cd95960921b604082015260600190565b60208082526024908201527f6e65656420746f206c6f636b206174206c656173742031207061796d656e745460408201526337b5b2b760e11b606082015260800190565b6020808252601a908201527f6e6f20657874726120464c4f5720666f7220626f6f7374696e67000000000000604082015260600190565b6001600160a01b039384168152919092166020820152604081019190915260600190565b96875260208701959095526001600160a01b0393841660408701529183166060860152151560808501521660a083015260c082015260e00190565b634e487b7160e01b600052604160045260246000fd5b6000602080838503121561274b57600080fd5b825167ffffffffffffffff8082111561276357600080fd5b818501915085601f83011261277757600080fd5b81518181111561278957612789612722565b8060051b604051601f19603f830116810181811085821117156127ae576127ae612722565b6040529182528482019250838101850191888311156127cc57600080fd5b938501935b828510156127ea578451845293850193928501926127d1565b98975050505050505050565b60006020828403121561280857600080fd5b8151610eec8161244b565b6000806040838503121561282657600080fd5b505080516020909101519092909150565b60008060006060848603121561284c57600080fd5b8351925060208401519150604084015190509250925092565b60408152600061288f60408301600a815269109c9a5899509bdbdcdd60b21b602082015260400190565b9050821515602083015292915050565b60208082526017908201527f63616e742067697665206d6f7265207468616e20312d31000000000000000000604082015260600190565b60408152600061290060408301600a815269109c9a5899509bdbdcdd60b21b602082015260400190565b905082602083015292915050565b6040815260006129006040830160078152661314109bdbdcdd60ca1b602082015260400190565b60408152600061288f6040830160078152661314109bdbdcdd60ca1b602082015260400190565b6000821982111561296f5761296f61257c565b50019056fea2646970667358221220b9198307b9698630a38ee35e69ceb443d30038299db189f936acdfedf6f0c9d564736f6c634300080d0033","linkReferences":{}},"methodIdentifiers":{"balanceOfFlow()":"216d1c58","balanceOfOToken()":"629532c3","boostBribePaused()":"156e34b0","boostLpPaused()":"4553a824","boostVePaused()":"e5449cca","boostedBuyAndBribe(uint256,uint256,address)":"2269c5f2","boostedBuyAndLPLock(uint256,uint256)":"4048cd78","boostedBuyAndVeLock(uint256,uint256)":"f2b297cd","bribeMatchRate()":"9a9fcb09","checkFlowBalanceEnoughForBribe(uint256)":"5b120759","checkFlowBalanceEnoughForLP(uint256)":"180cfa1d","checkFlowBalanceEnoughForVE(uint256)":"21a10f92","flow()":"343aad82","gauge()":"a6f19c84","getAmountsForLPLock(uint256)":"2906eda2","getExpectedAmountForBribe(uint256)":"392090b8","getExpectedAmountForLP(uint256)":"7b2c1840","getExpectedAmountForVE(uint256)":"6f7ebb75","giveAllowances()":"46a935c9","inCaseTokensGetStuck(address,address)":"1939bbc1","lpLockDuration()":"de35eb24","lpMatchRate()":"43e442c6","maxBribeAmount()":"227438d9","maxLock()":"6c0b3e46","maxLpLockableAmount()":"7ba4dd4c","maxVeLockableAmount()":"a8c82ad1","notifyRewardAmount(uint256)":"3c6b16ab","optionToken()":"2bab754b","owner()":"8da5cb5b","pair()":"a8aa1b31","pauseBribeBoost(bool)":"6bad49fe","pauseLPBoost(bool)":"d5de2475","pauseVeBoost(bool)":"9c6dfd9b","paymentToken()":"3013ce29","removeAllowances()":"49fa3b80","renounceOwnership()":"715018a6","router()":"f887ea40","setBribeMatchRate(uint256)":"8e0fe411","setGauge(address)":"55a68ed3","setLPLockDuration(uint256)":"8b31e723","setLpMatchRate(uint256)":"c08028c9","setOptionToken(address)":"4f06e0f7","setPair(address)":"8187f516","setPaymentToken(address)":"6a326ab1","setRouter(address)":"c0d78655","setVeMatchRate(uint256)":"96dd509c","transferOwnership(address)":"f2fde38b","veMatchRate()":"da733f0d","voter()":"46c96aac","voting_escrow()":"dfe05031"},"id":52}