{"abi":[{"type":"constructor","inputs":[{"name":"_flow","type":"address","internalType":"address"},{"name":"_notifyAddress","type":"address","internalType":"address"},{"name":"_symbol","type":"string","internalType":"string"}],"stateMutability":"nonpayable"},{"type":"function","name":"externalBribe","inputs":[],"outputs":[{"name":"","type":"address","internalType":"address"}],"stateMutability":"nonpayable"},{"type":"function","name":"flow","inputs":[],"outputs":[{"name":"","type":"address","internalType":"address"}],"stateMutability":"view"},{"type":"function","name":"getReward","inputs":[{"name":"account","type":"address","internalType":"address"},{"name":"tokens","type":"address[]","internalType":"address[]"}],"outputs":[],"stateMutability":"nonpayable"},{"type":"function","name":"left","inputs":[{"name":"token","type":"address","internalType":"address"}],"outputs":[{"name":"","type":"uint256","internalType":"uint256"}],"stateMutability":"view"},{"type":"function","name":"notifyAddress","inputs":[],"outputs":[{"name":"","type":"address","internalType":"address"}],"stateMutability":"view"},{"type":"function","name":"notifyRewardAmount","inputs":[{"name":"token","type":"address","internalType":"address"},{"name":"amount","type":"uint256","internalType":"uint256"}],"outputs":[],"stateMutability":"nonpayable"},{"type":"function","name":"stake","inputs":[],"outputs":[{"name":"","type":"address","internalType":"address"}],"stateMutability":"view"},{"type":"function","name":"symbol","inputs":[],"outputs":[{"name":"","type":"string","internalType":"string"}],"stateMutability":"view"}],"bytecode":{"object":"0x60c0604052600180553480156200001557600080fd5b5060405162000b5e38038062000b5e833981016040819052620000389162000143565b6001600160a01b03808416608052821660a0528051620000609060009060208401906200006a565b5050505062000283565b828054620000789062000247565b90600052602060002090601f0160209004810192826200009c5760008555620000e7565b82601f10620000b757805160ff1916838001178555620000e7565b82800160010185558215620000e7579182015b82811115620000e7578251825591602001919060010190620000ca565b50620000f5929150620000f9565b5090565b5b80821115620000f55760008155600101620000fa565b80516001600160a01b03811681146200012857600080fd5b919050565b634e487b7160e01b600052604160045260246000fd5b6000806000606084860312156200015957600080fd5b620001648462000110565b925060206200017581860162000110565b60408601519093506001600160401b03808211156200019357600080fd5b818701915087601f830112620001a857600080fd5b815181811115620001bd57620001bd6200012d565b604051601f8201601f19908116603f01168101908382118183101715620001e857620001e86200012d565b816040528281528a868487010111156200020157600080fd5b600093505b8284101562000225578484018601518185018701529285019262000206565b82841115620002375760008684830101525b8096505050505050509250925092565b600181811c908216806200025c57607f821691505b6020821081036200027d57634e487b7160e01b600052602260045260246000fd5b50919050565b60805160a05161089a620002c4600039600081816101280152818161036501526103a001526000818160a6015281816102040152610344015261089a6000f3fe608060405234801561001057600080fd5b50600436106100885760003560e01c806395d89b411161005b57806395d89b41146100ec57806399bcc05214610101578063aaf6474614610123578063b66503cf1461014a57600080fd5b806331279d3d1461008d578063343aad82146100a15780633a4b66f1146100e557806345a1de79146100e5575b600080fd5b61009f61009b366004610627565b5050565b005b6100c87f000000000000000000000000000000000000000000000000000000000000000081565b6040516001600160a01b0390911681526020015b60405180910390f35b60006100c8565b6100f461015d565b6040516100dc919061072f565b61011561010f366004610762565b50600090565b6040519081526020016100dc565b6100c87f000000000000000000000000000000000000000000000000000000000000000081565b61009f610158366004610784565b6101eb565b6000805461016a906107ae565b80601f0160208091040260200160405190810160405280929190818152602001828054610196906107ae565b80156101e35780601f106101b8576101008083540402835291602001916101e3565b820191906000526020600020905b8154815290600101906020018083116101c657829003601f168201915b505050505081565b6001546001146101fa57600080fd5b60026001819055507f00000000000000000000000000000000000000000000000000000000000000006001600160a01b0316826001600160a01b03161461024057600080fd5b6000811161024d57600080fd5b6040516370a0823160e01b81523060048201526000906001600160a01b038416906370a0823190602401602060405180830381865afa158015610294573d6000803e3d6000fd5b505050506040513d601f19601f820116820180604052508101906102b891906107e8565b90506102c68333308561040e565b6040516370a0823160e01b81523060048201526000906001600160a01b038516906370a0823190602401602060405180830381865afa15801561030d573d6000803e3d6000fd5b505050506040513d601f19601f8201168201806040525081019061033191906107e8565b905061033d8282610801565b925061038a7f00000000000000000000000000000000000000000000000000000000000000007f000000000000000000000000000000000000000000000000000000000000000085610506565b604051633c6b16ab60e01b8152600481018490527f00000000000000000000000000000000000000000000000000000000000000006001600160a01b031690633c6b16ab90602401600060405180830381600087803b1580156103ec57600080fd5b505af1158015610400573d6000803e3d6000fd5b505060018055505050505050565b6000846001600160a01b03163b1161042557600080fd5b604080516001600160a01b0385811660248301528481166044830152606480830185905283518084039091018152608490920183526020820180516001600160e01b03166323b872dd60e01b17905291516000928392908816916104899190610826565b6000604051808303816000865af19150503d80600081146104c6576040519150601f19603f3d011682016040523d82523d6000602084013e6104cb565b606091505b50915091508180156104f55750805115806104f55750808060200190518101906104f59190610842565b6104fe57600080fd5b505050505050565b6000836001600160a01b03163b1161051d57600080fd5b604080516001600160a01b038481166024830152604480830185905283518084039091018152606490920183526020820180516001600160e01b031663095ea7b360e01b17905291516000928392908716916105799190610826565b6000604051808303816000865af19150503d80600081146105b6576040519150601f19603f3d011682016040523d82523d6000602084013e6105bb565b606091505b50915091508180156105e55750805115806105e55750808060200190518101906105e59190610842565b6105ee57600080fd5b5050505050565b80356001600160a01b038116811461060c57600080fd5b919050565b634e487b7160e01b600052604160045260246000fd5b6000806040838503121561063a57600080fd5b610643836105f5565b915060208084013567ffffffffffffffff8082111561066157600080fd5b818601915086601f83011261067557600080fd5b81358181111561068757610687610611565b8060051b604051601f19603f830116810181811085821117156106ac576106ac610611565b6040529182528482019250838101850191898311156106ca57600080fd5b938501935b828510156106ef576106e0856105f5565b845293850193928501926106cf565b8096505050505050509250929050565b60005b8381101561071a578181015183820152602001610702565b83811115610729576000848401525b50505050565b602081526000825180602084015261074e8160408501602087016106ff565b601f01601f19169190910160400192915050565b60006020828403121561077457600080fd5b61077d826105f5565b9392505050565b6000806040838503121561079757600080fd5b6107a0836105f5565b946020939093013593505050565b600181811c908216806107c257607f821691505b6020821081036107e257634e487b7160e01b600052602260045260246000fd5b50919050565b6000602082840312156107fa57600080fd5b5051919050565b60008282101561082157634e487b7160e01b600052601160045260246000fd5b500390565b600082516108388184602087016106ff565b9190910192915050565b60006020828403121561085457600080fd5b8151801515811461077d57600080fdfea2646970667358221220f70dccd9f2861134264c3af9be5e95b4f788ccfa57071db07a9562fcf3596a1364736f6c634300080d0033","linkReferences":{}},"methodIdentifiers":{"externalBribe()":"45a1de79","flow()":"343aad82","getReward(address,address[])":"31279d3d","left(address)":"99bcc052","notifyAddress()":"aaf64746","notifyRewardAmount(address,uint256)":"b66503cf","stake()":"3a4b66f1","symbol()":"95d89b41"},"id":17}