{"abi":[{"type":"constructor","inputs":[{"name":"initialSupplyRecipient","type":"address","internalType":"address"},{"name":"initialAmount","type":"uint256","internalType":"uint256"}],"stateMutability":"nonpayable"},{"type":"function","name":"allowance","inputs":[{"name":"","type":"address","internalType":"address"},{"name":"","type":"address","internalType":"address"}],"outputs":[{"name":"","type":"uint256","internalType":"uint256"}],"stateMutability":"view"},{"type":"function","name":"approve","inputs":[{"name":"_spender","type":"address","internalType":"address"},{"name":"_value","type":"uint256","internalType":"uint256"}],"outputs":[{"name":"","type":"bool","internalType":"bool"}],"stateMutability":"nonpayable"},{"type":"function","name":"balanceOf","inputs":[{"name":"","type":"address","internalType":"address"}],"outputs":[{"name":"","type":"uint256","internalType":"uint256"}],"stateMutability":"view"},{"type":"function","name":"burn","inputs":[{"name":"_amount","type":"uint256","internalType":"uint256"}],"outputs":[],"stateMutability":"nonpayable"},{"type":"function","name":"decimals","inputs":[],"outputs":[{"name":"","type":"uint8","internalType":"uint8"}],"stateMutability":"view"},{"type":"function","name":"mint","inputs":[{"name":"account","type":"address","internalType":"address"},{"name":"amount","type":"uint256","internalType":"uint256"}],"outputs":[{"name":"","type":"bool","internalType":"bool"}],"stateMutability":"nonpayable"},{"type":"function","name":"minter","inputs":[],"outputs":[{"name":"","type":"address","internalType":"address"}],"stateMutability":"view"},{"type":"function","name":"name","inputs":[],"outputs":[{"name":"","type":"string","internalType":"string"}],"stateMutability":"view"},{"type":"function","name":"setMinter","inputs":[{"name":"_minter","type":"address","internalType":"address"}],"outputs":[],"stateMutability":"nonpayable"},{"type":"function","name":"symbol","inputs":[],"outputs":[{"name":"","type":"string","internalType":"string"}],"stateMutability":"view"},{"type":"function","name":"totalSupply","inputs":[],"outputs":[{"name":"","type":"uint256","internalType":"uint256"}],"stateMutability":"view"},{"type":"function","name":"transfer","inputs":[{"name":"_to","type":"address","internalType":"address"},{"name":"_value","type":"uint256","internalType":"uint256"}],"outputs":[{"name":"","type":"bool","internalType":"bool"}],"stateMutability":"nonpayable"},{"type":"function","name":"transferFrom","inputs":[{"name":"_from","type":"address","internalType":"address"},{"name":"_to","type":"address","internalType":"address"},{"name":"_value","type":"uint256","internalType":"uint256"}],"outputs":[{"name":"","type":"bool","internalType":"bool"}],"stateMutability":"nonpayable"},{"type":"event","name":"Approval","inputs":[{"name":"owner","type":"address","indexed":true,"internalType":"address"},{"name":"spender","type":"address","indexed":true,"internalType":"address"},{"name":"value","type":"uint256","indexed":false,"internalType":"uint256"}],"anonymous":false},{"type":"event","name":"Transfer","inputs":[{"name":"from","type":"address","indexed":true,"internalType":"address"},{"name":"to","type":"address","indexed":true,"internalType":"address"},{"name":"value","type":"uint256","indexed":false,"internalType":"uint256"}],"anonymous":false}],"bytecode":{"object":"0x60806040526000805534801561001457600080fd5b50604051610838380380610838833981016040819052610033916100c8565b600380546001600160a01b0319163317905561004f8282610057565b505050610128565b60008160008082825461006a9190610102565b90915550506001600160a01b0383166000818152600160209081526040808320805487019055518581527fddf252ad1be2c89b69c2b068fc378daa952ba7f163c4a11628f55a4df523b3ef910160405180910390a350600192915050565b600080604083850312156100db57600080fd5b82516001600160a01b03811681146100f257600080fd5b6020939093015192949293505050565b6000821982111561012357634e487b7160e01b600052601160045260246000fd5b500190565b610701806101376000396000f3fe608060405234801561001057600080fd5b50600436106100cf5760003560e01c806340c10f191161008c57806395d89b411161006657806395d89b41146101f3578063a9059cbb14610215578063dd62ed3e14610228578063fca3b5aa1461025357600080fd5b806340c10f19146101ab57806342966c68146101be57806370a08231146101d357600080fd5b806306fdde03146100d45780630754617214610119578063095ea7b31461014457806318160ddd1461016757806323b872dd1461017e578063313ce56714610191575b600080fd5b6101036040518060400160405280601081526020016f2130b9b2b22b32b637b1b4b6b2ba32b960811b81525081565b6040516101109190610548565b60405180910390f35b60035461012c906001600160a01b031681565b6040516001600160a01b039091168152602001610110565b6101576101523660046105b9565b610266565b6040519015158152602001610110565b61017060005481565b604051908152602001610110565b61015761018c3660046105e3565b6102d2565b610199601281565b60405160ff9091168152602001610110565b6101576101b93660046105b9565b61034c565b6101d16101cc36600461061f565b61037a565b005b6101706101e1366004610638565b60016020526000908152604090205481565b6101036040518060400160405280600381526020016242564d60e81b81525081565b6101576102233660046105b9565b610387565b610170610236366004610653565b600260209081526000928352604080842090915290825290205481565b6101d1610261366004610638565b61039b565b3360008181526002602090815260408083206001600160a01b038716808552925280832085905551919290917f8c5be1e5ebec7d5bd14f71427d1e84f3dd0314c0f7b2291e5b200ac8c7c3b925906102c19086815260200190565b60405180910390a350600192915050565b6001600160a01b03831660009081526002602090815260408083203384529091528120546000198114610338576001600160a01b03851660009081526002602090815260408083203384529091528120805485929061033290849061069c565b90915550505b6103438585856103d4565b95945050505050565b6003546000906001600160a01b0316331461036657600080fd5b610370838361046b565b5060019392505050565b61038433826104d0565b50565b60006103943384846103d4565b9392505050565b6003546001600160a01b031633146103b257600080fd5b600380546001600160a01b0319166001600160a01b0392909216919091179055565b6001600160a01b0383166000908152600160205260408120805483919083906103fe90849061069c565b90915550506001600160a01b03808416600081815260016020526040908190208054860190555190918616907fddf252ad1be2c89b69c2b068fc378daa952ba7f163c4a11628f55a4df523b3ef906104599086815260200190565b60405180910390a35060019392505050565b60008160008082825461047e91906106b3565b90915550506001600160a01b0383166000818152600160209081526040808320805487019055518581527fddf252ad1be2c89b69c2b068fc378daa952ba7f163c4a11628f55a4df523b3ef91016102c1565b6001600160a01b038216600090815260016020526040812080548392906104f890849061069c565b90915550506000805482900381556040518281526001600160a01b038416907fddf252ad1be2c89b69c2b068fc378daa952ba7f163c4a11628f55a4df523b3ef9060200160405180910390a35050565b600060208083528351808285015260005b8181101561057557858101830151858201604001528201610559565b81811115610587576000604083870101525b50601f01601f1916929092016040019392505050565b80356001600160a01b03811681146105b457600080fd5b919050565b600080604083850312156105cc57600080fd5b6105d58361059d565b946020939093013593505050565b6000806000606084860312156105f857600080fd5b6106018461059d565b925061060f6020850161059d565b9150604084013590509250925092565b60006020828403121561063157600080fd5b5035919050565b60006020828403121561064a57600080fd5b6103948261059d565b6000806040838503121561066657600080fd5b61066f8361059d565b915061067d6020840161059d565b90509250929050565b634e487b7160e01b600052601160045260246000fd5b6000828210156106ae576106ae610686565b500390565b600082198211156106c6576106c6610686565b50019056fea26469706673582212204b93999b20f070782b99e62276b5c2762429ef674e6176f4f43049fa53068a0764736f6c634300080d0033","linkReferences":{}},"methodIdentifiers":{"allowance(address,address)":"dd62ed3e","approve(address,uint256)":"095ea7b3","balanceOf(address)":"70a08231","burn(uint256)":"42966c68","decimals()":"313ce567","mint(address,uint256)":"40c10f19","minter()":"07546172","name()":"06fdde03","setMinter(address)":"fca3b5aa","symbol()":"95d89b41","totalSupply()":"18160ddd","transfer(address,uint256)":"a9059cbb","transferFrom(address,address,uint256)":"23b872dd"},"id":5}