{"abi":[{"type":"constructor","inputs":[{"name":"_stake","type":"address","internalType":"address"},{"name":"_external_bribe","type":"address","internalType":"address"},{"name":"__ve","type":"address","internalType":"address"},{"name":"_voter","type":"address","internalType":"address"},{"name":"_oFlow","type":"address","internalType":"address"},{"name":"_gaugeFactory","type":"address","internalType":"address"},{"name":"_forPair","type":"bool","internalType":"bool"},{"name":"_allowedRewardTokens","type":"address[]","internalType":"address[]"}],"stateMutability":"nonpayable"},{"type":"function","name":"_ve","inputs":[],"outputs":[{"name":"","type":"address","internalType":"address"}],"stateMutability":"view"},{"type":"function","name":"addOToken","inputs":[{"name":"_oToken","type":"address","internalType":"address"}],"outputs":[],"stateMutability":"nonpayable"},{"type":"function","name":"balanceOf","inputs":[{"name":"","type":"address","internalType":"address"}],"outputs":[{"name":"","type":"uint256","internalType":"uint256"}],"stateMutability":"view"},{"type":"function","name":"balanceWithLock","inputs":[{"name":"","type":"address","internalType":"address"}],"outputs":[{"name":"","type":"uint256","internalType":"uint256"}],"stateMutability":"view"},{"type":"function","name":"batchRewardPerToken","inputs":[{"name":"token","type":"address","internalType":"address"},{"name":"maxRuns","type":"uint256","internalType":"uint256"}],"outputs":[],"stateMutability":"nonpayable"},{"type":"function","name":"batchUpdateRewardPerToken","inputs":[{"name":"token","type":"address","internalType":"address"},{"name":"maxRuns","type":"uint256","internalType":"uint256"}],"outputs":[],"stateMutability":"nonpayable"},{"type":"function","name":"checkpoints","inputs":[{"name":"","type":"address","internalType":"address"},{"name":"","type":"uint256","internalType":"uint256"}],"outputs":[{"name":"timestamp","type":"uint256","internalType":"uint256"},{"name":"balanceOf","type":"uint256","internalType":"uint256"}],"stateMutability":"view"},{"type":"function","name":"deposit","inputs":[{"name":"amount","type":"uint256","internalType":"uint256"},{"name":"tokenId","type":"uint256","internalType":"uint256"}],"outputs":[],"stateMutability":"nonpayable"},{"type":"function","name":"depositAll","inputs":[{"name":"tokenId","type":"uint256","internalType":"uint256"}],"outputs":[],"stateMutability":"nonpayable"},{"type":"function","name":"depositFor","inputs":[{"name":"account","type":"address","internalType":"address"},{"name":"amount","type":"uint256","internalType":"uint256"}],"outputs":[],"stateMutability":"nonpayable"},{"type":"function","name":"depositWithLock","inputs":[{"name":"account","type":"address","internalType":"address"},{"name":"amount","type":"uint256","internalType":"uint256"},{"name":"_lockDuration","type":"uint256","internalType":"uint256"}],"outputs":[],"stateMutability":"nonpayable"},{"type":"function","name":"derivedBalance","inputs":[{"name":"account","type":"address","internalType":"address"}],"outputs":[{"name":"","type":"uint256","internalType":"uint256"}],"stateMutability":"view"},{"type":"function","name":"derivedBalances","inputs":[{"name":"","type":"address","internalType":"address"}],"outputs":[{"name":"","type":"uint256","internalType":"uint256"}],"stateMutability":"view"},{"type":"function","name":"derivedSupply","inputs":[],"outputs":[{"name":"","type":"uint256","internalType":"uint256"}],"stateMutability":"view"},{"type":"function","name":"earned","inputs":[{"name":"token","type":"address","internalType":"address"},{"name":"account","type":"address","internalType":"address"}],"outputs":[{"name":"","type":"uint256","internalType":"uint256"}],"stateMutability":"view"},{"type":"function","name":"external_bribe","inputs":[],"outputs":[{"name":"","type":"address","internalType":"address"}],"stateMutability":"view"},{"type":"function","name":"fees0","inputs":[],"outputs":[{"name":"","type":"uint256","internalType":"uint256"}],"stateMutability":"view"},{"type":"function","name":"fees1","inputs":[],"outputs":[{"name":"","type":"uint256","internalType":"uint256"}],"stateMutability":"view"},{"type":"function","name":"flow","inputs":[],"outputs":[{"name":"","type":"address","internalType":"address"}],"stateMutability":"view"},{"type":"function","name":"gaugeFactory","inputs":[],"outputs":[{"name":"","type":"address","internalType":"address"}],"stateMutability":"view"},{"type":"function","name":"getPriorBalanceIndex","inputs":[{"name":"account","type":"address","internalType":"address"},{"name":"timestamp","type":"uint256","internalType":"uint256"}],"outputs":[{"name":"","type":"uint256","internalType":"uint256"}],"stateMutability":"view"},{"type":"function","name":"getPriorRewardPerToken","inputs":[{"name":"token","type":"address","internalType":"address"},{"name":"timestamp","type":"uint256","internalType":"uint256"}],"outputs":[{"name":"","type":"uint256","internalType":"uint256"},{"name":"","type":"uint256","internalType":"uint256"}],"stateMutability":"view"},{"type":"function","name":"getPriorSupplyIndex","inputs":[{"name":"timestamp","type":"uint256","internalType":"uint256"}],"outputs":[{"name":"","type":"uint256","internalType":"uint256"}],"stateMutability":"view"},{"type":"function","name":"getReward","inputs":[{"name":"account","type":"address","internalType":"address"},{"name":"tokens","type":"address[]","internalType":"address[]"}],"outputs":[],"stateMutability":"nonpayable"},{"type":"function","name":"isForPair","inputs":[],"outputs":[{"name":"","type":"bool","internalType":"bool"}],"stateMutability":"view"},{"type":"function","name":"isOToken","inputs":[{"name":"","type":"address","internalType":"address"}],"outputs":[{"name":"","type":"bool","internalType":"bool"}],"stateMutability":"view"},{"type":"function","name":"isReward","inputs":[{"name":"","type":"address","internalType":"address"}],"outputs":[{"name":"","type":"bool","internalType":"bool"}],"stateMutability":"view"},{"type":"function","name":"lastEarn","inputs":[{"name":"","type":"address","internalType":"address"},{"name":"","type":"address","internalType":"address"}],"outputs":[{"name":"","type":"uint256","internalType":"uint256"}],"stateMutability":"view"},{"type":"function","name":"lastTimeRewardApplicable","inputs":[{"name":"token","type":"address","internalType":"address"}],"outputs":[{"name":"","type":"uint256","internalType":"uint256"}],"stateMutability":"view"},{"type":"function","name":"lastUpdateTime","inputs":[{"name":"","type":"address","internalType":"address"}],"outputs":[{"name":"","type":"uint256","internalType":"uint256"}],"stateMutability":"view"},{"type":"function","name":"left","inputs":[{"name":"token","type":"address","internalType":"address"}],"outputs":[{"name":"","type":"uint256","internalType":"uint256"}],"stateMutability":"view"},{"type":"function","name":"lockEnd","inputs":[{"name":"","type":"address","internalType":"address"}],"outputs":[{"name":"","type":"uint256","internalType":"uint256"}],"stateMutability":"view"},{"type":"function","name":"notifyRewardAmount","inputs":[{"name":"token","type":"address","internalType":"address"},{"name":"amount","type":"uint256","internalType":"uint256"}],"outputs":[],"stateMutability":"nonpayable"},{"type":"function","name":"numCheckpoints","inputs":[{"name":"","type":"address","internalType":"address"}],"outputs":[{"name":"","type":"uint256","internalType":"uint256"}],"stateMutability":"view"},{"type":"function","name":"oFlow","inputs":[],"outputs":[{"name":"","type":"address","internalType":"address"}],"stateMutability":"view"},{"type":"function","name":"periodFinish","inputs":[{"name":"","type":"address","internalType":"address"}],"outputs":[{"name":"","type":"uint256","internalType":"uint256"}],"stateMutability":"view"},{"type":"function","name":"removeOToken","inputs":[{"name":"_oToken","type":"address","internalType":"address"}],"outputs":[],"stateMutability":"nonpayable"},{"type":"function","name":"rewardPerToken","inputs":[{"name":"token","type":"address","internalType":"address"}],"outputs":[{"name":"","type":"uint256","internalType":"uint256"}],"stateMutability":"view"},{"type":"function","name":"rewardPerTokenCheckpoints","inputs":[{"name":"","type":"address","internalType":"address"},{"name":"","type":"uint256","internalType":"uint256"}],"outputs":[{"name":"timestamp","type":"uint256","internalType":"uint256"},{"name":"rewardPerToken","type":"uint256","internalType":"uint256"}],"stateMutability":"view"},{"type":"function","name":"rewardPerTokenNumCheckpoints","inputs":[{"name":"","type":"address","internalType":"address"}],"outputs":[{"name":"","type":"uint256","internalType":"uint256"}],"stateMutability":"view"},{"type":"function","name":"rewardPerTokenStored","inputs":[{"name":"","type":"address","internalType":"address"}],"outputs":[{"name":"","type":"uint256","internalType":"uint256"}],"stateMutability":"view"},{"type":"function","name":"rewardRate","inputs":[{"name":"","type":"address","internalType":"address"}],"outputs":[{"name":"","type":"uint256","internalType":"uint256"}],"stateMutability":"view"},{"type":"function","name":"rewards","inputs":[{"name":"","type":"uint256","internalType":"uint256"}],"outputs":[{"name":"","type":"address","internalType":"address"}],"stateMutability":"view"},{"type":"function","name":"rewardsListLength","inputs":[],"outputs":[{"name":"","type":"uint256","internalType":"uint256"}],"stateMutability":"view"},{"type":"function","name":"setOFlow","inputs":[{"name":"_oFlow","type":"address","internalType":"address"}],"outputs":[],"stateMutability":"nonpayable"},{"type":"function","name":"stake","inputs":[],"outputs":[{"name":"","type":"address","internalType":"address"}],"stateMutability":"view"},{"type":"function","name":"supplyCheckpoints","inputs":[{"name":"","type":"uint256","internalType":"uint256"}],"outputs":[{"name":"timestamp","type":"uint256","internalType":"uint256"},{"name":"supply","type":"uint256","internalType":"uint256"}],"stateMutability":"view"},{"type":"function","name":"supplyNumCheckpoints","inputs":[],"outputs":[{"name":"","type":"uint256","internalType":"uint256"}],"stateMutability":"view"},{"type":"function","name":"swapOutRewardToken","inputs":[{"name":"i","type":"uint256","internalType":"uint256"},{"name":"oldToken","type":"address","internalType":"address"},{"name":"newToken","type":"address","internalType":"address"}],"outputs":[],"stateMutability":"nonpayable"},{"type":"function","name":"tokenIds","inputs":[{"name":"","type":"address","internalType":"address"}],"outputs":[{"name":"","type":"uint256","internalType":"uint256"}],"stateMutability":"view"},{"type":"function","name":"totalSupply","inputs":[],"outputs":[{"name":"","type":"uint256","internalType":"uint256"}],"stateMutability":"view"},{"type":"function","name":"userRewardPerTokenStored","inputs":[{"name":"","type":"address","internalType":"address"},{"name":"","type":"address","internalType":"address"}],"outputs":[{"name":"","type":"uint256","internalType":"uint256"}],"stateMutability":"view"},{"type":"function","name":"voter","inputs":[],"outputs":[{"name":"","type":"address","internalType":"address"}],"stateMutability":"view"},{"type":"function","name":"withdraw","inputs":[{"name":"amount","type":"uint256","internalType":"uint256"}],"outputs":[],"stateMutability":"nonpayable"},{"type":"function","name":"withdrawAll","inputs":[],"outputs":[],"stateMutability":"nonpayable"},{"type":"function","name":"withdrawToken","inputs":[{"name":"amount","type":"uint256","internalType":"uint256"},{"name":"tokenId","type":"uint256","internalType":"uint256"}],"outputs":[],"stateMutability":"nonpayable"},{"type":"event","name":"ClaimRewards","inputs":[{"name":"from","type":"address","indexed":true,"internalType":"address"},{"name":"reward","type":"address","indexed":true,"internalType":"address"},{"name":"amount","type":"uint256","indexed":false,"internalType":"uint256"}],"anonymous":false},{"type":"event","name":"Deposit","inputs":[{"name":"from","type":"address","indexed":true,"internalType":"address"},{"name":"tokenId","type":"uint256","indexed":false,"internalType":"uint256"},{"name":"amount","type":"uint256","indexed":false,"internalType":"uint256"}],"anonymous":false},{"type":"event","name":"NotifyReward","inputs":[{"name":"from","type":"address","indexed":true,"internalType":"address"},{"name":"reward","type":"address","indexed":true,"internalType":"address"},{"name":"amount","type":"uint256","indexed":false,"internalType":"uint256"}],"anonymous":false},{"type":"event","name":"OFlowSet","inputs":[{"name":"_oFlow","type":"address","indexed":true,"internalType":"address"}],"anonymous":false},{"type":"event","name":"OTokenAdded","inputs":[{"name":"_oToken","type":"address","indexed":true,"internalType":"address"}],"anonymous":false},{"type":"event","name":"OTokenRemoved","inputs":[{"name":"_oToken","type":"address","indexed":true,"internalType":"address"}],"anonymous":false},{"type":"event","name":"Withdraw","inputs":[{"name":"from","type":"address","indexed":true,"internalType":"address"},{"name":"tokenId","type":"uint256","indexed":false,"internalType":"uint256"},{"name":"amount","type":"uint256","indexed":false,"internalType":"uint256"}],"anonymous":false}],"bytecode":{"object":"0x6101406040526001601a553480156200001757600080fd5b5060405162003f7638038062003f768339810160408190526200003a916200037d565b6001600160a01b0388811660805287811660c05286811660a081905286821660e052600080546001600160a01b031916878416179055908416610120526003805460ff19168415151790556040805163c55dae6360e01b8152905163c55dae63916004808201926020929091908290030181865afa158015620000c1573d6000803e3d6000fd5b505050506040513d601f19601f82011682018060405250810190620000e79190620004d5565b6001600160a01b039081166101008190526000546200010a921660001962000240565b6001600160a01b0384166000908152601160205260408120805460ff191660011790555b8151811015620002315760006001600160a01b0316828281518110620001585762000158620004fa565b60200260200101516001600160a01b0316146200021c576001601060008484815181106200018a576200018a620004fa565b60200260200101516001600160a01b03166001600160a01b0316815260200190815260200160002060006101000a81548160ff021916908315150217905550600f828281518110620001e057620001e0620004fa565b60209081029190910181015182546001810184556000938452919092200180546001600160a01b0319166001600160a01b039092169190911790555b80620002288162000510565b9150506200012e565b50505050505050505062000594565b6000836001600160a01b03163b116200025857600080fd5b604080516001600160a01b038481166024830152604480830185905283518084039091018152606490920183526020820180516001600160e01b031663095ea7b360e01b1790529151600092839290871691620002b6919062000538565b6000604051808303816000865af19150503d8060008114620002f5576040519150601f19603f3d011682016040523d82523d6000602084013e620002fa565b606091505b5091509150818015620003285750805115806200032857508080602001905181019062000328919062000576565b6200033257600080fd5b5050505050565b80516001600160a01b03811681146200035157600080fd5b919050565b805180151581146200035157600080fd5b634e487b7160e01b600052604160045260246000fd5b600080600080600080600080610100898b0312156200039b57600080fd5b620003a68962000339565b97506020620003b7818b0162000339565b9750620003c760408b0162000339565b9650620003d760608b0162000339565b9550620003e760808b0162000339565b9450620003f760a08b0162000339565b93506200040760c08b0162000356565b60e08b01519093506001600160401b03808211156200042557600080fd5b818c0191508c601f8301126200043a57600080fd5b8151818111156200044f576200044f62000367565b8060051b604051601f19603f8301168101818110858211171562000477576200047762000367565b60405291825284820192508381018501918f8311156200049657600080fd5b938501935b82851015620004bf57620004af8562000339565b845293850193928501926200049b565b8096505050505050509295985092959890939650565b600060208284031215620004e857600080fd5b620004f38262000339565b9392505050565b634e487b7160e01b600052603260045260246000fd5b6000600182016200053157634e487b7160e01b600052601160045260246000fd5b5060010190565b6000825160005b818110156200055b57602081860181015185830152016200053f565b818111156200056b576000828501525b509190910192915050565b6000602082840312156200058957600080fd5b620004f38262000356565b60805160a05160c05160e0516101005161012051613914620006626000396000818161043f01528181610ae2015281816116c101526120af015260008181610564015281816112c0015261210c0152600081816106230152818161103301528181611078015281816119df0152818161263c01528181612755015281816129910152612ae4015260006103ce01526000818161073d0152818161174c015261289801526000818161058b0152818161196501528181612009015281816125bd015261281b01526139146000f3fe608060405234801561001057600080fd5b50600436106103785760003560e01c806370a08231116101d3578063d35e254411610104578063f00dc8ef116100a2578063f7412baf1161007c578063f7412baf146108fb578063fc97a30314610922578063fd31409814610942578063fdb483c71461095557600080fd5b8063f00dc8ef146108c2578063f1229777146108d5578063f301af42146108e857600080fd5b8063e2bbb158116100de578063e2bbb15814610891578063e5748213146108a4578063e6886396146108b1578063e8111a12146108b957600080fd5b8063d35e25441461083f578063d7da4bb014610868578063da09d19d1461087157600080fd5b80639843bafa11610171578063a495e5b51161014b578063a495e5b5146107ce578063aa479652146107f9578063b66503cf14610819578063c6f678bd1461082c57600080fd5b80639843bafa1461077b57806399bcc0521461079b5780639ce43f90146107ae57600080fd5b80638ac9ab37116101ad5780638ac9ab37146107255780638dd598fb1461073857806393f1c4421461075f5780639418f9391461076857600080fd5b806370a08231146106ea57806376f4be361461070a578063853828b61461071d57600080fd5b806331279d3d116102ad5780634c02a21c1161024b578063638634ee11610225578063638634ee1461068457806363fb415b1461069757806368fcee1a146106b75780636fcfff45146106ca57600080fd5b80634c02a21c146106455780634d5ce0381461064e5780635a45d0521461067157600080fd5b80633ca068b6116102875780633ca068b6146105ad578063439e2cfe146105d85780634665b5c91461060b57806346c96aac1461061e57600080fd5b806331279d3d1461054c578063343aad821461055f5780633a4b66f11461058657600080fd5b80631f933c2d1161031a57806323792279116102f457806323792279146104e65780632ce9aead146105065780632e1a7d4d146105265780632f4f21e21461053957600080fd5b80631f933c2d146104a0578063211dc32d146104b3578063221ca18c146104c657600080fd5b80630d52333c116103565780630d52333c1461043a578063115c6f3914610461578063164a91ec1461048257806318160ddd1461049757600080fd5b806301316ddf1461037d57806303fbf83a146103c95780630cdfebfa14610408575b600080fd5b6103af61038b366004613547565b60166020908152600092835260408084209091529082529020805460019091015482565b604080519283526020830191909152015b60405180910390f35b6103f07f000000000000000000000000000000000000000000000000000000000000000081565b6040516001600160a01b0390911681526020016103c0565b6103af610416366004613547565b60126020908152600092835260408084209091529082529020805460019091015482565b6103f07f000000000000000000000000000000000000000000000000000000000000000081565b61047461046f366004613547565b610968565b6040519081526020016103c0565b610495610490366004613573565b610ad7565b005b610474600b5481565b6104956104ae366004613590565b610b71565b6104746104c13660046135c5565b610d1f565b6104746104d4366004613573565b60046020526000908152604090205481565b6104746104f4366004613573565b600e6020526000908152604090205481565b610474610514366004613573565b60066020526000908152604090205481565b6104956105343660046135fe565b610fa3565b610495610547366004613547565b610fd9565b61049561055a36600461362d565b611002565b6103f07f000000000000000000000000000000000000000000000000000000000000000081565b6103f07f000000000000000000000000000000000000000000000000000000000000000081565b6104746105bb3660046135c5565b600960209081526000928352604080842090915290825290205481565b6105fb6105e6366004613573565b60116020526000908152604090205460ff1681565b60405190151581526020016103c0565b6000546103f0906001600160a01b031681565b6103f07f000000000000000000000000000000000000000000000000000000000000000081565b61047460195481565b6105fb61065c366004613573565b60106020526000908152604090205460ff1681565b61049561067f366004613547565b6114ff565b610474610692366004613573565b611537565b6104746106a5366004613573565b60026020526000908152604090205481565b6104956106c5366004613547565b61155b565b6104746106d8366004613573565b60136020526000908152604090205481565b6104746106f8366004613573565b600c6020526000908152604090205481565b6104746107183660046135fe565b611567565b61049561169b565b610495610733366004613573565b6116b6565b6103f07f000000000000000000000000000000000000000000000000000000000000000081565b61047460185481565b610495610776366004613707565b61174a565b610474610789366004613573565b600d6020526000908152604090205481565b6104746107a9366004613573565b6118d6565b6104746107bc366004613573565b60076020526000908152604090205481565b6104746107dc3660046135c5565b600860209081526000928352604080842090915290825290205481565b610474610807366004613573565b60176020526000908152604090205481565b610495610827366004613547565b611947565b61049561083a3660046135fe565b611ff0565b61047461084d366004613573565b6001600160a01b03166000908152600c602052604090205490565b61047460015481565b61047461087f366004613573565b60056020526000908152604090205481565b61049561089f366004613749565b612085565b6003546105fb9060ff1681565b600f54610474565b61047460155481565b6104956108d0366004613573565b6120a4565b6104746108e3366004613573565b612180565b6103f06108f63660046135fe565b61223f565b6103af6109093660046135fe565b6014602052600090815260409020805460019091015482565b610474610930366004613573565b600a6020526000908152604090205481565b6103af610950366004613547565b612269565b610495610963366004613749565b61248a565b6001600160a01b038216600090815260136020526040812054808203610992576000915050610ad1565b6001600160a01b038416600090815260126020526040812084916109b7600185613781565b815260200190815260200160002060000154116109e1576109d9600182613781565b915050610ad1565b6001600160a01b0384166000908152601260209081526040808320838052909152902054831015610a16576000915050610ad1565b600080610a24600184613781565b90505b81811115610acc5760006002610a3d8484613781565b610a479190613798565b610a519083613781565b6001600160a01b0388166000908152601260209081526040808320848452825291829020825180840190935280548084526001909101549183019190915291925090879003610aa657509350610ad192505050565b8051871115610ab757819350610ac5565b610ac2600183613781565b92505b5050610a27565b509150505b92915050565b336001600160a01b037f00000000000000000000000000000000000000000000000000000000000000001614610b285760405162461bcd60e51b8152600401610b1f906137ba565b60405180910390fd5b6001600160a01b038116600081815260116020526040808220805460ff19169055517faf78b9a87a238eb1aeab02992f63daef20bc47fbdbc2c80164960ff9e2a028c39190a250565b601a54600114610b8057600080fd5b6002601a55336001600160a01b0384161480610bab57503360009081526011602052604090205460ff165b610bf75760405162461bcd60e51b815260206004820181905260248201527f4e6f7420616c6c6f77656420746f206465706f7369742077697468206c6f636b6044820152606401610b1f565b610c0383836000612801565b6001600160a01b0383166000908152600e60205260409020544210610c49576001600160a01b0383166000908152600e60209081526040808320839055600d9091528120555b6001600160a01b0383166000908152600d602052604081208054849290610c719084906137e5565b90915550506001600160a01b0383166000908152600e602052604081205490610c9a83426137e5565b905080821115610cf85760405162461bcd60e51b815260206004820152602360248201527f5468652063757272656e74206c6f636b20656e64203e206e6577206c6f636b20604482015262195b9960ea1b6064820152608401610b1f565b6001600160a01b039094166000908152600e602052604090209390935550506001601a5550565b6001600160a01b038083166000818152600860209081526040808320948616835293815283822054928252601681528382208280529052918220548291610d6591612b8a565b6001600160a01b03841660009081526013602052604081205491925003610d90576000915050610ad1565b6000610d9c8483610968565b6001600160a01b03851660009081526013602052604081205491925090610dc590600190613781565b905060008115610ed757825b610ddc600184613781565b8111610ed5576001600160a01b03871660008181526012602081815260408084208685528083528185208251808401909352805483526001908101548385015295855292909152928290610e319086906137e5565b81526020019081526020016000206040518060400160405290816000820154815260200160018201548152505090506000610e708b8460000151612269565b5090506000610e838c8460000151612269565b509050670de0b6b3a7640000610e998383613781565b8560200151610ea891906137fd565b610eb29190613798565b610ebc90876137e5565b9550505050508080610ecd9061381c565b915050610dd1565b505b6001600160a01b0386166000908152601260209081526040808320858452825280832081518083019092528054808352600190910154928201929092529190610f21908a90612269565b506001600160a01b03808b166000908152600960209081526040808320938d1683529290522054909150670de0b6b3a764000090610f60908390612b8a565b610f698b612180565b610f739190613781565b8360200151610f8291906137fd565b610f8c9190613798565b610f9690846137e5565b9998505050505050505050565b336000908152600c60205260408120548203610fcb5750336000908152600a60205260409020545b610fd5828261248a565b5050565b601a54600114610fe857600080fd5b6002601a55610ff982826000612801565b50506001601a55565b601a5460011461101157600080fd5b6002601a55336001600160a01b03831614806110555750336001600160a01b037f000000000000000000000000000000000000000000000000000000000000000016145b61105e57600080fd5b6001601a556040516363453ae160e01b81523060048201527f00000000000000000000000000000000000000000000000000000000000000006001600160a01b0316906363453ae190602401600060405180830381600087803b1580156110c457600080fd5b505af11580156110d8573d6000803e3d6000fd5b50506002601a5550600090505b81518110156114585761111582828151811061110357611103613835565b60200260200101516000196001612ba0565b6007600085858151811061112b5761112b613835565b60200260200101516001600160a01b03166001600160a01b0316815260200190815260200160002060006006600087878151811061116b5761116b613835565b60200260200101516001600160a01b03166001600160a01b03168152602001908152602001600020600084919050558391905055505060006111c68383815181106111b8576111b8613835565b602002602001015185610d1f565b905042600860008585815181106111df576111df613835565b60200260200101516001600160a01b03166001600160a01b031681526020019081526020016000206000866001600160a01b03166001600160a01b03168152602001908152602001600020819055506007600084848151811061124457611244613835565b60200260200101516001600160a01b03166001600160a01b03168152602001908152602001600020546009600085858151811061128357611283613835565b6020908102919091018101516001600160a01b0390811683528282019390935260409182016000908120938916815292905290205580156113df577f00000000000000000000000000000000000000000000000000000000000000006001600160a01b03168383815181106112fa576112fa613835565b60200260200101516001600160a01b031614801561132257506000546001600160a01b031615155b801561133957506000546001600160a01b03163b15155b156113ca576000546040516340c10f1960e01b81526001600160a01b03868116600483015260248201849052909116906340c10f1990604401600060405180830381600087803b15801561138c57600080fd5b505af192505050801561139d575060015b6113c5576113c58383815181106113b6576113b6613835565b60200260200101518583612d90565b6113df565b6113df8383815181106113b6576113b6613835565b8282815181106113f1576113f1613835565b60200260200101516001600160a01b0316336001600160a01b03167f9aa05b3d70a9e3e2f004f039648839560576334fb45c81f91b6db03ad9e2efc98360405161143d91815260200190565b60405180910390a350806114508161381c565b9150506110e5565b506001600160a01b0382166000908152600260205260408120546001805491928392611485908490613781565b9091555050506001600160a01b0382166000908152600c60209081526040808320546002909252822081905560018054919283926114c49084906137e5565b90915550506001600160a01b0383166000908152600260205260409020546114ed908490612e90565b6114f5612f9b565b50506001601a5550565b6115098282613040565b6001600160a01b03909316600090815260076020908152604080832060069092529091209390935590915550565b6001600160a01b038116600090815260056020526040812054610ad19042906131a3565b61150982826000612ba0565b60155460009080820361157d5750600092915050565b826014600061158d600185613781565b815260200190815260200160002060000154116115b6576115af600182613781565b9392505050565b6000805260146020527f4f26c3876aa9f4b92579780beea1161a61f87ebf1ec6ee865b299e447ecba99c548310156115f15750600092915050565b6000806115ff600184613781565b90505b8181111561169357600060026116188484613781565b6116229190613798565b61162c9083613781565b60008181526014602090815260409182902082518084019093528054808452600190910154918301919091529192509087900361166d575095945050505050565b805187111561167e5781935061168c565b611689600183613781565b92505b5050611602565b509392505050565b336000908152600c60205260409020546116b490610fa3565b565b336001600160a01b037f000000000000000000000000000000000000000000000000000000000000000016146116fe5760405162461bcd60e51b8152600401610b1f906137ba565b6001600160a01b038116600081815260116020526040808220805460ff19166001179055517fcfab46cef508d07894ef14c2e29d9ffbd6813f966b63cbe6bf686990c1d8fcc79190a250565b7f00000000000000000000000000000000000000000000000000000000000000006001600160a01b03166385f2aef26040518163ffffffff1660e01b81526004016020604051808303816000875af11580156117aa573d6000803e3d6000fd5b505050506040513d601f19601f820116820180604052508101906117ce919061384b565b6001600160a01b0316336001600160a01b03161461181a5760405162461bcd60e51b81526020600482015260096024820152686f6e6c79207465616d60b81b6044820152606401610b1f565b816001600160a01b0316600f848154811061183757611837613835565b6000918252602090912001546001600160a01b03161461185657600080fd5b6001600160a01b03808316600090815260106020526040808220805460ff199081169091559284168252902080549091166001179055600f8054829190859081106118a3576118a3613835565b9060005260206000200160006101000a8154816001600160a01b0302191690836001600160a01b03160217905550505050565b6001600160a01b03811660009081526005602052604081205442106118fd57506000919050565b6001600160a01b038216600090815260056020526040812054611921904290613781565b6001600160a01b0384166000908152600460205260409020549091506115af90826137fd565b601a5460011461195657600080fd5b6002601a556001600160a01b037f000000000000000000000000000000000000000000000000000000000000000081169083160361199357600080fd5b600081116119a057600080fd5b6001600160a01b03821660009081526010602052604090205460ff16611af357604051633af32abf60e01b81526001600160a01b0383811660048301527f00000000000000000000000000000000000000000000000000000000000000001690633af32abf90602401602060405180830381865afa158015611a26573d6000803e3d6000fd5b505050506040513d601f19601f82011682018060405250810190611a4a9190613868565b611aa15760405162461bcd60e51b815260206004820152602260248201527f7265776172647320746f6b656e73206d7573742062652077686974656c697374604482015261195960f21b6064820152608401610b1f565b600f54600611611af35760405162461bcd60e51b815260206004820152601760248201527f746f6f206d616e79207265776172647320746f6b656e730000000000000000006044820152606401610b1f565b6001600160a01b0382166000908152600460205260408120549003611b1e57611b1e826000426131b2565b611b2c826000196001612ba0565b6001600160a01b0384166000908152600760209081526040808320600683528184209490945593909255600590915220544210611c83576040516370a0823160e01b81523060048201526000906001600160a01b038416906370a0823190602401602060405180830381865afa158015611baa573d6000803e3d6000fd5b505050506040513d601f19601f82011682018060405250810190611bce919061388a565b9050611bdc833330856132a1565b6040516370a0823160e01b81523060048201526000906001600160a01b038516906370a0823190602401602060405180830381865afa158015611c23573d6000803e3d6000fd5b505050506040513d601f19601f82011682018060405250810190611c47919061388a565b9050611c538282613781565b9250611c6262093a8084613798565b6001600160a01b03851660009081526004602052604090205550611e049050565b6001600160a01b038216600090815260056020526040812054611ca7904290613781565b6001600160a01b03841660009081526004602052604081205491925090611cce90836137fd565b9050808311611cdc57600080fd5b6040516370a0823160e01b81523060048201526000906001600160a01b038616906370a0823190602401602060405180830381865afa158015611d23573d6000803e3d6000fd5b505050506040513d601f19601f82011682018060405250810190611d47919061388a565b9050611d55853330876132a1565b6040516370a0823160e01b81523060048201526000906001600160a01b038716906370a0823190602401602060405180830381865afa158015611d9c573d6000803e3d6000fd5b505050506040513d601f19601f82011682018060405250810190611dc0919061388a565b9050611dcc8282613781565b945062093a80611ddc84876137e5565b611de69190613798565b6001600160a01b038716600090815260046020526040902055505050505b6001600160a01b038216600090815260046020526040902054611e2657600080fd5b6040516370a0823160e01b81523060048201526000906001600160a01b038416906370a0823190602401602060405180830381865afa158015611e6d573d6000803e3d6000fd5b505050506040513d601f19601f82011682018060405250810190611e91919061388a565b9050611ea062093a8082613798565b6001600160a01b0384166000908152600460205260409020541115611f075760405162461bcd60e51b815260206004820152601860248201527f50726f76696465642072657761726420746f6f206869676800000000000000006044820152606401610b1f565b611f1462093a80426137e5565b6001600160a01b03841660009081526005602090815260408083209390935560109052205460ff16611fa6576001600160a01b0383166000818152601060205260408120805460ff19166001908117909155600f805491820181559091527f8d1108e10bcb7c27dddfc02ed9d693a074039d026cf4ea4240b40f7d581ac8020180546001600160a01b03191690911790555b6040518281526001600160a01b0384169033907ff70d5c697de7ea828df48e5c4573cb2194c659f1901f70110c52b066dcf508269060200160405180910390a350506001601a5550565b6040516370a0823160e01b8152336004820152612082907f00000000000000000000000000000000000000000000000000000000000000006001600160a01b0316906370a0823190602401602060405180830381865afa158015612058573d6000803e3d6000fd5b505050506040513d601f19601f8201168201806040525081019061207c919061388a565b82612085565b50565b601a5460011461209457600080fd5b6002601a55610ff9338383612801565b336001600160a01b037f000000000000000000000000000000000000000000000000000000000000000016146120ec5760405162461bcd60e51b8152600401610b1f906137ba565b600080546001600160a01b0319166001600160a01b0383161790556121347f000000000000000000000000000000000000000000000000000000000000000082600019613399565b6001600160a01b038116600081815260116020526040808220805460ff19166001179055517f1da6983162fbed6342bb3a16724b0ea000cb17abdcd9d7699a13866ee978cd829190a250565b60006001546000036121a857506001600160a01b031660009081526007602052604090205490565b6001546001600160a01b03831660009081526004602090815260408083205460068352818420546005909352922054670de0b6b3a764000092916121eb916131a3565b6121f486611537565b6121fe9190613781565b61220891906137fd565b61221291906137fd565b61221c9190613798565b6001600160a01b038316600090815260076020526040902054610ad191906137e5565b600f818154811061224f57600080fd5b6000918252602090912001546001600160a01b0316905081565b6001600160a01b0382166000908152601760205260408120548190808203612298576000809250925050612483565b6001600160a01b038516600090815260166020526040812085916122bd600185613781565b8152602001908152602001600020600001541161235a576001600160a01b0385166000908152601660205260408120906122f8600184613781565b81526020019081526020016000206001015460166000876001600160a01b03166001600160a01b03168152602001908152602001600020600060018461233e9190613781565b8152602001908152602001600020600001549250925050612483565b6001600160a01b0385166000908152601660209081526040808320838052909152902054841015612392576000809250925050612483565b6000806123a0600184613781565b90505b8181111561245257600060026123b98484613781565b6123c39190613798565b6123cd9083613781565b6001600160a01b038916600090815260166020908152604080832084845282529182902082518084019093528054808452600190910154918301919091529192509088900361242c576020810151905190965094506124839350505050565b805188111561243d5781935061244b565b612448600183613781565b92505b50506123a3565b506001600160a01b038616600090815260166020908152604080832093835292905220600181015490549093509150505b9250929050565b601a5460011461249957600080fd5b6002601a556124a66133e3565b336000908152600c6020908152604080832054600d90925282205490916124cd8284613781565b90508085111561257c57336000908152600e602052604090205442101561252f5760405162461bcd60e51b8152602060048201526016602482015275546865206c6f636b206469646e27742065787069726560501b6044820152606401610b1f565b600061253b8685613781565b90508060000361256757336000908152600e60209081526040808320839055600d90915281205561257a565b336000908152600d602052604090208190555b505b84600b600082825461258e9190613781565b9091555050336000908152600c6020526040812080548792906125b2908490613781565b909155506125e390507f00000000000000000000000000000000000000000000000000000000000000003387612d90565b831561269d57336000908152600a6020526040902054841461260457600080fd5b336000818152600a6020526040808220919091555163411b1f7760e01b81526004810186905260248101919091526001600160a01b037f0000000000000000000000000000000000000000000000000000000000000000169063411b1f7790604401600060405180830381600087803b15801561268057600080fd5b505af1158015612694573d6000803e3d6000fd5b505050506126b0565b336000908152600a602052604090205493505b3360009081526002602052604081205460018054919283926126d3908490613781565b9091555050336000908152600c602090815260408083205460029092528220819055600180549193508392909161270b9084906137e5565b90915550503360008181526002602052604090205461272a9190612e90565b612732612f9b565b604051633aa53b9160e21b815260048101869052336024820152604481018790527f00000000000000000000000000000000000000000000000000000000000000006001600160a01b03169063ea94ee4490606401600060405180830381600087803b1580156127a157600080fd5b505af11580156127b5573d6000803e3d6000fd5b505060408051888152602081018a90523393507ff279e6a1f5e320cca91135676d9cb6e44ca8a08c0b88342bcdb1144f6511b56892500160405180910390a250506001601a5550505050565b6000821161280e57600080fd5b6128166133e3565b6128427f00000000000000000000000000000000000000000000000000000000000000003330856132a1565b81600b600082825461285491906137e5565b90915550506001600160a01b0383166000908152600c6020526040812080548492906128819084906137e5565b90915550508015612a1957826001600160a01b03167f00000000000000000000000000000000000000000000000000000000000000006001600160a01b0316636352211e836040518263ffffffff1660e01b81526004016128e491815260200190565b602060405180830381865afa158015612901573d6000803e3d6000fd5b505050506040513d601f19601f82011682018060405250810190612925919061384b565b6001600160a01b03161461293857600080fd5b6001600160a01b0383166000908152600a602052604081205490036129f0576001600160a01b038381166000818152600a6020526040908190208490555163698473e360e01b81526004810184905260248101919091527f00000000000000000000000000000000000000000000000000000000000000009091169063698473e390604401600060405180830381600087803b1580156129d757600080fd5b505af11580156129eb573d6000803e3d6000fd5b505050505b6001600160a01b0383166000908152600a60205260409020548114612a1457600080fd5b612a34565b506001600160a01b0382166000908152600a60205260409020545b6001600160a01b0383166000908152600260205260408120546001805491928392612a60908490613781565b9091555050506001600160a01b0383166000908152600c6020908152604080832054600290925282208190556001805491928392612a9f9084906137e5565b90915550612aaf90508482612e90565b612ab7612f9b565b60405163530e389d60e11b8152600481018390526001600160a01b038581166024830152604482018590527f0000000000000000000000000000000000000000000000000000000000000000169063a61c713a90606401600060405180830381600087803b158015612b2857600080fd5b505af1158015612b3c573d6000803e3d6000fd5b505060408051858152602081018790526001600160a01b03881693507f90890809c654f11d6e72a28fa60149770a0d11ec6c92319d6ceb2bb0a4ea1a1592500160405180910390a250505050565b6000818311612b9957816115af565b5090919050565b6001600160a01b0383166000908152600660209081526040808320546007909252822054601554839291908303612bda5792509050612d88565b6001600160a01b0387166000908152600460205260408120549003612c05579250429150612d889050565b6000612c1083611567565b90506000612c2c6001601554612c269190613781565b896131a3565b90508015612d0557815b612c41600183613781565b8111612d03576000818152601460209081526040918290208251808401909352805483526001015490820181905215612cf0576000601481612c848560016137e5565b8152602001908152602001600020604051806040016040529081600082015481526020016001820154815250509050600080612ccf8e8460000151866000015187602001518d613467565b9092509050612cde82896137e5565b9750612ceb8e89836131b2565b975050505b5080612cfb8161381c565b915050612c36565b505b8615612d7f576000818152601460209081526040918290208251808401909352805483526001015490820181905215612d7d576000612d5e8b612d478d611537565b8451612d53908a612b8a565b85602001518a613467565b509050612d6b81866137e5565b9450612d788b86426131b2565b429550505b505b50909350909150505b935093915050565b6000836001600160a01b03163b11612da757600080fd5b6040516001600160a01b03838116602483015260448201839052600091829186169063a9059cbb60e01b906064015b60408051601f198184030181529181526020820180516001600160e01b03166001600160e01b0319909416939093179092529051612e1491906138a3565b6000604051808303816000865af19150503d8060008114612e51576040519150601f19603f3d011682016040523d82523d6000602084013e612e56565b606091505b5091509150818015612e80575080511580612e80575080806020019051810190612e809190613868565b612e8957600080fd5b5050505050565b6001600160a01b03821660009081526013602052604090205442908015801590612eee57506001600160a01b03841660009081526012602052604081208391612eda600185613781565b815260200190815260200160002060000154145b15612f31576001600160a01b03841660009081526012602052604081208491612f18600185613781565b8152602081019190915260400160002060010155612f95565b60408051808201825283815260208082018681526001600160a01b038816600090815260128352848120868252909252929020905181559051600191820155612f7b9082906137e5565b6001600160a01b0385166000908152601360205260409020555b50505050565b601554428115801590612fcd57508060146000612fb9600186613781565b815260200190815260200160002060000154145b15612ffe5760015460146000600185612fe69190613781565b81526020810191909152604001600020600101555050565b6040805180820182528281526001805460208084019182526000878152601490915293909320915182559151908201556130399083906137e5565b6015555050565b6001600160a01b038216600090815260066020908152604080832054600790925282205460155483929190830361307a5792509050612483565b6001600160a01b03861660009081526004602052604081205490036130a55792504291506124839050565b60006130b083611567565b905060006130cc60016015546130c69190613781565b886131a3565b9050815b818110156131945760008181526014602090815260409182902082518084019093528054835260010154908201819052156131815760006014816131158560016137e5565b81526020019081526020016000206040518060400160405290816000820154815260200160018201548152505090506000806131608d8460000151866000015187602001518d613467565b909250905061316f82896137e5565b975061317c8d89836131b2565b975050505b508061318c8161381c565b9150506130d0565b50919792965091945050505050565b6000818310612b9957816115af565b6001600160a01b038316600090815260176020526040902054801580159061320e57506001600160a01b038416600090815260166020526040812083916131fa600185613781565b815260200190815260200160002060000154145b15613238576001600160a01b03841660009081526016602052604081208491612f18600185613781565b60408051808201825283815260208082018681526001600160a01b0388166000908152601683528481208682529092529290209051815590516001918201556132829082906137e5565b6001600160a01b03851660009081526017602052604090205550505050565b6000846001600160a01b03163b116132b857600080fd5b604080516001600160a01b0385811660248301528481166044830152606480830185905283518084039091018152608490920183526020820180516001600160e01b03166323b872dd60e01b179052915160009283929088169161331c91906138a3565b6000604051808303816000865af19150503d8060008114613359576040519150601f19603f3d011682016040523d82523d6000602084013e61335e565b606091505b50915091508180156133885750805115806133885750808060200190518101906133889190613868565b61339157600080fd5b505050505050565b6000836001600160a01b03163b116133b057600080fd5b6040516001600160a01b03838116602483015260448201839052600091829186169063095ea7b360e01b90606401612dd6565b600f5460005b81811015610fd5576000600f828154811061340657613406613835565b6000918252602090912001546001600160a01b0316905061342b816000196001612ba0565b6001600160a01b03909216600090815260076020908152604080832060069092529091209290925590558061345f8161381c565b9150506133e9565b60008060006134768785612b8a565b6001600160a01b0389166000908152600460205260409020549091508590670de0b6b3a7640000906134c96134ab8a89612b8a565b6001600160a01b038d166000908152600560205260409020546131a3565b6001600160a01b038c166000908152600560205260409020546134ed9086906131a3565b6134f79190613781565b61350191906137fd565b61350b91906137fd565b6135159190613798565b9890975095505050505050565b6001600160a01b038116811461208257600080fd5b803561354281613522565b919050565b6000806040838503121561355a57600080fd5b823561356581613522565b946020939093013593505050565b60006020828403121561358557600080fd5b81356115af81613522565b6000806000606084860312156135a557600080fd5b83356135b081613522565b95602085013595506040909401359392505050565b600080604083850312156135d857600080fd5b82356135e381613522565b915060208301356135f381613522565b809150509250929050565b60006020828403121561361057600080fd5b5035919050565b634e487b7160e01b600052604160045260246000fd5b6000806040838503121561364057600080fd5b823561364b81613522565b915060208381013567ffffffffffffffff8082111561366957600080fd5b818601915086601f83011261367d57600080fd5b81358181111561368f5761368f613617565b8060051b604051601f19603f830116810181811085821117156136b4576136b4613617565b6040529182528482019250838101850191898311156136d257600080fd5b938501935b828510156136f7576136e885613537565b845293850193928501926136d7565b8096505050505050509250929050565b60008060006060848603121561371c57600080fd5b83359250602084013561372e81613522565b9150604084013561373e81613522565b809150509250925092565b6000806040838503121561375c57600080fd5b50508035926020909101359150565b634e487b7160e01b600052601160045260246000fd5b6000828210156137935761379361376b565b500390565b6000826137b557634e487b7160e01b600052601260045260246000fd5b500490565b6020808252601190820152706e6f7420676175676520666163746f727960781b604082015260600190565b600082198211156137f8576137f861376b565b500190565b60008160001904831182151516156138175761381761376b565b500290565b60006001820161382e5761382e61376b565b5060010190565b634e487b7160e01b600052603260045260246000fd5b60006020828403121561385d57600080fd5b81516115af81613522565b60006020828403121561387a57600080fd5b815180151581146115af57600080fd5b60006020828403121561389c57600080fd5b5051919050565b6000825160005b818110156138c457602081860181015185830152016138aa565b818111156138d3576000828501525b50919091019291505056fea264697066735822122047674ca3b5d9d819cf88f40c5f6776a04e1cfdee7d943a4f1df89107f7ffdb2364736f6c634300080d0033","linkReferences":{}},"methodIdentifiers":{"_ve()":"8dd598fb","addOToken(address)":"8ac9ab37","balanceOf(address)":"70a08231","balanceWithLock(address)":"9843bafa","batchRewardPerToken(address,uint256)":"5a45d052","batchUpdateRewardPerToken(address,uint256)":"68fcee1a","checkpoints(address,uint256)":"0cdfebfa","deposit(uint256,uint256)":"e2bbb158","depositAll(uint256)":"c6f678bd","depositFor(address,uint256)":"2f4f21e2","depositWithLock(address,uint256,uint256)":"1f933c2d","derivedBalance(address)":"d35e2544","derivedBalances(address)":"63fb415b","derivedSupply()":"d7da4bb0","earned(address,address)":"211dc32d","external_bribe()":"03fbf83a","fees0()":"93f1c442","fees1()":"4c02a21c","flow()":"343aad82","gaugeFactory()":"0d52333c","getPriorBalanceIndex(address,uint256)":"115c6f39","getPriorRewardPerToken(address,uint256)":"fd314098","getPriorSupplyIndex(uint256)":"76f4be36","getReward(address,address[])":"31279d3d","isForPair()":"e5748213","isOToken(address)":"439e2cfe","isReward(address)":"4d5ce038","lastEarn(address,address)":"a495e5b5","lastTimeRewardApplicable(address)":"638634ee","lastUpdateTime(address)":"2ce9aead","left(address)":"99bcc052","lockEnd(address)":"23792279","notifyRewardAmount(address,uint256)":"b66503cf","numCheckpoints(address)":"6fcfff45","oFlow()":"4665b5c9","periodFinish(address)":"da09d19d","removeOToken(address)":"164a91ec","rewardPerToken(address)":"f1229777","rewardPerTokenCheckpoints(address,uint256)":"01316ddf","rewardPerTokenNumCheckpoints(address)":"aa479652","rewardPerTokenStored(address)":"9ce43f90","rewardRate(address)":"221ca18c","rewards(uint256)":"f301af42","rewardsListLength()":"e6886396","setOFlow(address)":"f00dc8ef","stake()":"3a4b66f1","supplyCheckpoints(uint256)":"f7412baf","supplyNumCheckpoints()":"e8111a12","swapOutRewardToken(uint256,address,address)":"9418f939","tokenIds(address)":"fc97a303","totalSupply()":"18160ddd","userRewardPerTokenStored(address,address)":"3ca068b6","voter()":"46c96aac","withdraw(uint256)":"2e1a7d4d","withdrawAll()":"853828b6","withdrawToken(uint256,uint256)":"fdb483c7"},"id":9}