{"abi":[{"type":"constructor","inputs":[{"name":"_token","type":"address","internalType":"address"},{"name":"_optionToken","type":"address","internalType":"address"},{"name":"_msig","type":"address","internalType":"address"}],"stateMutability":"nonpayable"},{"type":"function","name":"LOCK","inputs":[],"outputs":[{"name":"","type":"uint256","internalType":"uint256"}],"stateMutability":"view"},{"type":"function","name":"PRECISION","inputs":[],"outputs":[{"name":"","type":"uint256","internalType":"uint256"}],"stateMutability":"view"},{"type":"function","name":"claim","inputs":[],"outputs":[{"name":"_tokenId","type":"uint256","internalType":"uint256"}],"stateMutability":"nonpayable"},{"type":"function","name":"claimable","inputs":[{"name":"user","type":"address","internalType":"address"}],"outputs":[{"name":"_claimable","type":"uint256","internalType":"uint256"}],"stateMutability":"view"},{"type":"function","name":"claimableAmount","inputs":[{"name":"","type":"address","internalType":"address"}],"outputs":[{"name":"","type":"uint256","internalType":"uint256"}],"stateMutability":"view"},{"type":"function","name":"deposit","inputs":[{"name":"amount","type":"uint256","internalType":"uint256"}],"outputs":[],"stateMutability":"nonpayable"},{"type":"function","name":"emergencyWithdraw","inputs":[{"name":"_token","type":"address","internalType":"address"},{"name":"amount","type":"uint256","internalType":"uint256"}],"outputs":[],"stateMutability":"nonpayable"},{"type":"function","name":"msig","inputs":[],"outputs":[{"name":"","type":"address","internalType":"address"}],"stateMutability":"view"},{"type":"function","name":"optionToken","inputs":[],"outputs":[{"name":"","type":"address","internalType":"address"}],"stateMutability":"view"},{"type":"function","name":"owner","inputs":[],"outputs":[{"name":"","type":"address","internalType":"address"}],"stateMutability":"view"},{"type":"function","name":"seeded","inputs":[],"outputs":[{"name":"","type":"bool","internalType":"bool"}],"stateMutability":"view"},{"type":"function","name":"setAirdropReceivers","inputs":[{"name":"_who","type":"address[]","internalType":"address[]"},{"name":"_amount","type":"uint256[]","internalType":"uint256[]"}],"outputs":[],"stateMutability":"nonpayable"},{"type":"function","name":"setOwner","inputs":[{"name":"_owner","type":"address","internalType":"address"}],"outputs":[],"stateMutability":"nonpayable"},{"type":"function","name":"token","inputs":[],"outputs":[{"name":"","type":"address","internalType":"contract IERC20"}],"stateMutability":"view"},{"type":"function","name":"totalAirdrop","inputs":[],"outputs":[{"name":"","type":"uint256","internalType":"uint256"}],"stateMutability":"view"},{"type":"function","name":"totalToReceive","inputs":[],"outputs":[{"name":"","type":"uint256","internalType":"uint256"}],"stateMutability":"view"},{"type":"function","name":"totalVeFLOWClaimed","inputs":[],"outputs":[{"name":"","type":"uint256","internalType":"uint256"}],"stateMutability":"view"},{"type":"function","name":"totalWalletsClaimed","inputs":[],"outputs":[{"name":"","type":"uint256","internalType":"uint256"}],"stateMutability":"view"},{"type":"function","name":"totalWalletsIncluded","inputs":[],"outputs":[{"name":"","type":"uint256","internalType":"uint256"}],"stateMutability":"view"},{"type":"function","name":"userClaimed","inputs":[{"name":"","type":"address","internalType":"address"}],"outputs":[{"name":"","type":"bool","internalType":"bool"}],"stateMutability":"view"},{"type":"function","name":"withdraw","inputs":[{"name":"amount","type":"uint256","internalType":"uint256"},{"name":"_token","type":"address","internalType":"address"}],"outputs":[],"stateMutability":"nonpayable"},{"type":"event","name":"AirdropSet","inputs":[{"name":"walletAdded","type":"uint256","indexed":false,"internalType":"uint256"},{"name":"walletTotal","type":"uint256","indexed":false,"internalType":"uint256"},{"name":"veCHRAdded","type":"uint256","indexed":false,"internalType":"uint256"},{"name":"veCHRTotal","type":"uint256","indexed":false,"internalType":"uint256"}],"anonymous":false},{"type":"event","name":"Claimed","inputs":[{"name":"_who","type":"address","indexed":false,"internalType":"address"},{"name":"amount","type":"uint256","indexed":false,"internalType":"uint256"}],"anonymous":false},{"type":"event","name":"Deposit","inputs":[{"name":"amount","type":"uint256","indexed":false,"internalType":"uint256"}],"anonymous":false},{"type":"event","name":"Withdraw","inputs":[{"name":"amount","type":"uint256","indexed":false,"internalType":"uint256"}],"anonymous":false}],"bytecode":{"object":"0x608060405234801561001057600080fd5b5060405161113238038061113283398101604081905261002f916100aa565b600160005560068054610100600160a81b0319163361010002179055600980546001600160a01b03199081166001600160a01b0395861617909155600880548216938516939093179092556007805490921692169190911790556100ed565b80516001600160a01b03811681146100a557600080fd5b919050565b6000806000606084860312156100bf57600080fd5b6100c88461008e565b92506100d66020850161008e565b91506100e46040850161008e565b90509250925092565b611036806100fc6000396000f3fe608060405234801561001057600080fd5b50600436106101365760003560e01c80637bb453bf116100b857806396b826cc1161007c57806396b826cc1461029e578063a4f0d7d0146102a7578063aaf5eb68146102b2578063ac9332e9146102bb578063b6b55f25146102c4578063fc0c546a146102d757600080fd5b80637bb453bf146102375780637dd980a21461024a57806389885049146102535780638da5cb5b1461027357806395ccea671461028b57600080fd5b8063402914f5116100ff578063402914f5146101d35780634534a63f1461020a57806345517f621461021d5780634e71d92d146102265780635ce97dbb1461022e57600080fd5b8062f714ce1461013b57806313af4035146101505780632bab754b14610163578063334041a6146101935780633b7fcdca146101b0575b600080fd5b61014e610149366004610ca5565b6102ea565b005b61014e61015e366004610cd1565b61036f565b600854610176906001600160a01b031681565b6040516001600160a01b0390911681526020015b60405180910390f35b6006546101a09060ff1681565b604051901515815260200161018a565b6101a06101be366004610cd1565b600b6020526000908152604090205460ff1681565b6101fc6101e1366004610cd1565b6001600160a01b03166000908152600a602052604090205490565b60405190815260200161018a565b61014e610218366004610dc9565b6103e2565b6101fc60035481565b6101fc6105a0565b6101fc60015481565b600754610176906001600160a01b031681565b6101fc60045481565b6101fc610261366004610cd1565b600a6020526000908152604090205481565b6006546101769061010090046001600160a01b031681565b61014e610299366004610e89565b610803565b6101fc60055481565b6101fc6301dfe20081565b6101fc6103e881565b6101fc60025481565b61014e6102d2366004610eb3565b610893565b600954610176906001600160a01b031681565b60065461010090046001600160a01b0316331461030657600080fd5b600754610320906001600160a01b03838116911684610928565b81600160008282546103329190610ee2565b90915550506040518281527f5b6b431d4476a211bb7d41c20d1aab9ae2321deee0d20be3d9fc9b1093fa6e3d906020015b60405180910390a15050565b60065461010090046001600160a01b031633146103a75760405162461bcd60e51b815260040161039e90610ef9565b60405180910390fd5b6001600160a01b0381166103ba57600080fd5b600680546001600160a01b0390921661010002610100600160a81b0319909216919091179055565b60065461010090046001600160a01b031633146104115760405162461bcd60e51b815260040161039e90610ef9565b805182511461041f57600080fd5b6000805b835181101561051d5782818151811061043e5761043e610f1c565b6020026020010151600a600086848151811061045c5761045c610f1c565b60200260200101516001600160a01b03166001600160a01b0316815260200190815260200160002060008282546104939190610f32565b925050819055508281815181106104ac576104ac610f1c565b6020026020010151826104bf9190610f32565b91506000600b60008684815181106104d9576104d9610f1c565b6020908102919091018101516001600160a01b03168252810191909152604001600020805460ff19169115159190911790558061051581610f4a565b915050610423565b5080600260008282546105309190610f32565b9091555050825160038054600090610549908490610f32565b909155505082516003546002546040805193845260208401929092528282018490526060830152517fb55d98c9c0ed65c548455eba0235ab22f71e6f2acfe162a3b99cda0ff2fcd19f9181900360800190a1505050565b60006105aa610990565b336000908152600a602052604081205490036105ff5760405162461bcd60e51b81526020600482015260146024820152734e6f2061697264726f7020617661696c61626c6560601b604482015260640161039e565b336000908152600a6020526040808220805490839055600954600854925163095ea7b360e01b81526001600160a01b0393841660048201526024810194909452909291169063095ea7b3906044016020604051808303816000875af115801561066c573d6000803e3d6000fd5b505050506040513d601f19601f820116820180604052508101906106909190610f63565b5060095460085460405163095ea7b360e01b81526001600160a01b0391821660048201526024810184905291169063095ea7b3906044016020604051808303816000875af11580156106e6573d6000803e3d6000fd5b505050506040513d601f19601f8201168201806040525081019061070a9190610f63565b506008546040516340c10f1960e01b8152336004820152602481018390526001600160a01b03909116906340c10f1990604401600060405180830381600087803b15801561075757600080fd5b505af115801561076b573d6000803e3d6000fd5b5050336000908152600b60205260408120805460ff1916600190811790915560048054919450925061079e908490610f32565b9250508190555080600560008282546107b79190610f32565b909155505060408051338152602081018390527fd8138f8a3f377c5259ca548e70e4c2de94f129f5a11036a15b69513cba2b426a910160405180910390a1506108006001600055565b90565b60065461010090046001600160a01b031633146108325760405162461bcd60e51b815260040161039e90610ef9565b60075461084c906001600160a01b03848116911683610928565b806001600082825461085e9190610ee2565b90915550506040518181527f5b6b431d4476a211bb7d41c20d1aab9ae2321deee0d20be3d9fc9b1093fa6e3d90602001610363565b60065461010090046001600160a01b031633146108af57600080fd5b6009546108c7906001600160a01b03163330846109e9565b80600160008282546108d99190610f32565b90915550506006805460ff191660011790556040517f4d6ce1e535dbade1c23defba91e23b8f791ce5edc0cc320257a2b364e4e384269061091d9083815260200190565b60405180910390a150565b6040516001600160a01b03831660248201526044810182905261098b90849063a9059cbb60e01b906064015b60408051601f198184030181529190526020810180516001600160e01b03166001600160e01b031990931692909217909152610a27565b505050565b6002600054036109e25760405162461bcd60e51b815260206004820152601f60248201527f5265656e7472616e637947756172643a207265656e7472616e742063616c6c00604482015260640161039e565b6002600055565b6040516001600160a01b0380851660248301528316604482015260648101829052610a219085906323b872dd60e01b90608401610954565b50505050565b6000610a7c826040518060400160405280602081526020017f5361666545524332303a206c6f772d6c6576656c2063616c6c206661696c6564815250856001600160a01b0316610af99092919063ffffffff16565b80519091501561098b5780806020019051810190610a9a9190610f63565b61098b5760405162461bcd60e51b815260206004820152602a60248201527f5361666545524332303a204552433230206f7065726174696f6e20646964206e6044820152691bdd081cdd58d8d9595960b21b606482015260840161039e565b6060610b088484600085610b10565b949350505050565b606082471015610b715760405162461bcd60e51b815260206004820152602660248201527f416464726573733a20696e73756666696369656e742062616c616e636520666f6044820152651c8818d85b1b60d21b606482015260840161039e565b600080866001600160a01b03168587604051610b8d9190610fb1565b60006040518083038185875af1925050503d8060008114610bca576040519150601f19603f3d011682016040523d82523d6000602084013e610bcf565b606091505b5091509150610be087838387610beb565b979650505050505050565b60608315610c5a578251600003610c53576001600160a01b0385163b610c535760405162461bcd60e51b815260206004820152601d60248201527f416464726573733a2063616c6c20746f206e6f6e2d636f6e7472616374000000604482015260640161039e565b5081610b08565b610b088383815115610c6f5781518083602001fd5b8060405162461bcd60e51b815260040161039e9190610fcd565b80356001600160a01b0381168114610ca057600080fd5b919050565b60008060408385031215610cb857600080fd5b82359150610cc860208401610c89565b90509250929050565b600060208284031215610ce357600080fd5b610cec82610c89565b9392505050565b634e487b7160e01b600052604160045260246000fd5b604051601f8201601f1916810167ffffffffffffffff81118282101715610d3257610d32610cf3565b604052919050565b600067ffffffffffffffff821115610d5457610d54610cf3565b5060051b60200190565b600082601f830112610d6f57600080fd5b81356020610d84610d7f83610d3a565b610d09565b82815260059290921b84018101918181019086841115610da357600080fd5b8286015b84811015610dbe5780358352918301918301610da7565b509695505050505050565b60008060408385031215610ddc57600080fd5b823567ffffffffffffffff80821115610df457600080fd5b818501915085601f830112610e0857600080fd5b81356020610e18610d7f83610d3a565b82815260059290921b84018101918181019089841115610e3757600080fd5b948201945b83861015610e5c57610e4d86610c89565b82529482019490820190610e3c565b96505086013592505080821115610e7257600080fd5b50610e7f85828601610d5e565b9150509250929050565b60008060408385031215610e9c57600080fd5b610ea583610c89565b946020939093013593505050565b600060208284031215610ec557600080fd5b5035919050565b634e487b7160e01b600052601160045260246000fd5b600082821015610ef457610ef4610ecc565b500390565b6020808252600990820152683737ba1037bbb732b960b91b604082015260600190565b634e487b7160e01b600052603260045260246000fd5b60008219821115610f4557610f45610ecc565b500190565b600060018201610f5c57610f5c610ecc565b5060010190565b600060208284031215610f7557600080fd5b81518015158114610cec57600080fd5b60005b83811015610fa0578181015183820152602001610f88565b83811115610a215750506000910152565b60008251610fc3818460208701610f85565b9190910192915050565b6020815260008251806020840152610fec816040850160208701610f85565b601f01601f1916919091016040019291505056fea2646970667358221220204579a713c0cabf4b87ec8a54230c174c47a7d2dcc6bd7aaa0a2e0c1b610d5f64736f6c634300080d0033","linkReferences":{}},"methodIdentifiers":{"LOCK()":"a4f0d7d0","PRECISION()":"aaf5eb68","claim()":"4e71d92d","claimable(address)":"402914f5","claimableAmount(address)":"89885049","deposit(uint256)":"b6b55f25","emergencyWithdraw(address,uint256)":"95ccea67","msig()":"7bb453bf","optionToken()":"2bab754b","owner()":"8da5cb5b","seeded()":"334041a6","setAirdropReceivers(address[],uint256[])":"4534a63f","setOwner(address)":"13af4035","token()":"fc0c546a","totalAirdrop()":"5ce97dbb","totalToReceive()":"ac9332e9","totalVeFLOWClaimed()":"96b826cc","totalWalletsClaimed()":"7dd980a2","totalWalletsIncluded()":"45517f62","userClaimed(address)":"3b7fcdca","withdraw(uint256,address)":"00f714ce"},"id":0}