{"abi":[{"type":"constructor","inputs":[{"name":"_name","type":"string","internalType":"string"},{"name":"_symbol","type":"string","internalType":"string"},{"name":"_admin","type":"address","internalType":"address"},{"name":"_paymentToken","type":"address","internalType":"contract ERC20"},{"name":"_underlyingToken","type":"address","internalType":"contract ERC20"},{"name":"_pair","type":"address","internalType":"contract IPair"},{"name":"_gaugeFactory","type":"address","internalType":"address"},{"name":"_treasury","type":"address","internalType":"address"},{"name":"_discount","type":"uint256","internalType":"uint256"}],"stateMutability":"nonpayable"},{"type":"function","name":"ADMIN_ROLE","inputs":[],"outputs":[{"name":"","type":"bytes32","internalType":"bytes32"}],"stateMutability":"view"},{"type":"function","name":"DEFAULT_ADMIN_ROLE","inputs":[],"outputs":[{"name":"","type":"bytes32","internalType":"bytes32"}],"stateMutability":"view"},{"type":"function","name":"DOMAIN_SEPARATOR","inputs":[],"outputs":[{"name":"","type":"bytes32","internalType":"bytes32"}],"stateMutability":"view"},{"type":"function","name":"MAX_DISCOUNT","inputs":[],"outputs":[{"name":"","type":"uint256","internalType":"uint256"}],"stateMutability":"view"},{"type":"function","name":"MAX_TWAP_POINTS","inputs":[],"outputs":[{"name":"","type":"uint256","internalType":"uint256"}],"stateMutability":"view"},{"type":"function","name":"MINTER_ROLE","inputs":[],"outputs":[{"name":"","type":"bytes32","internalType":"bytes32"}],"stateMutability":"view"},{"type":"function","name":"MIN_DISCOUNT","inputs":[],"outputs":[{"name":"","type":"uint256","internalType":"uint256"}],"stateMutability":"view"},{"type":"function","name":"PAUSER_ROLE","inputs":[],"outputs":[{"name":"","type":"bytes32","internalType":"bytes32"}],"stateMutability":"view"},{"type":"function","name":"allowance","inputs":[{"name":"","type":"address","internalType":"address"},{"name":"","type":"address","internalType":"address"}],"outputs":[{"name":"","type":"uint256","internalType":"uint256"}],"stateMutability":"view"},{"type":"function","name":"approve","inputs":[{"name":"spender","type":"address","internalType":"address"},{"name":"amount","type":"uint256","internalType":"uint256"}],"outputs":[{"name":"","type":"bool","internalType":"bool"}],"stateMutability":"nonpayable"},{"type":"function","name":"balanceOf","inputs":[{"name":"","type":"address","internalType":"address"}],"outputs":[{"name":"","type":"uint256","internalType":"uint256"}],"stateMutability":"view"},{"type":"function","name":"burn","inputs":[{"name":"_amount","type":"uint256","internalType":"uint256"}],"outputs":[],"stateMutability":"nonpayable"},{"type":"function","name":"decimals","inputs":[],"outputs":[{"name":"","type":"uint8","internalType":"uint8"}],"stateMutability":"view"},{"type":"function","name":"discount","inputs":[],"outputs":[{"name":"","type":"uint256","internalType":"uint256"}],"stateMutability":"view"},{"type":"function","name":"exercise","inputs":[{"name":"_amount","type":"uint256","internalType":"uint256"},{"name":"_maxPaymentAmount","type":"uint256","internalType":"uint256"},{"name":"_recipient","type":"address","internalType":"address"},{"name":"_deadline","type":"uint256","internalType":"uint256"}],"outputs":[{"name":"","type":"uint256","internalType":"uint256"}],"stateMutability":"nonpayable"},{"type":"function","name":"exercise","inputs":[{"name":"_amount","type":"uint256","internalType":"uint256"},{"name":"_maxPaymentAmount","type":"uint256","internalType":"uint256"},{"name":"_recipient","type":"address","internalType":"address"}],"outputs":[{"name":"","type":"uint256","internalType":"uint256"}],"stateMutability":"nonpayable"},{"type":"function","name":"getDiscountedPrice","inputs":[{"name":"_amount","type":"uint256","internalType":"uint256"}],"outputs":[{"name":"","type":"uint256","internalType":"uint256"}],"stateMutability":"view"},{"type":"function","name":"getRoleAdmin","inputs":[{"name":"role","type":"bytes32","internalType":"bytes32"}],"outputs":[{"name":"","type":"bytes32","internalType":"bytes32"}],"stateMutability":"view"},{"type":"function","name":"getTimeWeightedAveragePrice","inputs":[{"name":"_amount","type":"uint256","internalType":"uint256"}],"outputs":[{"name":"","type":"uint256","internalType":"uint256"}],"stateMutability":"view"},{"type":"function","name":"grantRole","inputs":[{"name":"role","type":"bytes32","internalType":"bytes32"},{"name":"account","type":"address","internalType":"address"}],"outputs":[],"stateMutability":"nonpayable"},{"type":"function","name":"hasRole","inputs":[{"name":"role","type":"bytes32","internalType":"bytes32"},{"name":"account","type":"address","internalType":"address"}],"outputs":[{"name":"","type":"bool","internalType":"bool"}],"stateMutability":"view"},{"type":"function","name":"isPaused","inputs":[],"outputs":[{"name":"","type":"bool","internalType":"bool"}],"stateMutability":"view"},{"type":"function","name":"mint","inputs":[{"name":"_to","type":"address","internalType":"address"},{"name":"_amount","type":"uint256","internalType":"uint256"}],"outputs":[],"stateMutability":"nonpayable"},{"type":"function","name":"name","inputs":[],"outputs":[{"name":"","type":"string","internalType":"string"}],"stateMutability":"view"},{"type":"function","name":"nonces","inputs":[{"name":"","type":"address","internalType":"address"}],"outputs":[{"name":"","type":"uint256","internalType":"uint256"}],"stateMutability":"view"},{"type":"function","name":"pair","inputs":[],"outputs":[{"name":"","type":"address","internalType":"contract IPair"}],"stateMutability":"view"},{"type":"function","name":"pause","inputs":[],"outputs":[],"stateMutability":"nonpayable"},{"type":"function","name":"paymentToken","inputs":[],"outputs":[{"name":"","type":"address","internalType":"contract ERC20"}],"stateMutability":"view"},{"type":"function","name":"permit","inputs":[{"name":"owner","type":"address","internalType":"address"},{"name":"spender","type":"address","internalType":"address"},{"name":"value","type":"uint256","internalType":"uint256"},{"name":"deadline","type":"uint256","internalType":"uint256"},{"name":"v","type":"uint8","internalType":"uint8"},{"name":"r","type":"bytes32","internalType":"bytes32"},{"name":"s","type":"bytes32","internalType":"bytes32"}],"outputs":[],"stateMutability":"nonpayable"},{"type":"function","name":"renounceRole","inputs":[{"name":"role","type":"bytes32","internalType":"bytes32"},{"name":"account","type":"address","internalType":"address"}],"outputs":[],"stateMutability":"nonpayable"},{"type":"function","name":"revokeRole","inputs":[{"name":"role","type":"bytes32","internalType":"bytes32"},{"name":"account","type":"address","internalType":"address"}],"outputs":[],"stateMutability":"nonpayable"},{"type":"function","name":"setDiscount","inputs":[{"name":"_discount","type":"uint256","internalType":"uint256"}],"outputs":[],"stateMutability":"nonpayable"},{"type":"function","name":"setPairAndPaymentToken","inputs":[{"name":"_pair","type":"address","internalType":"contract IPair"},{"name":"_paymentToken","type":"address","internalType":"address"}],"outputs":[],"stateMutability":"nonpayable"},{"type":"function","name":"setTreasury","inputs":[{"name":"_treasury","type":"address","internalType":"address"}],"outputs":[],"stateMutability":"nonpayable"},{"type":"function","name":"setTwapPoints","inputs":[{"name":"_twapPoints","type":"uint256","internalType":"uint256"}],"outputs":[],"stateMutability":"nonpayable"},{"type":"function","name":"supportsInterface","inputs":[{"name":"interfaceId","type":"bytes4","internalType":"bytes4"}],"outputs":[{"name":"","type":"bool","internalType":"bool"}],"stateMutability":"view"},{"type":"function","name":"symbol","inputs":[],"outputs":[{"name":"","type":"string","internalType":"string"}],"stateMutability":"view"},{"type":"function","name":"totalSupply","inputs":[],"outputs":[{"name":"","type":"uint256","internalType":"uint256"}],"stateMutability":"view"},{"type":"function","name":"transfer","inputs":[{"name":"to","type":"address","internalType":"address"},{"name":"amount","type":"uint256","internalType":"uint256"}],"outputs":[{"name":"","type":"bool","internalType":"bool"}],"stateMutability":"nonpayable"},{"type":"function","name":"transferFrom","inputs":[{"name":"from","type":"address","internalType":"address"},{"name":"to","type":"address","internalType":"address"},{"name":"amount","type":"uint256","internalType":"uint256"}],"outputs":[{"name":"","type":"bool","internalType":"bool"}],"stateMutability":"nonpayable"},{"type":"function","name":"treasury","inputs":[],"outputs":[{"name":"","type":"address","internalType":"address"}],"stateMutability":"view"},{"type":"function","name":"twapPoints","inputs":[],"outputs":[{"name":"","type":"uint256","internalType":"uint256"}],"stateMutability":"view"},{"type":"function","name":"unPause","inputs":[],"outputs":[],"stateMutability":"nonpayable"},{"type":"function","name":"underlyingToken","inputs":[],"outputs":[{"name":"","type":"address","internalType":"contract ERC20"}],"stateMutability":"view"},{"type":"event","name":"Approval","inputs":[{"name":"owner","type":"address","indexed":true,"internalType":"address"},{"name":"spender","type":"address","indexed":true,"internalType":"address"},{"name":"amount","type":"uint256","indexed":false,"internalType":"uint256"}],"anonymous":false},{"type":"event","name":"Exercise","inputs":[{"name":"sender","type":"address","indexed":true,"internalType":"address"},{"name":"recipient","type":"address","indexed":true,"internalType":"address"},{"name":"amount","type":"uint256","indexed":false,"internalType":"uint256"},{"name":"paymentAmount","type":"uint256","indexed":false,"internalType":"uint256"}],"anonymous":false},{"type":"event","name":"PauseStateChanged","inputs":[{"name":"isPaused","type":"bool","indexed":false,"internalType":"bool"}],"anonymous":false},{"type":"event","name":"RoleAdminChanged","inputs":[{"name":"role","type":"bytes32","indexed":true,"internalType":"bytes32"},{"name":"previousAdminRole","type":"bytes32","indexed":true,"internalType":"bytes32"},{"name":"newAdminRole","type":"bytes32","indexed":true,"internalType":"bytes32"}],"anonymous":false},{"type":"event","name":"RoleGranted","inputs":[{"name":"role","type":"bytes32","indexed":true,"internalType":"bytes32"},{"name":"account","type":"address","indexed":true,"internalType":"address"},{"name":"sender","type":"address","indexed":true,"internalType":"address"}],"anonymous":false},{"type":"event","name":"RoleRevoked","inputs":[{"name":"role","type":"bytes32","indexed":true,"internalType":"bytes32"},{"name":"account","type":"address","indexed":true,"internalType":"address"},{"name":"sender","type":"address","indexed":true,"internalType":"address"}],"anonymous":false},{"type":"event","name":"SetDiscount","inputs":[{"name":"discount","type":"uint256","indexed":false,"internalType":"uint256"}],"anonymous":false},{"type":"event","name":"SetPairAndPaymentToken","inputs":[{"name":"newPair","type":"address","indexed":true,"internalType":"contract IPair"},{"name":"newPaymentToken","type":"address","indexed":true,"internalType":"address"}],"anonymous":false},{"type":"event","name":"SetTreasury","inputs":[{"name":"newTreasury","type":"address","indexed":true,"internalType":"address"}],"anonymous":false},{"type":"event","name":"SetTwapPoints","inputs":[{"name":"twapPoints","type":"uint256","indexed":false,"internalType":"uint256"}],"anonymous":false},{"type":"event","name":"Transfer","inputs":[{"name":"from","type":"address","indexed":true,"internalType":"address"},{"name":"to","type":"address","indexed":true,"internalType":"address"},{"name":"amount","type":"uint256","indexed":false,"internalType":"uint256"}],"anonymous":false},{"type":"error","name":"OptionToken_IncorrectPairToken","inputs":[]},{"type":"error","name":"OptionToken_InvalidDiscount","inputs":[]},{"type":"error","name":"OptionToken_InvalidTwapPoints","inputs":[]},{"type":"error","name":"OptionToken_NoAdminRole","inputs":[]},{"type":"error","name":"OptionToken_NoMinterRole","inputs":[]},{"type":"error","name":"OptionToken_NoPauserRole","inputs":[]},{"type":"error","name":"OptionToken_PastDeadline","inputs":[]},{"type":"error","name":"OptionToken_Paused","inputs":[]},{"type":"error","name":"OptionToken_SlippageTooHigh","inputs":[]}],"bytecode":{"object":"0x6101006040526004600b553480156200001757600080fd5b506040516200284f3803806200284f8339810160408190526200003a9162000592565b88886012826000908051906020019062000056929190620003f4565b5081516200006c906001906020850190620003f4565b5060ff81166080524660a0526200008262000268565b60c05250620000a591506000805160206200282f83398151915290508862000304565b620000d17f539440820030c4994db4e31b6b800deafd503688728f932addfe7a410515c14c8862000304565b620000ec6000805160206200282f8339815191528462000304565b620001076000805160206200282f83398151915280620003a9565b620001427ff0887ba65ee2024ea881d91b74c2450ef19e1557f03bed3ea9f16b037cbe2dc96000805160206200282f833981519152620003a9565b6200017d7f539440820030c4994db4e31b6b800deafd503688728f932addfe7a410515c14c6000805160206200282f833981519152620003a9565b600780546001600160a01b038089166001600160a01b0319928316811790935587811660e052600880548883169084168117909155600980549287169290931691909117909155600a8390556040517f8f7f94e208aee73a455947efb48867081ee05f8c16656f34f471c2fec95b8d6e90600090a36040516001600160a01b038316907fcb7ef3e545f5cdb893f5c568ba710fe08f336375a2d9fd66e161033f8fc09ef390600090a26040518181527ff247e4dd947ab13ba6c46412e403447a26e67109ba13945a20e3170e9acef8839060200160405180910390a15050505050505050506200075a565b60007f8b73c3c69bb8fe3d512ecc4cf759cc79239f7b179b0ffacaa9a75d522b39400f60006040516200029c9190620006b7565b6040805191829003822060208301939093528101919091527fc89efdaa54c0f20c7adf612882df0950f5a951637e0307cdcb4c672f298b8bc660608201524660808201523060a082015260c00160405160208183030381529060405280519060200120905090565b60008281526006602090815260408083206001600160a01b038516845290915290205460ff16620003a55760008281526006602090815260408083206001600160a01b03851684529091529020805460ff19166001179055620003643390565b6001600160a01b0316816001600160a01b0316837f2f8788117e7eff1d82e926ec794901d17c78024a50270940304540a733656f0d60405160405180910390a45b5050565b600082815260066020526040808220600101805490849055905190918391839186917fbd79b86ffe0ab8e8776151514217cd7cacd52c909f66475c3af44e129f0b00ff9190a4505050565b82805462000402906200067b565b90600052602060002090601f01602090048101928262000426576000855562000471565b82601f106200044157805160ff191683800117855562000471565b8280016001018555821562000471579182015b828111156200047157825182559160200191906001019062000454565b506200047f92915062000483565b5090565b5b808211156200047f576000815560010162000484565b634e487b7160e01b600052604160045260246000fd5b600082601f830112620004c257600080fd5b81516001600160401b0380821115620004df57620004df6200049a565b604051601f8301601f19908116603f011681019082821181831017156200050a576200050a6200049a565b816040528381526020925086838588010111156200052757600080fd5b600091505b838210156200054b57858201830151818301840152908201906200052c565b838211156200055d5760008385830101525b9695505050505050565b6001600160a01b03811681146200057d57600080fd5b50565b80516200058d8162000567565b919050565b60008060008060008060008060006101208a8c031215620005b257600080fd5b89516001600160401b0380821115620005ca57600080fd5b620005d88d838e01620004b0565b9a5060208c0151915080821115620005ef57600080fd5b50620005fe8c828d01620004b0565b98505060408a0151620006118162000567565b60608b0151909750620006248162000567565b95506200063460808b0162000580565b94506200064460a08b0162000580565b93506200065460c08b0162000580565b92506200066460e08b0162000580565b91506101008a015190509295985092959850929598565b600181811c908216806200069057607f821691505b602082108103620006b157634e487b7160e01b600052602260045260246000fd5b50919050565b600080835481600182811c915080831680620006d457607f831692505b60208084108203620006f457634e487b7160e01b86526022600452602486fd5b8180156200070b57600181146200071d576200074c565b60ff198616895284890196506200074c565b60008a81526020902060005b86811015620007445781548b82015290850190830162000729565b505084890196505b509498975050505050505050565b60805160a05160c05160e051612071620007be6000396000818161031b015281816109e701528181610ab801528181610fdf0152818161130d015281816113490152611765015260006108b6015260006108810152600061038a01526120716000f3fe608060405234801561001057600080fd5b50600436106102745760003560e01c80638456cb5911610151578063d547741f116100c3578063e63ab1e911610087578063e63ab1e9146105a3578063e8772bb2146105ca578063f0f44260146105dd578063f7b188a5146105f0578063fa4473b3146105f8578063fb1d6bd91461060b57600080fd5b8063d547741f14610537578063d6379b721461054a578063dabd27191461055d578063dd62ed3e14610570578063e34955691461059b57600080fd5b8063a217fddf11610115578063a217fddf14610355578063a8aa1b31146104ca578063a9059cbb146104dd578063b187bd26146104f0578063d505accf146104fd578063d53913931461051057600080fd5b80638456cb591461048c578063881326b31461049457806391d148541461049c57806395d89b41146104af578063a1d50c3a146104b757600080fd5b8063339ccade116101ea5780635d283021116101ae5780635d2830211461041257806361d027b31461041b5780636b6f4a9d1461042e57806370a082311461043757806375b238fc146104575780637ecebe001461046c57600080fd5b8063339ccade146103be5780633644e515146103d157806336568abe146103d957806340c10f19146103ec57806342966c68146103ff57600080fd5b8063248a9ca31161023c578063248a9ca3146102f35780632495a599146103165780632ac8a92c146103555780632f2ff15d1461035d5780633013ce2914610372578063313ce5671461038557600080fd5b806301ffc9a71461027957806306fdde03146102a1578063095ea7b3146102b657806318160ddd146102c957806323b872dd146102e0575b600080fd5b61028c610287366004611a2e565b61061e565b60405190151581526020015b60405180910390f35b6102a9610655565b6040516102989190611a88565b61028c6102c4366004611ad0565b6106e3565b6102d260025481565b604051908152602001610298565b61028c6102ee366004611afc565b61074f565b6102d2610301366004611b3d565b60009081526006602052604090206001015490565b61033d7f000000000000000000000000000000000000000000000000000000000000000081565b6040516001600160a01b039091168152602001610298565b6102d2600081565b61037061036b366004611b56565b61082f565b005b60075461033d906001600160a01b031681565b6103ac7f000000000000000000000000000000000000000000000000000000000000000081565b60405160ff9091168152602001610298565b6102d26103cc366004611b3d565b610859565b6102d261087d565b6103706103e7366004611b56565b6108d8565b6103706103fa366004611ad0565b61095b565b61037061040d366004611b3d565b610a67565b6102d2600b5481565b60095461033d906001600160a01b031681565b6102d2600a5481565b6102d2610445366004611b86565b60036020526000908152604090205481565b6102d2600080516020611ffc83398151915281565b6102d261047a366004611b86565b60056020526000908152604090205481565b610370610b3b565b6102d2603281565b61028c6104aa366004611b56565b610bd3565b6102a9610bfe565b6102d26104c5366004611ba3565b610c0b565b60085461033d906001600160a01b031681565b61028c6104eb366004611ad0565b610c42565b600c5461028c9060ff1681565b61037061050b366004611be2565b610ca8565b6102d27ff0887ba65ee2024ea881d91b74c2450ef19e1557f03bed3ea9f16b037cbe2dc981565b610370610545366004611b56565b610eec565b6102d2610558366004611c59565b610f11565b61037061056b366004611b3d565b610f26565b6102d261057e366004611c92565b600460209081526000928352604080842090915290825290205481565b6102d2606481565b6102d27f539440820030c4994db4e31b6b800deafd503688728f932addfe7a410515c14c81565b6102d26105d8366004611b3d565b610fc2565b6103706105eb366004611b86565b6110c1565b610370611140565b610370610606366004611b3d565b6111bb565b610370610619366004611c92565b611250565b60006001600160e01b03198216637965db0b60e01b148061064f57506301ffc9a760e01b6001600160e01b03198316145b92915050565b6000805461066290611cc0565b80601f016020809104026020016040519081016040528092919081815260200182805461068e90611cc0565b80156106db5780601f106106b0576101008083540402835291602001916106db565b820191906000526020600020905b8154815290600101906020018083116106be57829003601f168201915b505050505081565b3360008181526004602090815260408083206001600160a01b038716808552925280832085905551919290917f8c5be1e5ebec7d5bd14f71427d1e84f3dd0314c0f7b2291e5b200ac8c7c3b9259061073e9086815260200190565b60405180910390a350600192915050565b6001600160a01b038316600090815260046020908152604080832033845290915281205460001981146107ab576107868382611d10565b6001600160a01b03861660009081526004602090815260408083203384529091529020555b6001600160a01b038516600090815260036020526040812080548592906107d3908490611d10565b90915550506001600160a01b038085166000818152600360205260409081902080548701905551909187169060008051602061201c8339815191529061081c9087815260200190565b60405180910390a3506001949350505050565b60008281526006602052604090206001015461084a81611416565b6108548383611420565b505050565b60006064600a5461086984610fc2565b6108739190611d27565b61064f9190611d46565b60007f000000000000000000000000000000000000000000000000000000000000000046146108b3576108ae6114a6565b905090565b507f000000000000000000000000000000000000000000000000000000000000000090565b6001600160a01b038116331461094d5760405162461bcd60e51b815260206004820152602f60248201527f416363657373436f6e74726f6c3a2063616e206f6e6c792072656e6f756e636560448201526e103937b632b9903337b91039b2b63360891b60648201526084015b60405180910390fd5b6109578282611540565b5050565b610973600080516020611ffc83398151915233610bd3565b1580156109a757506109a57ff0887ba65ee2024ea881d91b74c2450ef19e1557f03bed3ea9f16b037cbe2dc933610bd3565b155b156109c557604051634fcb6d0160e01b815260040160405180910390fd5b6040516323b872dd60e01b8152336004820152306024820152604481018290527f00000000000000000000000000000000000000000000000000000000000000006001600160a01b0316906323b872dd906064016020604051808303816000875af1158015610a38573d6000803e3d6000fd5b505050506040513d601f19601f82011682018060405250810190610a5c9190611d68565b5061095782826115a7565b610a7f600080516020611ffc83398151915233610bd3565b610a9c5760405163f982dd0f60e01b815260040160405180910390fd5b60405163a9059cbb60e01b8152336004820152602481018290527f00000000000000000000000000000000000000000000000000000000000000006001600160a01b03169063a9059cbb906044016020604051808303816000875af1158015610b09573d6000803e3d6000fd5b505050506040513d601f19601f82011682018060405250810190610b2d9190611d68565b50610b383382611601565b50565b610b657f539440820030c4994db4e31b6b800deafd503688728f932addfe7a410515c14c33610bd3565b610b82576040516316390a3f60e31b815260040160405180910390fd5b600c5460ff16610bd157600c805460ff191660019081179091556040519081527f4543baa938cb97f5073ec206ad35638cdb1f4db8f677d31579b2f6fe7d18c14a906020015b60405180910390a15b565b60009182526006602090815260408084206001600160a01b0393909316845291905290205460ff1690565b6001805461066290611cc0565b600081421115610c2e57604051632d56313160e11b815260040160405180910390fd5b610c39858585611663565b95945050505050565b33600090815260036020526040812080548391908390610c63908490611d10565b90915550506001600160a01b0383166000818152600360205260409081902080548501905551339060008051602061201c8339815191529061073e9086815260200190565b42841015610cf85760405162461bcd60e51b815260206004820152601760248201527f5045524d49545f444541444c494e455f455850495245440000000000000000006044820152606401610944565b60006001610d0461087d565b6001600160a01b038a811660008181526005602090815260409182902080546001810190915582517f6e71edae12b1b97f4d1f60370fef10105fa2faae0126114a169c64845d6126c98184015280840194909452938d166060840152608083018c905260a083019390935260c08083018b90528151808403909101815260e08301909152805192019190912061190160f01b6101008301526101028201929092526101228101919091526101420160408051601f198184030181528282528051602091820120600084529083018083525260ff871690820152606081018590526080810184905260a0016020604051602081039080840390855afa158015610e10573d6000803e3d6000fd5b5050604051601f1901519150506001600160a01b03811615801590610e465750876001600160a01b0316816001600160a01b0316145b610e835760405162461bcd60e51b815260206004820152600e60248201526d24a72b20a624a22fa9a4a3a722a960911b6044820152606401610944565b6001600160a01b0390811660009081526004602090815260408083208a8516808552908352928190208990555188815291928a16917f8c5be1e5ebec7d5bd14f71427d1e84f3dd0314c0f7b2291e5b200ac8c7c3b925910160405180910390a350505050505050565b600082815260066020526040902060010154610f0781611416565b6108548383611540565b6000610f1e848484611663565b949350505050565b610f3e600080516020611ffc83398151915233610bd3565b610f5b5760405163f982dd0f60e01b815260040160405180910390fd5b6064811180610f68575080155b15610f86576040516304a5f22d60e41b815260040160405180910390fd5b600a8190556040518181527ff247e4dd947ab13ba6c46412e403447a26e67109ba13945a20e3170e9acef883906020015b60405180910390a150565b600854600b54604051635881c47560e01b81526001600160a01b037f00000000000000000000000000000000000000000000000000000000000000008116600483015260248201859052604482019290925260009283921690635881c47590606401600060405180830381865afa158015611041573d6000803e3d6000fd5b505050506040513d6000823e601f3d908101601f191682016040526110699190810190611da0565b80519091506000805b828110156110b35783818151811061108c5761108c611e5e565b60200260200101518261109f9190611e74565b9150806110ab81611e8c565b915050611072565b50600b54610c399082611d46565b6110d9600080516020611ffc83398151915233610bd3565b6110f65760405163f982dd0f60e01b815260040160405180910390fd5b600980546001600160a01b0319166001600160a01b0383169081179091556040517fcb7ef3e545f5cdb893f5c568ba710fe08f336375a2d9fd66e161033f8fc09ef390600090a250565b611158600080516020611ffc83398151915233610bd3565b6111755760405163f982dd0f60e01b815260040160405180910390fd5b600c5460ff1615610bd157600c805460ff19169055604051600081527f4543baa938cb97f5073ec206ad35638cdb1f4db8f677d31579b2f6fe7d18c14a90602001610bc8565b6111d3600080516020611ffc83398151915233610bd3565b6111f05760405163f982dd0f60e01b815260040160405180910390fd5b60328111806111fd575080155b1561121b57604051630ac0408560e01b815260040160405180910390fd5b600b8190556040518181527f0ede3419bb2e44475a8c470a557b5e3fa75d2ea0c4a8519c9600579d4091678d90602001610fb7565b611268600080516020611ffc83398151915233610bd3565b6112855760405163f982dd0f60e01b815260040160405180910390fd5b600080836001600160a01b0316639d63848a6040518163ffffffff1660e01b815260040160408051808303816000875af11580156112c7573d6000803e3d6000fd5b505050506040513d601f19601f820116820180604052508101906112eb9190611ea5565b91509150826001600160a01b0316826001600160a01b031614801561134157507f00000000000000000000000000000000000000000000000000000000000000006001600160a01b0316816001600160a01b0316145b8061139957507f00000000000000000000000000000000000000000000000000000000000000006001600160a01b0316826001600160a01b03161480156113995750826001600160a01b0316816001600160a01b0316145b6113b65760405163a818b0ad60e01b815260040160405180910390fd5b600880546001600160a01b03199081166001600160a01b03878116918217909355600780549092169286169283179091556040517f8f7f94e208aee73a455947efb48867081ee05f8c16656f34f471c2fec95b8d6e90600090a350505050565b610b388133611820565b61142a8282610bd3565b6109575760008281526006602090815260408083206001600160a01b03851684529091529020805460ff191660011790556114623390565b6001600160a01b0316816001600160a01b0316837f2f8788117e7eff1d82e926ec794901d17c78024a50270940304540a733656f0d60405160405180910390a45050565b60007f8b73c3c69bb8fe3d512ecc4cf759cc79239f7b179b0ffacaa9a75d522b39400f60006040516114d89190611ed4565b6040805191829003822060208301939093528101919091527fc89efdaa54c0f20c7adf612882df0950f5a951637e0307cdcb4c672f298b8bc660608201524660808201523060a082015260c00160405160208183030381529060405280519060200120905090565b61154a8282610bd3565b156109575760008281526006602090815260408083206001600160a01b0385168085529252808320805460ff1916905551339285917ff6391f5c32d9c69d2a47ea670b442974b53935d1edc7fd64eb21e047a839171b9190a45050565b80600260008282546115b99190611e74565b90915550506001600160a01b03821660008181526003602090815260408083208054860190555184815260008051602061201c83398151915291015b60405180910390a35050565b6001600160a01b03821660009081526003602052604081208054839290611629908490611d10565b90915550506002805482900390556040518181526000906001600160a01b0384169060008051602061201c833981519152906020016115f5565b600c5460009060ff16156116895760405162b4aa3760e01b815260040160405180910390fd5b6116933385611601565b61169c84610859565b9050828111156116bf576040516323a4850d60e21b815260040160405180910390fd5b6007546009546040516323b872dd60e01b81523360048201526001600160a01b039182166024820152604481018490529116906323b872dd906064016020604051808303816000875af115801561171a573d6000803e3d6000fd5b505050506040513d601f19601f8201168201806040525081019061173e9190611d68565b5060405163a9059cbb60e01b81526001600160a01b038381166004830152602482018690527f0000000000000000000000000000000000000000000000000000000000000000169063a9059cbb906044016020604051808303816000875af11580156117ae573d6000803e3d6000fd5b505050506040513d601f19601f820116820180604052508101906117d29190611d68565b5060408051858152602081018390526001600160a01b0384169133917fb1c971764663d561c0ec2baf395a55f33f0a79fabb35bbad580247ba2959523d910160405180910390a39392505050565b61182a8282610bd3565b6109575761183781611879565b61184283602061188b565b604051602001611853929190611f6f565b60408051601f198184030181529082905262461bcd60e51b825261094491600401611a88565b606061064f6001600160a01b03831660145b6060600061189a836002611d27565b6118a5906002611e74565b67ffffffffffffffff8111156118bd576118bd611d8a565b6040519080825280601f01601f1916602001820160405280156118e7576020820181803683370190505b509050600360fc1b8160008151811061190257611902611e5e565b60200101906001600160f81b031916908160001a905350600f60fb1b8160018151811061193157611931611e5e565b60200101906001600160f81b031916908160001a9053506000611955846002611d27565b611960906001611e74565b90505b60018111156119d8576f181899199a1a9b1b9c1cb0b131b232b360811b85600f166010811061199457611994611e5e565b1a60f81b8282815181106119aa576119aa611e5e565b60200101906001600160f81b031916908160001a90535060049490941c936119d181611fe4565b9050611963565b508315611a275760405162461bcd60e51b815260206004820181905260248201527f537472696e67733a20686578206c656e67746820696e73756666696369656e746044820152606401610944565b9392505050565b600060208284031215611a4057600080fd5b81356001600160e01b031981168114611a2757600080fd5b60005b83811015611a73578181015183820152602001611a5b565b83811115611a82576000848401525b50505050565b6020815260008251806020840152611aa7816040850160208701611a58565b601f01601f19169190910160400192915050565b6001600160a01b0381168114610b3857600080fd5b60008060408385031215611ae357600080fd5b8235611aee81611abb565b946020939093013593505050565b600080600060608486031215611b1157600080fd5b8335611b1c81611abb565b92506020840135611b2c81611abb565b929592945050506040919091013590565b600060208284031215611b4f57600080fd5b5035919050565b60008060408385031215611b6957600080fd5b823591506020830135611b7b81611abb565b809150509250929050565b600060208284031215611b9857600080fd5b8135611a2781611abb565b60008060008060808587031215611bb957600080fd5b84359350602085013592506040850135611bd281611abb565b9396929550929360600135925050565b600080600080600080600060e0888a031215611bfd57600080fd5b8735611c0881611abb565b96506020880135611c1881611abb565b95506040880135945060608801359350608088013560ff81168114611c3c57600080fd5b9699959850939692959460a0840135945060c09093013592915050565b600080600060608486031215611c6e57600080fd5b83359250602084013591506040840135611c8781611abb565b809150509250925092565b60008060408385031215611ca557600080fd5b8235611cb081611abb565b91506020830135611b7b81611abb565b600181811c90821680611cd457607f821691505b602082108103611cf457634e487b7160e01b600052602260045260246000fd5b50919050565b634e487b7160e01b600052601160045260246000fd5b600082821015611d2257611d22611cfa565b500390565b6000816000190483118215151615611d4157611d41611cfa565b500290565b600082611d6357634e487b7160e01b600052601260045260246000fd5b500490565b600060208284031215611d7a57600080fd5b81518015158114611a2757600080fd5b634e487b7160e01b600052604160045260246000fd5b60006020808385031215611db357600080fd5b825167ffffffffffffffff80821115611dcb57600080fd5b818501915085601f830112611ddf57600080fd5b815181811115611df157611df1611d8a565b8060051b604051601f19603f83011681018181108582111715611e1657611e16611d8a565b604052918252848201925083810185019188831115611e3457600080fd5b938501935b82851015611e5257845184529385019392850192611e39565b98975050505050505050565b634e487b7160e01b600052603260045260246000fd5b60008219821115611e8757611e87611cfa565b500190565b600060018201611e9e57611e9e611cfa565b5060010190565b60008060408385031215611eb857600080fd5b8251611ec381611abb565b6020840151909250611b7b81611abb565b600080835481600182811c915080831680611ef057607f831692505b60208084108203611f0f57634e487b7160e01b86526022600452602486fd5b818015611f235760018114611f3457611f61565b60ff19861689528489019650611f61565b60008a81526020902060005b86811015611f595781548b820152908501908301611f40565b505084890196505b509498975050505050505050565b7f416363657373436f6e74726f6c3a206163636f756e7420000000000000000000815260008351611fa7816017850160208801611a58565b7001034b99036b4b9b9b4b733903937b6329607d1b6017918401918201528351611fd8816028840160208801611a58565b01602801949350505050565b600081611ff357611ff3611cfa565b50600019019056fedf8b4c520ffe197c5343c6f5aec59570151ef9a492f2c624fd45ddde6135ec42ddf252ad1be2c89b69c2b068fc378daa952ba7f163c4a11628f55a4df523b3efa264697066735822122098a51aeae0438397fc24845312f44ee08036c35d50a752da637fd38af9bc867d64736f6c634300080d0033df8b4c520ffe197c5343c6f5aec59570151ef9a492f2c624fd45ddde6135ec42","linkReferences":{}},"methodIdentifiers":{"ADMIN_ROLE()":"75b238fc","DEFAULT_ADMIN_ROLE()":"a217fddf","DOMAIN_SEPARATOR()":"3644e515","MAX_DISCOUNT()":"e3495569","MAX_TWAP_POINTS()":"881326b3","MINTER_ROLE()":"d5391393","MIN_DISCOUNT()":"2ac8a92c","PAUSER_ROLE()":"e63ab1e9","allowance(address,address)":"dd62ed3e","approve(address,uint256)":"095ea7b3","balanceOf(address)":"70a08231","burn(uint256)":"42966c68","decimals()":"313ce567","discount()":"6b6f4a9d","exercise(uint256,uint256,address)":"d6379b72","exercise(uint256,uint256,address,uint256)":"a1d50c3a","getDiscountedPrice(uint256)":"339ccade","getRoleAdmin(bytes32)":"248a9ca3","getTimeWeightedAveragePrice(uint256)":"e8772bb2","grantRole(bytes32,address)":"2f2ff15d","hasRole(bytes32,address)":"91d14854","isPaused()":"b187bd26","mint(address,uint256)":"40c10f19","name()":"06fdde03","nonces(address)":"7ecebe00","pair()":"a8aa1b31","pause()":"8456cb59","paymentToken()":"3013ce29","permit(address,address,uint256,uint256,uint8,bytes32,bytes32)":"d505accf","renounceRole(bytes32,address)":"36568abe","revokeRole(bytes32,address)":"d547741f","setDiscount(uint256)":"dabd2719","setPairAndPaymentToken(address,address)":"fb1d6bd9","setTreasury(address)":"f0f44260","setTwapPoints(uint256)":"fa4473b3","supportsInterface(bytes4)":"01ffc9a7","symbol()":"95d89b41","totalSupply()":"18160ddd","transfer(address,uint256)":"a9059cbb","transferFrom(address,address,uint256)":"23b872dd","treasury()":"61d027b3","twapPoints()":"5d283021","unPause()":"f7b188a5","underlyingToken()":"2495a599"},"id":13}