{"abi":[{"type":"constructor","inputs":[{"name":"_factory","type":"address","internalType":"address"},{"name":"_weth","type":"address","internalType":"address"}],"stateMutability":"nonpayable"},{"type":"receive","stateMutability":"payable"},{"type":"function","name":"UNSAFE_swapExactTokensForTokens","inputs":[{"name":"amounts","type":"uint256[]","internalType":"uint256[]"},{"name":"routes","type":"tuple[]","internalType":"struct Router.route[]","components":[{"name":"from","type":"address","internalType":"address"},{"name":"to","type":"address","internalType":"address"},{"name":"stable","type":"bool","internalType":"bool"}]},{"name":"to","type":"address","internalType":"address"},{"name":"deadline","type":"uint256","internalType":"uint256"}],"outputs":[{"name":"","type":"uint256[]","internalType":"uint256[]"}],"stateMutability":"nonpayable"},{"type":"function","name":"addLiquidity","inputs":[{"name":"tokenA","type":"address","internalType":"address"},{"name":"tokenB","type":"address","internalType":"address"},{"name":"stable","type":"bool","internalType":"bool"},{"name":"amountADesired","type":"uint256","internalType":"uint256"},{"name":"amountBDesired","type":"uint256","internalType":"uint256"},{"name":"amountAMin","type":"uint256","internalType":"uint256"},{"name":"amountBMin","type":"uint256","internalType":"uint256"},{"name":"to","type":"address","internalType":"address"},{"name":"deadline","type":"uint256","internalType":"uint256"}],"outputs":[{"name":"amountA","type":"uint256","internalType":"uint256"},{"name":"amountB","type":"uint256","internalType":"uint256"},{"name":"liquidity","type":"uint256","internalType":"uint256"}],"stateMutability":"nonpayable"},{"type":"function","name":"addLiquidityETH","inputs":[{"name":"token","type":"address","internalType":"address"},{"name":"stable","type":"bool","internalType":"bool"},{"name":"amountTokenDesired","type":"uint256","internalType":"uint256"},{"name":"amountTokenMin","type":"uint256","internalType":"uint256"},{"name":"amountETHMin","type":"uint256","internalType":"uint256"},{"name":"to","type":"address","internalType":"address"},{"name":"deadline","type":"uint256","internalType":"uint256"}],"outputs":[{"name":"amountToken","type":"uint256","internalType":"uint256"},{"name":"amountETH","type":"uint256","internalType":"uint256"},{"name":"liquidity","type":"uint256","internalType":"uint256"}],"stateMutability":"payable"},{"type":"function","name":"factory","inputs":[],"outputs":[{"name":"","type":"address","internalType":"address"}],"stateMutability":"view"},{"type":"function","name":"getAmountOut","inputs":[{"name":"amountIn","type":"uint256","internalType":"uint256"},{"name":"tokenIn","type":"address","internalType":"address"},{"name":"tokenOut","type":"address","internalType":"address"}],"outputs":[{"name":"amount","type":"uint256","internalType":"uint256"},{"name":"stable","type":"bool","internalType":"bool"}],"stateMutability":"view"},{"type":"function","name":"getAmountOut","inputs":[{"name":"amountIn","type":"uint256","internalType":"uint256"},{"name":"tokenIn","type":"address","internalType":"address"},{"name":"tokenOut","type":"address","internalType":"address"},{"name":"stable","type":"bool","internalType":"bool"}],"outputs":[{"name":"amount","type":"uint256","internalType":"uint256"}],"stateMutability":"view"},{"type":"function","name":"getAmountsOut","inputs":[{"name":"amountIn","type":"uint256","internalType":"uint256"},{"name":"routes","type":"tuple[]","internalType":"struct Router.route[]","components":[{"name":"from","type":"address","internalType":"address"},{"name":"to","type":"address","internalType":"address"},{"name":"stable","type":"bool","internalType":"bool"}]}],"outputs":[{"name":"amounts","type":"uint256[]","internalType":"uint256[]"}],"stateMutability":"view"},{"type":"function","name":"getReserves","inputs":[{"name":"tokenA","type":"address","internalType":"address"},{"name":"tokenB","type":"address","internalType":"address"},{"name":"stable","type":"bool","internalType":"bool"}],"outputs":[{"name":"reserveA","type":"uint256","internalType":"uint256"},{"name":"reserveB","type":"uint256","internalType":"uint256"}],"stateMutability":"view"},{"type":"function","name":"isPair","inputs":[{"name":"pair","type":"address","internalType":"address"}],"outputs":[{"name":"","type":"bool","internalType":"bool"}],"stateMutability":"view"},{"type":"function","name":"pairFor","inputs":[{"name":"tokenA","type":"address","internalType":"address"},{"name":"tokenB","type":"address","internalType":"address"},{"name":"stable","type":"bool","internalType":"bool"}],"outputs":[{"name":"pair","type":"address","internalType":"address"}],"stateMutability":"view"},{"type":"function","name":"quoteAddLiquidity","inputs":[{"name":"tokenA","type":"address","internalType":"address"},{"name":"tokenB","type":"address","internalType":"address"},{"name":"stable","type":"bool","internalType":"bool"},{"name":"amountADesired","type":"uint256","internalType":"uint256"},{"name":"amountBDesired","type":"uint256","internalType":"uint256"}],"outputs":[{"name":"amountA","type":"uint256","internalType":"uint256"},{"name":"amountB","type":"uint256","internalType":"uint256"},{"name":"liquidity","type":"uint256","internalType":"uint256"}],"stateMutability":"view"},{"type":"function","name":"quoteRemoveLiquidity","inputs":[{"name":"tokenA","type":"address","internalType":"address"},{"name":"tokenB","type":"address","internalType":"address"},{"name":"stable","type":"bool","internalType":"bool"},{"name":"liquidity","type":"uint256","internalType":"uint256"}],"outputs":[{"name":"amountA","type":"uint256","internalType":"uint256"},{"name":"amountB","type":"uint256","internalType":"uint256"}],"stateMutability":"view"},{"type":"function","name":"removeLiquidity","inputs":[{"name":"tokenA","type":"address","internalType":"address"},{"name":"tokenB","type":"address","internalType":"address"},{"name":"stable","type":"bool","internalType":"bool"},{"name":"liquidity","type":"uint256","internalType":"uint256"},{"name":"amountAMin","type":"uint256","internalType":"uint256"},{"name":"amountBMin","type":"uint256","internalType":"uint256"},{"name":"to","type":"address","internalType":"address"},{"name":"deadline","type":"uint256","internalType":"uint256"}],"outputs":[{"name":"amountA","type":"uint256","internalType":"uint256"},{"name":"amountB","type":"uint256","internalType":"uint256"}],"stateMutability":"nonpayable"},{"type":"function","name":"removeLiquidityETH","inputs":[{"name":"token","type":"address","internalType":"address"},{"name":"stable","type":"bool","internalType":"bool"},{"name":"liquidity","type":"uint256","internalType":"uint256"},{"name":"amountTokenMin","type":"uint256","internalType":"uint256"},{"name":"amountETHMin","type":"uint256","internalType":"uint256"},{"name":"to","type":"address","internalType":"address"},{"name":"deadline","type":"uint256","internalType":"uint256"}],"outputs":[{"name":"amountToken","type":"uint256","internalType":"uint256"},{"name":"amountETH","type":"uint256","internalType":"uint256"}],"stateMutability":"nonpayable"},{"type":"function","name":"removeLiquidityETHWithPermit","inputs":[{"name":"token","type":"address","internalType":"address"},{"name":"stable","type":"bool","internalType":"bool"},{"name":"liquidity","type":"uint256","internalType":"uint256"},{"name":"amountTokenMin","type":"uint256","internalType":"uint256"},{"name":"amountETHMin","type":"uint256","internalType":"uint256"},{"name":"to","type":"address","internalType":"address"},{"name":"deadline","type":"uint256","internalType":"uint256"},{"name":"approveMax","type":"bool","internalType":"bool"},{"name":"v","type":"uint8","internalType":"uint8"},{"name":"r","type":"bytes32","internalType":"bytes32"},{"name":"s","type":"bytes32","internalType":"bytes32"}],"outputs":[{"name":"amountToken","type":"uint256","internalType":"uint256"},{"name":"amountETH","type":"uint256","internalType":"uint256"}],"stateMutability":"nonpayable"},{"type":"function","name":"removeLiquidityWithPermit","inputs":[{"name":"tokenA","type":"address","internalType":"address"},{"name":"tokenB","type":"address","internalType":"address"},{"name":"stable","type":"bool","internalType":"bool"},{"name":"liquidity","type":"uint256","internalType":"uint256"},{"name":"amountAMin","type":"uint256","internalType":"uint256"},{"name":"amountBMin","type":"uint256","internalType":"uint256"},{"name":"to","type":"address","internalType":"address"},{"name":"deadline","type":"uint256","internalType":"uint256"},{"name":"approveMax","type":"bool","internalType":"bool"},{"name":"v","type":"uint8","internalType":"uint8"},{"name":"r","type":"bytes32","internalType":"bytes32"},{"name":"s","type":"bytes32","internalType":"bytes32"}],"outputs":[{"name":"amountA","type":"uint256","internalType":"uint256"},{"name":"amountB","type":"uint256","internalType":"uint256"}],"stateMutability":"nonpayable"},{"type":"function","name":"sortTokens","inputs":[{"name":"tokenA","type":"address","internalType":"address"},{"name":"tokenB","type":"address","internalType":"address"}],"outputs":[{"name":"token0","type":"address","internalType":"address"},{"name":"token1","type":"address","internalType":"address"}],"stateMutability":"pure"},{"type":"function","name":"swapExactETHForTokens","inputs":[{"name":"amountOutMin","type":"uint256","internalType":"uint256"},{"name":"routes","type":"tuple[]","internalType":"struct Router.route[]","components":[{"name":"from","type":"address","internalType":"address"},{"name":"to","type":"address","internalType":"address"},{"name":"stable","type":"bool","internalType":"bool"}]},{"name":"to","type":"address","internalType":"address"},{"name":"deadline","type":"uint256","internalType":"uint256"}],"outputs":[{"name":"amounts","type":"uint256[]","internalType":"uint256[]"}],"stateMutability":"payable"},{"type":"function","name":"swapExactTokensForETH","inputs":[{"name":"amountIn","type":"uint256","internalType":"uint256"},{"name":"amountOutMin","type":"uint256","internalType":"uint256"},{"name":"routes","type":"tuple[]","internalType":"struct Router.route[]","components":[{"name":"from","type":"address","internalType":"address"},{"name":"to","type":"address","internalType":"address"},{"name":"stable","type":"bool","internalType":"bool"}]},{"name":"to","type":"address","internalType":"address"},{"name":"deadline","type":"uint256","internalType":"uint256"}],"outputs":[{"name":"amounts","type":"uint256[]","internalType":"uint256[]"}],"stateMutability":"nonpayable"},{"type":"function","name":"swapExactTokensForTokens","inputs":[{"name":"amountIn","type":"uint256","internalType":"uint256"},{"name":"amountOutMin","type":"uint256","internalType":"uint256"},{"name":"routes","type":"tuple[]","internalType":"struct Router.route[]","components":[{"name":"from","type":"address","internalType":"address"},{"name":"to","type":"address","internalType":"address"},{"name":"stable","type":"bool","internalType":"bool"}]},{"name":"to","type":"address","internalType":"address"},{"name":"deadline","type":"uint256","internalType":"uint256"}],"outputs":[{"name":"amounts","type":"uint256[]","internalType":"uint256[]"}],"stateMutability":"nonpayable"},{"type":"function","name":"swapExactTokensForTokensSimple","inputs":[{"name":"amountIn","type":"uint256","internalType":"uint256"},{"name":"amountOutMin","type":"uint256","internalType":"uint256"},{"name":"tokenFrom","type":"address","internalType":"address"},{"name":"tokenTo","type":"address","internalType":"address"},{"name":"stable","type":"bool","internalType":"bool"},{"name":"to","type":"address","internalType":"address"},{"name":"deadline","type":"uint256","internalType":"uint256"}],"outputs":[{"name":"amounts","type":"uint256[]","internalType":"uint256[]"}],"stateMutability":"nonpayable"},{"type":"function","name":"weth","inputs":[],"outputs":[{"name":"","type":"address","internalType":"contract IWETH"}],"stateMutability":"view"}],"bytecode":{"object":"0x60e06040523480156200001157600080fd5b5060405162003c9a38038062003c9a8339810160408190526200003491620000d8565b6001600160a01b038216608081905260408051631355724960e31b81529051639aab9248916004808201926020929091908290030181865afa1580156200007f573d6000803e3d6000fd5b505050506040513d601f19601f82011682018060405250810190620000a5919062000110565b60c0526001600160a01b031660a052506200012a565b80516001600160a01b0381168114620000d357600080fd5b919050565b60008060408385031215620000ec57600080fd5b620000f783620000bb565b91506200010760208401620000bb565b90509250929050565b6000602082840312156200012357600080fd5b5051919050565b60805160a05160c051613a9f620001fb6000396000610f32015260008181610149015281816102160152818161095201528181610b9101528181610de2015281816114a9015281816115bc0152818161164a01528181611e2201528181611e5801528181611e8d01528181611f220152818161206101526120b101526000818161043801528181610c7701528181610ef7015281816111b0015281816112c4015281816119cf01528181611b430152818161215c0152818161226d0152818161285701526128f80152613a9f6000f3fe6080604052600436106101395760003560e01c806367ffb66a116100ab578063b7e0d4c01161006f578063b7e0d4c014610413578063c45a015514610426578063d7b0e0a51461045a578063da2142311461047a578063e5e31b13146104a8578063f41766d8146104d857600080fd5b806367ffb66a146103805780637301e3c8146103935780639881fcb4146103b357806398a0fb3c146103d3578063a32b1fcd146103f357600080fd5b8063448725b4116100fd578063448725b4146102705780634c1ee03e14610290578063544caa56146102b05780635a47ddc3146102f05780635e1e63251461032b5780635e60dab51461036057600080fd5b80630dede6c41461017d57806313dcfc59146101b757806318a13086146101e45780633fc8cef3146102045780634386e63c1461025057600080fd5b3661017857336001600160a01b037f0000000000000000000000000000000000000000000000000000000000000000161461017657610176612df0565b005b600080fd5b34801561018957600080fd5b5061019d610198366004612e3c565b6104f8565b604080519283526020830191909152015b60405180910390f35b3480156101c357600080fd5b506101d76101d2366004612ec1565b610712565b6040516101ae9190612f3c565b3480156101f057600080fd5b506101d76101ff366004612fc5565b610925565b34801561021057600080fd5b506102387f000000000000000000000000000000000000000000000000000000000000000081565b6040516001600160a01b0390911681526020016101ae565b34801561025c57600080fd5b5061019d61026b366004613038565b610c70565b34801561027c57600080fd5b5061019d61028b36600461309a565b610dd7565b34801561029c57600080fd5b506102386102ab366004613144565b610eb0565b3480156102bc57600080fd5b506102d06102cb36600461318f565b610fb8565b604080516001600160a01b039384168152929091166020830152016101ae565b3480156102fc57600080fd5b5061031061030b3660046131c8565b611098565b604080519384526020840192909252908201526060016101ae565b34801561033757600080fd5b5061034b610346366004613257565b611178565b604080519283529015156020830152016101ae565b34801561036c57600080fd5b5061019d61037b366004613144565b6113cc565b6101d761038e36600461328e565b611484565b34801561039f57600080fd5b506101d76103ae366004613360565b6117e3565b3480156103bf57600080fd5b506101d76103ce3660046134a2565b6118b9565b3480156103df57600080fd5b506103106103ee366004613548565b611b3b565b3480156103ff57600080fd5b5061019d61040e3660046135a3565b611d3b565b61031061042136600461365f565b611df6565b34801561043257600080fd5b506102387f000000000000000000000000000000000000000000000000000000000000000081565b34801561046657600080fd5b5061019d61047536600461365f565b612037565b34801561048657600080fd5b5061049a6104953660046136ba565b61212c565b6040519081526020016101ae565b3480156104b457600080fd5b506104c86104c336600461370d565b61224b565b60405190151581526020016101ae565b3480156104e457600080fd5b506101d76104f3366004612fc5565b6122e0565b60008082428110156105255760405162461bcd60e51b815260040161051c9061372a565b60405180910390fd5b60006105328c8c8c610eb0565b6040516323b872dd60e01b81523360048201526001600160a01b03821660248201819052604482018c90529192506323b872dd906064016020604051808303816000875af1158015610588573d6000803e3d6000fd5b505050506040513d601f19601f820116820180604052508101906105ac9190613753565b6105b557600080fd5b60405163226bf2d160e21b81526001600160a01b03878116600483015260009182918416906389afcb449060240160408051808303816000875af1158015610601573d6000803e3d6000fd5b505050506040513d601f19601f820116820180604052508101906106259190613770565b9150915060006106358f8f610fb8565b509050806001600160a01b03168f6001600160a01b03161461065857818361065b565b82825b90975095508a8710156106b05760405162461bcd60e51b815260206004820152601d60248201527f526f757465723a20494e53554646494349454e545f415f414d4f554e54000000604482015260640161051c565b898610156107005760405162461bcd60e51b815260206004820152601d60248201527f526f757465723a20494e53554646494349454e545f425f414d4f554e54000000604482015260640161051c565b50505050509850989650505050505050565b606081428110156107355760405162461bcd60e51b815260040161051c9061372a565b604080516001808252818301909252600091816020015b604080516060810182526000808252602080830182905292820152825260001990920191018161074c579050509050878160008151811061078f5761078f613794565b6020026020010151600001906001600160a01b031690816001600160a01b03168152505086816000815181106107c7576107c7613794565b6020026020010151602001906001600160a01b031690816001600160a01b03168152505085816000815181106107ff576107ff613794565b602090810291909101015190151560409091015261081d8a826118b9565b925088836001855161082f91906137c0565b8151811061083f5761083f613794565b602002602001015110156108655760405162461bcd60e51b815260040161051c906137d7565b61090d8160008151811061087b5761087b613794565b602002602001015160000151336108ed8460008151811061089e5761089e613794565b602002602001015160000151856000815181106108bd576108bd613794565b602002602001015160200151866000815181106108dc576108dc613794565b602002602001015160400151610eb0565b8660008151811061090057610900613794565b6020026020010151612405565b6109188382876124fd565b5050979650505050505050565b606081428110156109485760405162461bcd60e51b815260040161051c9061372a565b6001600160a01b037f000000000000000000000000000000000000000000000000000000000000000016868661097f6001826137c0565b81811061098e5761098e613794565b90506060020160200160208101906109a6919061370d565b6001600160a01b0316146109cc5760405162461bcd60e51b815260040161051c90613819565b610a28888787808060200260200160405190810160405280939291908181526020016000905b82821015610a1e57610a0f60608302860136819003810190613847565b815260200190600101906109f2565b50505050506118b9565b9150868260018451610a3a91906137c0565b81518110610a4a57610a4a613794565b60200260200101511015610a705760405162461bcd60e51b815260040161051c906137d7565b610b3286866000818110610a8657610a86613794565b610a9c926020606090920201908101915061370d565b33610b1f89896000818110610ab357610ab3613794565b610ac9926020606090920201908101915061370d565b8a8a6000818110610adc57610adc613794565b9050606002016020016020810190610af4919061370d565b8b8b6000818110610b0757610b07613794565b90506060020160400160208101906102ab9190613863565b8560008151811061090057610900613794565b610b8f828787808060200260200160405190810160405280939291908181526020016000905b82821015610b8457610b7560608302860136819003810190613847565b81526020019060010190610b58565b5050505050306124fd565b7f00000000000000000000000000000000000000000000000000000000000000006001600160a01b0316632e1a7d4d8360018551610bcd91906137c0565b81518110610bdd57610bdd613794565b60200260200101516040518263ffffffff1660e01b8152600401610c0391815260200190565b600060405180830381600087803b158015610c1d57600080fd5b505af1158015610c31573d6000803e3d6000fd5b50505050610c65848360018551610c4891906137c0565b81518110610c5857610c58613794565b6020026020010151612752565b509695505050505050565b60008060007f00000000000000000000000000000000000000000000000000000000000000006001600160a01b0316636801cc308888886040518463ffffffff1660e01b8152600401610cc593929190613880565b602060405180830381865afa158015610ce2573d6000803e3d6000fd5b505050506040513d601f19601f82011682018060405250810190610d0691906138a4565b90506001600160a01b038116610d23576000809250925050610dce565b600080610d318989896113cc565b915091506000836001600160a01b03166318160ddd6040518163ffffffff1660e01b8152600401602060405180830381865afa158015610d75573d6000803e3d6000fd5b505050506040513d601f19601f82011682018060405250810190610d9991906138c1565b905080610da684896138da565b610db0919061390f565b955080610dbd83896138da565b610dc7919061390f565b9450505050505b94509492505050565b6000806000610e078e7f00000000000000000000000000000000000000000000000000000000000000008f610eb0565b9050600087610e16578c610e1a565b6000195b60405163d505accf60e01b81529091506001600160a01b0383169063d505accf90610e55903390309086908f908e908e908e90600401613931565b600060405180830381600087803b158015610e6f57600080fd5b505af1158015610e83573d6000803e3d6000fd5b50505050610e968f8f8f8f8f8f8f612037565b809450819550505050509b509b9950505050505050505050565b6000806000610ebf8686610fb8565b6040516bffffffffffffffffffffffff19606084811b8216602084015283901b16603482015286151560f81b604882015291935091507f000000000000000000000000000000000000000000000000000000000000000090604901604051602081830303815290604052805190602001207f0000000000000000000000000000000000000000000000000000000000000000604051602001610f96939291906001600160f81b0319815260609390931b6bffffffffffffffffffffffff191660018401526015830191909152603582015260550190565b60408051601f1981840301815291905280516020909101209695505050505050565b600080826001600160a01b0316846001600160a01b03160361101c5760405162461bcd60e51b815260206004820152601b60248201527f526f757465723a204944454e544943414c5f4144445245535345530000000000604482015260640161051c565b826001600160a01b0316846001600160a01b03161061103c57828461103f565b83835b90925090506001600160a01b0382166110915760405162461bcd60e51b8152602060048201526014602482015273526f757465723a205a45524f5f4144445245535360601b604482015260640161051c565b9250929050565b600080600083428110156110be5760405162461bcd60e51b815260040161051c9061372a565b6110cd8d8d8d8d8d8d8d612820565b909450925060006110df8e8e8e610eb0565b90506110ed8e338388612405565b6110f98d338387612405565b6040516335313c2160e11b81526001600160a01b038881166004830152821690636a627842906024016020604051808303816000875af1158015611141573d6000803e3d6000fd5b505050506040513d601f19601f8201168201806040525081019061116591906138c1565b9250505099509950999650505050505050565b600080600061118985856001610eb0565b60405163e5e31b1360e01b81526001600160a01b03828116600483015291925060009182917f00000000000000000000000000000000000000000000000000000000000000009091169063e5e31b1390602401602060405180830381865afa1580156111f9573d6000803e3d6000fd5b505050506040513d601f19601f8201168201806040525081019061121d9190613753565b15611296576040516378a051ad60e11b8152600481018990526001600160a01b03888116602483015284169063f140a35a90604401602060405180830381865afa15801561126f573d6000803e3d6000fd5b505050506040513d601f19601f8201168201806040525081019061129391906138c1565b91505b6112a287876000610eb0565b60405163e5e31b1360e01b81526001600160a01b0380831660048301529194507f00000000000000000000000000000000000000000000000000000000000000009091169063e5e31b1390602401602060405180830381865afa15801561130d573d6000803e3d6000fd5b505050506040513d601f19601f820116820180604052508101906113319190613753565b156113aa576040516378a051ad60e11b8152600481018990526001600160a01b03888116602483015284169063f140a35a90604401602060405180830381865afa158015611383573d6000803e3d6000fd5b505050506040513d601f19601f820116820180604052508101906113a791906138c1565b90505b8082116113b9578060006113bd565b8160015b94509450505050935093915050565b60008060006113db8686610fb8565b5090506000806113ec888888610eb0565b6001600160a01b0316630902f1ac6040518163ffffffff1660e01b8152600401606060405180830381865afa158015611429573d6000803e3d6000fd5b505050506040513d601f19601f8201168201806040525081019061144d9190613972565b5091509150826001600160a01b0316886001600160a01b031614611472578082611475565b81815b90999098509650505050505050565b606081428110156114a75760405162461bcd60e51b815260040161051c9061372a565b7f00000000000000000000000000000000000000000000000000000000000000006001600160a01b0316868660008181106114e4576114e4613794565b6114fa926020606090920201908101915061370d565b6001600160a01b0316146115205760405162461bcd60e51b815260040161051c90613819565b611572348787808060200260200160405190810160405280939291908181526020016000905b82821015610a1e5761156360608302860136819003810190613847565b81526020019060010190611546565b915086826001845161158491906137c0565b8151811061159457611594613794565b602002602001015110156115ba5760405162461bcd60e51b815260040161051c906137d7565b7f00000000000000000000000000000000000000000000000000000000000000006001600160a01b031663d0e30db0836000815181106115fc576115fc613794565b60200260200101516040518263ffffffff1660e01b81526004016000604051808303818588803b15801561162f57600080fd5b505af1158015611643573d6000803e3d6000fd5b50505050507f00000000000000000000000000000000000000000000000000000000000000006001600160a01b031663a9059cbb6116e18888600081811061168d5761168d613794565b6116a3926020606090920201908101915061370d565b898960008181106116b6576116b6613794565b90506060020160200160208101906116ce919061370d565b8a8a6000818110610b0757610b07613794565b846000815181106116f4576116f4613794565b60200260200101516040518363ffffffff1660e01b815260040161172d9291906001600160a01b03929092168252602082015260400190565b6020604051808303816000875af115801561174c573d6000803e3d6000fd5b505050506040513d601f19601f820116820180604052508101906117709190613753565b61177c5761177c612df0565b6117d9828787808060200260200160405190810160405280939291908181526020016000905b828210156117ce576117bf60608302860136819003810190613847565b815260200190600101906117a2565b5050505050866124fd565b5095945050505050565b606081428110156118065760405162461bcd60e51b815260040161051c9061372a565b61185c8686600081811061181c5761181c613794565b611832926020606090920201908101915061370d565b3361184989896000818110610ab357610ab3613794565b8a60008151811061090057610900613794565b6118ae878787808060200260200160405190810160405280939291908181526020016000905b828210156117ce5761189f60608302860136819003810190613847565b81526020019060010190611882565b509495945050505050565b60606001825110156118dd5760405162461bcd60e51b815260040161051c90613819565b81516118ea9060016139a0565b67ffffffffffffffff811115611902576119026132f5565b60405190808252806020026020018201604052801561192b578160200160208202803683370190505b509050828160008151811061194257611942613794565b60200260200101818152505060005b8251811015611b345760006119ad84838151811061197157611971613794565b60200260200101516000015185848151811061198f5761198f613794565b6020026020010151602001518685815181106108dc576108dc613794565b60405163e5e31b1360e01b81526001600160a01b0380831660048301529192507f00000000000000000000000000000000000000000000000000000000000000009091169063e5e31b1390602401602060405180830381865afa158015611a18573d6000803e3d6000fd5b505050506040513d601f19601f82011682018060405250810190611a3c9190613753565b15611b2157806001600160a01b031663f140a35a848481518110611a6257611a62613794565b6020026020010151868581518110611a7c57611a7c613794565b6020026020010151600001516040518363ffffffff1660e01b8152600401611ab79291909182526001600160a01b0316602082015260400190565b602060405180830381865afa158015611ad4573d6000803e3d6000fd5b505050506040513d601f19601f82011682018060405250810190611af891906138c1565b83611b048460016139a0565b81518110611b1457611b14613794565b6020026020010181815250505b5080611b2c816139b8565b915050611951565b5092915050565b6000806000807f00000000000000000000000000000000000000000000000000000000000000006001600160a01b0316636801cc308a8a8a6040518463ffffffff1660e01b8152600401611b9193929190613880565b602060405180830381865afa158015611bae573d6000803e3d6000fd5b505050506040513d601f19601f82011682018060405250810190611bd291906138a4565b9050600080806001600160a01b03841615611c5c57836001600160a01b03166318160ddd6040518163ffffffff1660e01b8152600401602060405180830381865afa158015611c25573d6000803e3d6000fd5b505050506040513d601f19601f82011682018060405250810190611c4991906138c1565b9050611c568c8c8c6113cc565b90935091505b82158015611c68575081155b15611c99578896508795506103e8611c88611c83888a6138da565b612a9e565b611c9291906137c0565b9450611d2c565b6000611ca68a8585612b8d565b9050888111611cee57899750955085611ce784611cc3848b6138da565b611ccd919061390f565b84611cd8858b6138da565b611ce2919061390f565b612c57565b9550611d2a565b6000611cfb8a8587612b8d565b9850899750889050611d2685611d1185846138da565b611d1b919061390f565b85611cd8868c6138da565b9650505b505b50505050955095509592505050565b6000806000611d4b8f8f8f610eb0565b9050600087611d5a578c611d5e565b6000195b60405163d505accf60e01b81529091506001600160a01b0383169063d505accf90611d99903390309086908f908e908e908e90600401613931565b600060405180830381600087803b158015611db357600080fd5b505af1158015611dc7573d6000803e3d6000fd5b5050505050611ddc8f8f8f8f8f8f8f8f6104f8565b8093508194505050509c509c9a5050505050505050505050565b60008060008342811015611e1c5760405162461bcd60e51b815260040161051c9061372a565b611e4b8b7f00000000000000000000000000000000000000000000000000000000000000008c8c348d8d612820565b90945092506000611e7d8c7f00000000000000000000000000000000000000000000000000000000000000008d610eb0565b9050611e8b8c338388612405565b7f00000000000000000000000000000000000000000000000000000000000000006001600160a01b031663d0e30db0856040518263ffffffff1660e01b81526004016000604051808303818588803b158015611ee657600080fd5b505af1158015611efa573d6000803e3d6000fd5b505060405163a9059cbb60e01b81526001600160a01b038581166004830152602482018990527f000000000000000000000000000000000000000000000000000000000000000016935063a9059cbb925060440190506020604051808303816000875af1158015611f6f573d6000803e3d6000fd5b505050506040513d601f19601f82011682018060405250810190611f939190613753565b611f9f57611f9f612df0565b6040516335313c2160e11b81526001600160a01b038881166004830152821690636a627842906024016020604051808303816000875af1158015611fe7573d6000803e3d6000fd5b505050506040513d601f19601f8201168201806040525081019061200b91906138c1565b925083341115612028576120283361202386346137c0565b612752565b50509750975097945050505050565b600080824281101561205b5760405162461bcd60e51b815260040161051c9061372a565b61208b8a7f00000000000000000000000000000000000000000000000000000000000000008b8b8b8b308b6104f8565b909350915061209b8a8685612c6d565b604051632e1a7d4d60e01b8152600481018390527f00000000000000000000000000000000000000000000000000000000000000006001600160a01b031690632e1a7d4d90602401600060405180830381600087803b1580156120fd57600080fd5b505af1158015612111573d6000803e3d6000fd5b5050505061211f8583612752565b5097509795505050505050565b60008061213a858585610eb0565b60405163e5e31b1360e01b81526001600160a01b0380831660048301529192507f00000000000000000000000000000000000000000000000000000000000000009091169063e5e31b1390602401602060405180830381865afa1580156121a5573d6000803e3d6000fd5b505050506040513d601f19601f820116820180604052508101906121c99190613753565b15612242576040516378a051ad60e11b8152600481018790526001600160a01b03868116602483015282169063f140a35a90604401602060405180830381865afa15801561221b573d6000803e3d6000fd5b505050506040513d601f19601f8201168201806040525081019061223f91906138c1565b91505b50949350505050565b60405163e5e31b1360e01b81526001600160a01b0382811660048301526000917f00000000000000000000000000000000000000000000000000000000000000009091169063e5e31b1390602401602060405180830381865afa1580156122b6573d6000803e3d6000fd5b505050506040513d601f19601f820116820180604052508101906122da9190613753565b92915050565b606081428110156123035760405162461bcd60e51b815260040161051c9061372a565b612355888787808060200260200160405190810160405280939291908181526020016000905b82821015610a1e5761234660608302860136819003810190613847565b81526020019060010190612329565b915086826001845161236791906137c0565b8151811061237757612377613794565b6020026020010151101561239d5760405162461bcd60e51b815260040161051c906137d7565b6123b386866000818110610a8657610a86613794565b610c65828787808060200260200160405190810160405280939291908181526020016000905b828210156117ce576123f660608302860136819003810190613847565b815260200190600101906123d9565b6000846001600160a01b03163b1161241c57600080fd5b604080516001600160a01b0385811660248301528481166044830152606480830185905283518084039091018152608490920183526020820180516001600160e01b03166323b872dd60e01b179052915160009283929088169161248091906139fd565b6000604051808303816000865af19150503d80600081146124bd576040519150601f19603f3d011682016040523d82523d6000602084013e6124c2565b606091505b50915091508180156124ec5750805115806124ec5750808060200190518101906124ec9190613753565b6124f557600080fd5b505050505050565b60005b825181101561274c57600061254f84838151811061252057612520613794565b60200260200101516000015185848151811061253e5761253e613794565b602002602001015160200151610fb8565b5090506000856125608460016139a0565b8151811061257057612570613794565b60200260200101519050600080836001600160a01b031687868151811061259957612599613794565b6020026020010151600001516001600160a01b0316146125bb578260006125bf565b6000835b915091506000600188516125d391906137c0565b86106125df5786612652565b612652886125ee8860016139a0565b815181106125fe576125fe613794565b6020026020010151600001518988600161261891906139a0565b8151811061262857612628613794565b6020026020010151602001518a89600161264291906139a0565b815181106108dc576108dc613794565b90506126a588878151811061266957612669613794565b60200260200101516000015189888151811061268757612687613794565b6020026020010151602001518a89815181106108dc576108dc613794565b6001600160a01b031663022c0d9f84848460006040519080825280601f01601f1916602001820160405280156126e2576020820181803683370190505b506040518563ffffffff1660e01b81526004016127029493929190613a19565b600060405180830381600087803b15801561271c57600080fd5b505af1158015612730573d6000803e3d6000fd5b5050505050505050508080612744906139b8565b915050612500565b50505050565b604080516000808252602082019092526001600160a01b03841690839060405161277c91906139fd565b60006040518083038185875af1925050503d80600081146127b9576040519150601f19603f3d011682016040523d82523d6000602084013e6127be565b606091505b505090508061281b5760405162461bcd60e51b815260206004820152602360248201527f5472616e7366657248656c7065723a204554485f5452414e534645525f46414960448201526213115160ea1b606482015260840161051c565b505050565b6000808386101561283057600080fd5b8285101561283d57600080fd5b6040516306801cc360e41b81526000906001600160a01b037f00000000000000000000000000000000000000000000000000000000000000001690636801cc3090612890908d908d908d90600401613880565b602060405180830381865afa1580156128ad573d6000803e3d6000fd5b505050506040513d601f19601f820116820180604052508101906128d191906138a4565b90506001600160a01b038116612977576040516320b7f73960e21b81526001600160a01b037f000000000000000000000000000000000000000000000000000000000000000016906382dfdce490612931908d908d908d90600401613880565b6020604051808303816000875af1158015612950573d6000803e3d6000fd5b505050506040513d601f19601f8201168201806040525081019061297491906138a4565b90505b6000806129858c8c8c6113cc565b91509150816000148015612997575080155b156129a757889450879350612a8f565b60006129b48a8484612b8d565b9050888111612a185786811015612a0d5760405162461bcd60e51b815260206004820152601d60248201527f526f757465723a20494e53554646494349454e545f425f414d4f554e54000000604482015260640161051c565b899550935083612a8d565b6000612a258a8486612b8d565b90508a811115612a3757612a37612df0565b88811015612a875760405162461bcd60e51b815260206004820152601d60248201527f526f757465723a20494e53554646494349454e545f415f414d4f554e54000000604482015260640161051c565b95508894505b505b50505097509795505050505050565b600081600003612ab057506000919050565b60006001612abd84612d5c565b901c6001901b90506001818481612ad657612ad66138f9565b048201901c90506001818481612aee57612aee6138f9565b048201901c90506001818481612b0657612b066138f9565b048201901c90506001818481612b1e57612b1e6138f9565b048201901c90506001818481612b3657612b366138f9565b048201901c90506001818481612b4e57612b4e6138f9565b048201901c90506001818481612b6657612b666138f9565b048201901c9050612b8681828581612b8057612b806138f9565b04612c57565b9392505050565b6000808411612bde5760405162461bcd60e51b815260206004820152601b60248201527f526f757465723a20494e53554646494349454e545f414d4f554e540000000000604482015260640161051c565b600083118015612bee5750600082115b612c3a5760405162461bcd60e51b815260206004820152601e60248201527f526f757465723a20494e53554646494349454e545f4c49515549444954590000604482015260640161051c565b82612c4583866138da565b612c4f919061390f565b949350505050565b6000818310612c665781612b86565b5090919050565b6000836001600160a01b03163b11612c8457600080fd5b604080516001600160a01b038481166024830152604480830185905283518084039091018152606490920183526020820180516001600160e01b031663a9059cbb60e01b1790529151600092839290871691612ce091906139fd565b6000604051808303816000865af19150503d8060008114612d1d576040519150601f19603f3d011682016040523d82523d6000602084013e612d22565b606091505b5091509150818015612d4c575080511580612d4c575080806020019051810190612d4c9190613753565b612d5557600080fd5b5050505050565b600080608083901c15612d7157608092831c92015b604083901c15612d8357604092831c92015b602083901c15612d9557602092831c92015b601083901c15612da757601092831c92015b600883901c15612db957600892831c92015b600483901c15612dcb57600492831c92015b600283901c15612ddd57600292831c92015b600183901c156122da5760010192915050565b634e487b7160e01b600052600160045260246000fd5b6001600160a01b0381168114612e1b57600080fd5b50565b8035612e2981612e06565b919050565b8015158114612e1b57600080fd5b600080600080600080600080610100898b031215612e5957600080fd5b8835612e6481612e06565b97506020890135612e7481612e06565b96506040890135612e8481612e2e565b9550606089013594506080890135935060a0890135925060c0890135612ea981612e06565b8092505060e089013590509295985092959890939650565b600080600080600080600060e0888a031215612edc57600080fd5b87359650602088013595506040880135612ef581612e06565b94506060880135612f0581612e06565b93506080880135612f1581612e2e565b925060a0880135612f2581612e06565b8092505060c0880135905092959891949750929550565b6020808252825182820181905260009190848201906040850190845b81811015612f7457835183529284019291840191600101612f58565b50909695505050505050565b60008083601f840112612f9257600080fd5b50813567ffffffffffffffff811115612faa57600080fd5b60208301915083602060608302850101111561109157600080fd5b60008060008060008060a08789031215612fde57600080fd5b8635955060208701359450604087013567ffffffffffffffff81111561300357600080fd5b61300f89828a01612f80565b909550935050606087013561302381612e06565b80925050608087013590509295509295509295565b6000806000806080858703121561304e57600080fd5b843561305981612e06565b9350602085013561306981612e06565b9250604085013561307981612e2e565b9396929550929360600135925050565b803560ff81168114612e2957600080fd5b60008060008060008060008060008060006101608c8e0312156130bc57600080fd5b8b356130c781612e06565b9a5060208c01356130d781612e2e565b995060408c0135985060608c0135975060808c0135965060a08c01356130fc81612e06565b955060c08c0135945060e08c013561311381612e2e565b93506131226101008d01613089565b92506101208c013591506101408c013590509295989b509295989b9093969950565b60008060006060848603121561315957600080fd5b833561316481612e06565b9250602084013561317481612e06565b9150604084013561318481612e2e565b809150509250925092565b600080604083850312156131a257600080fd5b82356131ad81612e06565b915060208301356131bd81612e06565b809150509250929050565b60008060008060008060008060006101208a8c0312156131e757600080fd5b89356131f281612e06565b985060208a013561320281612e06565b975060408a013561321281612e2e565b965060608a0135955060808a0135945060a08a0135935060c08a0135925060e08a013561323e81612e06565b809250506101008a013590509295985092959850929598565b60008060006060848603121561326c57600080fd5b83359250602084013561327e81612e06565b9150604084013561318481612e06565b6000806000806000608086880312156132a657600080fd5b85359450602086013567ffffffffffffffff8111156132c457600080fd5b6132d088828901612f80565b90955093505060408601356132e481612e06565b949793965091946060013592915050565b634e487b7160e01b600052604160045260246000fd5b604051601f8201601f1916810167ffffffffffffffff81118282101715613334576133346132f5565b604052919050565b600067ffffffffffffffff821115613356576133566132f5565b5060051b60200190565b60008060008060006080868803121561337857600080fd5b853567ffffffffffffffff8082111561339057600080fd5b818801915088601f8301126133a457600080fd5b813560206133b96133b48361333c565b61330b565b82815260059290921b8401810191818101908c8411156133d857600080fd5b948201945b838610156133f6578535825294820194908201906133dd565b9950508901359250508082111561340c57600080fd5b5061341988828901612f80565b90955093506132e4905060408701612e1e565b60006060828403121561343e57600080fd5b6040516060810181811067ffffffffffffffff82111715613461576134616132f5565b604052905080823561347281612e06565b8152602083013561348281612e06565b6020820152604083013561349581612e2e565b6040919091015292915050565b600080604083850312156134b557600080fd5b8235915060208084013567ffffffffffffffff8111156134d457600080fd5b8401601f810186136134e557600080fd5b80356134f36133b48261333c565b8181526060918202830184019184820191908984111561351257600080fd5b938501935b83851015613538576135298a8661342c565b83529384019391850191613517565b5080955050505050509250929050565b600080600080600060a0868803121561356057600080fd5b853561356b81612e06565b9450602086013561357b81612e06565b9350604086013561358b81612e2e565b94979396509394606081013594506080013592915050565b6000806000806000806000806000806000806101808d8f0312156135c657600080fd5b8c356135d181612e06565b9b5060208d01356135e181612e06565b9a5060408d01356135f181612e2e565b995060608d0135985060808d0135975060a08d0135965060c08d013561361681612e06565b955060e08d013594506101008d013561362e81612e2e565b935061363d6101208e01613089565b92506101408d013591506101608d013590509295989b509295989b509295989b565b600080600080600080600060e0888a03121561367a57600080fd5b873561368581612e06565b9650602088013561369581612e2e565b955060408801359450606088013593506080880135925060a0880135612f2581612e06565b600080600080608085870312156136d057600080fd5b8435935060208501356136e281612e06565b925060408501356136f281612e06565b9150606085013561370281612e2e565b939692955090935050565b60006020828403121561371f57600080fd5b8135612b8681612e06565b6020808252600f908201526e149bdd5d195c8e8811561412549151608a1b604082015260600190565b60006020828403121561376557600080fd5b8151612b8681612e2e565b6000806040838503121561378357600080fd5b505080516020909101519092909150565b634e487b7160e01b600052603260045260246000fd5b634e487b7160e01b600052601160045260246000fd5b6000828210156137d2576137d26137aa565b500390565b60208082526022908201527f526f757465723a20494e53554646494349454e545f4f55545055545f414d4f55604082015261139560f21b606082015260800190565b6020808252601490820152730a4deeae8cae47440929cac82989288bea082a8960631b604082015260600190565b60006060828403121561385957600080fd5b612b86838361342c565b60006020828403121561387557600080fd5b8135612b8681612e2e565b6001600160a01b039384168152919092166020820152901515604082015260600190565b6000602082840312156138b657600080fd5b8151612b8681612e06565b6000602082840312156138d357600080fd5b5051919050565b60008160001904831182151516156138f4576138f46137aa565b500290565b634e487b7160e01b600052601260045260246000fd5b60008261392c57634e487b7160e01b600052601260045260246000fd5b500490565b6001600160a01b0397881681529590961660208601526040850193909352606084019190915260ff16608083015260a082015260c081019190915260e00190565b60008060006060848603121561398757600080fd5b8351925060208401519150604084015190509250925092565b600082198211156139b3576139b36137aa565b500190565b6000600182016139ca576139ca6137aa565b5060010190565b60005b838110156139ec5781810151838201526020016139d4565b8381111561274c5750506000910152565b60008251613a0f8184602087016139d1565b9190910192915050565b84815283602082015260018060a01b03831660408201526080606082015260008251806080840152613a528160a08501602087016139d1565b601f01601f19169190910160a0019594505050505056fea26469706673582212207266473c1d064ffff70af1167d5eb45e5b3b7e7a2696151d60210597d604f80764736f6c634300080d0033","linkReferences":{}},"methodIdentifiers":{"UNSAFE_swapExactTokensForTokens(uint256[],(address,address,bool)[],address,uint256)":"7301e3c8","addLiquidity(address,address,bool,uint256,uint256,uint256,uint256,address,uint256)":"5a47ddc3","addLiquidityETH(address,bool,uint256,uint256,uint256,address,uint256)":"b7e0d4c0","factory()":"c45a0155","getAmountOut(uint256,address,address)":"5e1e6325","getAmountOut(uint256,address,address,bool)":"da214231","getAmountsOut(uint256,(address,address,bool)[])":"9881fcb4","getReserves(address,address,bool)":"5e60dab5","isPair(address)":"e5e31b13","pairFor(address,address,bool)":"4c1ee03e","quoteAddLiquidity(address,address,bool,uint256,uint256)":"98a0fb3c","quoteRemoveLiquidity(address,address,bool,uint256)":"4386e63c","removeLiquidity(address,address,bool,uint256,uint256,uint256,address,uint256)":"0dede6c4","removeLiquidityETH(address,bool,uint256,uint256,uint256,address,uint256)":"d7b0e0a5","removeLiquidityETHWithPermit(address,bool,uint256,uint256,uint256,address,uint256,bool,uint8,bytes32,bytes32)":"448725b4","removeLiquidityWithPermit(address,address,bool,uint256,uint256,uint256,address,uint256,bool,uint8,bytes32,bytes32)":"a32b1fcd","sortTokens(address,address)":"544caa56","swapExactETHForTokens(uint256,(address,address,bool)[],address,uint256)":"67ffb66a","swapExactTokensForETH(uint256,uint256,(address,address,bool)[],address,uint256)":"18a13086","swapExactTokensForTokens(uint256,uint256,(address,address,bool)[],address,uint256)":"f41766d8","swapExactTokensForTokensSimple(uint256,uint256,address,address,bool,address,uint256)":"13dcfc59","weth()":"3fc8cef3"},"id":20}