{"abi":[{"type":"constructor","inputs":[{"name":"_voting_escrow","type":"address","internalType":"address"},{"name":"_rewardToken","type":"address","internalType":"address"}],"stateMutability":"nonpayable"},{"type":"function","name":"checkpoint_token","inputs":[],"outputs":[],"stateMutability":"nonpayable"},{"type":"function","name":"checkpoint_total_supply","inputs":[],"outputs":[],"stateMutability":"nonpayable"},{"type":"function","name":"claim","inputs":[{"name":"_tokenId","type":"uint256","internalType":"uint256"}],"outputs":[{"name":"","type":"uint256","internalType":"uint256"}],"stateMutability":"nonpayable"},{"type":"function","name":"claim_many","inputs":[{"name":"_tokenIds","type":"uint256[]","internalType":"uint256[]"}],"outputs":[{"name":"","type":"bool","internalType":"bool"}],"stateMutability":"nonpayable"},{"type":"function","name":"claimable","inputs":[{"name":"_tokenId","type":"uint256","internalType":"uint256"}],"outputs":[{"name":"","type":"uint256","internalType":"uint256"}],"stateMutability":"view"},{"type":"function","name":"depositor","inputs":[],"outputs":[{"name":"","type":"address","internalType":"address"}],"stateMutability":"view"},{"type":"function","name":"last_token_time","inputs":[],"outputs":[{"name":"","type":"uint256","internalType":"uint256"}],"stateMutability":"view"},{"type":"function","name":"notifyRewardAmount","inputs":[{"name":"_amount","type":"uint256","internalType":"uint256"}],"outputs":[],"stateMutability":"nonpayable"},{"type":"function","name":"setDepositor","inputs":[{"name":"_depositor","type":"address","internalType":"address"}],"outputs":[],"stateMutability":"nonpayable"},{"type":"function","name":"start_time","inputs":[],"outputs":[{"name":"","type":"uint256","internalType":"uint256"}],"stateMutability":"view"},{"type":"function","name":"time_cursor","inputs":[],"outputs":[{"name":"","type":"uint256","internalType":"uint256"}],"stateMutability":"view"},{"type":"function","name":"time_cursor_of","inputs":[{"name":"","type":"uint256","internalType":"uint256"}],"outputs":[{"name":"","type":"uint256","internalType":"uint256"}],"stateMutability":"view"},{"type":"function","name":"timestamp","inputs":[],"outputs":[{"name":"","type":"uint256","internalType":"uint256"}],"stateMutability":"view"},{"type":"function","name":"token","inputs":[],"outputs":[{"name":"","type":"address","internalType":"address"}],"stateMutability":"view"},{"type":"function","name":"token_last_balance","inputs":[],"outputs":[{"name":"","type":"uint256","internalType":"uint256"}],"stateMutability":"view"},{"type":"function","name":"tokens_per_week","inputs":[{"name":"","type":"uint256","internalType":"uint256"}],"outputs":[{"name":"","type":"uint256","internalType":"uint256"}],"stateMutability":"view"},{"type":"function","name":"user_epoch_of","inputs":[{"name":"","type":"uint256","internalType":"uint256"}],"outputs":[{"name":"","type":"uint256","internalType":"uint256"}],"stateMutability":"view"},{"type":"function","name":"ve_for_at","inputs":[{"name":"_tokenId","type":"uint256","internalType":"uint256"},{"name":"_timestamp","type":"uint256","internalType":"uint256"}],"outputs":[{"name":"","type":"uint256","internalType":"uint256"}],"stateMutability":"view"},{"type":"function","name":"ve_supply","inputs":[{"name":"","type":"uint256","internalType":"uint256"}],"outputs":[{"name":"","type":"uint256","internalType":"uint256"}],"stateMutability":"view"},{"type":"function","name":"voting_escrow","inputs":[],"outputs":[{"name":"","type":"address","internalType":"address"}],"stateMutability":"view"},{"type":"event","name":"CheckpointToken","inputs":[{"name":"time","type":"uint256","indexed":false,"internalType":"uint256"},{"name":"tokens","type":"uint256","indexed":false,"internalType":"uint256"}],"anonymous":false},{"type":"event","name":"Claimed","inputs":[{"name":"tokenId","type":"uint256","indexed":false,"internalType":"uint256"},{"name":"amount","type":"uint256","indexed":false,"internalType":"uint256"},{"name":"claim_epoch","type":"uint256","indexed":false,"internalType":"uint256"},{"name":"max_epoch","type":"uint256","indexed":false,"internalType":"uint256"}],"anonymous":false}],"bytecode":{"object":"0x60806040523480156200001157600080fd5b5060405162001d4d38038062001d4d8339810160408190526200003491620000d0565b600062093a8062000046814262000108565b6200005291906200012b565b600081905560048190556001555066038d7ea4c6800680546001600160a01b039283166001600160a01b03199182161790915566038d7ea4c6800580549390921692811692909217905566071afd498d000880549091163317905562000159565b80516001600160a01b0381168114620000cb57600080fd5b919050565b60008060408385031215620000e457600080fd5b620000ef83620000b3565b9150620000ff60208401620000b3565b90509250929050565b6000826200012657634e487b7160e01b600052601260045260246000fd5b500490565b60008160001904831182151516156200015457634e487b7160e01b600052601160045260246000fd5b500290565b611be480620001696000396000f3fe608060405234801561001057600080fd5b506004361061012c5760003560e01c8063834ee417116100ad578063d4dafba811610071578063d4dafba814610268578063dfe050311461027b578063edf5999714610294578063f2c098b7146102a7578063fc0c546a146102ba57600080fd5b8063834ee4171461020b578063b21ed50214610214578063b80777ea1461021c578063c7c4ff4614610224578063d1d58b251461025557600080fd5b80633c6b16ab116100f45780633c6b16ab146101b2578063486d25fe146101c757806368809889146101e75780637f58e8f8146101fa578063811a40fe1461020357600080fd5b8063127dcbd31461013157806316aea5c01461014d5780631f1db0431461016d57806322b04bfc14610190578063379607f51461019f575b600080fd5b61013a60015481565b6040519081526020015b60405180910390f35b61013a61015b3660046117a5565b60036020526000908152604090205481565b61018061017b366004611805565b6102d3565b6040519015158152602001610144565b61013a66038d7ea4c680075481565b61013a6101ad3660046117a5565b610446565b6101c56101c03660046117a5565b610552565b005b61013a6101d53660046117a5565b60026020526000908152604090205481565b61013a6101f53660046118ab565b61062b565b61013a60045481565b6101c561076e565b61013a60005481565b6101c5610798565b61013a6107a0565b66071afd498d00085461023d906001600160a01b031681565b6040516001600160a01b039091168152602001610144565b61013a6102633660046117a5565b6107bf565b61013a6102763660046117a5565b6107ff565b66038d7ea4c680055461023d906001600160a01b031681565b61013a6102a23660046117a5565b610822565b6101c56102b53660046118cd565b610838565b66038d7ea4c680065461023d906001600160a01b031681565b600060015442106102e6576102e661087d565b60045462093a806102f7818361190c565b610301919061192e565b66038d7ea4c68005549091506001600160a01b03166000805b85518110156104165760008682815181106103375761033761194d565b602090810291909101015166038d7ea4c680055460405163430c208160e01b8152336004820152602481018390529192506001600160a01b03169063430c2081906044016020604051808303816000875af115801561039a573d6000803e3d6000fd5b505050506040513d601f19601f820116820180604052508101906103be9190611963565b6103c757600080fd5b806000036103d55750610416565b60006103e2828688610a20565b90508015610401576103f43382610e44565b6103fe8185611985565b93505b5050808061040e9061199d565b91505061031a565b50801561043b578066038d7ea4c68007600082825461043591906119b6565b90915550505b506001949350505050565b66038d7ea4c680055460405163430c208160e01b8152336004820152602481018390526000916001600160a01b03169063430c2081906044016020604051808303816000875af115801561049e573d6000803e3d6000fd5b505050506040513d601f19601f820116820180604052508101906104c29190611963565b6104cb57600080fd5b60015442106104dc576104dc61087d565b60045462093a806104ed818361190c565b6104f7919061192e565b66038d7ea4c680055490915060009061051b9085906001600160a01b031684610a20565b9050801561054b5761052d3382610e44565b8066038d7ea4c68007600082825461054591906119b6565b90915550505b9392505050565b600081116105a65760405162461bcd60e51b815260206004820152601c60248201527f6e65656420746f20616464206174206c65617374203120746f6b656e00000000604482015260640160405180910390fd5b66038d7ea4c68006546040516323b872dd60e01b8152336004820152306024820152604481018390526001600160a01b03909116906323b872dd906064016020604051808303816000875af1158015610603573d6000803e3d6000fd5b505050506040513d601f19601f820116820180604052508101906106279190611963565b5050565b66038d7ea4c680055460405163391044d760e21b8152600481018490526000916001600160a01b0316908290829063e441135c90602401602060405180830381865afa15801561067f573d6000803e3d6000fd5b505050506040513d601f19601f820116820180604052508101906106a391906119cd565b905060006106b383878785610f3d565b6040516309bb79ed60e11b815260048101889052602481018290529091506000906001600160a01b03851690631376f3da90604401608060405180830381865afa158015610705573d6000803e3d6000fd5b505050506040513d601f19601f8201168201806040525081019061072991906119fd565b905061076381604001518761073e91906119b6565b826020015161074d9190611a6f565b82516107599190611b0d565b600f0b6000611031565b979650505050505050565b66071afd498d0008546001600160a01b0316331461078e5761078e611b5d565b610796611047565b565b61079661087d565b600062093a806107b0814261190c565b6107ba919061192e565b905090565b60008062093a80806004546107d4919061190c565b6107de919061192e565b66038d7ea4c680055490915061054b9084906001600160a01b0316836112a4565b66038d7ea4c680088166038d7ea4c68000811061081b57600080fd5b0154905081565b60058166038d7ea4c68000811061081b57600080fd5b66071afd498d0008546001600160a01b0316331461085557600080fd5b66071afd498d000880546001600160a01b0319166001600160a01b0392909216919091179055565b66038d7ea4c68005546001546001600160a01b0390911690600062093a806108a5814261190c565b6108af919061192e565b9050826001600160a01b031663c2c4c5c16040518163ffffffff1660e01b8152600401600060405180830381600087803b1580156108ec57600080fd5b505af1158015610900573d6000803e3d6000fd5b5050505060005b6014811015610a1857818311610a185760006109238585611641565b60405163d1febfb960e01b8152600481018290529091506000906001600160a01b0387169063d1febfb990602401608060405180830381865afa15801561096e573d6000803e3d6000fd5b505050506040513d601f19601f8201168201806040525081019061099291906119fd565b9050600081604001518611156109b45760408201516109b190876119b6565b90505b6109d38183602001516109c79190611a6f565b83516107599190611b0d565b66038d7ea4c680088766038d7ea4c6800081106109f2576109f261194d565b0155505050610a0462093a8084611985565b925080610a108161199d565b915050610907565b505060015550565b60405163391044d760e21b8152600481018490526000908190819081906001600160a01b0387169063e441135c90602401602060405180830381865afa158015610a6e573d6000803e3d6000fd5b505050506040513d601f19601f82011682018060405250810190610a9291906119cd565b60008054919250829003610aad57600094505050505061054b565b60008881526002602052604081205490819003610ad757610ad0888a8486610f3d565b9450610ae9565b60008981526003602052604090205494505b84600003610af657600194505b6040516309bb79ed60e11b8152600481018a9052602481018690526000906001600160a01b038a1690631376f3da90604401608060405180830381865afa158015610b45573d6000803e3d6000fd5b505050506040513d601f19601f82011682018060405250810190610b6991906119fd565b905081600003610bae5762093a8080600162093a808460400151610b8d9190611985565b610b9791906119b6565b610ba1919061190c565b610bab919061192e565b91505b6004548210610bc6576000965050505050505061054b565b82821015610bd2578291505b6040805160808101825260008082526020820181905291810182905260608101829052905b6032811015610db95789841015610db95782604001518410158015610c1c5750858811155b15610ce257610c2c600189611985565b975082915085881115610c6b5760405180608001604052806000600f0b81526020016000600f0b81526020016000815260200160008152509250610da7565b6040516309bb79ed60e11b8152600481018d9052602481018990526001600160a01b038c1690631376f3da90604401608060405180830381865afa158015610cb7573d6000803e3d6000fd5b505050506040513d601f19601f82011682018060405250810190610cdb91906119fd565b9250610da7565b6000826040015185610cf491906119b6565b90506000610d17846020015183610d0b9190611a6f565b85516107599190611b0d565b905080158015610d265750878a115b15610d32575050610db9565b8015610d955766038d7ea4c680088666038d7ea4c680008110610d5757610d5761194d565b015460058766038d7ea4c680008110610d7257610d7261194d565b0154610d7e908361192e565b610d88919061190c565b610d92908a611985565b98505b610da262093a8087611985565b955050505b80610db18161199d565b915050610bf7565b50610dce85610dc960018a6119b6565b611796565b60008c8152600360209081526040808320849055600282529182902086905581518e8152908101899052908101829052606081018790529097507fcae2990aa9af8eb1c64713b7eddb3a80bf18e49a94a13fe0d0002b5d61d58f009060800160405180910390a150939998505050505050505050565b66038d7ea4c68006546001600160a01b03163b610e6057600080fd5b66038d7ea4c6800654604080516001600160a01b038581166024830152604480830186905283518084039091018152606490920183526020820180516001600160e01b031663a9059cbb60e01b179052915160009384931691610ec291611b73565b6000604051808303816000865af19150503d8060008114610eff576040519150601f19603f3d011682016040523d82523d6000602084013e610f04565b606091505b5091509150818015610f2e575080511580610f2e575080806020019051810190610f2e9190611963565b610f3757600080fd5b50505050565b60008082815b608081101561102557818310156110255760006002610f628486611985565b610f6d906002611985565b610f77919061190c565b6040516309bb79ed60e11b8152600481018a9052602481018290529091506000906001600160a01b038b1690631376f3da90604401608060405180830381865afa158015610fc9573d6000803e3d6000fd5b505050506040513d601f19601f82011682018060405250810190610fed91906119fd565b90508781604001511161100257819450611010565b61100d6001836119b6565b93505b5050808061101d9061199d565b915050610f43565b50909695505050505050565b6000818311611040578161054b565b5090919050565b66038d7ea4c68006546040516370a0823160e01b81523060048201526000916001600160a01b0316906370a0823190602401602060405180830381865afa158015611096573d6000803e3d6000fd5b505050506040513d601f19601f820116820180604052508101906110ba91906119cd565b9050600066038d7ea4c6800754826110d291906119b6565b66038d7ea4c6800783905560045490915060006110ef82426119b6565b426004559050600062093a80611105818561190c565b61110f919061192e565b90506000805b60148110156112625761112b62093a8084611985565b9150814210156111b4578315801561114257508442145b1561117c578560058466038d7ea4c6800081106111615761116161194d565b0160008282546111719190611985565b909155506112629050565b8361118786426119b6565b611191908861192e565b61119b919061190c565b60058466038d7ea4c6800081106111615761116161194d565b831580156111c157508482145b156111fb578560058466038d7ea4c6800081106111e0576111e061194d565b0160008282546111f09190611985565b909155506112499050565b8361120686846119b6565b611210908861192e565b61121a919061190c565b60058466038d7ea4c6800081106112335761123361194d565b0160008282546112439190611985565b90915550505b819450819250808061125a9061199d565b915050611115565b5060408051428152602081018790527fce749457b74e10f393f2c6b1ce4261b78791376db5a3f501477a809f03f500d6910160405180910390a1505050505050565b60405163391044d760e21b8152600481018490526000908190819081906001600160a01b0387169063e441135c90602401602060405180830381865afa1580156112f2573d6000803e3d6000fd5b505050506040513d601f19601f8201168201806040525081019061131691906119cd565b6000805491925082900361133157600094505050505061054b565b6000888152600260205260408120549081900361135b57611354888a8486610f3d565b945061136d565b60008981526003602052604090205494505b8460000361137a57600194505b6040516309bb79ed60e11b8152600481018a9052602481018690526000906001600160a01b038a1690631376f3da90604401608060405180830381865afa1580156113c9573d6000803e3d6000fd5b505050506040513d601f19601f820116820180604052508101906113ed91906119fd565b9050816000036114325762093a8080600162093a8084604001516114119190611985565b61141b91906119b6565b611425919061190c565b61142f919061192e565b91505b600454821061144a576000965050505050505061054b565b82821015611456578291505b6040805160808101825260008082526020820181905291810182905260608101829052905b6032811015611631578984101561163157826040015184101580156114a05750858811155b15611566576114b0600189611985565b9750829150858811156114ef5760405180608001604052806000600f0b81526020016000600f0b8152602001600081526020016000815250925061161f565b6040516309bb79ed60e11b8152600481018d9052602481018990526001600160a01b038c1690631376f3da90604401608060405180830381865afa15801561153b573d6000803e3d6000fd5b505050506040513d601f19601f8201168201806040525081019061155f91906119fd565b925061161f565b600082604001518561157891906119b6565b9050600061158f846020015183610d0b9190611a6f565b90508015801561159e5750878a115b156115aa575050611631565b801561160d5766038d7ea4c680088666038d7ea4c6800081106115cf576115cf61194d565b015460058766038d7ea4c6800081106115ea576115ea61194d565b01546115f6908361192e565b611600919061190c565b61160a908a611985565b98505b61161a62093a8087611985565b955050505b806116298161199d565b91505061147b565b50949a9950505050505050505050565b600080600090506000846001600160a01b031663900cf0cf6040518163ffffffff1660e01b8152600401602060405180830381865afa158015611688573d6000803e3d6000fd5b505050506040513d601f19601f820116820180604052508101906116ac91906119cd565b905060005b608081101561178c578183101561178c57600060026116d08486611985565b6116db906002611985565b6116e5919061190c565b60405163d1febfb960e01b8152600481018290529091506000906001600160a01b0389169063d1febfb990602401608060405180830381865afa158015611730573d6000803e3d6000fd5b505050506040513d601f19601f8201168201806040525081019061175491906119fd565b90508681604001511161176957819450611777565b6117746001836119b6565b93505b505080806117849061199d565b9150506116b1565b5090949350505050565b6000818310611040578161054b565b6000602082840312156117b757600080fd5b5035919050565b634e487b7160e01b600052604160045260246000fd5b604051601f8201601f1916810167ffffffffffffffff811182821017156117fd576117fd6117be565b604052919050565b6000602080838503121561181857600080fd5b823567ffffffffffffffff8082111561183057600080fd5b818501915085601f83011261184457600080fd5b813581811115611856576118566117be565b8060051b91506118678483016117d4565b818152918301840191848101908884111561188157600080fd5b938501935b8385101561189f57843582529385019390850190611886565b98975050505050505050565b600080604083850312156118be57600080fd5b50508035926020909101359150565b6000602082840312156118df57600080fd5b81356001600160a01b038116811461054b57600080fd5b634e487b7160e01b600052601160045260246000fd5b60008261192957634e487b7160e01b600052601260045260246000fd5b500490565b6000816000190483118215151615611948576119486118f6565b500290565b634e487b7160e01b600052603260045260246000fd5b60006020828403121561197557600080fd5b8151801515811461054b57600080fd5b60008219821115611998576119986118f6565b500190565b6000600182016119af576119af6118f6565b5060010190565b6000828210156119c8576119c86118f6565b500390565b6000602082840312156119df57600080fd5b5051919050565b8051600f81900b81146119f857600080fd5b919050565b600060808284031215611a0f57600080fd5b6040516080810181811067ffffffffffffffff82111715611a3257611a326117be565b604052611a3e836119e6565b8152611a4c602084016119e6565b602082015260408301516040820152606083015160608201528091505092915050565b600081600f0b83600f0b60016001607f1b03600082136000841383830485118282161615611a9f57611a9f6118f6565b6f7fffffffffffffffffffffffffffffff196000851282811687830587121615611acb57611acb6118f6565b60008712925085820587128484161615611ae757611ae76118f6565b85850587128184161615611afd57611afd6118f6565b5050509290910295945050505050565b600081600f0b83600f0b600081128160016001607f1b031901831281151615611b3857611b386118f6565b8160016001607f1b03018313811615611b5357611b536118f6565b5090039392505050565b634e487b7160e01b600052600160045260246000fd5b6000825160005b81811015611b945760208186018101518583015201611b7a565b81811115611ba3576000828501525b50919091019291505056fea2646970667358221220d13c59d9162b7057eb253d8d2838c6f313a7b0cd617c5c1cabb5157960553d9064736f6c634300080d0033","linkReferences":{}},"methodIdentifiers":{"checkpoint_token()":"811a40fe","checkpoint_total_supply()":"b21ed502","claim(uint256)":"379607f5","claim_many(uint256[])":"1f1db043","claimable(uint256)":"d1d58b25","depositor()":"c7c4ff46","last_token_time()":"7f58e8f8","notifyRewardAmount(uint256)":"3c6b16ab","setDepositor(address)":"f2c098b7","start_time()":"834ee417","time_cursor()":"127dcbd3","time_cursor_of(uint256)":"486d25fe","timestamp()":"b80777ea","token()":"fc0c546a","token_last_balance()":"22b04bfc","tokens_per_week(uint256)":"edf59997","user_epoch_of(uint256)":"16aea5c0","ve_for_at(uint256,uint256)":"68809889","ve_supply(uint256)":"d4dafba8","voting_escrow()":"dfe05031"},"id":19}