{"abi":[{"type":"constructor","inputs":[{"name":"_stake","type":"address","internalType":"address"},{"name":"_external_bribe","type":"address","internalType":"address"},{"name":"__ve","type":"address","internalType":"address"},{"name":"_voter","type":"address","internalType":"address"},{"name":"_oFlow","type":"address","internalType":"address"},{"name":"_gaugeFactory","type":"address","internalType":"address"},{"name":"_forPair","type":"bool","internalType":"bool"},{"name":"_allowedRewardTokens","type":"address[]","internalType":"address[]"}],"stateMutability":"nonpayable"},{"type":"function","name":"_ve","inputs":[],"outputs":[{"name":"","type":"address","internalType":"address"}],"stateMutability":"view"},{"type":"function","name":"balanceOf","inputs":[{"name":"","type":"address","internalType":"address"}],"outputs":[{"name":"","type":"uint256","internalType":"uint256"}],"stateMutability":"view"},{"type":"function","name":"batchRewardPerToken","inputs":[{"name":"token","type":"address","internalType":"address"},{"name":"maxRuns","type":"uint256","internalType":"uint256"}],"outputs":[],"stateMutability":"nonpayable"},{"type":"function","name":"batchUpdateRewardPerToken","inputs":[{"name":"token","type":"address","internalType":"address"},{"name":"maxRuns","type":"uint256","internalType":"uint256"}],"outputs":[],"stateMutability":"nonpayable"},{"type":"function","name":"checkpoints","inputs":[{"name":"","type":"address","internalType":"address"},{"name":"","type":"uint256","internalType":"uint256"}],"outputs":[{"name":"timestamp","type":"uint256","internalType":"uint256"},{"name":"balanceOf","type":"uint256","internalType":"uint256"}],"stateMutability":"view"},{"type":"function","name":"deposit","inputs":[{"name":"amount","type":"uint256","internalType":"uint256"},{"name":"tokenId","type":"uint256","internalType":"uint256"}],"outputs":[],"stateMutability":"nonpayable"},{"type":"function","name":"depositAll","inputs":[{"name":"tokenId","type":"uint256","internalType":"uint256"}],"outputs":[],"stateMutability":"nonpayable"},{"type":"function","name":"derivedBalance","inputs":[{"name":"account","type":"address","internalType":"address"}],"outputs":[{"name":"","type":"uint256","internalType":"uint256"}],"stateMutability":"view"},{"type":"function","name":"derivedBalances","inputs":[{"name":"","type":"address","internalType":"address"}],"outputs":[{"name":"","type":"uint256","internalType":"uint256"}],"stateMutability":"view"},{"type":"function","name":"derivedSupply","inputs":[],"outputs":[{"name":"","type":"uint256","internalType":"uint256"}],"stateMutability":"view"},{"type":"function","name":"earned","inputs":[{"name":"token","type":"address","internalType":"address"},{"name":"account","type":"address","internalType":"address"}],"outputs":[{"name":"","type":"uint256","internalType":"uint256"}],"stateMutability":"view"},{"type":"function","name":"external_bribe","inputs":[],"outputs":[{"name":"","type":"address","internalType":"address"}],"stateMutability":"view"},{"type":"function","name":"fees0","inputs":[],"outputs":[{"name":"","type":"uint256","internalType":"uint256"}],"stateMutability":"view"},{"type":"function","name":"fees1","inputs":[],"outputs":[{"name":"","type":"uint256","internalType":"uint256"}],"stateMutability":"view"},{"type":"function","name":"flow","inputs":[],"outputs":[{"name":"","type":"address","internalType":"address"}],"stateMutability":"view"},{"type":"function","name":"gaugeFactory","inputs":[],"outputs":[{"name":"","type":"address","internalType":"address"}],"stateMutability":"view"},{"type":"function","name":"getPriorBalanceIndex","inputs":[{"name":"account","type":"address","internalType":"address"},{"name":"timestamp","type":"uint256","internalType":"uint256"}],"outputs":[{"name":"","type":"uint256","internalType":"uint256"}],"stateMutability":"view"},{"type":"function","name":"getPriorRewardPerToken","inputs":[{"name":"token","type":"address","internalType":"address"},{"name":"timestamp","type":"uint256","internalType":"uint256"}],"outputs":[{"name":"","type":"uint256","internalType":"uint256"},{"name":"","type":"uint256","internalType":"uint256"}],"stateMutability":"view"},{"type":"function","name":"getPriorSupplyIndex","inputs":[{"name":"timestamp","type":"uint256","internalType":"uint256"}],"outputs":[{"name":"","type":"uint256","internalType":"uint256"}],"stateMutability":"view"},{"type":"function","name":"getReward","inputs":[{"name":"account","type":"address","internalType":"address"},{"name":"tokens","type":"address[]","internalType":"address[]"}],"outputs":[],"stateMutability":"nonpayable"},{"type":"function","name":"isForPair","inputs":[],"outputs":[{"name":"","type":"bool","internalType":"bool"}],"stateMutability":"view"},{"type":"function","name":"isReward","inputs":[{"name":"","type":"address","internalType":"address"}],"outputs":[{"name":"","type":"bool","internalType":"bool"}],"stateMutability":"view"},{"type":"function","name":"lastEarn","inputs":[{"name":"","type":"address","internalType":"address"},{"name":"","type":"address","internalType":"address"}],"outputs":[{"name":"","type":"uint256","internalType":"uint256"}],"stateMutability":"view"},{"type":"function","name":"lastTimeRewardApplicable","inputs":[{"name":"token","type":"address","internalType":"address"}],"outputs":[{"name":"","type":"uint256","internalType":"uint256"}],"stateMutability":"view"},{"type":"function","name":"lastUpdateTime","inputs":[{"name":"","type":"address","internalType":"address"}],"outputs":[{"name":"","type":"uint256","internalType":"uint256"}],"stateMutability":"view"},{"type":"function","name":"left","inputs":[{"name":"token","type":"address","internalType":"address"}],"outputs":[{"name":"","type":"uint256","internalType":"uint256"}],"stateMutability":"view"},{"type":"function","name":"notifyRewardAmount","inputs":[{"name":"token","type":"address","internalType":"address"},{"name":"amount","type":"uint256","internalType":"uint256"}],"outputs":[],"stateMutability":"nonpayable"},{"type":"function","name":"numCheckpoints","inputs":[{"name":"","type":"address","internalType":"address"}],"outputs":[{"name":"","type":"uint256","internalType":"uint256"}],"stateMutability":"view"},{"type":"function","name":"oFlow","inputs":[],"outputs":[{"name":"","type":"address","internalType":"address"}],"stateMutability":"view"},{"type":"function","name":"periodFinish","inputs":[{"name":"","type":"address","internalType":"address"}],"outputs":[{"name":"","type":"uint256","internalType":"uint256"}],"stateMutability":"view"},{"type":"function","name":"rewardPerToken","inputs":[{"name":"token","type":"address","internalType":"address"}],"outputs":[{"name":"","type":"uint256","internalType":"uint256"}],"stateMutability":"view"},{"type":"function","name":"rewardPerTokenCheckpoints","inputs":[{"name":"","type":"address","internalType":"address"},{"name":"","type":"uint256","internalType":"uint256"}],"outputs":[{"name":"timestamp","type":"uint256","internalType":"uint256"},{"name":"rewardPerToken","type":"uint256","internalType":"uint256"}],"stateMutability":"view"},{"type":"function","name":"rewardPerTokenNumCheckpoints","inputs":[{"name":"","type":"address","internalType":"address"}],"outputs":[{"name":"","type":"uint256","internalType":"uint256"}],"stateMutability":"view"},{"type":"function","name":"rewardPerTokenStored","inputs":[{"name":"","type":"address","internalType":"address"}],"outputs":[{"name":"","type":"uint256","internalType":"uint256"}],"stateMutability":"view"},{"type":"function","name":"rewardRate","inputs":[{"name":"","type":"address","internalType":"address"}],"outputs":[{"name":"","type":"uint256","internalType":"uint256"}],"stateMutability":"view"},{"type":"function","name":"rewards","inputs":[{"name":"","type":"uint256","internalType":"uint256"}],"outputs":[{"name":"","type":"address","internalType":"address"}],"stateMutability":"view"},{"type":"function","name":"rewardsListLength","inputs":[],"outputs":[{"name":"","type":"uint256","internalType":"uint256"}],"stateMutability":"view"},{"type":"function","name":"setOFlow","inputs":[{"name":"_oFlow","type":"address","internalType":"address"}],"outputs":[],"stateMutability":"nonpayable"},{"type":"function","name":"stake","inputs":[],"outputs":[{"name":"","type":"address","internalType":"address"}],"stateMutability":"view"},{"type":"function","name":"supplyCheckpoints","inputs":[{"name":"","type":"uint256","internalType":"uint256"}],"outputs":[{"name":"timestamp","type":"uint256","internalType":"uint256"},{"name":"supply","type":"uint256","internalType":"uint256"}],"stateMutability":"view"},{"type":"function","name":"supplyNumCheckpoints","inputs":[],"outputs":[{"name":"","type":"uint256","internalType":"uint256"}],"stateMutability":"view"},{"type":"function","name":"swapOutRewardToken","inputs":[{"name":"i","type":"uint256","internalType":"uint256"},{"name":"oldToken","type":"address","internalType":"address"},{"name":"newToken","type":"address","internalType":"address"}],"outputs":[],"stateMutability":"nonpayable"},{"type":"function","name":"tokenIds","inputs":[{"name":"","type":"address","internalType":"address"}],"outputs":[{"name":"","type":"uint256","internalType":"uint256"}],"stateMutability":"view"},{"type":"function","name":"totalSupply","inputs":[],"outputs":[{"name":"","type":"uint256","internalType":"uint256"}],"stateMutability":"view"},{"type":"function","name":"userRewardPerTokenStored","inputs":[{"name":"","type":"address","internalType":"address"},{"name":"","type":"address","internalType":"address"}],"outputs":[{"name":"","type":"uint256","internalType":"uint256"}],"stateMutability":"view"},{"type":"function","name":"voter","inputs":[],"outputs":[{"name":"","type":"address","internalType":"address"}],"stateMutability":"view"},{"type":"function","name":"withdraw","inputs":[{"name":"amount","type":"uint256","internalType":"uint256"}],"outputs":[],"stateMutability":"nonpayable"},{"type":"function","name":"withdrawAll","inputs":[],"outputs":[],"stateMutability":"nonpayable"},{"type":"function","name":"withdrawToken","inputs":[{"name":"amount","type":"uint256","internalType":"uint256"},{"name":"tokenId","type":"uint256","internalType":"uint256"}],"outputs":[],"stateMutability":"nonpayable"},{"type":"event","name":"ClaimRewards","inputs":[{"name":"from","type":"address","indexed":true,"internalType":"address"},{"name":"reward","type":"address","indexed":true,"internalType":"address"},{"name":"amount","type":"uint256","indexed":false,"internalType":"uint256"}],"anonymous":false},{"type":"event","name":"Deposit","inputs":[{"name":"from","type":"address","indexed":true,"internalType":"address"},{"name":"tokenId","type":"uint256","indexed":false,"internalType":"uint256"},{"name":"amount","type":"uint256","indexed":false,"internalType":"uint256"}],"anonymous":false},{"type":"event","name":"NotifyReward","inputs":[{"name":"from","type":"address","indexed":true,"internalType":"address"},{"name":"reward","type":"address","indexed":true,"internalType":"address"},{"name":"amount","type":"uint256","indexed":false,"internalType":"uint256"}],"anonymous":false},{"type":"event","name":"OFlowSet","inputs":[{"name":"_oFlow","type":"address","indexed":true,"internalType":"address"}],"anonymous":false},{"type":"event","name":"Withdraw","inputs":[{"name":"from","type":"address","indexed":true,"internalType":"address"},{"name":"tokenId","type":"uint256","indexed":false,"internalType":"uint256"},{"name":"amount","type":"uint256","indexed":false,"internalType":"uint256"}],"anonymous":false}],"bytecode":{"object":"0x61014060405260016017553480156200001757600080fd5b506040516200391b3803806200391b8339810160408190526200003a916200035c565b6001600160a01b0388811660805287811660c05286811660a081905286821660e052600080546001600160a01b031916878416179055908416610120526003805460ff19168415151790556040805163c55dae6360e01b8152905163c55dae63916004808201926020929091908290030181865afa158015620000c1573d6000803e3d6000fd5b505050506040513d601f19601f82011682018060405250810190620000e79190620004b4565b6001600160a01b039081166101008190526000546200010a92166000196200021f565b60005b8151811015620002105760006001600160a01b0316828281518110620001375762000137620004d9565b60200260200101516001600160a01b031614620001fb576001600e6000848481518110620001695762000169620004d9565b60200260200101516001600160a01b03166001600160a01b0316815260200190815260200160002060006101000a81548160ff021916908315150217905550600d828281518110620001bf57620001bf620004d9565b60209081029190910181015182546001810184556000938452919092200180546001600160a01b0319166001600160a01b039092169190911790555b806200020781620004ef565b9150506200010d565b50505050505050505062000573565b6000836001600160a01b03163b116200023757600080fd5b604080516001600160a01b038481166024830152604480830185905283518084039091018152606490920183526020820180516001600160e01b031663095ea7b360e01b179052915160009283929087169162000295919062000517565b6000604051808303816000865af19150503d8060008114620002d4576040519150601f19603f3d011682016040523d82523d6000602084013e620002d9565b606091505b5091509150818015620003075750805115806200030757508080602001905181019062000307919062000555565b6200031157600080fd5b5050505050565b80516001600160a01b03811681146200033057600080fd5b919050565b805180151581146200033057600080fd5b634e487b7160e01b600052604160045260246000fd5b600080600080600080600080610100898b0312156200037a57600080fd5b620003858962000318565b9750602062000396818b0162000318565b9750620003a660408b0162000318565b9650620003b660608b0162000318565b9550620003c660808b0162000318565b9450620003d660a08b0162000318565b9350620003e660c08b0162000335565b60e08b01519093506001600160401b03808211156200040457600080fd5b818c0191508c601f8301126200041957600080fd5b8151818111156200042e576200042e62000346565b8060051b604051601f19603f8301168101818110858211171562000456576200045662000346565b60405291825284820192508381018501918f8311156200047557600080fd5b938501935b828510156200049e576200048e8562000318565b845293850193928501926200047a565b8096505050505050509295985092959890939650565b600060208284031215620004c757600080fd5b620004d28262000318565b9392505050565b634e487b7160e01b600052603260045260246000fd5b6000600182016200051057634e487b7160e01b600052601160045260246000fd5b5060010190565b6000825160005b818110156200053a57602081860181015185830152016200051e565b818111156200054a576000828501525b509190910192915050565b6000602082840312156200056857600080fd5b620004d28262000335565b60805160a05160c05160e05161010051610120516132e862000633600039600081816103820152611f4401526000818161044e01528181610ee30152611fc50152600081816104da01528181610c5601528181610c9b0152818161154501528181611d6a01528181611e8f0152818161240a0152612522015260006103110152600081816105f1015281816112ad0152611c9e015260008181610475015281816114cb01528181611b6f01528181611c16015261238b01526132e86000f3fe608060405234801561001057600080fd5b50600436106102bb5760003560e01c806376f4be3611610182578063d7da4bb0116100e9578063f00dc8ef116100a2578063f7412baf1161007c578063f7412baf1461078f578063fc97a303146107b6578063fd314098146107d6578063fdb483c7146107e957600080fd5b8063f00dc8ef14610756578063f122977714610769578063f301af421461077c57600080fd5b8063d7da4bb0146106fc578063da09d19d14610705578063e2bbb15814610725578063e574821314610738578063e688639614610745578063e8111a121461074d57600080fd5b80639ce43f901161013b5780639ce43f9014610642578063a495e5b514610662578063aa4796521461068d578063b66503cf146106ad578063c6f678bd146106c0578063d35e2544146106d357600080fd5b806376f4be36146105d1578063853828b6146105e45780638dd598fb146105ec57806393f1c442146106135780639418f9391461061c57806399bcc0521461062f57600080fd5b80633a4b66f1116102265780635a45d052116101df5780635a45d05214610538578063638634ee1461054b57806363fb415b1461055e57806368fcee1a1461057e5780636fcfff451461059157806370a08231146105b157600080fd5b80633a4b66f1146104705780633ca068b6146104975780634665b5c9146104c257806346c96aac146104d55780634c02a21c146104fc5780634d5ce0381461050557600080fd5b8063211dc32d11610278578063211dc32d146103ce578063221ca18c146103e15780632ce9aead146104015780632e1a7d4d1461042157806331279d3d14610436578063343aad821461044957600080fd5b806301316ddf146102c057806303fbf83a1461030c5780630cdfebfa1461034b5780630d52333c1461037d578063115c6f39146103a457806318160ddd146103c5575b600080fd5b6102f26102ce366004612f7b565b60136020908152600092835260408084209091529082529020805460019091015482565b604080519283526020830191909152015b60405180910390f35b6103337f000000000000000000000000000000000000000000000000000000000000000081565b6040516001600160a01b039091168152602001610303565b6102f2610359366004612f7b565b600f6020908152600092835260408084209091529082529020805460019091015482565b6103337f000000000000000000000000000000000000000000000000000000000000000081565b6103b76103b2366004612f7b565b6107fc565b604051908152602001610303565b6103b7600b5481565b6103b76103dc366004612fa7565b61096b565b6103b76103ef366004612fe0565b60046020526000908152604090205481565b6103b761040f366004612fe0565b60066020526000908152604090205481565b61043461042f366004612ffd565b610bef565b005b61043461044436600461302c565b610c25565b6103337f000000000000000000000000000000000000000000000000000000000000000081565b6103337f000000000000000000000000000000000000000000000000000000000000000081565b6103b76104a5366004612fa7565b600960209081526000928352604080842090915290825290205481565b600054610333906001600160a01b031681565b6103337f000000000000000000000000000000000000000000000000000000000000000081565b6103b760165481565b610528610513366004612fe0565b600e6020526000908152604090205460ff1681565b6040519015158152602001610303565b610434610546366004612f7b565b6110f4565b6103b7610559366004612fe0565b61112c565b6103b761056c366004612fe0565b60026020526000908152604090205481565b61043461058c366004612f7b565b611150565b6103b761059f366004612fe0565b60106020526000908152604090205481565b6103b76105bf366004612fe0565b600c6020526000908152604090205481565b6103b76105df366004612ffd565b61115c565b610434611290565b6103337f000000000000000000000000000000000000000000000000000000000000000081565b6103b760155481565b61043461062a366004613106565b6112ab565b6103b761063d366004612fe0565b61143c565b6103b7610650366004612fe0565b60076020526000908152604090205481565b6103b7610670366004612fa7565b600860209081526000928352604080842090915290825290205481565b6103b761069b366004612fe0565b60146020526000908152604090205481565b6104346106bb366004612f7b565b6114ad565b6104346106ce366004612ffd565b611b56565b6103b76106e1366004612fe0565b6001600160a01b03166000908152600c602052604090205490565b6103b760015481565b6103b7610713366004612fe0565b60056020526000908152604090205481565b610434610733366004613148565b611beb565b6003546105289060ff1681565b600d546103b7565b6103b760125481565b610434610764366004612fe0565b611f39565b6103b7610777366004612fe0565b612024565b61033361078a366004612ffd565b6120e3565b6102f261079d366004612ffd565b6011602052600090815260409020805460019091015482565b6103b76107c4366004612fe0565b600a6020526000908152604090205481565b6102f26107e4366004612f7b565b61210d565b6104346107f7366004613148565b61232e565b6001600160a01b038216600090815260106020526040812054808203610826576000915050610965565b6001600160a01b0384166000908152600f60205260408120849161084b600185613180565b815260200190815260200160002060000154116108755761086d600182613180565b915050610965565b6001600160a01b0384166000908152600f602090815260408083208380529091529020548310156108aa576000915050610965565b6000806108b8600184613180565b90505b8181111561096057600060026108d18484613180565b6108db9190613197565b6108e59083613180565b6001600160a01b0388166000908152600f6020908152604080832084845282529182902082518084019093528054808452600190910154918301919091529192509087900361093a5750935061096592505050565b805187111561094b57819350610959565b610956600183613180565b92505b50506108bb565b509150505b92915050565b6001600160a01b0380831660008181526008602090815260408083209486168352938152838220549282526013815283822082805290529182205482916109b1916125be565b6001600160a01b038416600090815260106020526040812054919250036109dc576000915050610965565b60006109e884836107fc565b6001600160a01b03851660009081526010602052604081205491925090610a1190600190613180565b905060008115610b2357825b610a28600184613180565b8111610b21576001600160a01b0387166000818152600f602081815260408084208685528083528185208251808401909352805483526001908101548385015295855292909152928290610a7d9086906131b9565b81526020019081526020016000206040518060400160405290816000820154815260200160018201548152505090506000610abc8b846000015161210d565b5090506000610acf8c846000015161210d565b509050670de0b6b3a7640000610ae58383613180565b8560200151610af491906131d1565b610afe9190613197565b610b0890876131b9565b9550505050508080610b19906131f0565b915050610a1d565b505b6001600160a01b0386166000908152600f60209081526040808320858452825280832081518083019092528054808352600190910154928201929092529190610b6d908a9061210d565b506001600160a01b03808b166000908152600960209081526040808320938d1683529290522054909150670de0b6b3a764000090610bac9083906125be565b610bb58b612024565b610bbf9190613180565b8360200151610bce91906131d1565b610bd89190613197565b610be290846131b9565b9998505050505050505050565b336000908152600c60205260408120548203610c175750336000908152600a60205260409020545b610c21828261232e565b5050565b601754600114610c3457600080fd5b6002601755336001600160a01b0383161480610c785750336001600160a01b037f000000000000000000000000000000000000000000000000000000000000000016145b610c8157600080fd5b60016017556040516363453ae160e01b81523060048201527f00000000000000000000000000000000000000000000000000000000000000006001600160a01b0316906363453ae190602401600060405180830381600087803b158015610ce757600080fd5b505af1158015610cfb573d6000803e3d6000fd5b5050600260175550600090505b815181101561104d57610d38828281518110610d2657610d26613209565b602002602001015160001960016125d4565b60076000858581518110610d4e57610d4e613209565b60200260200101516001600160a01b03166001600160a01b03168152602001908152602001600020600060066000878781518110610d8e57610d8e613209565b60200260200101516001600160a01b03166001600160a01b0316815260200190815260200160002060008491905055839190505550506000610de9838381518110610ddb57610ddb613209565b60200260200101518561096b565b90504260086000858581518110610e0257610e02613209565b60200260200101516001600160a01b03166001600160a01b031681526020019081526020016000206000866001600160a01b03166001600160a01b031681526020019081526020016000208190555060076000848481518110610e6757610e67613209565b60200260200101516001600160a01b03166001600160a01b031681526020019081526020016000205460096000858581518110610ea657610ea6613209565b6020908102919091018101516001600160a01b039081168352828201939093526040918201600090812093891681529290529020558015610fd4577f00000000000000000000000000000000000000000000000000000000000000006001600160a01b0316838381518110610f1d57610f1d613209565b60200260200101516001600160a01b031603610fbf576000546040516340c10f1960e01b81526001600160a01b03868116600483015260248201849052909116906340c10f1990604401600060405180830381600087803b158015610f8157600080fd5b505af1925050508015610f92575060015b610fba57610fba838381518110610fab57610fab613209565b602002602001015185836127c4565b610fd4565b610fd4838381518110610fab57610fab613209565b828281518110610fe657610fe6613209565b60200260200101516001600160a01b0316336001600160a01b03167f9aa05b3d70a9e3e2f004f039648839560576334fb45c81f91b6db03ad9e2efc98360405161103291815260200190565b60405180910390a35080611045816131f0565b915050610d08565b506001600160a01b038216600090815260026020526040812054600180549192839261107a908490613180565b9091555050506001600160a01b0382166000908152600c60209081526040808320546002909252822081905560018054919283926110b99084906131b9565b90915550506001600160a01b0383166000908152600260205260409020546110e29084906128c4565b6110ea6129cf565b5050600160175550565b6110fe8282612a74565b6001600160a01b03909316600090815260076020908152604080832060069092529091209390935590915550565b6001600160a01b038116600090815260056020526040812054610965904290612bd7565b6110fe828260006125d4565b6012546000908082036111725750600092915050565b8260116000611182600185613180565b815260200190815260200160002060000154116111ab576111a4600182613180565b9392505050565b6000805260116020527f4ad3b33220dddc71b994a52d72c06b10862965f7d926534c05c00fb7e819e7b7548310156111e65750600092915050565b6000806111f4600184613180565b90505b81811115611288576000600261120d8484613180565b6112179190613197565b6112219083613180565b600081815260116020908152604091829020825180840190935280548084526001909101549183019190915291925090879003611262575095945050505050565b805187111561127357819350611281565b61127e600183613180565b92505b50506111f7565b509392505050565b336000908152600c60205260409020546112a990610bef565b565b7f00000000000000000000000000000000000000000000000000000000000000006001600160a01b03166385f2aef26040518163ffffffff1660e01b81526004016020604051808303816000875af115801561130b573d6000803e3d6000fd5b505050506040513d601f19601f8201168201806040525081019061132f919061321f565b6001600160a01b0316336001600160a01b0316146113805760405162461bcd60e51b81526020600482015260096024820152686f6e6c79207465616d60b81b60448201526064015b60405180910390fd5b816001600160a01b0316600d848154811061139d5761139d613209565b6000918252602090912001546001600160a01b0316146113bc57600080fd5b6001600160a01b038083166000908152600e6020526040808220805460ff199081169091559284168252902080549091166001179055600d80548291908590811061140957611409613209565b9060005260206000200160006101000a8154816001600160a01b0302191690836001600160a01b03160217905550505050565b6001600160a01b038116600090815260056020526040812054421061146357506000919050565b6001600160a01b038216600090815260056020526040812054611487904290613180565b6001600160a01b0384166000908152600460205260409020549091506111a490826131d1565b6017546001146114bc57600080fd5b60026017556001600160a01b037f00000000000000000000000000000000000000000000000000000000000000008116908316036114f957600080fd5b6000811161150657600080fd5b6001600160a01b0382166000908152600e602052604090205460ff1661165957604051633af32abf60e01b81526001600160a01b0383811660048301527f00000000000000000000000000000000000000000000000000000000000000001690633af32abf90602401602060405180830381865afa15801561158c573d6000803e3d6000fd5b505050506040513d601f19601f820116820180604052508101906115b0919061323c565b6116075760405162461bcd60e51b815260206004820152602260248201527f7265776172647320746f6b656e73206d7573742062652077686974656c697374604482015261195960f21b6064820152608401611377565b600d546004116116595760405162461bcd60e51b815260206004820152601760248201527f746f6f206d616e79207265776172647320746f6b656e730000000000000000006044820152606401611377565b6001600160a01b03821660009081526004602052604081205490036116845761168482600042612be6565b6116928260001960016125d4565b6001600160a01b03841660009081526007602090815260408083206006835281842094909455939092556005909152205442106117e9576040516370a0823160e01b81523060048201526000906001600160a01b038416906370a0823190602401602060405180830381865afa158015611710573d6000803e3d6000fd5b505050506040513d601f19601f82011682018060405250810190611734919061325e565b905061174283333085612cd5565b6040516370a0823160e01b81523060048201526000906001600160a01b038516906370a0823190602401602060405180830381865afa158015611789573d6000803e3d6000fd5b505050506040513d601f19601f820116820180604052508101906117ad919061325e565b90506117b98282613180565b92506117c862093a8084613197565b6001600160a01b0385166000908152600460205260409020555061196a9050565b6001600160a01b03821660009081526005602052604081205461180d904290613180565b6001600160a01b0384166000908152600460205260408120549192509061183490836131d1565b905080831161184257600080fd5b6040516370a0823160e01b81523060048201526000906001600160a01b038616906370a0823190602401602060405180830381865afa158015611889573d6000803e3d6000fd5b505050506040513d601f19601f820116820180604052508101906118ad919061325e565b90506118bb85333087612cd5565b6040516370a0823160e01b81523060048201526000906001600160a01b038716906370a0823190602401602060405180830381865afa158015611902573d6000803e3d6000fd5b505050506040513d601f19601f82011682018060405250810190611926919061325e565b90506119328282613180565b945062093a8061194284876131b9565b61194c9190613197565b6001600160a01b038716600090815260046020526040902055505050505b6001600160a01b03821660009081526004602052604090205461198c57600080fd5b6040516370a0823160e01b81523060048201526000906001600160a01b038416906370a0823190602401602060405180830381865afa1580156119d3573d6000803e3d6000fd5b505050506040513d601f19601f820116820180604052508101906119f7919061325e565b9050611a0662093a8082613197565b6001600160a01b0384166000908152600460205260409020541115611a6d5760405162461bcd60e51b815260206004820152601860248201527f50726f76696465642072657761726420746f6f206869676800000000000000006044820152606401611377565b611a7a62093a80426131b9565b6001600160a01b038416600090815260056020908152604080832093909355600e9052205460ff16611b0c576001600160a01b0383166000818152600e60205260408120805460ff19166001908117909155600d805491820181559091527fd7b6990105719101dabeb77144f2a3385c8033acd3af97e9423a695e81ad1eb50180546001600160a01b03191690911790555b6040518281526001600160a01b0384169033907ff70d5c697de7ea828df48e5c4573cb2194c659f1901f70110c52b066dcf508269060200160405180910390a35050600160175550565b6040516370a0823160e01b8152336004820152611be8907f00000000000000000000000000000000000000000000000000000000000000006001600160a01b0316906370a0823190602401602060405180830381865afa158015611bbe573d6000803e3d6000fd5b505050506040513d601f19601f82011682018060405250810190611be2919061325e565b82611beb565b50565b601754600114611bfa57600080fd5b600260175581611c0957600080fd5b611c11612dcd565b611c3d7f0000000000000000000000000000000000000000000000000000000000000000333085612cd5565b81600b6000828254611c4f91906131b9565b9091555050336000908152600c602052604081208054849290611c739084906131b9565b90915550508015611de7576040516331a9108f60e11b81526004810182905233906001600160a01b037f00000000000000000000000000000000000000000000000000000000000000001690636352211e90602401602060405180830381865afa158015611ce5573d6000803e3d6000fd5b505050506040513d601f19601f82011682018060405250810190611d09919061321f565b6001600160a01b031614611d1c57600080fd5b336000908152600a60205260408120549003611dc757336000818152600a6020526040908190208390555163698473e360e01b81526004810183905260248101919091526001600160a01b037f0000000000000000000000000000000000000000000000000000000000000000169063698473e390604401600060405180830381600087803b158015611dae57600080fd5b505af1158015611dc2573d6000803e3d6000fd5b505050505b336000908152600a60205260409020548114611de257600080fd5b611df9565b50336000908152600a60205260409020545b336000908152600260205260408120546001805491928392611e1c908490613180565b9091555050336000908152600c6020908152604080832054600290925282208190556001805491935083929091611e549084906131b9565b90915550611e64905033826128c4565b611e6c6129cf565b60405163530e389d60e11b815260048101839052336024820152604481018490527f00000000000000000000000000000000000000000000000000000000000000006001600160a01b03169063a61c713a90606401600060405180830381600087803b158015611edb57600080fd5b505af1158015611eef573d6000803e3d6000fd5b505060408051858152602081018790523393507f90890809c654f11d6e72a28fa60149770a0d11ec6c92319d6ceb2bb0a4ea1a159250015b60405180910390a25050600160175550565b336001600160a01b037f00000000000000000000000000000000000000000000000000000000000000001614611fa55760405162461bcd60e51b81526020600482015260116024820152706e6f7420676175676520666163746f727960781b6044820152606401611377565b600080546001600160a01b0319166001600160a01b038316179055611fed7f000000000000000000000000000000000000000000000000000000000000000082600019612e51565b6040516001600160a01b038216907f1da6983162fbed6342bb3a16724b0ea000cb17abdcd9d7699a13866ee978cd8290600090a250565b600060015460000361204c57506001600160a01b031660009081526007602052604090205490565b6001546001600160a01b03831660009081526004602090815260408083205460068352818420546005909352922054670de0b6b3a7640000929161208f91612bd7565b6120988661112c565b6120a29190613180565b6120ac91906131d1565b6120b691906131d1565b6120c09190613197565b6001600160a01b03831660009081526007602052604090205461096591906131b9565b600d81815481106120f357600080fd5b6000918252602090912001546001600160a01b0316905081565b6001600160a01b038216600090815260146020526040812054819080820361213c576000809250925050612327565b6001600160a01b03851660009081526013602052604081208591612161600185613180565b815260200190815260200160002060000154116121fe576001600160a01b03851660009081526013602052604081209061219c600184613180565b81526020019081526020016000206001015460136000876001600160a01b03166001600160a01b0316815260200190815260200160002060006001846121e29190613180565b8152602001908152602001600020600001549250925050612327565b6001600160a01b0385166000908152601360209081526040808320838052909152902054841015612236576000809250925050612327565b600080612244600184613180565b90505b818111156122f6576000600261225d8484613180565b6122679190613197565b6122719083613180565b6001600160a01b03891660009081526013602090815260408083208484528252918290208251808401909352805480845260019091015491830191909152919250908890036122d0576020810151905190965094506123279350505050565b80518811156122e1578193506122ef565b6122ec600183613180565b92505b5050612247565b506001600160a01b038616600090815260136020908152604080832093835292905220600181015490549093509150505b9250929050565b60175460011461233d57600080fd5b600260175561234a612dcd565b81600b600082825461235c9190613180565b9091555050336000908152600c602052604081208054849290612380908490613180565b909155506123b190507f000000000000000000000000000000000000000000000000000000000000000033846127c4565b801561246b57336000908152600a602052604090205481146123d257600080fd5b336000818152600a6020526040808220919091555163411b1f7760e01b81526004810183905260248101919091526001600160a01b037f0000000000000000000000000000000000000000000000000000000000000000169063411b1f7790604401600060405180830381600087803b15801561244e57600080fd5b505af1158015612462573d6000803e3d6000fd5b5050505061247d565b50336000908152600a60205260409020545b3360009081526002602052604081205460018054919283926124a0908490613180565b9091555050336000908152600c60209081526040808320546002909252822081905560018054919350839290916124d89084906131b9565b9091555050336000818152600260205260409020546124f791906128c4565b6124ff6129cf565b604051633aa53b9160e21b815260048101839052336024820152604481018490527f00000000000000000000000000000000000000000000000000000000000000006001600160a01b03169063ea94ee4490606401600060405180830381600087803b15801561256e57600080fd5b505af1158015612582573d6000803e3d6000fd5b505060408051858152602081018790523393507ff279e6a1f5e320cca91135676d9cb6e44ca8a08c0b88342bcdb1144f6511b568925001611f27565b60008183116125cd57816111a4565b5090919050565b6001600160a01b038316600090815260066020908152604080832054600790925282205460125483929190830361260e57925090506127bc565b6001600160a01b03871660009081526004602052604081205490036126395792504291506127bc9050565b60006126448361115c565b90506000612660600160125461265a9190613180565b89612bd7565b9050801561273957815b612675600183613180565b81116127375760008181526011602090815260409182902082518084019093528054835260010154908201819052156127245760006011816126b88560016131b9565b81526020019081526020016000206040518060400160405290816000820154815260200160018201548152505090506000806127038e8460000151866000015187602001518d612e9b565b909250905061271282896131b9565b975061271f8e8983612be6565b975050505b508061272f816131f0565b91505061266a565b505b86156127b35760008181526011602090815260409182902082518084019093528054835260010154908201819052156127b15760006127928b61277b8d61112c565b8451612787908a6125be565b85602001518a612e9b565b50905061279f81866131b9565b94506127ac8b8642612be6565b429550505b505b50909350909150505b935093915050565b6000836001600160a01b03163b116127db57600080fd5b6040516001600160a01b03838116602483015260448201839052600091829186169063a9059cbb60e01b906064015b60408051601f198184030181529181526020820180516001600160e01b03166001600160e01b03199094169390931790925290516128489190613277565b6000604051808303816000865af19150503d8060008114612885576040519150601f19603f3d011682016040523d82523d6000602084013e61288a565b606091505b50915091508180156128b45750805115806128b45750808060200190518101906128b4919061323c565b6128bd57600080fd5b5050505050565b6001600160a01b0382166000908152601060205260409020544290801580159061292257506001600160a01b0384166000908152600f60205260408120839161290e600185613180565b815260200190815260200160002060000154145b15612965576001600160a01b0384166000908152600f60205260408120849161294c600185613180565b81526020810191909152604001600020600101556129c9565b60408051808201825283815260208082018681526001600160a01b0388166000908152600f83528481208682529092529290209051815590516001918201556129af9082906131b9565b6001600160a01b0385166000908152601060205260409020555b50505050565b601254428115801590612a01575080601160006129ed600186613180565b815260200190815260200160002060000154145b15612a325760015460116000600185612a1a9190613180565b81526020810191909152604001600020600101555050565b604080518082018252828152600180546020808401918252600087815260119091529390932091518255915190820155612a6d9083906131b9565b6012555050565b6001600160a01b0382166000908152600660209081526040808320546007909252822054601254839291908303612aae5792509050612327565b6001600160a01b0386166000908152600460205260408120549003612ad95792504291506123279050565b6000612ae48361115c565b90506000612b006001601254612afa9190613180565b88612bd7565b9050815b81811015612bc8576000818152601160209081526040918290208251808401909352805483526001015490820181905215612bb5576000601181612b498560016131b9565b8152602001908152602001600020604051806040016040529081600082015481526020016001820154815250509050600080612b948d8460000151866000015187602001518d612e9b565b9092509050612ba382896131b9565b9750612bb08d8983612be6565b975050505b5080612bc0816131f0565b915050612b04565b50919792965091945050505050565b60008183106125cd57816111a4565b6001600160a01b0383166000908152601460205260409020548015801590612c4257506001600160a01b03841660009081526013602052604081208391612c2e600185613180565b815260200190815260200160002060000154145b15612c6c576001600160a01b0384166000908152601360205260408120849161294c600185613180565b60408051808201825283815260208082018681526001600160a01b038816600090815260138352848120868252909252929020905181559051600191820155612cb69082906131b9565b6001600160a01b03851660009081526014602052604090205550505050565b6000846001600160a01b03163b11612cec57600080fd5b604080516001600160a01b0385811660248301528481166044830152606480830185905283518084039091018152608490920183526020820180516001600160e01b03166323b872dd60e01b1790529151600092839290881691612d509190613277565b6000604051808303816000865af19150503d8060008114612d8d576040519150601f19603f3d011682016040523d82523d6000602084013e612d92565b606091505b5091509150818015612dbc575080511580612dbc575080806020019051810190612dbc919061323c565b612dc557600080fd5b505050505050565b600d5460005b81811015610c21576000600d8281548110612df057612df0613209565b6000918252602090912001546001600160a01b03169050612e158160001960016125d4565b6001600160a01b039092166000908152600760209081526040808320600690925290912092909255905580612e49816131f0565b915050612dd3565b6000836001600160a01b03163b11612e6857600080fd5b6040516001600160a01b03838116602483015260448201839052600091829186169063095ea7b360e01b9060640161280a565b6000806000612eaa87856125be565b6001600160a01b0389166000908152600460205260409020549091508590670de0b6b3a764000090612efd612edf8a896125be565b6001600160a01b038d16600090815260056020526040902054612bd7565b6001600160a01b038c16600090815260056020526040902054612f21908690612bd7565b612f2b9190613180565b612f3591906131d1565b612f3f91906131d1565b612f499190613197565b9890975095505050505050565b6001600160a01b0381168114611be857600080fd5b8035612f7681612f56565b919050565b60008060408385031215612f8e57600080fd5b8235612f9981612f56565b946020939093013593505050565b60008060408385031215612fba57600080fd5b8235612fc581612f56565b91506020830135612fd581612f56565b809150509250929050565b600060208284031215612ff257600080fd5b81356111a481612f56565b60006020828403121561300f57600080fd5b5035919050565b634e487b7160e01b600052604160045260246000fd5b6000806040838503121561303f57600080fd5b823561304a81612f56565b915060208381013567ffffffffffffffff8082111561306857600080fd5b818601915086601f83011261307c57600080fd5b81358181111561308e5761308e613016565b8060051b604051601f19603f830116810181811085821117156130b3576130b3613016565b6040529182528482019250838101850191898311156130d157600080fd5b938501935b828510156130f6576130e785612f6b565b845293850193928501926130d6565b8096505050505050509250929050565b60008060006060848603121561311b57600080fd5b83359250602084013561312d81612f56565b9150604084013561313d81612f56565b809150509250925092565b6000806040838503121561315b57600080fd5b50508035926020909101359150565b634e487b7160e01b600052601160045260246000fd5b6000828210156131925761319261316a565b500390565b6000826131b457634e487b7160e01b600052601260045260246000fd5b500490565b600082198211156131cc576131cc61316a565b500190565b60008160001904831182151516156131eb576131eb61316a565b500290565b6000600182016132025761320261316a565b5060010190565b634e487b7160e01b600052603260045260246000fd5b60006020828403121561323157600080fd5b81516111a481612f56565b60006020828403121561324e57600080fd5b815180151581146111a457600080fd5b60006020828403121561327057600080fd5b5051919050565b6000825160005b81811015613298576020818601810151858301520161327e565b818111156132a7576000828501525b50919091019291505056fea264697066735822122065ab30d7db30e49b71ce6915be96851e8bead649fe82d21cf577e5920479351364736f6c634300080d0033","linkReferences":{}},"methodIdentifiers":{"_ve()":"8dd598fb","balanceOf(address)":"70a08231","batchRewardPerToken(address,uint256)":"5a45d052","batchUpdateRewardPerToken(address,uint256)":"68fcee1a","checkpoints(address,uint256)":"0cdfebfa","deposit(uint256,uint256)":"e2bbb158","depositAll(uint256)":"c6f678bd","derivedBalance(address)":"d35e2544","derivedBalances(address)":"63fb415b","derivedSupply()":"d7da4bb0","earned(address,address)":"211dc32d","external_bribe()":"03fbf83a","fees0()":"93f1c442","fees1()":"4c02a21c","flow()":"343aad82","gaugeFactory()":"0d52333c","getPriorBalanceIndex(address,uint256)":"115c6f39","getPriorRewardPerToken(address,uint256)":"fd314098","getPriorSupplyIndex(uint256)":"76f4be36","getReward(address,address[])":"31279d3d","isForPair()":"e5748213","isReward(address)":"4d5ce038","lastEarn(address,address)":"a495e5b5","lastTimeRewardApplicable(address)":"638634ee","lastUpdateTime(address)":"2ce9aead","left(address)":"99bcc052","notifyRewardAmount(address,uint256)":"b66503cf","numCheckpoints(address)":"6fcfff45","oFlow()":"4665b5c9","periodFinish(address)":"da09d19d","rewardPerToken(address)":"f1229777","rewardPerTokenCheckpoints(address,uint256)":"01316ddf","rewardPerTokenNumCheckpoints(address)":"aa479652","rewardPerTokenStored(address)":"9ce43f90","rewardRate(address)":"221ca18c","rewards(uint256)":"f301af42","rewardsListLength()":"e6886396","setOFlow(address)":"f00dc8ef","stake()":"3a4b66f1","supplyCheckpoints(uint256)":"f7412baf","supplyNumCheckpoints()":"e8111a12","swapOutRewardToken(uint256,address,address)":"9418f939","tokenIds(address)":"fc97a303","totalSupply()":"18160ddd","userRewardPerTokenStored(address,address)":"3ca068b6","voter()":"46c96aac","withdraw(uint256)":"2e1a7d4d","withdrawAll()":"853828b6","withdrawToken(uint256,uint256)":"fdb483c7"},"id":7}