{"abi":[{"type":"constructor","inputs":[{"name":"__ve","type":"address","internalType":"address"},{"name":"_factory","type":"address","internalType":"address"},{"name":"_gauges","type":"address","internalType":"address"},{"name":"_bribes","type":"address","internalType":"address"},{"name":"_gaugePlugin","type":"address","internalType":"address"}],"stateMutability":"nonpayable"},{"type":"function","name":"_factories","inputs":[],"outputs":[{"name":"","type":"address[]","internalType":"address[]"}],"stateMutability":"view"},{"type":"function","name":"_gaugeFactories","inputs":[],"outputs":[{"name":"","type":"address[]","internalType":"address[]"}],"stateMutability":"view"},{"type":"function","name":"_killedGauges","inputs":[],"outputs":[{"name":"","type":"address[]","internalType":"address[]"}],"stateMutability":"view"},{"type":"function","name":"_ve","inputs":[],"outputs":[{"name":"","type":"address","internalType":"address"}],"stateMutability":"view"},{"type":"function","name":"activeGaugeNumber","inputs":[],"outputs":[{"name":"","type":"uint256","internalType":"uint256"}],"stateMutability":"view"},{"type":"function","name":"addFactory","inputs":[{"name":"_pairFactory","type":"address","internalType":"address"},{"name":"_gaugeFactory","type":"address","internalType":"address"}],"outputs":[],"stateMutability":"nonpayable"},{"type":"function","name":"attachTokenToGauge","inputs":[{"name":"tokenId","type":"uint256","internalType":"uint256"},{"name":"account","type":"address","internalType":"address"}],"outputs":[],"stateMutability":"nonpayable"},{"type":"function","name":"blacklist","inputs":[{"name":"_token","type":"address","internalType":"address"}],"outputs":[],"stateMutability":"nonpayable"},{"type":"function","name":"bribefactory","inputs":[],"outputs":[{"name":"","type":"address","internalType":"address"}],"stateMutability":"view"},{"type":"function","name":"claimBribes","inputs":[{"name":"_bribes","type":"address[]","internalType":"address[]"},{"name":"_tokens","type":"address[][]","internalType":"address[][]"},{"name":"_tokenId","type":"uint256","internalType":"uint256"}],"outputs":[],"stateMutability":"nonpayable"},{"type":"function","name":"claimRewards","inputs":[{"name":"_gauges","type":"address[]","internalType":"address[]"},{"name":"_tokens","type":"address[][]","internalType":"address[][]"}],"outputs":[],"stateMutability":"nonpayable"},{"type":"function","name":"claimable","inputs":[{"name":"","type":"address","internalType":"address"}],"outputs":[{"name":"","type":"uint256","internalType":"uint256"}],"stateMutability":"view"},{"type":"function","name":"createGauge","inputs":[{"name":"_pool","type":"address","internalType":"address"},{"name":"_gaugeType","type":"uint256","internalType":"uint256"}],"outputs":[{"name":"","type":"address","internalType":"address"}],"stateMutability":"nonpayable"},{"type":"function","name":"currentEpochRewardAmount","inputs":[],"outputs":[{"name":"","type":"uint256","internalType":"uint256"}],"stateMutability":"view"},{"type":"function","name":"detachTokenFromGauge","inputs":[{"name":"tokenId","type":"uint256","internalType":"uint256"},{"name":"account","type":"address","internalType":"address"}],"outputs":[],"stateMutability":"nonpayable"},{"type":"function","name":"distribute","inputs":[{"name":"_gauges","type":"address[]","internalType":"address[]"}],"outputs":[],"stateMutability":"nonpayable"},{"type":"function","name":"distribute","inputs":[{"name":"_gauge","type":"address","internalType":"address"}],"outputs":[],"stateMutability":"nonpayable"},{"type":"function","name":"distribute","inputs":[{"name":"start","type":"uint256","internalType":"uint256"},{"name":"finish","type":"uint256","internalType":"uint256"}],"outputs":[],"stateMutability":"nonpayable"},{"type":"function","name":"distribute","inputs":[],"outputs":[],"stateMutability":"nonpayable"},{"type":"function","name":"distro","inputs":[],"outputs":[],"stateMutability":"nonpayable"},{"type":"function","name":"emergencyCouncil","inputs":[],"outputs":[{"name":"","type":"address","internalType":"address"}],"stateMutability":"view"},{"type":"function","name":"emitDeposit","inputs":[{"name":"tokenId","type":"uint256","internalType":"uint256"},{"name":"account","type":"address","internalType":"address"},{"name":"amount","type":"uint256","internalType":"uint256"}],"outputs":[],"stateMutability":"nonpayable"},{"type":"function","name":"emitWithdraw","inputs":[{"name":"tokenId","type":"uint256","internalType":"uint256"},{"name":"account","type":"address","internalType":"address"},{"name":"amount","type":"uint256","internalType":"uint256"}],"outputs":[],"stateMutability":"nonpayable"},{"type":"function","name":"external_bribes","inputs":[{"name":"","type":"address","internalType":"address"}],"outputs":[{"name":"","type":"address","internalType":"address"}],"stateMutability":"view"},{"type":"function","name":"factories","inputs":[{"name":"","type":"uint256","internalType":"uint256"}],"outputs":[{"name":"","type":"address","internalType":"address"}],"stateMutability":"view"},{"type":"function","name":"factoryLength","inputs":[],"outputs":[{"name":"","type":"uint256","internalType":"uint256"}],"stateMutability":"view"},{"type":"function","name":"gaugeFactories","inputs":[{"name":"","type":"uint256","internalType":"uint256"}],"outputs":[{"name":"","type":"address","internalType":"address"}],"stateMutability":"view"},{"type":"function","name":"gaugeFactoriesLength","inputs":[],"outputs":[{"name":"","type":"uint256","internalType":"uint256"}],"stateMutability":"view"},{"type":"function","name":"gaugePlugin","inputs":[],"outputs":[{"name":"","type":"address","internalType":"address"}],"stateMutability":"view"},{"type":"function","name":"gauges","inputs":[{"name":"","type":"address","internalType":"address"}],"outputs":[{"name":"","type":"address","internalType":"address"}],"stateMutability":"view"},{"type":"function","name":"governor","inputs":[],"outputs":[{"name":"","type":"address","internalType":"address"}],"stateMutability":"view"},{"type":"function","name":"initialize","inputs":[{"name":"_tokens","type":"address[]","internalType":"address[]"},{"name":"_minter","type":"address","internalType":"address"}],"outputs":[],"stateMutability":"nonpayable"},{"type":"function","name":"isAlive","inputs":[{"name":"","type":"address","internalType":"address"}],"outputs":[{"name":"","type":"bool","internalType":"bool"}],"stateMutability":"view"},{"type":"function","name":"isFactory","inputs":[{"name":"","type":"address","internalType":"address"}],"outputs":[{"name":"","type":"bool","internalType":"bool"}],"stateMutability":"view"},{"type":"function","name":"isGauge","inputs":[{"name":"","type":"address","internalType":"address"}],"outputs":[{"name":"","type":"bool","internalType":"bool"}],"stateMutability":"view"},{"type":"function","name":"isGaugeFactory","inputs":[{"name":"","type":"address","internalType":"address"}],"outputs":[{"name":"","type":"bool","internalType":"bool"}],"stateMutability":"view"},{"type":"function","name":"isWhitelisted","inputs":[{"name":"","type":"address","internalType":"address"}],"outputs":[{"name":"","type":"bool","internalType":"bool"}],"stateMutability":"view"},{"type":"function","name":"killGaugeTotally","inputs":[{"name":"_gauge","type":"address","internalType":"address"}],"outputs":[],"stateMutability":"nonpayable"},{"type":"function","name":"killedGauges","inputs":[{"name":"","type":"uint256","internalType":"uint256"}],"outputs":[{"name":"","type":"address","internalType":"address"}],"stateMutability":"view"},{"type":"function","name":"killedGaugesLength","inputs":[],"outputs":[{"name":"","type":"uint256","internalType":"uint256"}],"stateMutability":"view"},{"type":"function","name":"lastVoted","inputs":[{"name":"","type":"uint256","internalType":"uint256"}],"outputs":[{"name":"","type":"uint256","internalType":"uint256"}],"stateMutability":"view"},{"type":"function","name":"length","inputs":[],"outputs":[{"name":"","type":"uint256","internalType":"uint256"}],"stateMutability":"view"},{"type":"function","name":"minShareForActiveGauge","inputs":[],"outputs":[{"name":"","type":"uint256","internalType":"uint256"}],"stateMutability":"view"},{"type":"function","name":"minter","inputs":[],"outputs":[{"name":"","type":"address","internalType":"address"}],"stateMutability":"view"},{"type":"function","name":"notifyRewardAmount","inputs":[{"name":"amount","type":"uint256","internalType":"uint256"}],"outputs":[],"stateMutability":"nonpayable"},{"type":"function","name":"pauseGauge","inputs":[{"name":"_gauge","type":"address","internalType":"address"}],"outputs":[],"stateMutability":"nonpayable"},{"type":"function","name":"poke","inputs":[{"name":"_tokenId","type":"uint256","internalType":"uint256"}],"outputs":[],"stateMutability":"nonpayable"},{"type":"function","name":"poolForGauge","inputs":[{"name":"","type":"address","internalType":"address"}],"outputs":[{"name":"","type":"address","internalType":"address"}],"stateMutability":"view"},{"type":"function","name":"poolVote","inputs":[{"name":"","type":"uint256","internalType":"uint256"},{"name":"","type":"uint256","internalType":"uint256"}],"outputs":[{"name":"","type":"address","internalType":"address"}],"stateMutability":"view"},{"type":"function","name":"pools","inputs":[{"name":"","type":"uint256","internalType":"uint256"}],"outputs":[{"name":"","type":"address","internalType":"address"}],"stateMutability":"view"},{"type":"function","name":"removeFactory","inputs":[{"name":"_pos","type":"uint256","internalType":"uint256"}],"outputs":[],"stateMutability":"nonpayable"},{"type":"function","name":"replaceFactory","inputs":[{"name":"_pairFactory","type":"address","internalType":"address"},{"name":"_gaugeFactory","type":"address","internalType":"address"},{"name":"_pos","type":"uint256","internalType":"uint256"}],"outputs":[],"stateMutability":"nonpayable"},{"type":"function","name":"reset","inputs":[{"name":"_tokenId","type":"uint256","internalType":"uint256"}],"outputs":[],"stateMutability":"nonpayable"},{"type":"function","name":"restartGauge","inputs":[{"name":"_gauge","type":"address","internalType":"address"}],"outputs":[],"stateMutability":"nonpayable"},{"type":"function","name":"setBribeFactory","inputs":[{"name":"_bribeFactory","type":"address","internalType":"address"}],"outputs":[],"stateMutability":"nonpayable"},{"type":"function","name":"setEmergencyCouncil","inputs":[{"name":"_council","type":"address","internalType":"address"}],"outputs":[],"stateMutability":"nonpayable"},{"type":"function","name":"setExternalBribeFor","inputs":[{"name":"_gauge","type":"address","internalType":"address"},{"name":"_external","type":"address","internalType":"address"}],"outputs":[],"stateMutability":"nonpayable"},{"type":"function","name":"setGaugePlugin","inputs":[{"name":"_gaugePlugin","type":"address","internalType":"address"}],"outputs":[],"stateMutability":"nonpayable"},{"type":"function","name":"setGovernor","inputs":[{"name":"_governor","type":"address","internalType":"address"}],"outputs":[],"stateMutability":"nonpayable"},{"type":"function","name":"setMinShareForActiveGauge","inputs":[{"name":"_share","type":"uint256","internalType":"uint256"}],"outputs":[],"stateMutability":"nonpayable"},{"type":"function","name":"totalWeight","inputs":[],"outputs":[{"name":"","type":"uint256","internalType":"uint256"}],"stateMutability":"view"},{"type":"function","name":"updateAll","inputs":[],"outputs":[],"stateMutability":"nonpayable"},{"type":"function","name":"updateFor","inputs":[{"name":"_gauges","type":"address[]","internalType":"address[]"}],"outputs":[],"stateMutability":"nonpayable"},{"type":"function","name":"updateForRange","inputs":[{"name":"start","type":"uint256","internalType":"uint256"},{"name":"end","type":"uint256","internalType":"uint256"}],"outputs":[],"stateMutability":"nonpayable"},{"type":"function","name":"updateGauge","inputs":[{"name":"_gauge","type":"address","internalType":"address"}],"outputs":[],"stateMutability":"nonpayable"},{"type":"function","name":"usedWeights","inputs":[{"name":"","type":"uint256","internalType":"uint256"}],"outputs":[{"name":"","type":"uint256","internalType":"uint256"}],"stateMutability":"view"},{"type":"function","name":"vote","inputs":[{"name":"tokenId","type":"uint256","internalType":"uint256"},{"name":"_poolVote","type":"address[]","internalType":"address[]"},{"name":"_weights","type":"uint256[]","internalType":"uint256[]"}],"outputs":[],"stateMutability":"nonpayable"},{"type":"function","name":"votes","inputs":[{"name":"","type":"uint256","internalType":"uint256"},{"name":"","type":"address","internalType":"address"}],"outputs":[{"name":"","type":"uint256","internalType":"uint256"}],"stateMutability":"view"},{"type":"function","name":"weights","inputs":[{"name":"","type":"address","internalType":"address"}],"outputs":[{"name":"","type":"uint256","internalType":"uint256"}],"stateMutability":"view"},{"type":"function","name":"whitelist","inputs":[{"name":"_token","type":"address","internalType":"address"}],"outputs":[],"stateMutability":"nonpayable"},{"type":"event","name":"Abstained","inputs":[{"name":"tokenId","type":"uint256","indexed":false,"internalType":"uint256"},{"name":"weight","type":"uint256","indexed":false,"internalType":"uint256"}],"anonymous":false},{"type":"event","name":"Attach","inputs":[{"name":"owner","type":"address","indexed":true,"internalType":"address"},{"name":"gauge","type":"address","indexed":true,"internalType":"address"},{"name":"tokenId","type":"uint256","indexed":false,"internalType":"uint256"}],"anonymous":false},{"type":"event","name":"Blacklisted","inputs":[{"name":"blacklister","type":"address","indexed":true,"internalType":"address"},{"name":"token","type":"address","indexed":true,"internalType":"address"}],"anonymous":false},{"type":"event","name":"BlacklistedForGaugeCreation","inputs":[{"name":"blacklister","type":"address","indexed":true,"internalType":"address"},{"name":"token","type":"address","indexed":true,"internalType":"address"}],"anonymous":false},{"type":"event","name":"BribeFactorySet","inputs":[{"name":"setter","type":"address","indexed":true,"internalType":"address"},{"name":"newBribeFatory","type":"address","indexed":false,"internalType":"address"}],"anonymous":false},{"type":"event","name":"Deposit","inputs":[{"name":"lp","type":"address","indexed":true,"internalType":"address"},{"name":"gauge","type":"address","indexed":true,"internalType":"address"},{"name":"tokenId","type":"uint256","indexed":false,"internalType":"uint256"},{"name":"amount","type":"uint256","indexed":false,"internalType":"uint256"}],"anonymous":false},{"type":"event","name":"Detach","inputs":[{"name":"owner","type":"address","indexed":true,"internalType":"address"},{"name":"gauge","type":"address","indexed":true,"internalType":"address"},{"name":"tokenId","type":"uint256","indexed":false,"internalType":"uint256"}],"anonymous":false},{"type":"event","name":"DistributeReward","inputs":[{"name":"sender","type":"address","indexed":true,"internalType":"address"},{"name":"gauge","type":"address","indexed":true,"internalType":"address"},{"name":"amount","type":"uint256","indexed":false,"internalType":"uint256"}],"anonymous":false},{"type":"event","name":"ExternalBribeSet","inputs":[{"name":"setter","type":"address","indexed":true,"internalType":"address"},{"name":"gauge","type":"address","indexed":true,"internalType":"address"},{"name":"externalBribe","type":"address","indexed":false,"internalType":"address"}],"anonymous":false},{"type":"event","name":"FactoryAdded","inputs":[{"name":"setter","type":"address","indexed":true,"internalType":"address"},{"name":"pairFactory","type":"address","indexed":true,"internalType":"address"},{"name":"gaugeFactory","type":"address","indexed":true,"internalType":"address"}],"anonymous":false},{"type":"event","name":"FactoryRemoved","inputs":[{"name":"setter","type":"address","indexed":true,"internalType":"address"},{"name":"pos","type":"uint256","indexed":true,"internalType":"uint256"}],"anonymous":false},{"type":"event","name":"FactoryReplaced","inputs":[{"name":"setter","type":"address","indexed":true,"internalType":"address"},{"name":"pairFactory","type":"address","indexed":true,"internalType":"address"},{"name":"gaugeFactory","type":"address","indexed":true,"internalType":"address"},{"name":"pos","type":"uint256","indexed":false,"internalType":"uint256"}],"anonymous":false},{"type":"event","name":"GaugeCreated","inputs":[{"name":"gauge","type":"address","indexed":true,"internalType":"address"},{"name":"creator","type":"address","indexed":false,"internalType":"address"},{"name":"external_bribe","type":"address","indexed":true,"internalType":"address"},{"name":"pool","type":"address","indexed":true,"internalType":"address"}],"anonymous":false},{"type":"event","name":"GaugeKilledTotally","inputs":[{"name":"gauge","type":"address","indexed":true,"internalType":"address"}],"anonymous":false},{"type":"event","name":"GaugePaused","inputs":[{"name":"gauge","type":"address","indexed":true,"internalType":"address"}],"anonymous":false},{"type":"event","name":"GaugePluginSet","inputs":[{"name":"_gaugePlugin","type":"address","indexed":true,"internalType":"address"}],"anonymous":false},{"type":"event","name":"GaugeRestarted","inputs":[{"name":"gauge","type":"address","indexed":true,"internalType":"address"}],"anonymous":false},{"type":"event","name":"NotifyReward","inputs":[{"name":"sender","type":"address","indexed":true,"internalType":"address"},{"name":"reward","type":"address","indexed":true,"internalType":"address"},{"name":"amount","type":"uint256","indexed":false,"internalType":"uint256"}],"anonymous":false},{"type":"event","name":"Voted","inputs":[{"name":"voter","type":"address","indexed":true,"internalType":"address"},{"name":"tokenId","type":"uint256","indexed":false,"internalType":"uint256"},{"name":"weight","type":"uint256","indexed":false,"internalType":"uint256"}],"anonymous":false},{"type":"event","name":"Whitelisted","inputs":[{"name":"whitelister","type":"address","indexed":true,"internalType":"address"},{"name":"token","type":"address","indexed":true,"internalType":"address"}],"anonymous":false},{"type":"event","name":"WhitelistedForGaugeCreation","inputs":[{"name":"whitelister","type":"address","indexed":true,"internalType":"address"},{"name":"token","type":"address","indexed":true,"internalType":"address"}],"anonymous":false},{"type":"event","name":"Withdraw","inputs":[{"name":"lp","type":"address","indexed":true,"internalType":"address"},{"name":"gauge","type":"address","indexed":true,"internalType":"address"},{"name":"tokenId","type":"uint256","indexed":false,"internalType":"uint256"},{"name":"amount","type":"uint256","indexed":false,"internalType":"uint256"}],"anonymous":false}],"bytecode":{"object":"0x60c0604052662386f26fc10000600a556001601a553480156200002157600080fd5b50604051620049df380380620049df8339810160408190526200004491620001d0565b6001600160a01b03851660808190526040805163c55dae6360e01b8152905163c55dae63916004808201926020929091908290030181865afa1580156200008f573d6000803e3d6000fd5b505050506040513d601f19601f82011682018060405250810190620000b5919062000240565b6001600160a01b0390811660a05260008054600181810183557f290decd9548b62a8d60345a988386fc84ba6bc95484008f6362f93160ef3e56390910180549784166001600160a01b031998891681179091558252601860209081526040808420805460ff199081168517909155835480850185557fb10e2d527612073b26eecdfd717e6a320cf44b4afac2b0732d9fcbe2b7fa0cf6018054998716998b168a1790559784526019909152909120805490951617909355600280549284169285169290921790915560038054919092169083161790556004805482163390811790915560058054831682179055600680549092161790555062000265565b80516001600160a01b0381168114620001cb57600080fd5b919050565b600080600080600060a08688031215620001e957600080fd5b620001f486620001b3565b94506200020460208701620001b3565b93506200021460408701620001b3565b92506200022460608701620001b3565b91506200023460808701620001b3565b90509295509295909350565b6000602082840312156200025357600080fd5b6200025e82620001b3565b9392505050565b60805160a0516146dd62000302600039600081816113fb01528181611474015281816119a401528181611aa601528181612c9401528181612ccd01528181612cff015261302a01526000818161074e0152818161104e015281816110eb015281816111b5015281816114e501528181611d7001528181611ea00152818161203701528181612f7c015281816137360152613a9001526146dd6000f3fe608060405234801561001057600080fd5b50600436106104125760003560e01c806379e9382411610220578063b9a09fd511610130578063e4fc6b6d116100b8578063e9f6adfa11610087578063e9f6adfa1461098c578063ea94ee4414610994578063eff190fd146109a7578063f3594be0146109b0578063f9f92be4146109d057600080fd5b8063e4fc6b6d14610609578063e586875f1461095d578063e8f9f24014610970578063e9e0f15c1461098357600080fd5b8063d23254b4116100ff578063d23254b4146108e6578063d560b0d714610911578063daa168bd14610924578063dcd9e47a14610937578063e31c771a1461094a57600080fd5b8063b9a09fd51461089a578063c42cf535146108c3578063c448c78d146108d6578063cbadada4146108de57600080fd5b8063a61c713a116101b3578063a9b5aa7e11610182578063a9b5aa7e14610820578063aa79979b14610833578063ac4afa3814610856578063ae21c4cb14610869578063b52a31511461089257600080fd5b8063a61c713a146107c7578063a7cac846146107da578063a82029f9146107fa578063a86a366d1461080d57600080fd5b80639b19251a116101ef5780639b19251a146107795780639b6a9d721461078c5780639edfd4601461079f5780639fb5dc05146107b257600080fd5b806379e93824146107165780637ac09bf7146107365780638dd598fb1461074957806396c82e571461077057600080fd5b8063411b1f771161032657806363453ae1116102ae578063698473e31161027d578063698473e3146106b75780636ecbe38a146106ca5780637625391a146106dd5780637715ee75146106f05780637778960e1461070357600080fd5b806363453ae11461065b5780636566afad1461066e578063657021fb14610681578063672383c4146106a457600080fd5b80634c5a081c116102f55780634c5a081c1461061157806353d786931461061a578063577387b5146106225780635cd8d5f8146106355780636138889b1461064857600080fd5b8063411b1f77146105db578063462d0b2e146105ee578063470f49851461060157806347b3c6ba1461060957600080fd5b806320b1cb6f116103a957806332145f901161037857806332145f901461055f57806338752a9d146105725780633af32abf146105855780633c6b16ab146105a8578063402914f5146105bb57600080fd5b806320b1cb6f1461051357806323e1af421461052657806327e5c82314610539578063310bd74b1461054c57600080fd5b80630f04ba67116103e55780630f04ba67146104985780631703e5f9146104cb578063173de600146104ee5780631f7b6d321461050157600080fd5b806303c39b001461041757806306d6a1b21461042c57806307546172146104725780630c340a2414610485575b600080fd5b61042a610425366004613f08565b6109e3565b005b61045561043a366004613f08565b600e602052600090815260409020546001600160a01b031681565b6040516001600160a01b0390911681526020015b60405180910390f35b600454610455906001600160a01b031681565b600554610455906001600160a01b031681565b6104bb6104a6366004613f08565b60186020526000908152604090205460ff1681565b6040519015158152602001610469565b6104bb6104d9366004613f08565b60176020526000908152604090205460ff1681565b6104556104fc366004613f2c565b610c0b565b600b545b604051908152602001610469565b61042a6105213660046140a4565b610c35565b610455610534366004613f2c565b610ceb565b61042a610547366004614108565b610cfb565b61042a61055a366004613f2c565b610fec565b61042a61056d366004613f2c565b611153565b600254610455906001600160a01b031681565b6104bb610593366004613f08565b60166020526000908152604090205460ff1681565b61042a6105b6366004613f2c565b6113a3565b6105056105c9366004613f08565b601d6020526000908152604090205481565b61042a6105e9366004614149565b6114c9565b61042a6105fc366004614179565b611587565b600054610505565b61042a611602565b61050560095481565b61042a611613565b61042a610630366004613f2c565b611622565b61042a610643366004613f2c565b61187b565b61042a6106563660046141c0565b6118ab565b61042a610669366004613f08565b6118ef565b61042a61067c3660046141fd565b611b5b565b6104bb61068f366004613f08565b60196020526000908152604090205460ff1681565b6104556106b2366004613f2c565b611d0c565b61042a6106c5366004614149565b611d1c565b61042a6106d8366004613f08565b611e12565b61042a6106eb36600461422b565b611e1e565b61042a6106fe36600461424d565b611e84565b600654610455906001600160a01b031681565b610505610724366004613f2c565b60136020526000908152604090205481565b61042a610744366004614306565b611fd5565b6104557f000000000000000000000000000000000000000000000000000000000000000081565b61050560075481565b61042a610787366004613f08565b61213f565b61042a61079a36600461422b565b61215f565b61042a6107ad366004613f08565b6121c5565b6107ba612416565b60405161046991906143c4565b61042a6107d53660046143d7565b612478565b6105056107e8366004613f08565b60106020526000908152604090205481565b61042a610808366004613f08565b6124fc565b61045561081b36600461422b565b61273b565b61042a61082e366004613f08565b612773565b6104bb610841366004613f08565b60156020526000908152604090205460ff1681565b610455610864366004613f2c565b6127f3565b610455610877366004613f08565b600f602052600090815260409020546001600160a01b031681565b600154610505565b6104556108a8366004613f08565b600d602052600090815260409020546001600160a01b031681565b61042a6108d1366004613f08565b612803565b600c54610505565b6107ba61283c565b6105056108f4366004614149565b601160209081526000928352604080842090915290825290205481565b61042a61091f3660046141c0565b61289c565b61042a6109323660046141fd565b6128dc565b6104556109453660046143fe565b612935565b600354610455906001600160a01b031681565b61042a61096b366004613f08565b613391565b61042a61097e366004613f08565b6133ca565b61050560085481565b6107ba61342b565b61042a6109a23660046143d7565b61348b565b610505600a5481565b6105056109be366004613f2c565b60146020526000908152604090205481565b61042a6109de366004613f08565b6134ce565b6006546001600160a01b03163314610aba57600354604051635eca04b360e01b81523360048201526001600160a01b03838116602483015290911690635eca04b390604401602060405180830381865afa158015610a45573d6000803e3d6000fd5b505050506040513d601f19601f82011682018060405250810190610a69919061442a565b610aba5760405162461bcd60e51b815260206004820152601760248201527f5061757365206761756765206e6f7420616c6c6f77656400000000000000000060448201526064015b60405180910390fd5b6001600160a01b03811660009081526017602052604090205460ff16610af25760405162461bcd60e51b8152600401610ab19061444c565b6001600160a01b0381166000818152601760209081526040808320805460ff19169055601d82528083208390558051633a4b66f160e01b81529051929392633a4b66f1926004808401939192918290030181865afa158015610b58573d6000803e3d6000fd5b505050506040513d601f19601f82011682018060405250810190610b7c9190614478565b6040516305916c7f60e51b8152600060048201529091506001600160a01b0382169063b22d8fe090602401600060405180830381600087803b158015610bc157600080fd5b505af1925050508015610bd2575060015b506040516001600160a01b038316907f745308c08240010b7d5acf1a287fddff3bd591868cf1bc876f5f4ce80da4b22790600090a25050565b600c8181548110610c1b57600080fd5b6000918252602090912001546001600160a01b0316905081565b60005b8251811015610ce657828181518110610c5357610c53614495565b60200260200101516001600160a01b03166331279d3d33848481518110610c7c57610c7c614495565b60200260200101516040518363ffffffff1660e01b8152600401610ca19291906144ab565b600060405180830381600087803b158015610cbb57600080fd5b505af1158015610ccf573d6000803e3d6000fd5b505050508080610cde906144e5565b915050610c38565b505050565b60018181548110610c1b57600080fd5b6006546001600160a01b03163314610d255760405162461bcd60e51b8152600401610ab1906144fe565b6001600160a01b038316610d4b5760405162461bcd60e51b8152600401610ab19061452c565b6001600160a01b038216610d715760405162461bcd60e51b8152600401610ab19061452c565b60005481108015610d83575060015481105b610dc35760405162461bcd60e51b81526020600482015260116024820152705f706f73206f7574206f662072616e676560781b6044820152606401610ab1565b6001600160a01b03831660009081526018602052604090205460ff16610e1b5760405162461bcd60e51b815260206004820152600d60248201526c666163746f72792066616c736560981b6044820152606401610ab1565b6001600160a01b03821660009081526019602052604090205460ff16610e725760405162461bcd60e51b815260206004820152600c60248201526b672e666163742066616c736560a01b6044820152606401610ab1565b6000808281548110610e8657610e86614495565b6000918252602082200154600180546001600160a01b0390921693509084908110610eb357610eb3614495565b60009182526020808320909101546001600160a01b038581168452601883526040808520805460ff1990811690915591909216808552601990935290832080549091169055815490925086919085908110610f1057610f10614495565b9060005260206000200160006101000a8154816001600160a01b0302191690836001600160a01b031602179055508360018481548110610f5257610f52614495565b600091825260208083209190910180546001600160a01b0319166001600160a01b03948516179055878316808352601882526040808420805460ff199081166001908117909255958a168086526019855294829020805490961617909455925186815291929133917f3633a7f9c2b4cc760354edf1370d3cd58da11f6fbf1ef237641548407a4bd6f8910160405180910390a45050505050565b600081815260146020526040902054819062093a8061100b814261454c565b611015919061456e565b116110325760405162461bcd60e51b8152600401610ab19061458d565b60405163430c208160e01b8152336004820152602481018390527f00000000000000000000000000000000000000000000000000000000000000006001600160a01b03169063430c2081906044016020604051808303816000875af115801561109f573d6000803e3d6000fd5b505050506040513d601f19601f820116820180604052508101906110c3919061442a565b6110cc57600080fd5b6110d5826134ee565b60405163c1f0fb9f60e01b8152600481018390527f00000000000000000000000000000000000000000000000000000000000000006001600160a01b03169063c1f0fb9f90602401600060405180830381600087803b15801561113757600080fd5b505af115801561114b573d6000803e3d6000fd5b505050505050565b600081815260146020526040902054819062093a80611172814261454c565b61117c919061456e565b116111995760405162461bcd60e51b8152600401610ab19061458d565b60405163430c208160e01b8152336004820152602481018390527f00000000000000000000000000000000000000000000000000000000000000006001600160a01b03169063430c2081906044016020604051808303816000875af1158015611206573d6000803e3d6000fd5b505050506040513d601f19601f8201168201806040525081019061122a919061442a565b8061123f57506005546001600160a01b031633145b61124857600080fd5b600082815260146020908152604080832042905560128252808320805482518185028101850190935280835291929091908301828280156112b257602002820191906000526020600020905b81546001600160a01b03168152600190910190602001808311611294575b5050505050905060008151905060008167ffffffffffffffff8111156112da576112da613f45565b604051908082528060200260200182016040528015611303578160200160208202803683370190505b50905060005b828110156113905760116000878152602001908152602001600020600085838151811061133857611338614495565b60200260200101516001600160a01b03166001600160a01b031681526020019081526020016000205482828151811061137357611373614495565b602090810291909101015280611388816144e5565b915050611309565b5061139c858483613712565b5050505050565b6004546001600160a01b031633146113ec5760405162461bcd60e51b815260206004820152600c60248201526b3737ba10309036b4b73a32b960a11b6044820152606401610ab1565b600060085560098190556114227f0000000000000000000000000000000000000000000000000000000000000000333084613b27565b60075460009061143a83670de0b6b3a764000061456e565b611444919061454c565b905080156114645780601b600082825461145e91906145c4565b90915550505b6040518281526001600160a01b037f0000000000000000000000000000000000000000000000000000000000000000169033907ff70d5c697de7ea828df48e5c4573cb2194c659f1901f70110c52b066dcf50826906020015b60405180910390a35050565b811561154a57604051634c35bec560e11b8152600481018390527f00000000000000000000000000000000000000000000000000000000000000006001600160a01b03169063986b7d8a90602401600060405180830381600087803b15801561153157600080fd5b505af1158015611545573d6000803e3d6000fd5b505050505b60405182815233906001600160a01b038316907fae268d9aab12f3605f58efd74fd3801fa812b03fdb44317eb70f46dff0e19e22906020016114bd565b6004546001600160a01b0316331461159e57600080fd5b60005b82518110156115de576115cc8382815181106115bf576115bf614495565b6020026020010151613c17565b806115d6816144e5565b9150506115a1565b50600480546001600160a01b0319166001600160a01b039290921691909117905550565b600b5461161190600090611e1e565b565b600b546116119060009061215f565b6006546001600160a01b0316331461164c5760405162461bcd60e51b8152600401610ab1906144fe565b6000548110801561165e575060015481105b61169e5760405162461bcd60e51b81526020600482015260116024820152705f706f73206f7574206f662072616e676560781b6044820152606401610ab1565b60008082815481106116b2576116b2614495565b6000918252602082200154600180546001600160a01b03909216935090849081106116df576116df614495565b60009182526020808320909101546001600160a01b03858116845260189092526040909220549116915060ff166117485760405162461bcd60e51b815260206004820152600d60248201526c666163746f72792066616c736560981b6044820152606401610ab1565b6001600160a01b03811660009081526019602052604090205460ff1661179f5760405162461bcd60e51b815260206004820152600c60248201526b672e666163742066616c736560a01b6044820152606401610ab1565b60008084815481106117b3576117b3614495565b9060005260206000200160006101000a8154816001600160a01b0302191690836001600160a01b031602179055506000600184815481106117f6576117f6614495565b600091825260208083209190910180546001600160a01b0319166001600160a01b039485161790558483168252601881526040808320805460ff199081169091559385168352601990915280822080549093169092559051849133917f0b8a5f427e4dc8f150fa67b8072e1e0c1dd5a67cbb3c3e5e99fd9593f814f4129190a3505050565b6005546001600160a01b0316331461189257600080fd5b670de0b6b3a764000081106118a657600080fd5b600a55565b60005b81518110156118eb576118d98282815181106118cc576118cc614495565b60200260200101516118ef565b806118e3816144e5565b9150506118ae565b5050565b601a546001146118fe57600080fd5b6002601a55600480546040805163ed29fc1160e01b815290516001600160a01b039092169263ed29fc1192828201926020929082900301816000875af115801561194c573d6000803e3d6000fd5b505050506040513d601f19601f8201168201806040525081019061197091906145dc565b5061197a81613c8a565b6001600160a01b038181166000818152601d602052604090819020549051634cde602960e11b81527f00000000000000000000000000000000000000000000000000000000000000009093166004840152916399bcc05290602401602060405180830381865afa1580156119f2573d6000803e3d6000fd5b505050506040513d601f19601f82011682018060405250810190611a1691906145dc565b81118015611a3057506000611a2e62093a808361454c565b115b15611b52576001600160a01b0382166000908152601d6020526040812055600a54600954611a6683670de0b6b3a764000061456e565b611a70919061454c565b1115611a8f57600160086000828254611a8991906145c4565b90915550505b60405163b66503cf60e01b81526001600160a01b037f0000000000000000000000000000000000000000000000000000000000000000811660048301526024820183905283169063b66503cf90604401600060405180830381600087803b158015611af957600080fd5b505af1158015611b0d573d6000803e3d6000fd5b50506040518381526001600160a01b03851692503391507f4fa9693cae526341d334e2862ca2413b2e503f1266255f9e0869fb36e6d89b179060200160405180910390a35b50506001601a55565b6006546001600160a01b03163314611b855760405162461bcd60e51b8152600401610ab1906144fe565b6001600160a01b038216611bab5760405162461bcd60e51b8152600401610ab19061452c565b6001600160a01b038116611bd15760405162461bcd60e51b8152600401610ab19061452c565b6001600160a01b03811660009081526019602052604090205460ff1615611c285760405162461bcd60e51b815260206004820152600b60248201526a672e66616374207472756560a81b6044820152606401610ab1565b60008054600181810183557f290decd9548b62a8d60345a988386fc84ba6bc95484008f6362f93160ef3e56390910180546001600160a01b038087166001600160a01b03199283168117909355835480850185557fb10e2d527612073b26eecdfd717e6a320cf44b4afac2b0732d9fcbe2b7fa0cf6018054918716919092168117909155818452601860209081526040808620805460ff19908116871790915583875260199092528086208054909216909417905591519192909133917f5af5acd828b04c6899aa8e9823b472c3a176605a47cae52d5acc849a12ab88bc91a45050565b60008181548110610c1b57600080fd5b3360009081526015602052604090205460ff16611d3857600080fd5b3360009081526017602052604090205460ff16611d5457600080fd5b8115611dd55760405163fbd3a29d60e01b8152600481018390527f00000000000000000000000000000000000000000000000000000000000000006001600160a01b03169063fbd3a29d90602401600060405180830381600087803b158015611dbc57600080fd5b505af1158015611dd0573d6000803e3d6000fd5b505050505b60405182815233906001600160a01b038316907f60940192810a6fb3bce3fd3e2e3a13fd6ccc7605e963fb87ee971aba829989bd906020016114bd565b611e1b81613c8a565b50565b815b81811015610ce657611e72600d6000600b8481548110611e4257611e42614495565b60009182526020808320909101546001600160a01b039081168452908301939093526040909101902054166118ef565b80611e7c816144e5565b915050611e20565b60405163430c208160e01b8152336004820152602481018290527f00000000000000000000000000000000000000000000000000000000000000006001600160a01b03169063430c2081906044016020604051808303816000875af1158015611ef1573d6000803e3d6000fd5b505050506040513d601f19601f82011682018060405250810190611f15919061442a565b611f1e57600080fd5b60005b8351811015611fcf57838181518110611f3c57611f3c614495565b60200260200101516001600160a01b031663a7852afa83858481518110611f6557611f65614495565b60200260200101516040518363ffffffff1660e01b8152600401611f8a9291906145f5565b600060405180830381600087803b158015611fa457600080fd5b505af1158015611fb8573d6000803e3d6000fd5b505050508080611fc7906144e5565b915050611f21565b50505050565b600085815260146020526040902054859062093a80611ff4814261454c565b611ffe919061456e565b1161201b5760405162461bcd60e51b8152600401610ab19061458d565b60405163430c208160e01b8152336004820152602481018790527f00000000000000000000000000000000000000000000000000000000000000006001600160a01b03169063430c2081906044016020604051808303816000875af1158015612088573d6000803e3d6000fd5b505050506040513d601f19601f820116820180604052508101906120ac919061442a565b6120b557600080fd5b8382146120c157600080fd5b6000868152601460209081526040918290204290558151868202818101830190935286815261114b9289928991899182919085019084908082843760009201919091525050604080516020808a0282810182019093528982529093508992508891829185019084908082843760009201919091525061371292505050565b6005546001600160a01b0316331461215657600080fd5b611e1b81613c17565b815b81811015610ce6576121b3600d6000600b848154811061218357612183614495565b60009182526020808320909101546001600160a01b03908116845290830193909352604090910190205416613c8a565b806121bd816144e5565b915050612161565b6006546001600160a01b03163314612293576003546040516382f3d96760e01b81523360048201526001600160a01b038381166024830152909116906382f3d96790604401602060405180830381865afa158015612227573d6000803e3d6000fd5b505050506040513d601f19601f8201168201806040525081019061224b919061442a565b6122935760405162461bcd60e51b815260206004820152601960248201527814995cdd185c9d0819d85d59d9481b9bdd08185b1b1bddd959603a1b6044820152606401610ab1565b6001600160a01b03811660009081526017602052604090205460ff166122cb5760405162461bcd60e51b8152600401610ab19061444c565b6001600160a01b038181166000908152600e60209081526040808320805460178452828520805460ff19908116909155600f855283862080546001600160a01b0319908116909155835481169093556015855283862080549091169055601d8452828520859055601c8452828520859055909416808452600d909252808320805490941690935591516305916c7f60e51b81526004810191909152819063b22d8fe090602401600060405180830381600087803b15801561238b57600080fd5b505af192505050801561239c575060015b50600c805460018101825560009182527fdf6966c971051c3d54ec59162606531493a51404a002842f56009d7e5cf4a8c70180546001600160a01b0319166001600160a01b03851690811790915560405190917f3ee2da044873b7ddb31d4960187639074c5137888f359c667b947320284709c391a25050565b6060600180548060200260200160405190810160405280929190818152602001828054801561246e57602002820191906000526020600020905b81546001600160a01b03168152600190910190602001808311612450575b5050505050905090565b3360009081526015602052604090205460ff1661249457600080fd5b3360009081526017602052604090205460ff166124b057600080fd5b604080518481526020810183905233916001600160a01b038516917fdcbc1c05240f31ff3ad067ef1ee35ce4997762752e3a095284754544f4c709d791015b60405180910390a3505050565b6006546001600160a01b031633146125ca57600354604051633a674fb360e01b81523360048201526001600160a01b03838116602483015290911690633a674fb390604401602060405180830381865afa15801561255e573d6000803e3d6000fd5b505050506040513d601f19601f82011682018060405250810190612582919061442a565b6125ca5760405162461bcd60e51b815260206004820152601960248201527814995cdd185c9d0819d85d59d9481b9bdd08185b1b1bddd959603a1b6044820152606401610ab1565b6001600160a01b03811660009081526017602052604090205460ff16156126295760405162461bcd60e51b8152602060048201526013602482015272676175676520616c726561647920616c69766560681b6044820152606401610ab1565b6001600160a01b0381166000818152601760209081526040808320805460ff191660011790558051633a4b66f160e01b81529051929392633a4b66f1926004808401939192918290030181865afa158015612688573d6000803e3d6000fd5b505050506040513d601f19601f820116820180604052508101906126ac9190614478565b6040516305916c7f60e51b8152600160048201529091506001600160a01b0382169063b22d8fe090602401600060405180830381600087803b1580156126f157600080fd5b505af1925050508015612702575060015b506040516001600160a01b038316907f3b8274015fe59b73ee1fb9c5d7ad25a8f253dc8d45ebd178bfef3295240fcabd90600090a25050565b6012602052816000526040600020818154811061275757600080fd5b6000918252602090912001546001600160a01b03169150829050565b6006546001600160a01b0316331461279d5760405162461bcd60e51b8152600401610ab1906144fe565b600280546001600160a01b0319166001600160a01b03831690811790915560405190815233907f557e0f02d402561222ba54007de263881f84edad9a3877340d06e330e3400fa89060200160405180910390a250565b600b8181548110610c1b57600080fd5b6005546001600160a01b0316331461281a57600080fd5b600580546001600160a01b0319166001600160a01b0392909216919091179055565b6060600c80548060200260200160405190810160405280929190818152602001828054801561246e576020028201919060005260206000209081546001600160a01b03168152600190910190602001808311612450575050505050905090565b60005b81518110156118eb576128ca8282815181106128bd576128bd614495565b6020026020010151613c8a565b806128d4816144e5565b91505061289f565b6006546001600160a01b031633146129065760405162461bcd60e51b8152600401610ab1906144fe565b6001600160a01b03821660009081526015602052604090205460ff1661292b57600080fd5b6118eb8282613d8b565b6000805482106129775760405162461bcd60e51b815260206004820152600d60248201526c6761756765747970652062696760981b6044820152606401610ab1565b6001600160a01b038381166000908152600d602052604090205416156129c85760405162461bcd60e51b815260206004820152600660248201526565786973747360d01b6044820152606401610ab1565b60408051600380825260808201909252600091602082016060803683375050604080516002808252606082018352939450600093909250906020830190803683370190505090506000806000808781548110612a2657612a26614495565b6000918252602082200154600180546001600160a01b0390921693509089908110612a5357612a53614495565b6000918252602090912001546001600160a01b0390811691508216612a7757600080fd5b6001600160a01b038116612a8a57600080fd5b60405163e5e31b1360e01b81526001600160a01b038a811660048301526000919084169063e5e31b1390602401602060405180830381865afa158015612ad4573d6000803e3d6000fd5b505050506040513d601f19601f82011682018060405250810190612af8919061442a565b90508015612d5257896001600160a01b0316630dfe16816040518163ffffffff1660e01b81526004016020604051808303816000875af1158015612b40573d6000803e3d6000fd5b505050506040513d601f19601f82011682018060405250810190612b649190614478565b9450896001600160a01b031663d21220a76040518163ffffffff1660e01b81526004016020604051808303816000875af1158015612ba6573d6000803e3d6000fd5b505050506040513d601f19601f82011682018060405250810190612bca9190614478565b93508487600081518110612be057612be0614495565b60200260200101906001600160a01b031690816001600160a01b0316815250508387600181518110612c1457612c14614495565b60200260200101906001600160a01b031690816001600160a01b0316815250508486600081518110612c4857612c48614495565b60200260200101906001600160a01b031690816001600160a01b0316815250508386600181518110612c7c57612c7c614495565b6001600160a01b0392831660209182029290920101527f0000000000000000000000000000000000000000000000000000000000000000811690861614801590612cf85750836001600160a01b03167f00000000000000000000000000000000000000000000000000000000000000006001600160a01b031614155b15612d52577f000000000000000000000000000000000000000000000000000000000000000087600281518110612d3157612d31614495565b60200260200101906001600160a01b031690816001600160a01b0316815250505b6005546001600160a01b03163314801590612d7857506006546001600160a01b03163314155b15612e7b5780612db35760405162461bcd60e51b81526020600482015260066024820152650857dc1bdbdb60d21b6044820152606401610ab1565b600354604051634e5f46d960e01b81523360048201526001600160a01b038781166024830152868116604483015290911690634e5f46d990606401602060405180830381865afa158015612e0b573d6000803e3d6000fd5b505050506040513d601f19601f82011682018060405250810190612e2f919061442a565b612e7b5760405162461bcd60e51b815260206004820152601c60248201527f2177686974656c6973746564466f7247617567654372656174696f6e000000006044820152606401610ab1565b60008a6001600160a01b03166345a1de796040518163ffffffff1660e01b81526004016020604051808303816000875af1158015612ebd573d6000803e3d6000fd5b505050506040513d601f19601f82011682018060405250810190612ee19190614478565b90506001600160a01b038116612f67576002546040516319217c3160e21b81526001600160a01b0390911690636485f0c490612f21908b906004016143c4565b6020604051808303816000875af1158015612f40573d6000803e3d6000fd5b505050506040513d601f19601f82011682018060405250810190612f649190614478565b90505b6000836001600160a01b0316631ede5a8e8d847f0000000000000000000000000000000000000000000000000000000000000000878e6040518663ffffffff1660e01b8152600401612fbd95949392919061460e565b6020604051808303816000875af1158015612fdc573d6000803e3d6000fd5b505050506040513d601f19601f820116820180604052508101906130009190614478565b60405163095ea7b360e01b81526001600160a01b03808316600483015260001960248301529192507f00000000000000000000000000000000000000000000000000000000000000009091169063095ea7b3906044016020604051808303816000875af1158015613075573d6000803e3d6000fd5b505050506040513d601f19601f82011682018060405250810190613099919061442a565b5081600f6000836001600160a01b03166001600160a01b0316815260200190815260200160002060006101000a8154816001600160a01b0302191690836001600160a01b0316021790555080600d60008e6001600160a01b03166001600160a01b0316815260200190815260200160002060006101000a8154816001600160a01b0302191690836001600160a01b031602179055508b600e6000836001600160a01b03166001600160a01b0316815260200190815260200160002060006101000a8154816001600160a01b0302191690836001600160a01b03160217905550600160156000836001600160a01b03166001600160a01b0316815260200190815260200160002060006101000a81548160ff021916908315150217905550600160176000836001600160a01b03166001600160a01b0316815260200190815260200160002060006101000a81548160ff0219169083151502179055506131fd81613c8a565b6001600160a01b0381166000908152601d602052604090205415613235576001600160a01b0381166000908152601d60205260408120555b600b80546001810182556000919091527f0175b7a638427703f0dbe7bb9bbf987a2551717b34e79f33b5b1008d1fa01db90180546001600160a01b0319166001600160a01b038e16179055821561333c576040516305916c7f60e51b8152600160048201526001600160a01b038d169063b22d8fe090602401600060405180830381600087803b1580156132c857600080fd5b505af11580156132dc573d6000803e3d6000fd5b5050604051630ccccab360e11b81526001600160a01b0385811660048301528f16925063199995669150602401600060405180830381600087803b15801561332357600080fd5b505af1158015613337573d6000803e3d6000fd5b505050505b6040513381526001600160a01b03808e1691848216918416907f48d3c521fd0d5541640f58c6d6381eed7cb2e8c9df421ae165a4f4c2d221ee0d9060200160405180910390a49b9a5050505050505050505050565b6005546001600160a01b031633146133a857600080fd5b600680546001600160a01b0319166001600160a01b0392909216919091179055565b6005546001600160a01b031633146133e157600080fd5b600380546001600160a01b0319166001600160a01b0383169081179091556040517fdd85b4d230a78e417a24eb262c362ef554d14f26f1e05bd69ece0f1e34bd523d90600090a250565b6060600080548060200260200160405190810160405280929190818152602001828054801561246e576020028201919060005260206000209081546001600160a01b03168152600190910190602001808311612450575050505050905090565b604080518481526020810183905233916001600160a01b038516917ff341246adaac6f497bc2a656f546ab9e182111d630394f0c57c710a59a2cb56791016124ef565b6005546001600160a01b031633146134e557600080fd5b611e1b81613e52565b600081815260126020526040812080549091805b828110156136d657600084828154811061351e5761351e614495565b60009182526020808320909101548883526011825260408084206001600160a01b039092168085529190925291205490915080156136c1576001600160a01b038083166000908152600d602052604090205461357a9116613c8a565b6001600160a01b038216600090815260106020526040812080548392906135a2908490614655565b909155505060008781526011602090815260408083206001600160a01b0386168452909152812080548392906135d9908490614655565b9091555050801561367a576001600160a01b038281166000908152600d602090815260408083205484168352600f9091529081902054905163278afc8b60e21b815260048101849052602481018a9052911690639e2bf22c90604401600060405180830381600087803b15801561364f57600080fd5b505af1158015613663573d6000803e3d6000fd5b50505050808461367391906145c4565b9350613687565b6136848185614655565b93505b60408051888152602081018390527fa9f3ca5f8a9e1580edb2741e0ba560084ec72e0067ba3423f9e9327a176882db910160405180910390a15b505080806136ce906144e5565b915050613502565b5080600760008282546136e99190614655565b9091555050600084815260136020908152604080832083905560129091528120611fcf91613ec1565b61371b836134ee565b81516040516339f890b560e21b8152600481018590526000907f00000000000000000000000000000000000000000000000000000000000000006001600160a01b03169063e7e242d490602401602060405180830381865afa158015613785573d6000803e3d6000fd5b505050506040513d601f19601f820116820180604052508101906137a991906145dc565b90506000806000805b858110156137f3578681815181106137cc576137cc614495565b6020026020010151846137df91906145c4565b9350806137eb816144e5565b9150506137b2565b5060005b85811015613a7357600088828151811061381357613813614495565b6020908102919091018101516001600160a01b038082166000908152600d84526040808220549092168082526015909452205490925060ff1615613a5e576001600160a01b03811660009081526017602052604090205460ff166138895760405162461bcd60e51b8152600401610ab19061444c565b600086888b868151811061389f5761389f614495565b60200260200101516138b1919061456e565b6138bb919061454c565b60008d81526011602090815260408083206001600160a01b0388168452909152902054909150156138eb57600080fd5b806000036138f857600080fd5b61390182613c8a565b60008c815260126020908152604080832080546001810182559084528284200180546001600160a01b0319166001600160a01b03881690811790915583526010909152812080548392906139569084906145c4565b909155505060008c81526011602090815260408083206001600160a01b03871684529091528120805483929061398d9084906145c4565b90915550506001600160a01b038083166000908152600f60205260409081902054905163f320772360e01b815260048101849052602481018f905291169063f320772390604401600060405180830381600087803b1580156139ee57600080fd5b505af1158015613a02573d6000803e3d6000fd5b505050508085613a1291906145c4565b9450613a1e81876145c4565b604080518e81526020810184905291975033917fea66f58e474bc09f580000e81f31b334d171db387d0c6098ba47bd897741679b910160405180910390a2505b50508080613a6b906144e5565b9150506137f7565b508015613af55760405163fd4a77f160e01b8152600481018990527f00000000000000000000000000000000000000000000000000000000000000006001600160a01b03169063fd4a77f190602401600060405180830381600087803b158015613adc57600080fd5b505af1158015613af0573d6000803e3d6000fd5b505050505b8160076000828254613b0791906145c4565b909155505060009788526013602052604090972096909655505050505050565b6000846001600160a01b03163b11613b3e57600080fd5b604080516001600160a01b0385811660248301528481166044830152606480830185905283518084039091018152608490920183526020820180516001600160e01b03166323b872dd60e01b1790529151600092839290881691613ba2919061466c565b6000604051808303816000865af19150503d8060008114613bdf576040519150601f19603f3d011682016040523d82523d6000602084013e613be4565b606091505b5091509150818015613c0e575080511580613c0e575080806020019051810190613c0e919061442a565b61114b57600080fd5b6001600160a01b03811660009081526016602052604090205460ff1615613c3d57600080fd5b6001600160a01b038116600081815260166020526040808220805460ff191660011790555133917f6661a7108aecd07864384529117d96c319c1163e3010c01390f6b704726e07de91a350565b6001600160a01b038082166000908152600e60209081526040808320549093168083526010909152919020548015613d6a576001600160a01b0383166000908152601c602052604081208054601b549182905591613ce88383614655565b9050801561114b576000670de0b6b3a7640000613d05838761456e565b613d0f919061454c565b6001600160a01b03881660009081526017602052604090205490915060ff1615613d61576001600160a01b0387166000908152601d602052604081208054839290613d5b9084906145c4565b90915550505b50505050505050565b601b546001600160a01b0384166000908152601c6020526040902055505050565b6001600160a01b038281166000908152600f6020908152604080832080546001600160a01b031916868616908117909155600e90925291829020549151630ccccab360e11b815260048101919091529116908190631999956690602401600060405180830381600087803b158015613e0257600080fd5b505af1925050508015613e13575060015b506040516001600160a01b03838116825284169033907ebe62e0582fada1d424f6ac546ee748e1e6066b71cabe22576ef6b8b279cca5906020016124ef565b6001600160a01b03811660009081526016602052604090205460ff16613e7757600080fd5b6001600160a01b038116600081815260166020526040808220805460ff191690555133917fd36871fdf6981136f3ac0564927005901eda06f7a9dff1e8b2a1d7846b8ebb5091a350565b5080546000825590600052602060002090810190611e1b91905b80821115613eef5760008155600101613edb565b5090565b6001600160a01b0381168114611e1b57600080fd5b600060208284031215613f1a57600080fd5b8135613f2581613ef3565b9392505050565b600060208284031215613f3e57600080fd5b5035919050565b634e487b7160e01b600052604160045260246000fd5b604051601f8201601f1916810167ffffffffffffffff81118282101715613f8457613f84613f45565b604052919050565b600067ffffffffffffffff821115613fa657613fa6613f45565b5060051b60200190565b600082601f830112613fc157600080fd5b81356020613fd6613fd183613f8c565b613f5b565b82815260059290921b84018101918181019086841115613ff557600080fd5b8286015b8481101561401957803561400c81613ef3565b8352918301918301613ff9565b509695505050505050565b600082601f83011261403557600080fd5b81356020614045613fd183613f8c565b82815260059290921b8401810191818101908684111561406457600080fd5b8286015b8481101561401957803567ffffffffffffffff8111156140885760008081fd5b6140968986838b0101613fb0565b845250918301918301614068565b600080604083850312156140b757600080fd5b823567ffffffffffffffff808211156140cf57600080fd5b6140db86838701613fb0565b935060208501359150808211156140f157600080fd5b506140fe85828601614024565b9150509250929050565b60008060006060848603121561411d57600080fd5b833561412881613ef3565b9250602084013561413881613ef3565b929592945050506040919091013590565b6000806040838503121561415c57600080fd5b82359150602083013561416e81613ef3565b809150509250929050565b6000806040838503121561418c57600080fd5b823567ffffffffffffffff8111156141a357600080fd5b6141af85828601613fb0565b925050602083013561416e81613ef3565b6000602082840312156141d257600080fd5b813567ffffffffffffffff8111156141e957600080fd5b6141f584828501613fb0565b949350505050565b6000806040838503121561421057600080fd5b823561421b81613ef3565b9150602083013561416e81613ef3565b6000806040838503121561423e57600080fd5b50508035926020909101359150565b60008060006060848603121561426257600080fd5b833567ffffffffffffffff8082111561427a57600080fd5b61428687838801613fb0565b9450602086013591508082111561429c57600080fd5b506142a986828701614024565b925050604084013590509250925092565b60008083601f8401126142cc57600080fd5b50813567ffffffffffffffff8111156142e457600080fd5b6020830191508360208260051b85010111156142ff57600080fd5b9250929050565b60008060008060006060868803121561431e57600080fd5b85359450602086013567ffffffffffffffff8082111561433d57600080fd5b61434989838a016142ba565b9096509450604088013591508082111561436257600080fd5b5061436f888289016142ba565b969995985093965092949392505050565b600081518084526020808501945080840160005b838110156143b95781516001600160a01b031687529582019590820190600101614394565b509495945050505050565b602081526000613f256020830184614380565b6000806000606084860312156143ec57600080fd5b83359250602084013561413881613ef3565b6000806040838503121561441157600080fd5b823561441c81613ef3565b946020939093013593505050565b60006020828403121561443c57600080fd5b81518015158114613f2557600080fd5b60208082526012908201527119d85d59d948185b1c9958591e481919585960721b604082015260600190565b60006020828403121561448a57600080fd5b8151613f2581613ef3565b634e487b7160e01b600052603260045260246000fd5b6001600160a01b03831681526040602082018190526000906141f590830184614380565b634e487b7160e01b600052601160045260246000fd5b6000600182016144f7576144f76144cf565b5060010190565b6020808252601490820152731b9bdd08195b595c99d95b98de50dbdd5b98da5b60621b604082015260600190565b60208082526006908201526506164647220360d41b604082015260600190565b60008261456957634e487b7160e01b600052601260045260246000fd5b500490565b6000816000190483118215151615614588576145886144cf565b500290565b6020808252601e908201527f544f4b454e5f414c52454144595f564f5445445f544849535f45504f43480000604082015260600190565b600082198211156145d7576145d76144cf565b500190565b6000602082840312156145ee57600080fd5b5051919050565b8281526040602082015260006141f56040830184614380565b6001600160a01b038681168252858116602083015284166040820152821515606082015260a06080820181905260009061464a90830184614380565b979650505050505050565b600082821015614667576146676144cf565b500390565b6000825160005b8181101561468d5760208186018101518583015201614673565b8181111561469c576000828501525b50919091019291505056fea2646970667358221220f6e9ab814fb9bb0f486a685fb09cb70e5d0fe2d121933e33115941ec4d5638cf64736f6c634300080d0033","linkReferences":{}},"methodIdentifiers":{"_factories()":"e9f6adfa","_gaugeFactories()":"9fb5dc05","_killedGauges()":"cbadada4","_ve()":"8dd598fb","activeGaugeNumber()":"e9e0f15c","addFactory(address,address)":"6566afad","attachTokenToGauge(uint256,address)":"698473e3","blacklist(address)":"f9f92be4","bribefactory()":"38752a9d","claimBribes(address[],address[][],uint256)":"7715ee75","claimRewards(address[],address[][])":"20b1cb6f","claimable(address)":"402914f5","createGauge(address,uint256)":"dcd9e47a","currentEpochRewardAmount()":"4c5a081c","detachTokenFromGauge(uint256,address)":"411b1f77","distribute()":"e4fc6b6d","distribute(address)":"63453ae1","distribute(address[])":"6138889b","distribute(uint256,uint256)":"7625391a","distro()":"47b3c6ba","emergencyCouncil()":"7778960e","emitDeposit(uint256,address,uint256)":"a61c713a","emitWithdraw(uint256,address,uint256)":"ea94ee44","external_bribes(address)":"ae21c4cb","factories(uint256)":"672383c4","factoryLength()":"470f4985","gaugeFactories(uint256)":"23e1af42","gaugeFactoriesLength()":"b52a3151","gaugePlugin()":"e31c771a","gauges(address)":"b9a09fd5","governor()":"0c340a24","initialize(address[],address)":"462d0b2e","isAlive(address)":"1703e5f9","isFactory(address)":"0f04ba67","isGauge(address)":"aa79979b","isGaugeFactory(address)":"657021fb","isWhitelisted(address)":"3af32abf","killGaugeTotally(address)":"9edfd460","killedGauges(uint256)":"173de600","killedGaugesLength()":"c448c78d","lastVoted(uint256)":"f3594be0","length()":"1f7b6d32","minShareForActiveGauge()":"eff190fd","minter()":"07546172","notifyRewardAmount(uint256)":"3c6b16ab","pauseGauge(address)":"03c39b00","poke(uint256)":"32145f90","poolForGauge(address)":"06d6a1b2","poolVote(uint256,uint256)":"a86a366d","pools(uint256)":"ac4afa38","removeFactory(uint256)":"577387b5","replaceFactory(address,address,uint256)":"27e5c823","reset(uint256)":"310bd74b","restartGauge(address)":"a82029f9","setBribeFactory(address)":"a9b5aa7e","setEmergencyCouncil(address)":"e586875f","setExternalBribeFor(address,address)":"daa168bd","setGaugePlugin(address)":"e8f9f240","setGovernor(address)":"c42cf535","setMinShareForActiveGauge(uint256)":"5cd8d5f8","totalWeight()":"96c82e57","updateAll()":"53d78693","updateFor(address[])":"d560b0d7","updateForRange(uint256,uint256)":"9b6a9d72","updateGauge(address)":"6ecbe38a","usedWeights(uint256)":"79e93824","vote(uint256,address[],uint256[])":"7ac09bf7","votes(uint256,address)":"d23254b4","weights(address)":"a7cac846","whitelist(address)":"9b19251a"},"id":23}