{"abi":[{"type":"constructor","inputs":[{"name":"flow","type":"address","internalType":"address"},{"name":"weth","type":"address","internalType":"address"},{"name":"_governor","type":"address","internalType":"address"}],"stateMutability":"nonpayable"},{"type":"function","name":"blacklistForGaugeCreation","inputs":[{"name":"_token","type":"address","internalType":"address"}],"outputs":[],"stateMutability":"nonpayable"},{"type":"function","name":"checkGaugeCreationAllowance","inputs":[{"name":"caller","type":"address","internalType":"address"},{"name":"tokenA","type":"address","internalType":"address"},{"name":"tokenB","type":"address","internalType":"address"}],"outputs":[{"name":"","type":"bool","internalType":"bool"}],"stateMutability":"view"},{"type":"function","name":"checkGaugeKillAllowance","inputs":[{"name":"caller","type":"address","internalType":"address"},{"name":"gauge","type":"address","internalType":"address"}],"outputs":[{"name":"","type":"bool","internalType":"bool"}],"stateMutability":"view"},{"type":"function","name":"checkGaugePauseAllowance","inputs":[{"name":"caller","type":"address","internalType":"address"},{"name":"gauge","type":"address","internalType":"address"}],"outputs":[{"name":"","type":"bool","internalType":"bool"}],"stateMutability":"view"},{"type":"function","name":"checkGaugeRestartAllowance","inputs":[{"name":"caller","type":"address","internalType":"address"},{"name":"gauge","type":"address","internalType":"address"}],"outputs":[{"name":"","type":"bool","internalType":"bool"}],"stateMutability":"view"},{"type":"function","name":"governor","inputs":[],"outputs":[{"name":"","type":"address","internalType":"address"}],"stateMutability":"view"},{"type":"function","name":"isWhitelistedForGaugeCreation","inputs":[{"name":"","type":"address","internalType":"address"}],"outputs":[{"name":"","type":"bool","internalType":"bool"}],"stateMutability":"view"},{"type":"function","name":"owner","inputs":[],"outputs":[{"name":"","type":"address","internalType":"address"}],"stateMutability":"view"},{"type":"function","name":"renounceOwnership","inputs":[],"outputs":[],"stateMutability":"nonpayable"},{"type":"function","name":"setGovernor","inputs":[{"name":"_governor","type":"address","internalType":"address"}],"outputs":[],"stateMutability":"nonpayable"},{"type":"function","name":"transferOwnership","inputs":[{"name":"newOwner","type":"address","internalType":"address"}],"outputs":[],"stateMutability":"nonpayable"},{"type":"function","name":"whitelistForGaugeCreation","inputs":[{"name":"_token","type":"address","internalType":"address"}],"outputs":[],"stateMutability":"nonpayable"},{"type":"event","name":"BlacklistedForGaugeCreation","inputs":[{"name":"blacklister","type":"address","indexed":true,"internalType":"address"},{"name":"token","type":"address","indexed":true,"internalType":"address"}],"anonymous":false},{"type":"event","name":"GovernorSet","inputs":[{"name":"_newGovernor","type":"address","indexed":true,"internalType":"address"}],"anonymous":false},{"type":"event","name":"OwnershipTransferred","inputs":[{"name":"previousOwner","type":"address","indexed":true,"internalType":"address"},{"name":"newOwner","type":"address","indexed":true,"internalType":"address"}],"anonymous":false},{"type":"event","name":"WhitelistedForGaugeCreation","inputs":[{"name":"whitelister","type":"address","indexed":true,"internalType":"address"},{"name":"token","type":"address","indexed":true,"internalType":"address"}],"anonymous":false}],"bytecode":{"object":"0x608060405234801561001057600080fd5b506040516106d43803806106d483398101604081905261002f916100f5565b61003833610089565b600180546001600160a01b0319166001600160a01b03928316178155928116600090815260026020526040808220805460ff1990811687179091559390921681522080549091169091179055610138565b600080546001600160a01b038381166001600160a01b0319831681178455604051919092169283917f8be0079c531659141344cd1fd0a4f28419497f9722a3daafe3b4186f6b6457e09190a35050565b80516001600160a01b03811681146100f057600080fd5b919050565b60008060006060848603121561010a57600080fd5b610113846100d9565b9250610121602085016100d9565b915061012f604085016100d9565b90509250925092565b61058d806101476000396000f3fe608060405234801561001057600080fd5b50600436106100b45760003560e01c8063715018a611610071578063715018a61461015a57806382f3d967146100fe5780638da5cb5b14610162578063c42cf53514610173578063d5e42f2b14610186578063f2fde38b1461019957600080fd5b8063093dfb2e146100b95780630c340a24146100ce5780633a674fb3146100fe5780634e5f46d9146101245780635eca04b3146100fe5780636be9b63014610137575b600080fd5b6100cc6100c73660046104bf565b6101ac565b005b6001546100e1906001600160a01b031681565b6040516001600160a01b0390911681526020015b60405180910390f35b61011461010c3660046104e1565b600092915050565b60405190151581526020016100f5565b610114610132366004610514565b6101cf565b6101146101453660046104bf565b60026020526000908152604090205460ff1681565b6100cc610216565b6000546001600160a01b03166100e1565b6100cc6101813660046104bf565b61022a565b6100cc6101943660046104bf565b61027c565b6100cc6101a73660046104bf565b61029c565b6001546001600160a01b031633146101c357600080fd5b6101cc81610317565b50565b6001600160a01b03821660009081526002602052604081205460ff168061020e57506001600160a01b03821660009081526002602052604090205460ff165b949350505050565b61021e610386565b61022860006103e0565b565b610232610386565b600180546001600160a01b0319166001600160a01b0383169081179091556040517f1cbb37f5a02c38ab13773cb770fae505cce417a4d81560117389e3a9f7e001f290600090a250565b6001546001600160a01b0316331461029357600080fd5b6101cc81610430565b6102a4610386565b6001600160a01b03811661030e5760405162461bcd60e51b815260206004820152602660248201527f4f776e61626c653a206e6577206f776e657220697320746865207a65726f206160448201526564647265737360d01b60648201526084015b60405180910390fd5b6101cc816103e0565b6001600160a01b03811660009081526002602052604090205460ff1661033c57600080fd5b6001600160a01b038116600081815260026020526040808220805460ff191690555133917fa77a593a9f594596be62d80a3b4f2cb84b3ae0f1c7feaaf085e1afad858d93dc91a350565b6000546001600160a01b031633146102285760405162461bcd60e51b815260206004820181905260248201527f4f776e61626c653a2063616c6c6572206973206e6f7420746865206f776e65726044820152606401610305565b600080546001600160a01b038381166001600160a01b0319831681178455604051919092169283917f8be0079c531659141344cd1fd0a4f28419497f9722a3daafe3b4186f6b6457e09190a35050565b6001600160a01b03811660009081526002602052604090205460ff161561045657600080fd5b6001600160a01b038116600081815260026020526040808220805460ff191660011790555133917f50d4fb0cb44a41797ff0237549a16244df449af1b2455d485ff0beb74d3b648391a350565b80356001600160a01b03811681146104ba57600080fd5b919050565b6000602082840312156104d157600080fd5b6104da826104a3565b9392505050565b600080604083850312156104f457600080fd5b6104fd836104a3565b915061050b602084016104a3565b90509250929050565b60008060006060848603121561052957600080fd5b610532846104a3565b9250610540602085016104a3565b915061054e604085016104a3565b9050925092509256fea26469706673582212201d8e5339ef9695ee39be8d44349e44fcc7d922a7de46e549ea7170bdbef2278e64736f6c634300080d0033","linkReferences":{}},"methodIdentifiers":{"blacklistForGaugeCreation(address)":"093dfb2e","checkGaugeCreationAllowance(address,address,address)":"4e5f46d9","checkGaugeKillAllowance(address,address)":"82f3d967","checkGaugePauseAllowance(address,address)":"5eca04b3","checkGaugeRestartAllowance(address,address)":"3a674fb3","governor()":"0c340a24","isWhitelistedForGaugeCreation(address)":"6be9b630","owner()":"8da5cb5b","renounceOwnership()":"715018a6","setGovernor(address)":"c42cf535","transferOwnership(address)":"f2fde38b","whitelistForGaugeCreation(address)":"d5e42f2b"},"id":8}