{"abi":[{"type":"function","name":"createExternalBribe","inputs":[{"name":"allowedRewards","type":"address[]","internalType":"address[]"}],"outputs":[{"name":"","type":"address","internalType":"address"}],"stateMutability":"nonpayable"},{"type":"function","name":"last_external_bribe","inputs":[],"outputs":[{"name":"","type":"address","internalType":"address"}],"stateMutability":"view"}],"bytecode":{"object":"0x608060405234801561001057600080fd5b5061255b806100206000396000f3fe608060405234801561001057600080fd5b50600436106100365760003560e01c80636485f0c41461003b578063b0ad856f1461006a575b600080fd5b61004e610049366004610119565b61007d565b6040516001600160a01b03909116815260200160405180910390f35b60005461004e906001600160a01b031681565b6000338260405161008d906100da565b6100989291906101de565b604051809103906000f0801580156100b4573d6000803e3d6000fd5b50600080546001600160a01b0319166001600160a01b0392909216918217905592915050565b6122eb8061023b83390190565b634e487b7160e01b600052604160045260246000fd5b80356001600160a01b038116811461011457600080fd5b919050565b6000602080838503121561012c57600080fd5b823567ffffffffffffffff8082111561014457600080fd5b818501915085601f83011261015857600080fd5b81358181111561016a5761016a6100e7565b8060051b604051601f19603f8301168101818110858211171561018f5761018f6100e7565b6040529182528482019250838101850191888311156101ad57600080fd5b938501935b828510156101d2576101c3856100fd565b845293850193928501926101b2565b98975050505050505050565b6001600160a01b038381168252604060208084018290528451918401829052600092858201929091906060860190855b8181101561022c57855185168352948301949183019160010161020e565b50909897505050505050505056fe60c06040526001600b553480156200001657600080fd5b50604051620022eb380380620022eb8339810160408190526200003991620001f8565b6001600160a01b038216608081905260408051638dd598fb60e01b81529051638dd598fb916004808201926020929091908290030181865afa15801562000084573d6000803e3d6000fd5b505050506040513d601f19601f82011682018060405250810190620000aa9190620002e1565b6001600160a01b031660a05260005b8151811015620001bc5760006001600160a01b0316828281518110620000e357620000e362000306565b60200260200101516001600160a01b031614620001a75760016006600084848151811062000115576200011562000306565b60200260200101516001600160a01b03166001600160a01b0316815260200190815260200160002060006101000a81548160ff02191690831515021790555060058282815181106200016b576200016b62000306565b60209081029190910181015182546001810184556000938452919092200180546001600160a01b0319166001600160a01b039092169190911790555b80620001b3816200031c565b915050620000b9565b50505062000344565b80516001600160a01b0381168114620001dd57600080fd5b919050565b634e487b7160e01b600052604160045260246000fd5b600080604083850312156200020c57600080fd5b6200021783620001c5565b602084810151919350906001600160401b03808211156200023757600080fd5b818601915086601f8301126200024c57600080fd5b815181811115620002615762000261620001e2565b8060051b604051601f19603f83011681018181108582111715620002895762000289620001e2565b604052918252848201925083810185019189831115620002a857600080fd5b938501935b82851015620002d157620002c185620001c5565b84529385019392850192620002ad565b8096505050505050509250929050565b600060208284031215620002f457600080fd5b620002ff82620001c5565b9392505050565b634e487b7160e01b600052603260045260246000fd5b6000600182016200033d57634e487b7160e01b600052601160045260246000fd5b5060010190565b60805160a051611f49620003a260003960008181610309015281816104e801528181610c010152818161103b015261169b01526000818161020a01528181610dcf01528181610ff80152818161123601526115ae0152611f496000f3fe608060405234801561001057600080fd5b50600436106101a95760003560e01c806399bcc052116100f9578063e688639611610097578063f301af4211610071578063f301af4214610444578063f320772314610457578063f5f8d3651461046a578063f7412baf1461047d57600080fd5b8063e688639614610408578063e8111a1214610410578063f25e55a51461041957600080fd5b8063a28d4c9c116100d3578063a28d4c9c146103af578063a7852afa146103c2578063b66503cf146103d5578063da09d19d146103e857600080fd5b806399bcc052146103695780639cc7f7081461037c5780639e2bf22c1461039c57600080fd5b80634d5ce0381161016657806376f4be361161014057806376f4be36146102f15780638dd598fb1461030457806392777b291461032b5780639418f9391461035657600080fd5b80634d5ce0381461028b57806350589793146102be578063638634ee146102de57600080fd5b80630175e23b146101ae57806312a24cbb146101d457806318160ddd146101e95780633e491d47146101f257806346c96aac1461020557806349dcc20414610244575b600080fd5b6101c16101bc366004611bda565b6104a4565b6040519081526020015b60405180910390f35b6101e76101e2366004611c31565b6104e6565b005b6101c160005481565b6101c1610200366004611d02565b610903565b61022c7f000000000000000000000000000000000000000000000000000000000000000081565b6040516001600160a01b0390911681526020016101cb565b610276610252366004611d2e565b60076020908152600092835260408084209091529082529020805460019091015482565b604080519283526020830191909152016101cb565b6102ae610299366004611d50565b60066020526000908152604090205460ff1681565b60405190151581526020016101cb565b6101c16102cc366004611bda565b60086020526000908152604090205481565b6101c16102ec366004611d50565b610aa7565b6101c16102ff366004611bda565b610acb565b61022c7f000000000000000000000000000000000000000000000000000000000000000081565b6101c1610339366004611d02565b600260209081526000928352604080842090915290825290205481565b6101e7610364366004611d6d565b610bff565b6101c1610377366004611d50565b610d8b565b6101c161038a366004611bda565b60016020526000908152604090205481565b6101e76103aa366004611d2e565b610dc4565b6101c16103bd366004611d2e565b610e94565b6101e76103d0366004611c31565b610fd9565b6101e76103e3366004611d02565b6111d9565b6101c16103f6366004611d50565b60036020526000908152604090205481565b6005546101c1565b6101c1600a5481565b6101c1610427366004611d02565b600460209081526000928352604080842090915290825290205481565b61022c610452366004611bda565b611579565b6101e7610465366004611d2e565b6115a3565b6101e7610478366004611c31565b61166b565b61027661048b366004611bda565b6009602052600090815260409020805460019091015482565b6000806104b083611841565b905060006104c162093a8083611dc5565b90508084106104dc576104d78262093a80611dc5565b6104de565b815b949350505050565b7f00000000000000000000000000000000000000000000000000000000000000006001600160a01b03166385f2aef26040518163ffffffff1660e01b81526004016020604051808303816000875af1158015610546573d6000803e3d6000fd5b505050506040513d601f19601f8201168201806040525081019061056a9190611ddd565b6001600160a01b0316336001600160a01b0316146105bb5760405162461bcd60e51b81526020600482015260096024820152686f6e6c79207465616d60b81b60448201526064015b60405180910390fd5b60006105c6836104a4565b905060006009816105dd6102ff62093a8086611dc5565b81526020019081526020016000206040518060400160405290816000820154815260200160018201548152505090506106198160000151611841565b61062662093a8084611dc5565b1115610675576020810151156106755760405162461bcd60e51b8152602060048201526014602482015273746869732065706f63682068617320766f74657360601b60448201526064016105b2565b825160005b818110156108fb5760006002600087848151811061069a5761069a611dfa565b60200260200101516001600160a01b03166001600160a01b031681526020019081526020016000206000868152602001908152602001600020549050806000036107265760405162461bcd60e51b815260206004820152601860248201527f6e6f2062726962657320666f7220746869732065706f6368000000000000000060448201526064016105b2565b6000610731426104a4565b905060006002600089868151811061074b5761074b611dfa565b60200260200101516001600160a01b03166001600160a01b03168152602001908152602001600020600083815260200190815260200160002054905082816107939190611dc5565b600260008a87815181106107a9576107a9611dfa565b60200260200101516001600160a01b03166001600160a01b031681526020019081526020016000206000848152602001908152602001600020819055506000600260008a87815181106107fe576107fe611dfa565b6020908102919091018101516001600160a01b0316825281810192909252604090810160009081208b825290925290205561083c62093a8083611dc5565b600360008a878151811061085257610852611dfa565b60200260200101516001600160a01b03166001600160a01b031681526020019081526020016000208190555087848151811061089057610890611dfa565b60200260200101516001600160a01b03167f2f0115ef57ea10e148aca7cdcd12459faf11fec4747cc945b56ad984611d23988884866040516108e5939291909283526020830191909152604082015260600190565b60405180910390a283600101935050505061067a565b505050505050565b600081815260086020526040812054810361092057506000610aa1565b6001600160a01b038316600090815260046020908152604080832085845290915281205481906001908290819061095690611841565b90506109628782610e94565b600088815260076020908152604080832084845290915290205490925061099390829061098e90611841565b61185a565b9050600062093a80826109a542611841565b6109af9190611e10565b6109b99190611e3d565b90508015610a985760005b81811015610a96576109dd896103bd62093a8086611dc5565b60008a81526007602090815260408083208484529091528120600101549750909450600990610a126102ff62093a8087611dc5565b815260200190815260200160002060010154945084600014610a75576001600160a01b038a1660009081526002602090815260408083208684529091529020548590610a5e9088611e51565b610a689190611e3d565b610a729088611dc5565b96505b610a8262093a8084611dc5565b925080610a8e81611e70565b9150506109c4565b505b50939450505050505b92915050565b6001600160a01b038116600090815260036020526040812054610aa1904290611870565b600a54600090808203610ae15750600092915050565b8260096000610af1600185611e10565b81526020019081526020016000206000015411610b1a57610b13600182611e10565b9392505050565b6000805260096020527fec8156718a8372b1db44bb411437d0870f3e3790d4a08526d024ce1b0b668f6b54831015610b555750600092915050565b600080610b63600184611e10565b90505b81811115610bf75760006002610b7c8484611e10565b610b869190611e3d565b610b909083611e10565b600081815260096020908152604091829020825180840190935280548084526001909101549183019190915291925090879003610bd1575095945050505050565b8051871115610be257819350610bf0565b610bed600183611e10565b92505b5050610b66565b509392505050565b7f00000000000000000000000000000000000000000000000000000000000000006001600160a01b03166385f2aef26040518163ffffffff1660e01b81526004016020604051808303816000875af1158015610c5f573d6000803e3d6000fd5b505050506040513d601f19601f82011682018060405250810190610c839190611ddd565b6001600160a01b0316336001600160a01b031614610ccf5760405162461bcd60e51b81526020600482015260096024820152686f6e6c79207465616d60b81b60448201526064016105b2565b816001600160a01b031660058481548110610cec57610cec611dfa565b6000918252602090912001546001600160a01b031614610d0b57600080fd5b6001600160a01b03808316600090815260066020526040808220805460ff1990811690915592841682529020805490911660011790556005805482919085908110610d5857610d58611dfa565b9060005260206000200160006101000a8154816001600160a01b0302191690836001600160a01b03160217905550505050565b600080610d97426104a4565b6001600160a01b039093166000908152600260209081526040808320958352949052929092205492915050565b336001600160a01b037f00000000000000000000000000000000000000000000000000000000000000001614610df957600080fd5b81600080828254610e0a9190611e10565b909155505060008181526001602052604081208054849290610e2d908490611e10565b9091555050600081815260016020526040902054610e4c90829061187f565b610e54611958565b604080518281526020810184905233917ff279e6a1f5e320cca91135676d9cb6e44ca8a08c0b88342bcdb1144f6511b56891015b60405180910390a25050565b600082815260086020526040812054808203610eb4576000915050610aa1565b60008481526007602052604081208491610ecf600185611e10565b81526020019081526020016000206000015411610ef957610ef1600182611e10565b915050610aa1565b6000848152600760209081526040808320838052909152902054831015610f24576000915050610aa1565b600080610f32600184611e10565b90505b81811115610fd05760006002610f4b8484611e10565b610f559190611e3d565b610f5f9083611e10565b6000888152600760209081526040808320848452825291829020825180840190935280548084526001909101549183019190915291925090879003610faa57509350610aa192505050565b8051871115610fbb57819350610fc9565b610fc6600183611e10565b92505b5050610f35565b50949350505050565b600b54600114610fe857600080fd5b6002600b55336001600160a01b037f0000000000000000000000000000000000000000000000000000000000000000161461102257600080fd5b6040516331a9108f60e11b8152600481018390526000907f00000000000000000000000000000000000000000000000000000000000000006001600160a01b031690636352211e90602401602060405180830381865afa15801561108a573d6000803e3d6000fd5b505050506040513d601f19601f820116820180604052508101906110ae9190611ddd565b905060005b82518110156111ce5760006110e18483815181106110d3576110d3611dfa565b602002602001015186610903565b905042600460008685815181106110fa576110fa611dfa565b6020908102919091018101516001600160a01b03168252818101929092526040908101600090812089825290925290205580156111555761115584838151811061114657611146611dfa565b602002602001015184836119fb565b83828151811061116757611167611dfa565b60200260200101516001600160a01b0316836001600160a01b03167f9aa05b3d70a9e3e2f004f039648839560576334fb45c81f91b6db03ad9e2efc9836040516111b391815260200190565b60405180910390a350806111c681611e70565b9150506110b3565b50506001600b555050565b600b546001146111e857600080fd5b6002600b55806111f757600080fd5b6001600160a01b03821660009081526006602052604090205460ff1661133f57604051633af32abf60e01b81526001600160a01b0383811660048301527f00000000000000000000000000000000000000000000000000000000000000001690633af32abf90602401602060405180830381865afa15801561127d573d6000803e3d6000fd5b505050506040513d601f19601f820116820180604052508101906112a19190611e89565b6112ed5760405162461bcd60e51b815260206004820181905260248201527f627269626520746f6b656e73206d7573742062652077686974656c697374656460448201526064016105b2565b60055460101161133f5760405162461bcd60e51b815260206004820152601760248201527f746f6f206d616e79207265776172647320746f6b656e7300000000000000000060448201526064016105b2565b600061134a426104a4565b6001600160a01b03841660008181526002602090815260408083208584529091528082205490516370a0823160e01b8152306004820152939450929091906370a0823190602401602060405180830381865afa1580156113ae573d6000803e3d6000fd5b505050506040513d601f19601f820116820180604052508101906113d29190611eab565b90506113e085333087611aea565b6040516370a0823160e01b81523060048201526000906001600160a01b038716906370a0823190602401602060405180830381865afa158015611427573d6000803e3d6000fd5b505050506040513d601f19601f8201168201806040525081019061144b9190611eab565b90506114578282611e10565b94506114638584611dc5565b6001600160a01b038716600090815260026020908152604080832088845290915290205561149462093a8085611dc5565b6001600160a01b03871660009081526003602090815260408083209390935560069052205460ff16611526576001600160a01b0386166000818152600660205260408120805460ff191660019081179091556005805491820181559091527f036b6384b5eca791c62761152d0c79bb0604c104a5fb6f4eb0703f3154bb3db00180546001600160a01b03191690911790555b60408051858152602081018790526001600160a01b0388169133917f52977ea98a2220a03ee9ba5cb003ada08d394ea10155483c95dc2dc77a7eb24b910160405180910390a350506001600b5550505050565b6005818154811061158957600080fd5b6000918252602090912001546001600160a01b0316905081565b336001600160a01b037f000000000000000000000000000000000000000000000000000000000000000016146115d857600080fd5b816000808282546115e99190611dc5565b90915550506000818152600160205260408120805484929061160c908490611dc5565b909155505060008181526001602052604090205461162b90829061187f565b611633611958565b604080518281526020810184905233917f90890809c654f11d6e72a28fa60149770a0d11ec6c92319d6ceb2bb0a4ea1a159101610e88565b600b5460011461167a57600080fd5b6002600b5560405163430c208160e01b8152336004820152602481018390527f00000000000000000000000000000000000000000000000000000000000000006001600160a01b03169063430c2081906044016020604051808303816000875af11580156116ec573d6000803e3d6000fd5b505050506040513d601f19601f820116820180604052508101906117109190611e89565b61171957600080fd5b60005b815181101561183757600061174a83838151811061173c5761173c611dfa565b602002602001015185610903565b9050426004600085858151811061176357611763611dfa565b6020908102919091018101516001600160a01b03168252818101929092526040908101600090812088825290925290205580156117be576117be8383815181106117af576117af611dfa565b602002602001015133836119fb565b8282815181106117d0576117d0611dfa565b60200260200101516001600160a01b0316336001600160a01b03167f9aa05b3d70a9e3e2f004f039648839560576334fb45c81f91b6db03ad9e2efc98360405161181c91815260200190565b60405180910390a3508061182f81611e70565b91505061171c565b50506001600b5550565b600061185062093a8083611ec4565b610aa19083611e10565b60008183116118695781610b13565b5090919050565b60008183106118695781610b13565b600082815260086020526040902054429080158015906118c95750600084815260076020526040812083916118b5600185611e10565b815260200190815260200160002060000154145b1561190257600084815260076020526040812084916118e9600185611e10565b8152602081019190915260400160002060010155611952565b6040805180820182528381526020808201868152600088815260078352848120868252909252929020905181559051600191820155611942908290611dc5565b6000858152600860205260409020555b50505050565b600a5442811580159061198a57508060096000611976600186611e10565b815260200190815260200160002060000154145b156119bb57600054600960006001856119a39190611e10565b81526020810191909152604001600020600101555050565b604080518082018252828152600080546020808401918252868352600990529290209051815590516001918201556119f4908390611dc5565b600a555050565b6000836001600160a01b03163b11611a1257600080fd5b604080516001600160a01b038481166024830152604480830185905283518084039091018152606490920183526020820180516001600160e01b031663a9059cbb60e01b1790529151600092839290871691611a6e9190611ed8565b6000604051808303816000865af19150503d8060008114611aab576040519150601f19603f3d011682016040523d82523d6000602084013e611ab0565b606091505b5091509150818015611ada575080511580611ada575080806020019051810190611ada9190611e89565b611ae357600080fd5b5050505050565b6000846001600160a01b03163b11611b0157600080fd5b604080516001600160a01b0385811660248301528481166044830152606480830185905283518084039091018152608490920183526020820180516001600160e01b03166323b872dd60e01b1790529151600092839290881691611b659190611ed8565b6000604051808303816000865af19150503d8060008114611ba2576040519150601f19603f3d011682016040523d82523d6000602084013e611ba7565b606091505b5091509150818015611bd1575080511580611bd1575080806020019051810190611bd19190611e89565b6108fb57600080fd5b600060208284031215611bec57600080fd5b5035919050565b634e487b7160e01b600052604160045260246000fd5b6001600160a01b0381168114611c1e57600080fd5b50565b8035611c2c81611c09565b919050565b60008060408385031215611c4457600080fd5b8235915060208084013567ffffffffffffffff80821115611c6457600080fd5b818601915086601f830112611c7857600080fd5b813581811115611c8a57611c8a611bf3565b8060051b604051601f19603f83011681018181108582111715611caf57611caf611bf3565b604052918252848201925083810185019189831115611ccd57600080fd5b938501935b82851015611cf257611ce385611c21565b84529385019392850192611cd2565b8096505050505050509250929050565b60008060408385031215611d1557600080fd5b8235611d2081611c09565b946020939093013593505050565b60008060408385031215611d4157600080fd5b50508035926020909101359150565b600060208284031215611d6257600080fd5b8135610b1381611c09565b600080600060608486031215611d8257600080fd5b833592506020840135611d9481611c09565b91506040840135611da481611c09565b809150509250925092565b634e487b7160e01b600052601160045260246000fd5b60008219821115611dd857611dd8611daf565b500190565b600060208284031215611def57600080fd5b8151610b1381611c09565b634e487b7160e01b600052603260045260246000fd5b600082821015611e2257611e22611daf565b500390565b634e487b7160e01b600052601260045260246000fd5b600082611e4c57611e4c611e27565b500490565b6000816000190483118215151615611e6b57611e6b611daf565b500290565b600060018201611e8257611e82611daf565b5060010190565b600060208284031215611e9b57600080fd5b81518015158114610b1357600080fd5b600060208284031215611ebd57600080fd5b5051919050565b600082611ed357611ed3611e27565b500690565b6000825160005b81811015611ef95760208186018101518583015201611edf565b81811115611f08576000828501525b50919091019291505056fea264697066735822122091263e1b881966c1e09f34ff5018f9242820071a24da68198b4ba585062960ea64736f6c634300080d0033a26469706673582212204dc5acc4e4bc9e97b0a9eb7abd16f39c0f90380a561728378f3a6307d83cf2a364736f6c634300080d0033","linkReferences":{}},"methodIdentifiers":{"createExternalBribe(address[])":"6485f0c4","last_external_bribe()":"b0ad856f"},"id":25}