{"abi":[{"type":"constructor","inputs":[{"name":"__voter","type":"address","internalType":"address"},{"name":"__ve","type":"address","internalType":"address"},{"name":"__rewards_distributor","type":"address","internalType":"address"}],"stateMutability":"nonpayable"},{"type":"function","name":"MAX_TEAM_RATE","inputs":[],"outputs":[{"name":"","type":"uint256","internalType":"uint256"}],"stateMutability":"view"},{"type":"function","name":"_flow","inputs":[],"outputs":[{"name":"","type":"address","internalType":"contract IFlow"}],"stateMutability":"view"},{"type":"function","name":"_rewards_distributors","inputs":[{"name":"","type":"uint256","internalType":"uint256"}],"outputs":[{"name":"","type":"address","internalType":"contract IRewardsDistributor"}],"stateMutability":"view"},{"type":"function","name":"_ve","inputs":[],"outputs":[{"name":"","type":"address","internalType":"contract IVotingEscrow"}],"stateMutability":"view"},{"type":"function","name":"_voter","inputs":[],"outputs":[{"name":"","type":"address","internalType":"contract IVoter"}],"stateMutability":"view"},{"type":"function","name":"acceptTeam","inputs":[],"outputs":[],"stateMutability":"nonpayable"},{"type":"function","name":"active_period","inputs":[],"outputs":[{"name":"","type":"uint256","internalType":"uint256"}],"stateMutability":"view"},{"type":"function","name":"addRewardsDistributor","inputs":[{"name":"__rewards_distributor","type":"address","internalType":"address"}],"outputs":[],"stateMutability":"nonpayable"},{"type":"function","name":"calculate_growth","inputs":[{"name":"_minted","type":"uint256","internalType":"uint256"}],"outputs":[{"name":"","type":"uint256","internalType":"uint256"}],"stateMutability":"view"},{"type":"function","name":"circulating_supply","inputs":[],"outputs":[{"name":"","type":"uint256","internalType":"uint256"}],"stateMutability":"view"},{"type":"function","name":"pendingTeam","inputs":[],"outputs":[{"name":"","type":"address","internalType":"address"}],"stateMutability":"view"},{"type":"function","name":"removeRewardsDistributor","inputs":[{"name":"index","type":"uint256","internalType":"uint256"}],"outputs":[],"stateMutability":"nonpayable"},{"type":"function","name":"setTeam","inputs":[{"name":"_team","type":"address","internalType":"address"}],"outputs":[],"stateMutability":"nonpayable"},{"type":"function","name":"setTeamEmissionAddress","inputs":[{"name":"_teamEmissions","type":"address","internalType":"address"}],"outputs":[],"stateMutability":"nonpayable"},{"type":"function","name":"setTeamRate","inputs":[{"name":"_teamRate","type":"uint256","internalType":"uint256"}],"outputs":[],"stateMutability":"nonpayable"},{"type":"function","name":"setWeeklyEmissionPerGauge","inputs":[{"name":"_weeklyPerGauge","type":"uint256","internalType":"uint256"}],"outputs":[],"stateMutability":"nonpayable"},{"type":"function","name":"startActivePeriod","inputs":[],"outputs":[],"stateMutability":"nonpayable"},{"type":"function","name":"team","inputs":[],"outputs":[{"name":"","type":"address","internalType":"address"}],"stateMutability":"view"},{"type":"function","name":"teamEmissions","inputs":[],"outputs":[{"name":"","type":"address","internalType":"address"}],"stateMutability":"view"},{"type":"function","name":"teamRate","inputs":[],"outputs":[{"name":"","type":"uint256","internalType":"uint256"}],"stateMutability":"view"},{"type":"function","name":"update_period","inputs":[],"outputs":[{"name":"","type":"uint256","internalType":"uint256"}],"stateMutability":"nonpayable"},{"type":"function","name":"weeklyPerGauge","inputs":[],"outputs":[{"name":"","type":"uint256","internalType":"uint256"}],"stateMutability":"view"},{"type":"function","name":"weekly_emission","inputs":[],"outputs":[{"name":"","type":"uint256","internalType":"uint256"}],"stateMutability":"view"},{"type":"event","name":"EmissionPerGaugeSet","inputs":[{"name":"emissionPerGauge","type":"uint256","indexed":false,"internalType":"uint256"}],"anonymous":false},{"type":"event","name":"Mint","inputs":[{"name":"sender","type":"address","indexed":true,"internalType":"address"},{"name":"weekly","type":"uint256","indexed":false,"internalType":"uint256"},{"name":"circulating_supply","type":"uint256","indexed":false,"internalType":"uint256"}],"anonymous":false}],"bytecode":{"object":"0x60e0604052686c6b935b8bbd4000006001553480156200001e57600080fd5b50604051620012513803806200125183398101604081905262000041916200019a565b60038054336001600160a01b031991821681179092556004805482168317815560058054909216909217905560326007556040805163c55dae6360e01b815290516001600160a01b0385169263c55dae63928082019260209290918290030181865afa158015620000b6573d6000803e3d6000fd5b505050506040513d601f19601f82011682018060405250810190620000dc9190620001e4565b6001600160a01b0390811660805283811660a05282811660c052600080546001810182559080527f290decd9548b62a8d60345a988386fc84ba6bc95484008f6362f93160ef3e5630180546001600160a01b03191691831691909117905562093a80806200014c8160026200021f565b62000158904262000241565b6200016491906200025c565b6200017091906200021f565b600255506200027f915050565b80516001600160a01b03811681146200019557600080fd5b919050565b600080600060608486031215620001b057600080fd5b620001bb846200017d565b9250620001cb602085016200017d565b9150620001db604085016200017d565b90509250925092565b600060208284031215620001f757600080fd5b62000202826200017d565b9392505050565b634e487b7160e01b600052601160045260246000fd5b60008160001904831182151516156200023c576200023c62000209565b500290565b6000821982111562000257576200025762000209565b500190565b6000826200027a57634e487b7160e01b600052601260045260246000fd5b500490565b60805160a05160c051610f63620002ee6000396000818161026f01526107750152600081816101d3015281816106cb01528181610b1c0152610bcf0152600081816102ef015281816107f70152818161093c015281816109bb01528181610a850152610b4b0152610f636000f3fe608060405234801561001057600080fd5b506004361061014d5760003560e01c80638489973a116100c3578063cfc6c8ff1161007c578063cfc6c8ff146102b6578063d1399608146102be578063e038c75a146102c7578063ed29fc11146102cf578063f4792c43146102d7578063fe75cac5146102ea57600080fd5b80638489973a1461024f57806385f2aef2146102575780638dd598fb1461026a5780638e01fbfa14610291578063aae0ca61146102a5578063b5cc143a146102ae57600080fd5b80632e8f7b1f116101155780632e8f7b1f146101bb5780633db9b42a146101ce57806356aaee2d1461020d57806359d46ffc146102205780637293e75d1461023357806378ef7f021461024657600080fd5b806301c8e6fd1461015257806303f252ad1461016d578063095cf5c6146101825780631efb3a4b146101955780632dd16a6a146101a8575b600080fd5b61015a603281565b6040519081526020015b60405180910390f35b61018061017b366004610dbc565b610311565b005b610180610190366004610dbc565b610366565b6101806101a3366004610dec565b6103b2565b6101806101b6366004610dec565b610483565b6101806101c9366004610dec565b6104e8565b6101f57f000000000000000000000000000000000000000000000000000000000000000081565b6040516001600160a01b039091168152602001610164565b61018061021b366004610dbc565b610558565b6006546101f5906001600160a01b031681565b6005546101f5906001600160a01b031681565b61015a60075481565b6101806105d1565b6004546101f5906001600160a01b031681565b6101f57f000000000000000000000000000000000000000000000000000000000000000081565b61015a61029f366004610dec565b50600090565b61015a60015481565b61018061064a565b61015a6106c6565b61015a60025481565b61015a610771565b61015a610886565b6101f56102e5366004610dec565b610c89565b6101f57f000000000000000000000000000000000000000000000000000000000000000081565b6004546001600160a01b031633146103445760405162461bcd60e51b815260040161033b90610e05565b60405180910390fd5b600580546001600160a01b0319166001600160a01b0392909216919091179055565b6004546001600160a01b031633146103905760405162461bcd60e51b815260040161033b90610e05565b600680546001600160a01b0319166001600160a01b0392909216919091179055565b6004546001600160a01b031633146103dc5760405162461bcd60e51b815260040161033b90610e05565b600080546103ec90600190610e3d565b815481106103fc576103fc610e54565b600091825260208220015481546001600160a01b0390911691908390811061042657610426610e54565b6000918252602082200180546001600160a01b0319166001600160a01b03939093169290921790915580548061045e5761045e610e6a565b600082815260209020810160001990810180546001600160a01b031916905501905550565b6004546001600160a01b031633146104ad5760405162461bcd60e51b815260040161033b90610e05565b60018190556040518181527fd4e52a61b640952d88d3bf331dc53ed1acde43e6210c83c288696a8e0f1c16979060200160405180910390a150565b6004546001600160a01b031633146105125760405162461bcd60e51b815260040161033b90610e05565b60328111156105535760405162461bcd60e51b815260206004820152600d60248201526c0e4c2e8ca40e8dede40d0d2ced609b1b604482015260640161033b565b600755565b6004546001600160a01b031633146105825760405162461bcd60e51b815260040161033b90610e05565b600080546001810182559080527f290decd9548b62a8d60345a988386fc84ba6bc95484008f6362f93160ef3e5630180546001600160a01b0319166001600160a01b0392909216919091179055565b6003546001600160a01b0316331461061d5760405162461bcd60e51b815260206004820152600f60248201526e3737ba1034b734ba34b0b634bd32b960891b604482015260640161033b565b600380546001600160a01b031916905562093a8061063b8142610e80565b6106459190610ea2565b600255565b6006546001600160a01b031633146106975760405162461bcd60e51b815260206004820152601060248201526f6e6f742070656e64696e67207465616d60801b604482015260640161033b565b600654600480546001600160a01b039092166001600160a01b0319928316811790915560058054909216179055565b6000807f00000000000000000000000000000000000000000000000000000000000000006001600160a01b031663e9e0f15c6040518163ffffffff1660e01b8152600401602060405180830381865afa158015610727573d6000803e3d6000fd5b505050506040513d601f19601f8201168201806040525081019061074b9190610ec1565b90508060000361075d57505060015490565b8060015461076b9190610ea2565b91505090565b60007f00000000000000000000000000000000000000000000000000000000000000006001600160a01b03166318160ddd6040518163ffffffff1660e01b8152600401602060405180830381865afa1580156107d1573d6000803e3d6000fd5b505050506040513d601f19601f820116820180604052508101906107f59190610ec1565b7f00000000000000000000000000000000000000000000000000000000000000006001600160a01b03166318160ddd6040518163ffffffff1660e01b8152600401602060405180830381865afa158015610853573d6000803e3d6000fd5b505050506040513d601f19601f820116820180604052508101906108779190610ec1565b6108819190610e3d565b905090565b60025460009061089962093a8082610eda565b42101580156108b157506003546001600160a01b0316155b15610c845762093a806108c48142610e80565b6108ce9190610ea2565b6002819055905060006108df6106c6565b905060006007546103e86108f39190610e3d565b826007546109019190610ea2565b61090b9190610e80565b905060006109198284610eda565b6040516370a0823160e01b81523060048201529091506000906001600160a01b037f000000000000000000000000000000000000000000000000000000000000000016906370a0823190602401602060405180830381865afa158015610983573d6000803e3d6000fd5b505050506040513d601f19601f820116820180604052508101906109a79190610ec1565b905081811015610a5c576001600160a01b037f0000000000000000000000000000000000000000000000000000000000000000166340c10f19306109eb8486610e3d565b6040516001600160e01b031960e085901b1681526001600160a01b03909216600483015260248201526044016020604051808303816000875af1158015610a36573d6000803e3d6000fd5b505050506040513d601f19601f82011682018060405250810190610a5a9190610ef2565b505b60055460405163a9059cbb60e01b81526001600160a01b039182166004820152602481018590527f00000000000000000000000000000000000000000000000000000000000000009091169063a9059cbb906044016020604051808303816000875af1158015610ad0573d6000803e3d6000fd5b505050506040513d601f19601f82011682018060405250810190610af49190610ef2565b610afd57600080fd5b610b05610cb3565b60405163095ea7b360e01b81526001600160a01b037f000000000000000000000000000000000000000000000000000000000000000081166004830152602482018690527f0000000000000000000000000000000000000000000000000000000000000000169063095ea7b3906044016020604051808303816000875af1158015610b94573d6000803e3d6000fd5b505050506040513d601f19601f82011682018060405250810190610bb89190610ef2565b50604051633c6b16ab60e01b8152600481018590527f00000000000000000000000000000000000000000000000000000000000000006001600160a01b031690633c6b16ab90602401600060405180830381600087803b158015610c1b57600080fd5b505af1158015610c2f573d6000803e3d6000fd5b50505050336001600160a01b03167f4c209b5fc8ad50758f13e2e1088ba56a560dff690a1c6fef26394f4c03821c4f85610c67610771565b6040805192835260208301919091520160405180910390a2505050505b919050565b60008181548110610c9957600080fd5b6000918252602090912001546001600160a01b0316905081565b60005b600054811015610db95760008181548110610cd357610cd3610e54565b60009182526020822001546040805163408d207f60e11b815290516001600160a01b039092169263811a40fe9260048084019382900301818387803b158015610d1b57600080fd5b505af1158015610d2f573d6000803e3d6000fd5b5050505060008181548110610d4657610d46610e54565b60009182526020822001546040805163590f6a8160e11b815290516001600160a01b039092169263b21ed5029260048084019382900301818387803b158015610d8e57600080fd5b505af1158015610da2573d6000803e3d6000fd5b505050508080610db190610f14565b915050610cb6565b50565b600060208284031215610dce57600080fd5b81356001600160a01b0381168114610de557600080fd5b9392505050565b600060208284031215610dfe57600080fd5b5035919050565b6020808252600890820152676e6f74207465616d60c01b604082015260600190565b634e487b7160e01b600052601160045260246000fd5b600082821015610e4f57610e4f610e27565b500390565b634e487b7160e01b600052603260045260246000fd5b634e487b7160e01b600052603160045260246000fd5b600082610e9d57634e487b7160e01b600052601260045260246000fd5b500490565b6000816000190483118215151615610ebc57610ebc610e27565b500290565b600060208284031215610ed357600080fd5b5051919050565b60008219821115610eed57610eed610e27565b500190565b600060208284031215610f0457600080fd5b81518015158114610de557600080fd5b600060018201610f2657610f26610e27565b506001019056fea26469706673582212207e544930fa00df1149f8bee3429a6eaaec3f37bc1ce9d03d4128eda6684929cd64736f6c634300080d0033","linkReferences":{}},"methodIdentifiers":{"MAX_TEAM_RATE()":"01c8e6fd","_flow()":"fe75cac5","_rewards_distributors(uint256)":"f4792c43","_ve()":"8dd598fb","_voter()":"3db9b42a","acceptTeam()":"b5cc143a","active_period()":"d1399608","addRewardsDistributor(address)":"56aaee2d","calculate_growth(uint256)":"8e01fbfa","circulating_supply()":"e038c75a","pendingTeam()":"59d46ffc","removeRewardsDistributor(uint256)":"1efb3a4b","setTeam(address)":"095cf5c6","setTeamEmissionAddress(address)":"03f252ad","setTeamRate(uint256)":"2e8f7b1f","setWeeklyEmissionPerGauge(uint256)":"2dd16a6a","startActivePeriod()":"8489973a","team()":"85f2aef2","teamEmissions()":"7293e75d","teamRate()":"78ef7f02","update_period()":"ed29fc11","weeklyPerGauge()":"aae0ca61","weekly_emission()":"cfc6c8ff"},"id":12}