{"abi":[{"type":"function","name":"attachTokenToGauge","inputs":[{"name":"tokenId","type":"uint256","internalType":"uint256"},{"name":"account","type":"address","internalType":"address"}],"outputs":[],"stateMutability":"nonpayable"},{"type":"function","name":"detachTokenFromGauge","inputs":[{"name":"tokenId","type":"uint256","internalType":"uint256"},{"name":"account","type":"address","internalType":"address"}],"outputs":[],"stateMutability":"nonpayable"},{"type":"function","name":"distribute","inputs":[{"name":"_gauge","type":"address","internalType":"address"}],"outputs":[],"stateMutability":"nonpayable"},{"type":"function","name":"emitDeposit","inputs":[{"name":"tokenId","type":"uint256","internalType":"uint256"},{"name":"account","type":"address","internalType":"address"},{"name":"amount","type":"uint256","internalType":"uint256"}],"outputs":[],"stateMutability":"nonpayable"},{"type":"function","name":"emitWithdraw","inputs":[{"name":"tokenId","type":"uint256","internalType":"uint256"},{"name":"account","type":"address","internalType":"address"},{"name":"amount","type":"uint256","internalType":"uint256"}],"outputs":[],"stateMutability":"nonpayable"},{"type":"function","name":"isWhitelisted","inputs":[{"name":"","type":"address","internalType":"address"}],"outputs":[{"name":"","type":"bool","internalType":"bool"}],"stateMutability":"pure"}],"bytecode":{"object":"0x608060405234801561001057600080fd5b5061019c806100206000396000f3fe608060405234801561001057600080fd5b50600436106100625760003560e01c80633af32abf14610067578063411b1f771461008f57806363453ae1146100a3578063698473e31461008f578063a61c713a146100b4578063ea94ee44146100b4575b600080fd5b61007b6100753660046100e3565b50600190565b604051901515815260200160405180910390f35b6100a161009d366004610105565b5050565b005b6100a16100b13660046100e3565b50565b6100a16100c2366004610131565b505050565b80356001600160a01b03811681146100de57600080fd5b919050565b6000602082840312156100f557600080fd5b6100fe826100c7565b9392505050565b6000806040838503121561011857600080fd5b82359150610128602084016100c7565b90509250929050565b60008060006060848603121561014657600080fd5b83359250610156602085016100c7565b915060408401359050925092509256fea2646970667358221220e050a751717207e3cff2a2801ad5e77e5acce9fde1492ac826fb0bf4698950bd64736f6c634300080d0033","linkReferences":{}},"methodIdentifiers":{"attachTokenToGauge(uint256,address)":"698473e3","detachTokenFromGauge(uint256,address)":"411b1f77","distribute(address)":"63453ae1","emitDeposit(uint256,address,uint256)":"a61c713a","emitWithdraw(uint256,address,uint256)":"ea94ee44","isWhitelisted(address)":"3af32abf"},"id":121}