{"abi":[{"type":"constructor","inputs":[{"name":"_stakingToken","type":"address","internalType":"address"},{"name":"_rewardsToken","type":"address","internalType":"address"}],"stateMutability":"nonpayable"},{"type":"function","name":"_balances","inputs":[{"name":"","type":"address","internalType":"address"}],"outputs":[{"name":"","type":"uint256","internalType":"uint256"}],"stateMutability":"view"},{"type":"function","name":"earned","inputs":[{"name":"account","type":"address","internalType":"address"}],"outputs":[{"name":"","type":"uint256","internalType":"uint256"}],"stateMutability":"view"},{"type":"function","name":"getReward","inputs":[],"outputs":[],"stateMutability":"nonpayable"},{"type":"function","name":"lastTimeRewardApplicable","inputs":[],"outputs":[{"name":"","type":"uint256","internalType":"uint256"}],"stateMutability":"view"},{"type":"function","name":"lastUpdateTime","inputs":[],"outputs":[{"name":"","type":"uint256","internalType":"uint256"}],"stateMutability":"view"},{"type":"function","name":"notifyRewardAmount","inputs":[{"name":"reward","type":"uint256","internalType":"uint256"}],"outputs":[],"stateMutability":"nonpayable"},{"type":"function","name":"periodFinish","inputs":[],"outputs":[{"name":"","type":"uint256","internalType":"uint256"}],"stateMutability":"view"},{"type":"function","name":"rewardPerToken","inputs":[],"outputs":[{"name":"","type":"uint256","internalType":"uint256"}],"stateMutability":"view"},{"type":"function","name":"rewardPerTokenStored","inputs":[],"outputs":[{"name":"","type":"uint256","internalType":"uint256"}],"stateMutability":"view"},{"type":"function","name":"rewardRate","inputs":[],"outputs":[{"name":"","type":"uint256","internalType":"uint256"}],"stateMutability":"view"},{"type":"function","name":"rewards","inputs":[{"name":"","type":"address","internalType":"address"}],"outputs":[{"name":"","type":"uint256","internalType":"uint256"}],"stateMutability":"view"},{"type":"function","name":"rewardsDuration","inputs":[],"outputs":[{"name":"","type":"uint256","internalType":"uint256"}],"stateMutability":"view"},{"type":"function","name":"rewardsToken","inputs":[],"outputs":[{"name":"","type":"address","internalType":"contract IERC20"}],"stateMutability":"view"},{"type":"function","name":"stake","inputs":[{"name":"_amount","type":"uint256","internalType":"uint256"}],"outputs":[],"stateMutability":"nonpayable"},{"type":"function","name":"stakingToken","inputs":[],"outputs":[{"name":"","type":"address","internalType":"contract IERC20"}],"stateMutability":"view"},{"type":"function","name":"totalSupply","inputs":[],"outputs":[{"name":"","type":"uint256","internalType":"uint256"}],"stateMutability":"view"},{"type":"function","name":"userRewardPerTokenPaid","inputs":[{"name":"","type":"address","internalType":"address"}],"outputs":[{"name":"","type":"uint256","internalType":"uint256"}],"stateMutability":"view"},{"type":"function","name":"withdraw","inputs":[{"name":"_amount","type":"uint256","internalType":"uint256"}],"outputs":[],"stateMutability":"nonpayable"}],"bytecode":{"object":"0x60806040526064600255600060055562093a8060065534801561002157600080fd5b506040516109423803806109428339810160408190526100409161008d565b600180546001600160a01b039384166001600160a01b031991821617909155600080549290931691161790556100c0565b80516001600160a01b038116811461008857600080fd5b919050565b600080604083850312156100a057600080fd5b6100a983610071565b91506100b760208401610071565b90509250929050565b610873806100cf6000396000f3fe608060405234801561001057600080fd5b50600436106101155760003560e01c80637b0a47ee116100a2578063c8f33c9111610071578063c8f33c9114610230578063cd3daf9d14610239578063d1af0c7d14610241578063df136d6514610254578063ebe2b12b1461025d57600080fd5b80637b0a47ee146101ec57806380faa57d146101f55780638b876347146101fd578063a694fc3a1461021d57600080fd5b8063386a9525116100e9578063386a95251461017d5780633c6b16ab146101865780633d18b912146101995780636ebcf607146101a157806372f702f3146101c157600080fd5b80628cc2621461011a5780630700037d1461014057806318160ddd146101605780632e1a7d4d14610168575b600080fd5b61012d61012836600461074c565b610266565b6040519081526020015b60405180910390f35b61012d61014e36600461074c565b60086020526000908152604090205481565b60095461012d565b61017b61017636600461077c565b6102e3565b005b61012d60065481565b61017b61019436600461077c565b6103fc565b61017b610555565b61012d6101af36600461074c565b600a6020526000908152604090205481565b6001546101d4906001600160a01b031681565b6040516001600160a01b039091168152602001610137565b61012d60025481565b61012d6105ff565b61012d61020b36600461074c565b60076020526000908152604090205481565b61017b61022b36600461077c565b610618565b61012d60035481565b61012d6106eb565b6000546101d4906001600160a01b031681565b61012d60045481565b61012d60055481565b6001600160a01b0381166000908152600860209081526040808320546007909252822054670de0b6b3a76400009061029c6106eb565b6102a691906107ab565b6001600160a01b0385166000908152600a60205260409020546102c991906107c2565b6102d391906107e1565b6102dd9190610803565b92915050565b336102ec6106eb565b6004556102f76105ff565b6003556001600160a01b0381161561033e5761031281610266565b6001600160a01b0382166000908152600860209081526040808320939093556004546007909152919020555b816009600082825461035091906107ab565b9091555050336000908152600a6020526040812080548492906103749084906107ab565b909155505060015460405163a9059cbb60e01b8152336004820152602481018490526001600160a01b039091169063a9059cbb906044015b6020604051808303816000875af11580156103cb573d6000803e3d6000fd5b505050506040513d601f19601f820116820180604052508101906103ef919061081b565b6103f857600080fd5b5050565b60006104066106eb565b6004556104116105ff565b6003556001600160a01b038116156104585761042c81610266565b6001600160a01b0382166000908152600860209081526040808320939093556004546007909152919020555b6000546040516323b872dd60e01b8152336004820152306024820152604481018490526001600160a01b03909116906323b872dd906064016020604051808303816000875af11580156104af573d6000803e3d6000fd5b505050506040513d601f19601f820116820180604052508101906104d3919061081b565b6104dc57600080fd5b60055442106104fa576006546104f290836107e1565b60025561053c565b60004260055461050a91906107ab565b905060006002548261051c91906107c2565b60065490915061052c8286610803565b61053691906107e1565b60025550505b42600381905560065461054e91610803565b6005555050565b3361055e6106eb565b6004556105696105ff565b6003556001600160a01b038116156105b05761058481610266565b6001600160a01b0382166000908152600860209081526040808320939093556004546007909152919020555b336000818152600860205260408082208054908390559154905163a9059cbb60e01b815260048101939093526024830182905290916001600160a01b039091169063a9059cbb906044016103ac565b60006005544210610611575060055490565b425b905090565b336106216106eb565b60045561062c6105ff565b6003556001600160a01b038116156106735761064781610266565b6001600160a01b0382166000908152600860209081526040808320939093556004546007909152919020555b81600960008282546106859190610803565b9091555050336000908152600a6020526040812080548492906106a9908490610803565b90915550506001546040516323b872dd60e01b8152336004820152306024820152604481018490526001600160a01b03909116906323b872dd906064016103ac565b60006009546000036106fe575060045490565b60095460025460035461070f6105ff565b61071991906107ab565b61072391906107c2565b61073590670de0b6b3a76400006107c2565b61073f91906107e1565b6004546106139190610803565b60006020828403121561075e57600080fd5b81356001600160a01b038116811461077557600080fd5b9392505050565b60006020828403121561078e57600080fd5b5035919050565b634e487b7160e01b600052601160045260246000fd5b6000828210156107bd576107bd610795565b500390565b60008160001904831182151516156107dc576107dc610795565b500290565b6000826107fe57634e487b7160e01b600052601260045260246000fd5b500490565b6000821982111561081657610816610795565b500190565b60006020828403121561082d57600080fd5b8151801515811461077557600080fdfea264697066735822122038adb39dababbd8ba3108028418f97a2a487bbabe0b18129ef3bd76a449106f364736f6c634300080d0033","linkReferences":{}},"methodIdentifiers":{"_balances(address)":"6ebcf607","earned(address)":"008cc262","getReward()":"3d18b912","lastTimeRewardApplicable()":"80faa57d","lastUpdateTime()":"c8f33c91","notifyRewardAmount(uint256)":"3c6b16ab","periodFinish()":"ebe2b12b","rewardPerToken()":"cd3daf9d","rewardPerTokenStored()":"df136d65","rewardRate()":"7b0a47ee","rewards(address)":"0700037d","rewardsDuration()":"386a9525","rewardsToken()":"d1af0c7d","stake(uint256)":"a694fc3a","stakingToken()":"72f702f3","totalSupply()":"18160ddd","userRewardPerTokenPaid(address)":"8b876347","withdraw(uint256)":"2e1a7d4d"},"id":119}